S012000043414D636F6E74726F6C2E7372656340
S11300000C9448000C9465000C9465000C946500F5
S11300100C9465000C9465000C9465000C946500C8
S11300200C9465000C9465000C9465000C946500B8
S11300300C9465000C94C20F0C9465000C9465003C
S11300400C9465000C9465000C9477130C94650073
S11300500C9465000C9465000C9465000C94650088
S11300600C9465000C946500070D0A0D0D0D100D20
S1130070130D160D1C0D190D1F0D220D250D280D28
S1130080350D380D3B0D3E0D410D440D4A0D470D08
S113009011241FBECFEFD4E0DEBFCDBF12E0A0E03D
S11300A0B1E0E6EEF8E202C005900D92A237B10786
S11300B0D9F723E0A2E7B2E001C01D92A433B2074E
S11300C0E1F70E94BD070C9471140C9400008EE2B9
S11300D0E2E9F2E0DF01982F1D929A95E9F7DF013A
S11300E01D928A95E9F780EF91E09183808386E001
S11300F08093940281E08093950266E080EF91E022
S11301000E94F31308958EE2E2E9F2E0DF01982FF2
S11301101D929A95E9F7DF011D928A95E9F78AEE17
S113012091E09183808386E08093940281E08093C0
S1130130950266E08AEE91E00E94F31308958EE240
S1130140E2E9F2E0DF01982F1D929A95E9F7DF01C9
S11301501D928A95E9F784EE91E09183808386E08D
S11301608093940281E08093950266E084EE91E0AE
S11301700E94F3130895CF93DF938EE2A2E9B2E0D5
S1130180ED01E82F1992EA95E9F7EBEDF1E0ED01C5
S113019019928A95E9F7ED93FC9389E08093940290
S11301A081E080939502A091C402B0E0AA0FBB1F26
S11301B0AA50BE4F8D919C9111979093CD0280933C
S11301C0CC029C012227307F232F22952F70248379
S11301D09C0122273F703583807F992792958295D1
S11301E08F7089279F70892786838C918F7087836E
S11301F069E0CF010E94F313DF91CF9108958EE25D
S1130200E2E9F2E0DF01982F1D929A95E9F7DF0108
S11302101D928A95E9F785ED91E09183808386E0CC
S11302208093940281E08093950266E085ED91E0ED
S11302300E94F31308958EE2E2E9F2E0DF01982FC1
S11302401D929A95E9F7DF011D928A95E9F78FECE3
S113025091E09183808386E08093940281E080938F
S1130260950266E08FEC91E00E94F31308958EE20C
S1130270E2E9F2E0DF01982F1D929A95E9F7DF0198
S11302801D928A95E9F789EC91E09183808386E059
S11302908093940281E08093950266E089EC91E07A
S11302A00E94F31308958EE2E2E9F2E0DF01982F51
S11302B01D929A95E9F7DF011D928A95E9F783EC7F
S11302C091E09183808386E08093940281E080931F
S11302D0950266E083EC91E00E94F3131092CB0246
S11302E00895CF938EE2E2E9F2E0DF01982F1D92A8
S11302F09A95E9F7C1E0DF011D928A95E9F78DEB44
S113030091E09183808386E080939402C093950268
S113031066E08DEB91E00E94F313C093CB02CF9182
S113032008958EE2E2E9F2E0DF01982F1D929A959A
S1130330E9F7DF011D928A95E9F787EB91E0918354
S1130340808386E08093940281E08093950266E046
S113035087EB91E00E94F31308958EE2E2E9F2E064
S1130360DF01982F1D929A95E9F7DF011D928A9576
S1130370E9F781EB91E09183808386E08093940296
S113038081E08093950266E081EB91E00E94F31393
S113039008958EE2E2E9F2E0DF01982F1D929A952A
S11303A0E9F7DF011D928A95E9F78BEA91E09183E1
S11303B0808386E08093940281E08093950266E0D6
S11303C08BEA91E00E94F3130895CF93DF939EE2AA
S11303D0A2E9B2E0ED01E92F1992EA95E9F7E2EA20
S11303E0F1E0ED0119929A95E9F7ED93FC9399E008
S11303F09093940291E090939502982F92959F7018
S113040096838F70878369E0CF010E94F313DF9195
S1130410CF910895CF93DF939EE2A2E9B2E0ED017C
S1130420E92F1992EA95E9F7E9E9F1E0ED0119926A
S11304309A95E9F7ED93FC9399E09093940291E0F7
S113044090939502982F92959F7096838F708783CF
S113045069E0CF010E94F313DF91CF9108958EE2FA
S1130460E2E9F2E0DF01982F1D929A95E9F7DF01A6
S11304701D928A95E9F783E991E09183808386E070
S11304808093940281E08093950266E083E991E091
S11304900E94F3130895CF93DF938EE2A2E9B2E0B2
S11304A0ED01E82F1992EA95E9F7EAE8F1E0ED01A8
S11304B019928A95E9F7ED93FC9389E0809394026D
S11304C081E0809395028091CA02982F92959F7043
S11304D096838F70878369E0CF010E94F313DF91C5
S11304E0CF9108958EE2E2E9F2E0DF01982F1D92A8
S11304F09A95E9F7DF011D928A95E9F784E891E07E
S11305009183808386E08093940281E080939502B6
S113051066E084E891E00E94F31308958EE2E2E934
S1130520F2E0DF01982F1D929A95E9F7DF011D9201
S11305308A95E9F78EE791E09183808386E0809342
S1130540940281E08093950266E08EE791E00E9438
S1130550F31308958EE2E2E9F2E0DF01982F1D9291
S11305609A95E9F7DF011D928A95E9F788E791E00A
S11305709183808386E08093940281E08093950246
S113058066E088E791E00E94F31308958EE2E2E9C1
S1130590F2E0DF01982F1D929A95E9F7DF011D9291
S11305A08A95E9F782E791E09183808386E08093DE
S11305B0940281E08093950266E082E791E00E94D4
S11305C0F31308958EE2E2E9F2E0DF01982F1D9221
S11305D09A95E9F7DF011D928A95E9F78CE691E097
S11305E09183808386E08093940281E080939502D6
S11305F066E08CE691E00E94F31308958EE2E2E94E
S1130600F2E0DF01982F1D929A95E9F7DF011D9220
S11306108A95E9F786E691E09183808386E080936A
S1130620940281E08093950266E086E691E00E9460
S1130630F31308958EE2E2E9F2E0DF01982F1D92B0
S11306409A95E9F7DF011D928A95E9F780E691E032
S11306509183808386E08093940281E08093950265
S113066066E080E691E00E94F31308958EE2E2E9E9
S1130670F2E0DF01982F1D929A95E9F7DF011D92B0
S11306808A95E9F78AE591E09183808386E08093F7
S1130690940281E08093950266E08AE591E00E94ED
S11306A0F3130895CF93DF932EE2A2E9B2E0ED01B4
S11306B0E22F1992EA95E9F7EAE4F1E0ED011992E3
S11306C02A95E9F7ED93FC9320E12093940221E02D
S11306D0209395022481622B648376838783908799
S11306E060E1CF010E94F313DF91CF910895CF937E
S11306F0DF939EE2A2E9B2E0ED01E92F1992EA95B7
S1130700E9F7EAE3F1E0ED0119929A95E9F7ED933F
S1130710FC9390E19093940291E0909395029481DC
S1130720892B8483E62FF72F85E090E02191A09117
S11307309202B0919302A80FB91F2C9301968F30A7
S11307409105A1F760919402809192029091930295
S11307500E94F313DF91CF910895CF93DF939EE22C
S1130760A2E9B2E0ED01E92F1992EA95E9F7EAE28C
S1130770F1E0ED0119929A95E9F7ED93FC9390E17C
S11307809093940291E0909395029481892B8483B1
S1130790E62FF72F85E090E02191A0919202B0918D
S11307A09302A80FB91F2C9301968F309105A1F7DE
S11307B06091940280919202909193020E94F313AB
S11307C0DF91CF9108958EE2E2E9F2E0DF01982F04
S11307D01D929A95E9F7DF011D928A95E9F784E263
S11307E091E09183808386E08093940281E08093FA
S11307F0950266E084E291E00E94F31308958EE28C
S1130800E2E9F2E0DF01982F1D929A95E9F7DF0102
S11308101D928A95E9F78EE191E09183808386E0C9
S11308208093940281E08093950266E08EE191E0EA
S11308300E94F31308958EE2E2E9F2E0DF01982FBB
S11308401D929A95E9F7DF011D928A95E9F789E1EE
S113085091E09183808385E08093940289E0809382
S1130860950265E089E191E00E94F31308958EE218
S1130870E2E9F2E0DF01982F1D929A95E9F7DF0192
S11308801D928A95E9F784E191E09183808385E064
S11308908093940289E08093950265E084E191E07D
S11308A00E94F31308958EE2E2E9F2E0DF01982F4B
S11308B01D929A95E9F7DF011D928A95E9F78FE079
S11308C091E09183808385E08093940289E0809312
S11308D0950265E08FE091E00E94F31308958EE2A3
S11308E0E2E9F2E0DF01982F1D929A95E9F7DF0122
S11308F01D928A95E9F78AE091E09183808385E0EF
S11309008093940289E08093950265E08AE091E007
S11309100E94F31308958EE2E2E9F2E0DF01982FDA
S11309201D929A95E9F7DF011D928A95E9F785E012
S113093091E09183808385E08093940289E08093A1
S1130940950265E085E091E00E94F31308958EE23C
S1130950E2E9F2E0DF01982F1D929A95E9F7DF01B1
S11309601D928A95E9F780E091E09183808385E088
S11309708093940289E08093950265E080E091E0A1
S11309800E94F31308958091BF028430F1F4209102
S1130990AF022F7030E0322F22273295307F8091C2
S11309A0B0028F7090E0982F8827820F931F2091B8
S11309B0B2022F70820F911D2091B1022F7030E18D
S11309C0239F800D911D112402C080E090E090933C
S11309D0C1028093C00208958091BF028430F1F473
S11309E02091AF022F7030E0322F22273295307FD2
S11309F08091B0028F7090E0982F8827820F931F08
S1130A002091B2022F70820F911D2091B1022F709C
S1130A1030E1239F800D911D1124089580E090E022
S1130A2008958091BF028430F1F42091AF022F70B9
S1130A3030E0322F22273295307F8091B0028F70C0
S1130A4090E0982F8827820F931F2091B2022F7075
S1130A50820F911D2091B1022F7030E1239F800DF0
S1130A60911D1124089580E090E008958091BF02C3
S1130A70873051F48091B10290E0982F882720911B
S1130A80B202820F911D089580E090E00895809154
S1130A90BF02843051F49091B1028091B2028F7000
S1130AA020E1929F800D1124089580E008958091A3
S1130AB0BF02843051F49091B1028091B2028F70E0
S1130AC020E1929F800D1124089580E00895DC01B7
S1130AD011961C921E9212961C9212978FEF1396E7
S1130AE08C93139792E014969C93149715968C9379
S1130AF0159716961C92169717961C921797189688
S1130B001C921897FD01399680E111928150E9F702
S1130B1059961C9259975A961C925A975B961C9216
S1130B205B975C961C925C97FD017D9611928F5F9A
S1130B308031E1F79D961C920895807F803541F0C5
S1130B40803619F08034B9F506C0211126C030C0B2
S1130B50211112C01EC0222361F0FA0180E090E04E
S1130B603191DB01A80FB91F16963C9301968217A9
S1130B70B8F3FB0114820895FA01DB0119964F5F63
S1130B805F4F2150420F511D81918D93E417F5075A
S1130B90D9F781E0FB0184830895942FDB015996F2
S1130BA0E42FF52F81918D938E2F891B8217D0F31B
S1130BB081E0FB0184830895CF93DF93EC018B855F
S1130BC08F3F59F480E007C091919F3F21F08F5FE0
S1130BD09D938E30C9F78DA707C08D8FFE013C967B
S1130BE0DE015E9681E0F0CFDF91CF910895809190
S1130BF09602813081F480919502893049F4809184
S1130C0097028075803521F482E992E00E94DC0528
S1130C1082E080939602089580917B0281608093A4
S1130C207B02089580917B02846080937B02089507
S1130C3088E284B98FEF85B917B888B99AEE9AB962
S1130C408BB908951F93CF93DF9333B1E6B169B1A4
S1130C5025E080E090E0A62FA07111E0F32FF4705E
S1130C60E072732F70746470532F5170432F42706D
S1130C7033230CF08160A11102C0826008C0B091DE
S1130C807502BB2321F01092750210937402F111C6
S1130C9001C08460E11102C0886008C0B091730291
S1130CA0BB2321F01092730210937202711101C0E0
S1130CB08061611101C08062511101C080644111E1
S1130CC001C08068CFE1DEE42197F1F700C00000A5
S1130CD0215071F681FF03C021E02093750283FF48
S1130CE003C021E020937302009729F020917B0236
S1130CF02C7F20937B02DF91CF911F9108958091E7
S1130D007B02282F2270982F9370933079F0211151
S1130D100FC0826080937B024CE056E064E670E092
S1130D2080E090E00E94BD1080E0089581E0089585
S1130D3080E00895409176025091770220917802E4
S1130D40309179022427352782239323892B19F0A4
S1130D5060937A02089580917B0283FF0DC082FF25
S1130D6003C060937A02089542E156E06CE271E0B8
S1130D7080E090E00E945D10089580917602909149
S1130D8077028A30910509F46BC088F484309105A8
S1130D9089F130F48130910509F1029729F166C097
S1130DA08630910509F450C0089751F15FC0803234
S1130DB0910591F138F48C30910509F44BC04097BA
S1130DC029F154C08038910599F1811521E09207E9
S1130DD0A9F18034910509F049C024C060E081E0A4
S1130DE090E00E949A06089561E082E090E00E94FB
S1130DF09A06089562E084E090E00E949A060895BD
S1130E0063E088E090E00E949A06089564E080E13F
S1130E1090E00E949A06089565E080E290E00E94C6
S1130E209A06089566E080E490E00E949A06089588
S1130E3067E080E890E00E949A06089568E080E008
S1130E4091E00E949A06089569E086E090E00E948D
S1130E509A0608956AE08CE090E00E949A0608954C
S1130E606BE08AE090E00E949A06089580917B02EC
S1130E708B7F80937B0282E196E00E94F5100895B7
S1130E808CE080937A020E947F06882321F180916E
S1130E9076029091770290937902809378020E946F
S1130EA0220690937702809376028230910511F0A6
S1130EB0089751F48091DA02811106C080917B0277
S1130EC0886080937B0205C080917B02877F80933A
S1130ED07B020E94BD060895559A08955D98089571
S1130EE05D9A0895CF93DF93D82F8823D1F0C0E083
S1130EF00E9470072FEF80E792E0215080409040DD
S1130F00E1F700C000000E946E072FEF80E792E037
S1130F10215080409040E1F700C00000CF5FCD1326
S1130F20E7CFDF91CF91089581E00E945E0F0E9488
S1130F306C070E9418060E9415110E941A0E0E9446
S1130F40E613789408950E942206049721F00E94E3
S1130F503B0E843089F484E090E09093790280938E
S1130F607802909377028093760280938002809334
S1130F70830281E08093D70208950E94940782E956
S1130F8092E00E94670580EC92E00E94110F0E949B
S1130F90A3078DED92E00E94340F0E94F2070E9495
S1130FA040070E94710F0E94F00E0E94FC0C0E94E8
S1130FB04D0D0E94F7050E94E60D80918602811175
S1130FC008C080918F02811104C080918E02882311
S1130FD031F38FE19EE40197F1F700C000000E9415
S1130FE0B012DDCFCF93DF932FEF89E698E1215044
S1130FF080409040E1F700C00000C0ECD2E00E94C5
S11310006E070E948B042FEF80E792E0215080400E
S11310109040E1F700C000000E94700782E992E06E
S11310200E94DC050E94C3042FEF80E792E0215068
S113103080409040E1F700C00000888199810C96BF
S1131040F1F68AE00E9472070E94BB008AE00E94C7
S113105072070E94E3030E94FF038FEF90E722E0F0
S1131060815090402040E1F700C000008091D702F9
S1131070882331F163E071E082E090E00E94520342
S11310808FEF90E722E0815090402040E1F700C0CC
S113109000000E94A7048FEF90E722E08150904067
S11310A02040E1F700C0000082E992E00E94DC05E4
S11310B083E00E94CD1284E10E9472070E94E30340
S11310C06091C6027091C7028091C8029091C902D2
S11310D00E9452030E946E0780E090E00E945B141D
S11310E0C82F8093C20281E090E00E945B14809339
S11310F0C302CF3F19F08F3F09F042C08FE798E356
S113110021E0815090402040E1F700C000000E949F
S113111053048FE798E321E0815090402040E1F7A9
S113112000C0000082E992E00E94DC050E944705AD
S11311308093C2028FE798E321E0815090402040E1
S1131140E1F700C000000E946F048FE798E321E0FC
S1131150815090402040E1F700C0000082E992E015
S11311600E94DC050E9457058093C3028FE798E331
S113117021E0815090402040E1F700C0000010C001
S11311808C2F0E94E5018FEF90E722E08150904080
S11311902040E1F700C000008091C3020E940A02CF
S11311A00E9453018FEF90E722E08150904020404D
S11311B0E1F700C000000E949101DF91CF910895F2
S11311C08091CE029091CF029C013051211540E1D3
S11311D0340728F13051211540E1340710F1305122
S11311E0211540E13407F8F03051211540E134076E
S11311F0E0F03051211540E13407C8F03051211599
S113120040E13407B0F0305121153041A0F0892F6E
S1131210881F8827881F880F880F880F089581E00A
S1131220089582E0089583E0089584E0089585E0B8
S1131230089586E0089587E008954091CC02509186
S1131240CD028091F6019091F7018417950780F4FF
S1131250E8EFF1E081E0219131912417350720F482
S11312608F5F8433C1F702C0882319F08150089539
S113127080E008958091CB02882319F0813059F1E0
S11312802EC00E94710181E08093CB028093D4022E
S11312902FE788E391E0215080409040E1F700C0BF
S11312A000000E9437042FE788E391E0215080403A
S11312B09040E1F700C0000082E992E00E94DC0562
S11312C00E9411059093CF028093CE020E94E00801
S11312D08093C50204C00E9453011092CB0281E0A6
S11312E080938F0208958091D402882319F010927C
S11312F0D40203C081E08093D40281E080938F0202
S11313008091D802811104C08091D902882319F0F8
S113131081E080938E020895CF93DF938091DC0265
S1131320811167C08091CB02882319F08130C9F103
S11313305AC08091DA0281110DC01092D0028091BE
S1131340C402882309F44FC081508093C4020E94D0
S1131350BB0049C00E941B042FEF80E792E021509C
S113136080409040E1F700C0000082E992E00E94D2
S1131370DC050E94EC04EC019093CD028093CC0236
S11313800E941D098093C4028091F6019091F70197
S11313908C179D0740F50E949F0081E08093D10245
S11313A022C00E9437042FEF80E792E02150804052
S11313B09040E1F700C0000082E992E00E94DC0561
S11313C00E941105EC019093CF028093CE020E94FB
S11313D0E0088093C502C130D04128F00E941B016F
S11313E081E08093D00281E08093D40280938F02C5
S11313F01DC0823069F48091C2028230B8F08150FD
S11314008093C2020E94E50181E080938E020EC0A7
S1131410833061F48091C302823040F08150809324
S1131420C3020E940A0281E080938E02DF91CF9171
S11314300895CF93DF938091DC02811166C080917F
S1131440CB02882319F08130C9F159C08091DA02A6
S113145081110DC01092D2028091C402833308F02E
S11314604EC08F5F8093C4020E94BB0048C00E949C
S11314701B042FEF80E792E0215080409040E1F779
S113148000C0000082E992E00E94DC050E94EC04A6
S1131490EC019093CD028093CC020E941D098093AD
S11314A0C40280915C0290915D02C817D90738F597
S11314B00E94830081E08093D30221C00E943704FC
S11314C02FEF80E792E0215080409040E1F700C088
S11314D0000082E992E00E94DC050E941105EC0103
S11314E09093CF028093CE020E94E0088093C502BD
S11314F0DD232CF00E94370181E08093D20281E049
S11315008093D40280938F021DC0823069F480914D
S1131510C2028F3FB9F08F5F8093C2020E94E5013F
S113152081E080938E020EC0833061F48091C30207
S11315308F3F41F08F5F8093C3020E940A0281E0D3
S113154080938E02DF91CF9108958091D5028823F4
S113155019F01092D50203C081E08093D50281E096
S113156080938E020895CF938091DC02811164C030
S11315708091D902811147C08091D802813071F0E5
S113158018F08230B1F054C00E944B0281E0809385
S1131590D8028093D40280938F024AC00E94C6026C
S11315A082E08093D80281E08093D40280938F02FA
S11315B03FC00E94AA022FEF80E792E021508040B2
S11315C09040E1F700C000000E942F022FEF80E757
S11315D092E0215080409040E1F700C000008091EB
S11315E0C2020E94E5012FEF80E792E02150804083
S11315F09040E1F700C000008091C3020E940A02FB
S11316001092D80215C08091C2020E94E5012FEF0A
S113161080E792E0215080409040E1F700C0000054
S11316208091C3020E940A021092D9021092D80239
S113163081E080938E0226C00E94C9011092DC02D0
S113164080E090E00E945B14C82F8093C20281E086
S113165090E00E945B148093C3028C2F0E94E501EA
S11316602FEF80E792E0215080409040E1F700C0E6
S113167000008091C3020E940A0281E080938F02DD
S113168080938E02CF910895CF938091DC028111D3
S113169065C08091D802882391F10E94AA022FEF9D
S11316A080E792E0215080409040E1F700C00000C4
S11316B00E942F022FEF80E792E02150804090405B
S11316C0E1F700C000008091C2020E94E5012FEF03
S11316D080E792E0215080409040E1F700C0000094
S11316E08091C3020E940A022FEF80E792E021500A
S11316F080409040E1F700C000001092D802809131
S1131700D902813081F020F08230C9F0833011F5A4
S113171081EC0E94E50181E08093D9028093D40298
S113172080938F0217C088EA0E94E50182E08093CB
S1131730D90281E08093D40280938F020BC088E7A2
S11317400E94E50183E08093D90281E08093D40272
S113175080938F0281E080938E0226C00E94C9018B
S11317601092DC0280E090E00E945B14C82F80930A
S1131770C20281E090E00E945B148093C3028C2F2C
S11317800E94E5012FEF80E792E0215080409040D5
S1131790E1F700C000008091C3020E940A0281E0C8
S11317A080938F0280938E02CF910895CF93DF931D
S11317B08091DC02811112C08091D602882329F025
S11317C00E948E021092D60205C00E94720281E02D
S11317D08093D60281E080938F0226C00E94C901C3
S11317E01092DC02C2ECD2E088810E94E50168819B
S11317F080E090E00E9463142FEF81EE94E021508A
S113180080409040E1F700C00000C3ECD2E0888142
S11318100E940A02688181E090E00E94631481E0E2
S113182080938F0280938E02DF91CF9108958091EF
S1131830DB028230B1F028F4882339F0813059F08A
S11318401BC08330A1F08430B9F40E94E20281E02D
S11318508093DB0211C00E94FE0282E08093DB02CF
S11318600BC00E941A0383E08093DB0205C00E9430
S1131870360384E08093DB0281E080938E02089536
S11318808091DC02811146C083E00E94720781E0EE
S11318908093DC020E94AD010E9453042FEF80E785
S11318A092E0215080409040E1F700C0000082E9BE
S11318B092E00E94DC050E9447058093C2020E94C8
S11318C06F042FEF80E792E0215080409040E1F7D1
S11318D000C0000082E992E00E94DC050E945705E6
S11318E08093C3026091C20280E090E00E9463147E
S11318F02FEF81EE94E0215080409040E1F700C04A
S113190000006091C30281E090E00E94631481E0D2
S113191080938F0208958091DC02811148C083E096
S11319200E94720782E08093DC020E94C9010E9437
S113193053042FEF80E792E0215080409040E1F77C
S113194000C0000082E992E00E94DC050E94470585
S11319508093C2020E946F042FEF80E792E021502F
S113196080409040E1F700C0000082E992E00E94CC
S1131970DC050E9457058093C3026091C20280E097
S113198090E00E9463142FEF81EE94E02150804098
S11319909040E1F700C000006091C30281E090E054
S11319A00E94631481E080938F0280938E020895D5
S11319B08091DC02823091F08330B9F081111BC038
S11319C083E00E9472078091DA02811104C081E0F1
S11319D08093DA0208951092DA02089583E00E9457
S11319E0720783E08093DC02089583E00E9472070B
S11319F082E08093DC02089580917A0290E08C303A
S1131A00910540F5FC01EC5CFF4F0C9441140E94DD
S1131A103A0920C00E948C091DC00E9473091AC093
S1131A200E94190A17C00E94A50A14C00E94B30A92
S1131A3011C00E94440B0EC00E94D60B0BC00E9422
S1131A40170C08C00E94400C05C00E948B0C02C0F9
S1131A500E94D80C8091810290E088309105E0F4D6
S1131A60FC01E05CFF4F0C9441140E943A09089574
S1131A700E948C0908950E94730908950E94190A0E
S1131A8008950E94A50A08950E94B30A08950E9429
S1131A90440B08950E94D60B0895CF93809174024D
S1131AA0882321F010927402C1E009C0809172026F
S1131AB0882321F010927202C1E001C0C0E080913D
S1131AC0CB028130E1F58091D002811104C0809174
S1131AD0D2028823A1F10E9437042FE788E391E022
S1131AE0215080409040E1F700C0000082E992E07C
S1131AF00E94DC050E9411059093CF028093CE02D0
S1131B00C11106C099239CF48091D202882379F0F4
S1131B100E94FF001092D0021092D2022FE788E3B5
S1131B2091E0215080409040E1F700C000000E9405
S1131B30E0088093C50281E080938F0245C08091C4
S1131B40DA02813009F040C08091D302811104C0CF
S1131B508091D1028823C1F10E941B042FE788E3FE
S1131B6091E0215080409040E1F700C0000082E9FC
S1131B7092E00E94DC050E94EC049093CD028093D5
S1131B80CC02C1110BC020915C0230915D0282171E
S1131B90930798F08091D302882379F00E9467001C
S1131BA01092D3021092D1022FE788E391E02150E2
S1131BB080409040E1F700C000000E941D0980931E
S1131BC0C40281E080938F02CF9108958091DC025A
S1131BD0813019F50E9453048FE59AEE0197F1F7CD
S1131BE000C0000082E992E00E94DC050E944705E3
S1131BF08093C2020E946F048FE59AEE0197F1F779
S1131C0000C0000082E992E00E94DC050E945705B2
S1131C108093C30281E080938E02089580918202B2
S1131C20816080938202089580918202846080930F
S1131C308202089588B18F6188B987B117B8089571
S1131C4080918202282F2270982F9370933079F01C
S1131C5021110FC08260809382024EE05EE06AE050
S1131C6070E080E090E00E94BD1080E0089581E083
S1131C70089580E0089596B194FF48C09F7099300C
S1131C8069F080917F02882329F010927F0281E01D
S1131C9080937E02963061F180E001C082E0209161
S1131CA07D02222329F010927D0221E020937C0200
S1131CB0933079F028F49130A1F0923081F012C081
S1131CC0983029F09C3039F0943039F00BC08160A1
S1131CD009C0846007C0806105C0806203C080645D
S1131CE001C0806881FF05C091E090937F0201C02C
S1131CF088E083FF03C091E090937D02882339F04C
S1131D00909182029C7F90938202089580E00895CE
S1131D1020918302909180029227892319F0609385
S1131D20810208958091820283FF10C082FF06C061
S1131D30609381028B7F80938202089544E15EE088
S1131D406CE271E080E090E00E945D100895809163
S1131D508302883011F138F48230A9F08430C1F064
S1131D608130A1F50BC0803211F118F48031D1F02B
S1131D702DC0803409F1803821F128C060E081E071
S1131D800E94880E089561E082E00E94880E089502
S1131D9062E084E00E94880E089563E088E00E9477
S1131DA0880E089564E080E10E94880E089565E03D
S1131DB080E20E94880E089566E080E40E94880E06
S1131DC0089567E080E80E94880E08958091820259
S1131DD08B7F8093820284E19EE00E94F510089537
S1131DE08CE0809381020E94200E8823C9F08091A8
S1131DF08302809380020E943B0E80938302823090
S1131E0011F0883031F480918202886080938202DC
S1131E1005C080918202877F809382020E94A70E70
S1131E200895FC01118210821282138287E0848358
S1131E3015828FE0868381E08783808711868EE018
S1131E40828713861586148617861686108A118A49
S1131E50128A138A148A158A168A178A108E118E8A
S1131E60128E138E148E0895DC01FC0180E09BE138
S1131E7091938F5F8A30E1F783E08C9385E111962B
S1131E808C93119792E012969C9312978FE113967C
S1131E908C93139787E214968C93149715968C93CE
S1131EA0159716968C93169717968C9317971A96E0
S1131EB09C931A9785E01B968C930895813081F446
S1131EC088E19CEF9093850080938400EFE6F0E036
S1131ED0808181608083E1E8F0E08081826080839A
S1131EE00895CF92DF92EF92FF920F931F93CF93B7
S1131EF0DF93C9EED2E003E113E0CC24CA94DC2CD6
S1131F00E12CF12C88819981AA81BB81892B8A2BB0
S1131F108B2B49F4C882D982EA82FB821092870211
S1131F20EC81FD8109952696C017D10759F7DF91F9
S1131F30CF911F910F91FF90EF90DF90CF90089574
S1131F40CF93DF93E9EEF2E023E133E080819181E6
S1131F50A281B3818F3F4FEF9407A105B10559F0DA
S1131F600097A105B10539F00197A109B109808352
S1131F709183A283B3833696E217F30739F7DF918F
S1131F80CF9108951F920F920FB60F9211242F93A1
S1131F903F934F935F936F937F938F939F93AF93ED
S1131FA0BF93EF93FF9388E19CEF90938500809318
S1131FB084008091D502882309F45CC08091880252
S1131FC090918902A0918A02B0918B02BC01CD014B
S1131FD06F5F7F4F8F4F9F4F60938802709389028A
S1131FE080938A0290938B0228EE33E040E050E025
S1131FF00E941F14672B682B692B09F047C081E0EE
S113200080938602109288021092890210928A02AA
S113201010928B02809184028F5F8093840280915E
S1132020840299E8899F912D112492959695977031
S11320302CE3929F80191124811128C081E08093A0
S1132040860210928402809185028F5F80938502BC
S11320508091850299E8899F912D112492959695F6
S113206097702CE3929F8019112481110FC0109254
S113207085020CC0109288021092890210928A0282
S113208010928B0210928402109285028091870232
S1132090811102C00E94A00FFF91EF91BF91AF91F7
S11320A09F918F917F916F915F914F913F912F916C
S11320B00F900FBE0F901F901895CF92DF92EF9262
S11320C0FF920F931F93CF93DF93E9EEF2E023E1A6
S11320D033E0C080D180E280F380AFEFCA16DA0625
S11320E0E104F10429F0A481B581A417B507E1F155
S11320F03696E217F30769F70091E9021091EA02B4
S11321002091EB023091EC020F3F1F4F2105310566
S113211081F0EFEEF2E021E030E0E901C080D1800F
S1132120E280F380AFEFCA16DA06E104F104B1F4F9
S113213002C0C0E0D0E09E01220F331FF901EC0F72
S1132140FD1FEE0FFF1FE751FD4F608371838283F4
S11321509383109287025583448306C02F5F3F4FB9
S1132160369627303105C9F6DF91CF911F910F9133
S1132170FF90EF90DF90CF900895CF92DF92EF928F
S1132180FF92CF93DF93E9EEF2E020E030E0E90143
S1132190C080D180E280F380AFEFCA16DA06E10492
S11321A0F104A1F0A481B581A417B50779F4220F35
S11321B0331FC20FD31FCC0FDD1FC751DD4F688300
S11321C079838A839B831092870208C02F5F3F4FD5
S11321D0369627303105D9F60E945D10DF91CF91F4
S11321E0FF90EF90DF90CF900895CF93DF93C0914D
S11321F08702E9EEF2E0A3E1B3E04FEF5FEF60E0C6
S113220070E0D0E0248135812817390729F4408310
S1132210518362837383CD2F3696EA17FB0791F7B8
S1132220C0938702DF91CF910895E9EEF2E023E1B4
S113223033E08FEF9FEFA0E0B0E080839183A2832F
S1132240B3833696E217F307C1F70895CF93DF936C
S1132250CDB7DEB72A970FB6F894DEBF0FBECDBF59
S11322608AE0E8E6F2E0DE01119601900D928A958B
S1132270E1F78091D4028823A9F08091C40290E010
S1132280019627E12A836AE070E00E940B14772705
S1132290FB01E25AFD4F20812B83FC01E25AFD4FE2
S11322A080818C838091CB02813079F4E091C502E6
S11322B0E93058F48CE08E8385E08F838FE488873F
S11322C0F0E0E25AFD4F808189878091D60288230D
S11322D049F082E18E8383E18F8388E088878BE0F5
S11322E089878A878091DC02813081F486E1898341
S11322F09AE49A831B8293E09C8399E09D839FE4F4
S11323009E831F8293E19887898713C0825082300D
S113231080F486E189838AE48A831B8283E08C8348
S113232089E08D838FE48E838CE08F8318868DE023
S11323308987BE016F5F7F4F8091C6020E94770339
S11323402A960FB6F894DEBF0FBECDBFDF91CF91B2
S11323500895CF93DF93CDB7DEB72A970FB6F894DD
S1132360DEBF0FBECDBF8AE0E8E6F2E0DE011196E3
S113237001900D928A95E1F78091D4028823B9F0F7
S11323808091D802813021F485E08A831B82D7C0F2
S1132390823009F0D4C085E08A8381E08B83CFC08A
S11323A086E08A83F0E0E25AFD4F80818B8380913E
S11323B0D502882309F442C08091D602811108C055
S11323C08091850280938D028091840280938C0297
S11323D0E0918D028DECE89F912D112496959695B0
S11323E09695A92FB0E0A25ABD4F2C912E83990F38
S11323F0292F220F220F920FE91BF0E0E25AFD4F22
S113240090819F839AE49887E0918C02E89F812DC4
S11324101124869586958695A82FB0E0A25ABD4FC3
S11324209C919987880F982F990F990F890FE81B12
S1132430F0E0E25AFD4F80818A8704C010928D0239
S113244010928C028091DC02882309F468C081E137
S113245089833AE43A83E091C20229E2E29FA12D02
S11324601124A295AF70B0E0A25ABD4F8C918B831A
S11324708DECE89F912D1124969596959695989FAD
S1132480412D1124469546954695440F542F550FDA
S1132490550F450FA92FA41BB0E0A25ABD4F4C9174
S11324A04C83990F492F440F440F940FE91BF0E01C
S11324B0E25AFD4F90819D8391E09E833F83E0919A
S11324C0C302E29F212D112422952F70A22FB0E088
S11324D0A25ABD4F9C919887E89F912D11249695FF
S11324E096959695989F812D112486958695869527
S11324F0880F282F220F220F820FA92FA81BB0E0CC
S1132500A25ABD4F8C918987990F892F880F880F04
S1132510980FE91BF0E0E25AFD4F80818A87809191
S11325208E02811104C08091D602811110C0BE01B7
S11325306F5F7F4F8091C6020E94AD0308C0E09197
S1132540D9028FEF8E0F833008F42ACF30CF2A962A
S11325500FB6F894DEBF0FBECDBFDF91CF910895C3
S113256080918F02882351F010928F020E942611CD
S11325708FE19EE40197F1F700C00000809186028C
S1132580811104C080918E02882331F00E94A91128
S11325901092860210928E020895FF920F931F9359
S11325A0CF93DF93CDB7DEB72A970FB6F894DEBF8B
S11325B00FBECDBFF82E8AE0E8E6F2E0DE01119608
S11325C001900D928A95E1F70E9436058C016DED1C
S11325D072E08F2D0E9477032FEF80E792E0215065
S11325E080409040E1F700C0000085E18983A0911C
S11325F0E702EDECAE9FE12D1124E695E695E69514
S11326008E2F880F982F990F990F890FA81BEE23EF
S113261039F0F0E0E25AFD4F80818A8382E001C004
S113262081E0E1E0F0E0EC0FFD1FE80FF11DB0E008
S1132630A25ABD4F9C91908391E0980FE1E0F0E0A5
S1132640EC0FFD1FE90FF11D9CE490839091E802CB
S113265022E0280FE1E0F0E0EC0FFD1FE20FF11D96
S11326602DEC929F212D1124269526952695A22F97
S1132670B0E0A25ABD4F3C9130838D5FE1E0F0E0C1
S1132680EC0FFD1FE80FF11D822F880F282F220F5A
S1132690220F820F981BA92FB0E0A25ABD4F8C9134
S11326A08083F801E07FFF27F295E295EF70EF2732
S11326B0FF70EF27E25AFD4F808189870F70E02F6A
S11326C0F0E0E25AFD4F80818A87BE016F5F7F4F41
S11326D08F2D0E94AD032A960FB6F894DEBF0FBE6D
S11326E0CDBFDF91CF911F910F91FF9008951F925D
S11326F00F920FB60F9211242F933F934F935F9332
S11327006F937F938F939F93AF93BF93EF93FF93B5
S11327108091C6008093330380913303803919F08C
S11327208F3F59F027C081E0809391029091330349
S113273090931303809390022DC08091910288237B
S113274049F1E091900221E02E0F209390028091B4
S11327503303F0E0ED5EFC4F808310929102809190
S113276014038093970243E153E062E972E00E940C
S11327709D0510C080919102882361F0E091900240
S113278081E08E0F8093900280913303F0E0ED5E40
S1132790FC4F8083FF91EF91BF91AF919F918F91F7
S11327A07F916F915F914F913F912F910F900FBE49
S11327B00F901F9018959093C5008093C40088E9EA
S11327C08093C10086E08093C200089583E390E083
S11327D00E94DB130895E0ECF0E0908195FFFDCFBB
S11327E08093C60008950F931F93CF93DF93EC015A
S11327F0062F662359F010E089910E94EB1385E3BC
S11328008A95F1F700001F5F1013F6CFDF91CF9187
S11328101F910F91089597FB072E16F4009407D08B
S113282077FD09D00E94471407FC05D03EF490952B
S113283081959F4F0895709561957F4F0895A1E20A
S11328401A2EAA1BBB1BFD010DC0AA1FBB1FEE1F26
S1132850FF1FA217B307E407F50720F0A21BB30B71
S1132860E40BF50B661F771F881F991F1A9469F7ED
S113287060957095809590959B01AC01BD01CF0149
S11328800895EE0FFF1F0590F491E02D0994AA1B03
S1132890BB1B51E107C0AA1FBB1FA617B70710F047
S11328A0A61BB70B881F991F5A95A9F78095909579
S11328B0BC01CD010895F999FECF92BD81BDF89A6E
S11328C0992780B50895262FF999FECF1FBA92BD96
S11328D081BD20BD0FB6F894FA9AF99A0FBE0196FD
S10928E00895F894FFCFF7
S11328E681090002FF81090422FF81090444FF8152
S11328F6090443FF81090448FF81090447FF810154
S113290604742FFF810104741FFF81010473301BBB
S11329161B1B1B1B1B1B1B1B1BFF81010473201B87
S11329261B1B1B1B1B1B1B1B1BFF810104731000A2
S1132936000000000000000000FF8101046103FFA5
S11329468101046102FF8101046603FF81010466BB
S113295602FF8101046304FF8101046300FF810116
S1132966046203FF8101046202FF81010442000044
S11329760000FF8101040200FF81010444000000FD
S113298600FF8101044300000000FF8101043505B6
S1132996FF8101043504FF8101045700FF8101040E
S11329A63803FF8101043802FF8101040803FF8113
S11329B601040802FF8101040800FF8101044700A5
S11329C6000000FF8101040733FF8101040723FF90
S11329D68101040700FF0000001600218027002C57
S11329E6002F30326034703660383039703AA03B8C
S11329F6B03CB03DA03E803F00400042B04460473A
S1132A06104A804B004F6051A05210548055005715
S1132A16E058005A005B005C005D005E005F0060E9
S1132A26006100620062006300640065006600677E
S1132A3600680069006A006B006C006DFF6D271E5C
S1132A461F202122232425261B1B1B1B1B1B1B1B90
S1052A561B1B44
S9030000FC
