S012000043414D636F6E74726F6C2E7372656340
S11300000C9454000C9471000C9471000C947100C5
S11300100C9471000C9471000C9471000C94710098
S11300200C9471000C9471000C9471000C94710088
S11300300C9471000C94A4140C9471000C94710031
S11300400C9471000C9471000C9412190C947100AE
S11300500C9471000C9471000C9471000C94710058
S11300600C9471000C947100A712AA12AD12B01274
S1130070B312B612BC12B912BF12C212C512C81200
S1130080D512D812DB12DE12E112E412EA12E712E0
S11300903213301349132E1339132A133913281327
S11300A03413391339132C1311241FBECFEFD4E0AA
S11300B0DEBFCDBF13E0A0E0B1E0E0E7F4E302C0AF
S11300C005900D92A033B107D9F724E0A0E3B3E083
S11300D001C01D92AA30B207E1F70E9424090C94D2
S11300E0361A0C9400008EE2E4E5F3E0DF01982F69
S11300F01D929A95E9F7DF011D928A95E9F78FE43D
S113010092E09183808386E08093560381E080931C
S1130110570366E08FE492E00E948E1908958EE200
S1130120E4E5F3E0DF01982F1D929A95E9F7DF01EA
S11301301D928A95E9F789E492E09183808386E0B1
S11301408093560381E08093570366E089E492E04C
S11301500E948E1908958EE2E4E5F3E0DF01982F02
S11301601D929A95E9F7DF011D928A95E9F783E4D8
S113017092E09183808386E08093560381E08093AC
S1130180570366E083E492E00E948E190895CF93AA
S1130190DF932EE2A4E5B3E0ED01E22F1992EA9594
S11301A0E9F7EAE3F2E0ED0119922A95E9F7ED9314
S11301B0FC9329E02093560321E0209357032091D8
S11301C08403822F817090E020918B0338E2389F62
S11301D0D001399FB00D1124A20FB11DAA0FBB1F6E
S11301E0AD57BD4F8D919C91119790939603809339
S11301F095039C012227307F232F22952F7024837F
S11302009C0122273F703583807F992792958295A0
S11302108F7089279F70892786838C918F7087833D
S113022069E0CF010E948E19DF91CF9108958EE28B
S1130230E4E5F3E0DF01982F1D929A95E9F7DF01D9
S11302401D928A95E9F784E392E09183808386E0A6
S11302508093560381E08093570366E084E392E041
S11302600E948E1908958EE2E4E5F3E0DF01982FF1
S11302701D929A95E9F7DF011D928A95E9F78EE2BE
S113028092E09183808386E08093560381E080939B
S1130290570366E08EE292E00E948E1908958EE282
S11302A0E4E5F3E0DF01982F1D929A95E9F7DF0169
S11302B01D928A95E9F788E292E09183808386E033
S11302C08093560381E08093570366E088E292E0CE
S11302D00E948E1908958EE2E4E5F3E0DF01982F81
S11302E01D929A95E9F7DF011D928A95E9F782E25A
S11302F092E09183808386E08093560381E080932B
S1130300570366E082E292E00E948E1908958EE21D
S1130310E4E5F3E0DF01982F1D929A95E9F7DF01F8
S11303201D928A95E9F78CE192E09183808386E0BF
S11303308093560381E08093570366E08CE192E05A
S11303400E948E19109294030895CF938EE2E4E5EF
S1130350F3E0DF01982F1D929A95E9F7C1E0DF01E0
S11303601D928A95E9F786E192E09183808386E085
S113037080935603C093570366E086E192E00E949F
S11303808E19C0939403CF910895CF93DF932EE2F7
S1130390A4E5B3E0ED01E22F1992EA95E9F7EDE067
S11303A0F2E0ED0119922A95E9F7ED93FC9329E027
S11303B02093560321E0209357039C012227307F8A
S11303C0232F22952F7024839C0122273F7035838D
S11303D09C01207F3327329522952F7023273F706D
S11303E0232726838F70878369E0CF010E948E19AB
S11303F0DF91CF9108958EE2E4E5F3E0DF01982FD9
S11304001D929A95E9F7DF011D928A95E9F787E035
S113041092E09183808386E08093560381E0809309
S1130420570366E087E092E00E948E1908958EE2F9
S1130430E4E5F3E0DF01982F1D929A95E9F7DF01D7
S11304401D928A95E9F781E092E09183808386E0AA
S11304508093560381E08093570366E081E092E045
S11304600E948E1908958EE2E4E5F3E0DF01982FEF
S11304701D929A95E9F7DF011D928A95E9F78BEFB2
S113048091E09183808386E08093560381E080939A
S1130490570366E08BEF91E00E948E190895CF9385
S11304A0DF939EE2A4E5B3E0ED01E92F1992EA950A
S11304B0E9F7E2EFF1E0ED0119929A95E9F7ED938E
S11304C0FC9399E09093560391E090935703982FEF
S11304D092959F7096838F70878369E0CF010E9405
S11304E08E19DF91CF910895CF93DF939EE2A4E517
S11304F0B3E0ED01E92F1992EA95E9F7E9EEF1E0AD
S1130500ED0119929A95E9F7ED93FC9399E0909394
S1130510560391E090935703982F92959F7096837A
S11305208F70878369E0CF010E948E19DF91CF918C
S113053008958EE2E4E5F3E0DF01982F1D929A9589
S1130540E9F7DF011D928A95E9F783EE91E0918343
S1130550808386E08093560381E08093570366E0AE
S113056083EE91E00E948E190895CF93DF938EE27B
S1130570A4E5B3E0ED01E82F1992EA95E9F7EAED75
S1130580F1E0ED0119928A95E9F7ED93FC9389E086
S11305908093560381E08093570380919303982FAF
S11305A092959F7096838F70878369E0CF010E9434
S11305B08E19DF91CF9108958EE2E4E5F3E0DF0137
S11305C0982F1D929A95E9F7DF011D928A95E9F714
S11305D084ED91E09183808386E08093560381E0EB
S11305E08093570366E084ED91E00E948E1908958C
S11305F08EE2E4E5F3E0DF01982F1D929A95E9F786
S1130600DF011D928A95E9F78EEC91E09183808356
S113061086E08093560381E08093570366E08EEC76
S113062091E00E948E1908958EE2E4E5F3E0DF0183
S1130630982F1D929A95E9F7DF011D928A95E9F7A3
S113064088EC91E09183808386E08093560381E077
S11306508093570366E088EC91E00E948E19089518
S11306608EE2E4E5F3E0DF01982F1D929A95E9F715
S1130670DF011D928A95E9F782EC91E091838083F2
S113068086E08093560381E08093570366E082EC12
S113069091E00E948E1908958EE2E4E5F3E0DF0113
S11306A0982F1D929A95E9F7DF011D928A95E9F733
S11306B08CEB91E09183808386E08093560381E004
S11306C08093570366E08CEB91E00E948E190895A5
S11306D08EE2E4E5F3E0DF01982F1D929A95E9F7A5
S11306E0DF011D928A95E9F786EB91E0918380837F
S11306F086E08093560381E08093570366E086EB9F
S113070091E00E948E1908958EE2E4E5F3E0DF01A2
S1130710982F1D929A95E9F7DF011D928A95E9F7C2
S113072080EB91E09183808386E08093560381E09F
S11307308093570366E080EB91E00E948E19089540
S11307408EE2E4E5F3E0DF01982F1D929A95E9F734
S1130750DF011D928A95E9F78AEA91E0918380830B
S113076086E08093560381E08093570366E08AEA2B
S113077091E00E948E1908958EE2E4E5F3E0DF0132
S1130780982F1D929A95E9F7DF011D928A95E9F752
S113079083EA91E09183808387E08093560381E02C
S11307A08093570367E083EA91E00E948E190895CD
S11307B0CF93DF93209184032230C8F42EE2E4E542
S11307C0F3E0DF01C22F1D92CA95E9F7A3E9B1E076
S11307D0EF0119922A95E9F7B183A08320E12093D0
S11307E0560321E02093570315966C9319C02EE20B
S11307F0E4E5F3E0DF01C22F1D92CA95E9F7A7E50E
S1130800B1E0EF0119922A95E9F7B183A08320E1C1
S11308102093560321E020935703606114966C9350
S1130820E0915403F0915503768387839087609118
S11308305603CF010E948E19DF91CF910895CF9373
S1130840DF93909184039230B8F48EE2E4E5F3E010
S1130850DF01C82F1D92CA95E9F7DF011D928A9521
S1130860E9F783E891E09183808380E180935603E4
S113087081E0809357032FC09EE2E4E5F3E0EF01AB
S1130880292F19922A95E9F7A7E4B1E0EF0119920B
S11308909A95E9F7B183A08390E19093560391E090
S11308A090935703806214968C9315C02191A09164
S11308B05403B0915503A80FB91F2C9301968F30A0
S11308C09105A1F7609156038091540390915503CB
S11308D00E948E1905C0E62FF72F85E090E0E6CF41
S11308E0DF91CF910895CF93DF9390918403923059
S11308F0B8F48EE2E4E5F3E0DF01C82F1D92CA9557
S1130900E9F7DF011D928A95E9F783E791E0918386
S1130910808380E18093560381E0809357032FC046
S11309209EE2E4E5F3E0EF01292F19922A95E9F715
S1130930A7E3B1E0EF0119929A95E9F7B183A08397
S113094090E19093560391E090935703806314963B
S11309508C9315C02191A0915403B0915503A80F15
S1130960B91F2C9301968F309105A1F7609156031E
S113097080915403909155030E948E1905C0E62F6F
S1130980F72F85E090E0E6CFDF91CF910895CF93E4
S1130990DF93909184039230B8F48EE2E4E5F3E0BF
S11309A0DF01C82F1D92CA95E9F7DF011D928A95D0
S11309B0E9F78DE691E09183808386E08093560386
S11309C081E08093570319C09EE2E4E5F3E0EF0170
S11309D0292F19922A95E9F7A1E3B1E0EF011992C1
S11309E09A95E9F7B183A08396E09093560391E03A
S11309F090935703806114968C9360915603809171
S1130A005403909155030E948E19DF91CF9108955C
S1130A10CF93DF93909184039230B8F48EE2E4E5AF
S1130A20F3E0DF01C82F1D92CA95E9F7DF011D929B
S1130A308A95E9F787E691E09183808386E0809345
S1130A40560381E08093570319C09EE2E4E5F3E086
S1130A50EF01292F19922A95E9F7ABE2B1E0EF01F2
S1130A6019929A95E9F7B183A08396E0909356037F
S1130A7091E090935703806214968C93609156038F
S1130A8080915403909155030E948E19DF91CF9168
S1130A9008958EE2E4E5F3E0DF01982F1D929A9524
S1130AA0E9F7DF011D928A95E9F783E291E09183EA
S1130AB0808388E08093560381E08093570368E045
S1130AC083E291E00E948E1908958EE2E4E5F3E05A
S1130AD0DF01982F1D929A95E9F7DF011D928A95FF
S1130AE0E9F78EE191E09183808385E0809356035A
S1130AF089E08093570365E08EE191E00E948E19AE
S1130B0008958EE2E4E5F3E0DF01982F1D929A95B3
S1130B10E9F7DF011D928A95E9F789E191E0918374
S1130B20808385E08093560389E08093570365E0D2
S1130B3089E191E00E948E1908958EE2E4E5F3E0E4
S1130B40DF01982F1D929A95E9F7DF011D928A958E
S1130B50E9F784E191E09183808385E080935603F3
S1130B6089E08093570365E084E191E00E948E1947
S1130B7008958EE2E4E5F3E0DF01982F1D929A9543
S1130B80E9F7DF011D928A95E9F78FE091E09183FF
S1130B90808385E08093560389E08093570365E062
S1130BA08FE091E00E948E1908958EE2E4E5F3E06F
S1130BB0DF01982F1D929A95E9F7DF011D928A951E
S1130BC0E9F78AE091E09183808385E0809356037E
S1130BD089E08093570365E08AE091E00E948E19D2
S1130BE008958EE2E4E5F3E0DF01982F1D929A95D3
S1130BF0E9F7DF011D928A95E9F785E091E0918399
S1130C00808385E08093560389E08093570365E0F1
S1130C1085E091E00E948E1908958EE2E4E5F3E008
S1130C20DF01982F1D929A95E9F7DF011D928A95AD
S1130C30E9F780E091E09183808385E08093560317
S1130C4089E08093570365E080E091E00E948E196B
S1130C500895809181038430F1F4209171032F7001
S1130C6030E0322F22273295307F809172038F70CB
S1130C7090E0982F8827820F931F209174032F7080
S1130C80820F911D209173032F7030E1239F800DFB
S1130C90911D112402C080E090E09093830380931F
S1130CA082030895809181038430F1F420917103CB
S1130CB02F7030E0322F22273295307F80917203DB
S1130CC08F7090E0982F8827820F931F20917403D0
S1130CD02F70820F911D209173032F7030E1239F99
S1130CE0800D911D1124089580E090E00895809175
S1130CF081038430F1F4209171032F7030E0322F9E
S1130D0022273295307F809172038F7090E0982F64
S1130D108827820F931F209174032F70820F911DD7
S1130D20209173032F7030E1239F800D911D1124B6
S1130D30089580E090E008958091730390E0982FE7
S1130D40882720917403820F911D08958091810357
S1130D50843051F490917303809174038F7020E177
S1130D60929F800D1124089580E00895809181035D
S1130D70843051F490917303809174038F7020E157
S1130D80929F800D1124089580E00895DC0111964E
S1130D901C921E9212961C9212978FEF13968C93AC
S1130DA0139792E014969C93149715968C93159729
S1130DB016961C92169717961C92179718961C92C3
S1130DC01897FD01399680E111928150E9F75996FF
S1130DD01C9259975A961C925A975B961C925B9751
S1130DE05C961C925C97FD017D9611928F5F803119
S1130DF0E1F79D961C920895807F803541F08036FE
S1130E0019F08034B9F506C0211126C030C0211173
S1130E1012C01EC0222361F0FA0180E090E03191FB
S1130E20DB01A80FB91F16963C9301968217B8F3FD
S1130E30FB0114820895FA01DB0119964F5F5F4F9D
S1130E402150420F511D81918D93E417F507D9F775
S1130E5081E0FB0184830895942FDB015996E42FEC
S1130E60F52F81918D938E2F891B8217D0F381E00A
S1130E70FB0184830895CF93DF93EC018B858F3F2F
S1130E8059F480E007C091919F3F21F08F5F9D93BB
S1130E908E30C9F78DA707C08D8FFE013C96DE0109
S1130EA05E9681E0F0CFDF91CF9108950E949D0579
S1130EB02FE789EA93E0215080409040E1F700C099
S1130EC0000084E593E00E943B070E9477060895A2
S1130ED080915803813081F480915703893049F41B
S1130EE0809159038075803521F484E593E00E9454
S1130EF03B0782E080935803089580913903816011
S1130F008093390308958091390384608093390371
S1130F10089588E384B98FEF85B917B888B99AEE34
S1130F209AB98BB9089535E080E090E023B156B1C9
S1130F3049B122230CF0816044FF826022FF846067
S1130F4055FF886026FF806142FF806220FF806435
S1130F5021FF8068EFE1FEE43197F1F700C0000063
S1130F60315021F781FF03C021E02093330383FF35
S1130F7003C021E020933103009729F02091390325
S1130F802C7F20933903089580913903282F2270F0
S1130F90982F9370933079F021110FC08260809361
S1130FA039034DE757E064E670E080E090E00E948A
S1130FB0CF1580E0089581E0089580E008952091A0
S1130FC0340330913503409136035091370342275F
S1130FD0532784239523892B19F0609338030895AC
S1130FE08091390383FF2BC082FF21C08091940339
S1130FF08130D1F42230310551F48091990381116B
S11310001EC081E0809399036093380308952830CB
S11310103105A9F480919B03811111C081E0809373
S11310209B0360933803089560933803089543E85D
S113103057E06CE271E080E090E00E946F15089543
S113104080913403909135038A30910509F46BC083
S113105088F48430910589F130F48130910509F1E7
S1131060029729F166C08630910509F450C00897AB
S113107051F15FC08032910591F138F48C309105C3
S113108009F44BC0409729F154C08038910599F177
S1131090811521E09207A9F18034910509F049C036
S11310A024C060E081E090E00E94DF07089561E0E1
S11310B082E090E00E94DF07089562E084E090E01F
S11310C00E94DF07089563E088E090E00E94DF0754
S11310D0089564E080E190E00E94DF07089565E0F0
S11310E080E290E00E94DF07089566E080E490E0EB
S11310F00E94DF07089567E080E890E00E94DF0720
S1131100089568E080E091E00E94DF07089569E0B7
S113111086E090E00E94DF0708956AE08CE090E0AA
S11311200E94DF0708956BE08AE090E00E94DF07E9
S11311300895809139038B7F8093390383E897E086
S11311400E94071608958DE0809338030E94C40717
S1131150882341F1809134039091350390933703B0
S1131160809336030E94930790933503809334034E
S11311708230910511F0089771F48091A4038823BB
S113118021F080919403813031F480913903886097
S11311908093390305C080913903877F8093390395
S11311A00E9420080895559A08955D9808955D9ABF
S11311B00895CF93DF93D82F8823D1F0C0E00E9405
S11311C0D7082FE78AE196E0215080409040E1F76C
S11311D000C000000E94D5082FE78AE196E0215064
S11311E080409040E1F700C00000CF5FCD13E7CF0F
S11311F0DF91CF91089581E00E9440140E94D308AA
S11312000E9489070E9427160E94F9120E948119E0
S1131210789408950E949307049721F00E941A136A
S1131220843089F484E090E090933703809336030C
S11312309093350380933403809341038093440354
S113124081E08093A10308950E94FB0884E593E064
S11312500E94C60682E893E00E94F6130E940A09DF
S113126089EA93E00E941E140E940C0A0E94A308BB
S11312700E9453140E94CD130E949C120E94760E69
S11312800E9468070E94B80F80914803811108C02A
S113129080915103811104C080915003882331F35C
S11312A08FE19EE40197F1F700C000000E94EE1761
S11312B0DDCF662399F0FC012081318124173507A5
S11312C079F0329620E005C08191919184179507B9
S11312D049F02F5F2613F8CF80E0089580E0089549
S11312E081E0089581E00895CF92DF92EF92FF921A
S11312F0CF93DF936B017C01CB01880F991F880F7B
S1131300991F880F991F8C0D9D1D825491408C9DAF
S1131310E0018D9DD00D9C9DD00D1124CA52DF4E4D
S1131320A7019601C701B6010E94A6199B01AC0151
S1131330C701B6010E94A61928EE33E040E050E050
S11313400E94CA1968EA6203C001639F900D1124C8
S11313508C0F9D1FDF91CF91FF90EF90DF90CF9086
S11313600895CF93DF93EC01AC0162E08BE293E04C
S11313700E945909882319F01092840327C0AE01F2
S113138061E089E293E00E945909882321F081E019
S1131390809384031BC0AE0161E087E293E00E9466
S11313A05909882321F082E0809384030FC0AE01A1
S11313B062E083E293E00E945909882321F083E0EC
S11313C08093840303C085E080938403DF91CF91ED
S11313D0089580918403823099F028F4882341F0A1
S11313E0813051F00895833079F0853089F0089583
S11313F081E00E94D908089581E00E94D9080895E7
S113140086E00E94D908089580E10E94D9080895D1
S113141084E30E94D90808952FEF84E39CE02150CF
S113142080409040E1F700C0000088E00E94D908A5
S11314300E940D062FE789EA93E0215080409040F6
S1131440E1F700C0000084E593E00E943B070E949E
S11314509C060E94B1090E94E9090E94D708809164
S11314608403853089F00E94F1052FE788E391E039
S1131470215080409040E1F700C0000084E593E0F3
S11314800E943B070E9429068FE00E94C7042FE7B1
S113149088E391E0215080409040E1F700C00000D3
S11314A08FE00E9408052FE788E391E021508040F7
S11314B09040E1F700C000008091A103882339F136
S11314C080918403823010F471E001C075E061E022
S11314D082E090E00E94D8032FE788E391E0215056
S11314E080409040E1F700C0000081E00E940B18AA
S11314F08AE00E94D90881E00E94C7042FE788E3AC
S113150091E0215080409040E1F700C000008091BC
S11315108403823020F491E09093900303C095E01B
S113152090939003853021F48EE080938F0303C061
S11315308AE080938F0360918F0370919003809170
S11315409103909192030E94D8032FE788E391E0DE
S1131550215080409040E1F700C0000080918F034B
S11315600E9408052FE788E391E0215080409040D5
S1131570E1F700C000000E94D5080E9433022FE763
S113158088E391E0215080409040E1F700C00000E2
S11315900E94B9052FE788E391E0215080409040F4
S11315A0E1F700C0000084E593E00E943B070E943D
S11315B0A60680938703809388030E94D5052FE7AE
S11315C088E391E0215080409040E1F700C00000A2
S11315D084E593E00E943B070E94B606809389034A
S11315E080938A038FE39CE90197F1F700C0000020
S11315F00E9487019FE728E381E0915020408040CA
S1131600E1F700C000000E94D7080E9417010E9461
S1131610FB019FE728E381E0915020408040E1F7FF
S113162000C000000E9449059FE728E381E0915033
S113163020408040E1F700C000000E94C70082E023
S11316400E94D9080E9481059FE729EA83E091500E
S113165020408040E1F700C0000084E593E00E9450
S11316603B070E947706909398038093970308950D
S1131670409195035091960380918403682F617083
S113168070E080E5869FF001879FF00D1124ED57EF
S1131690FD4F808191818417950738F580E5869FF9
S11316A0F001879FF00D1124EB57FD4F81E021914C
S11316B031912417350720F48F5F8832C1F717C0A2
S11316C098E2969FF001979FF00D1124E80FF11D09
S11316D0EE0FFF1FED57FD4F208131812417350791
S11316E0B9F08823A9F08150089580E0089598E224
S11316F0969FF001979FF00D1124E80FF11DEE0F56
S1131700FF1FED57FD4F208131812417350759F70D
S1131710089580919403882321F0813009F443C013
S113172051C00E94A50181E0809394038091A50398
S1131730982F9D7F11F0843029F4EEE9F3E0808145
S113174080628083EEE9F3E080818160808381E0C0
S113175080939D032FE788E391E0215080409040DF
S1131760E1F700C000000E9481052FE788E391E0C3
S1131770215080409040E1F700C0000084E593E0F0
S11317800E943B070E947706E7E9F3E08083918398
S113179092959F7090938D030E9456079093A8038F
S11317A08093A7030FC00E94870110929403EEE96F
S11317B0F3E0908181E080939D039F799160908311
S11317C08093500381E080935103089580919D0399
S11317D0882341F010929D03EEE9F3E08081887F35
S11317E0808308C081E080939D03EEE9F3E080816B
S11317F08760808381E0809351038091A2038111EB
S113180004C08091A303882319F081E080935003DE
S113181008950F931F93CF93DF938091A6038111B3
S1131820A4C080919403882321F0813009F44DC031
S1131830B9C08091A40381110DC0109299038091C5
S11318408B03882309F4AEC0815080938B030E94DC
S1131850C70032C00E9465052FE739EA83E02150B2
S113186030408040E1F700C0000084E593E00E942E
S11318703B070E9452068C01909396038093950334
S11318800E94380B80938B03809184038170C82F4E
S113189090E0D92F80E58C9FF0018D9FF00D1124ED
S11318A0ED57FD4F808191818017910728F40E94A4
S11318B0AB0081E080939A0381E080935103EEE9C9
S11318C0F3E08081816080836DC0809199038823D7
S11318D019F00E944F0143C00E9481052FEF30E7A9
S11318E082E0215030408040E1F700C0000084E5F0
S11318F093E00E943B070E947706EC0160918B0302
S113190070E06F5F7F4F882777FD8095982F0E9446
S113191074099E01281B390BC901C7E9D3E0398337
S113192028830E94C501888199818130904160F4A7
S113193080E090E19093980380939703EEE9F3E0BD
S113194080818064808305C0EEE9F3E080818F7B31
S113195080838091980382958F7080938D0381E0BA
S113196080935103809350031DC0823069F48091A9
S113197087038230B8F08150809387030E944F021E
S113198081E0809350030EC0833061F48091890319
S1131990823040F08150809389030E94740281E078
S11319A080935003DF91CF911F910F9108950F936E
S11319B01F93CF93DF938091A6038111A5C08091DB
S11319C09403882321F0813009F44DC0BAC080917A
S11319D0A40381110DC010929B0380918B03873265
S11319E008F0AFC08F5F80938B030E94C70032C0A2
S11319F00E9465052FE789EA93E0215080409040DA
S1131A00E1F700C0000084E593E00E943B070E94D8
S1131A1052068C0190939603809395030E94380B91
S1131A2080938B03809184038170C82F20E0D22F90
S1131A3080E58C9FF0018D9FF00D1124EF52FD4F36
S1131A40808191810817190728F40E948F0081E092
S1131A5080939C0381E080935103EEE9F3E080815D
S1131A60816080836EC080919B03882319F00E945B
S1131A706B0144C00E9481058FEF90E722E0815002
S1131A8090402040E1F700C0000084E593E00E940C
S1131A903B070E947706EC0160918B0370E06F5F57
S1131AA07F4F882777FD8095982F0E9474098C0FAB
S1131AB09D1F90939803809397032091A7033091DF
S1131AC0A8038217930750F0309398032093970349
S1131AD0EEE9F3E080818064808305C0EEE9F3E001
S1131AE080818F7B8083C7E9D3E0888199810E94BC
S1131AF0C501898182958F7080938D0381E08093E5
S1131B005103809350031DC0823069F48091870390
S1131B108F3FB9F08F5F809387030E944F0281E06B
S1131B20809350030EC0833061F4809189038F3F0A
S1131B3041F08F5F809389030E94740281E0809357
S1131B405003DF91CF911F910F91089580919F03CE
S1131B50882319F010929F0303C081E080939F03B0
S1131B6081E08093500308958091A603811146C0BB
S1131B7083E00E94D90881E08093A6030E941702A3
S1131B800E94B9052FEF80E792E0215080409040F9
S1131B90E1F700C0000084E593E00E943B070E9447
S1131BA0A606809387030E94D5052FEF80E792E075
S1131BB0215080409040E1F700C0000084E593E0AC
S1131BC00E943B070E94B6068093890360918703B5
S1131BD080E090E00E94281A2FEF81EE94E02150DB
S1131BE080409040E1F700C000006091890381E0EB
S1131BF090E00E94281A81E0809351030895809117
S1131C00A603811148C083E00E94D90882E0809332
S1131C10A6030E9433020E94B9052FEF80E792E0E9
S1131C20215080409040E1F700C0000084E593E03B
S1131C300E943B070E94A606809387030E94D50555
S1131C402FEF80E792E0215080409040E1F700C000
S1131C50000084E593E00E943B070E94B60680934F
S1131C6089036091870380E090E00E94281A2FEF97
S1131C7082E597E0215080409040E1F700C00000E9
S1131C806091890381E090E00E94281A81E08093AA
S1131C9051038093500308958091A6038230C1F0CC
S1131CA08330E9F0811121C083E00E94D90880913A
S1131CB0A403811104C081E08093A40308950E94C9
S1131CC0730010929C0310929A031092A403089537
S1131CD083E00E94D90883E08093A603089583E0FB
S1131CE00E94D90882E08093A603089520913203CC
S1131CF0211104C020913F03222331F010923203BA
S1131D0010923F0331E00FC020913003211104C031
S1131D1020913D03222331F01092300310923D03B1
S1131D2031E001C030E020919403213009F0AEC0CD
S1131D3020919903211105C020919B03222309F4CA
S1131D40A5C031110DC0809197039091980381151E
S1131D50904B08F44CC080919B03882309F447C03E
S1131D6080918B03833038F48FEC97E00197F1F77F
S1131D7000C000002DC0843050F49FE728E381E0C8
S1131D80915020408040E1F700C0000021C087301E
S1131D9050F49FEF23EF81E0915020408040E1F721
S1131DA000C0000015C08A3050F49FEF21EE84E09B
S1131DB0915020408040E1F700C0000009C09FE737
S1131DC02BE888E0915020408040E1F700C00000FB
S1131DD00E9433011092990310929B039FE728E31A
S1131DE081E0915020408040E1F700C000000E9453
S1131DF081059FE729EA83E0915020408040E1F784
S1131E0000C0000084E593E00E943B070E9477062F
S1131E10909398038093970320913B0330913C0364
S1131E208217930789F090933C0380933B031092AD
S1131E303A0380919E0386FF18C08F7B80939E0394
S1131E4081E08093500311C080913A038F5F8093A7
S1131E503A03823050F080919E0386FD06C0806470
S1131E6080939E0381E08093500380919803829530
S1131E708F7080938D0390918E03981721F081E0E9
S1131E808093510308951092510308952091A4035F
S1131E90213009F06CC040919C03411105C0209190
S1131EA09A03222309F463C0311118C020918403DA
S1131EB0822F817090E020E5289FF001299FF00D8A
S1131EC01124EF52FD4F20919503309196038081A8
S1131ED091812817390740F1442331F1809184031B
S1131EE081110AC09FE728E381E09150204080409F
S1131EF0E1F700C0000009C09FE729EA83E09150A0
S1131F0020408040E1F700C000000E94730010925E
S1131F109C0310929A039FE728E381E091502040AC
S1131F208040E1F700C000000E9465059FE729EAB0
S1131F3083E0915020408040E1F700C0000084E538
S1131F4093E00E943B070E9452069093960380936D
S1131F5095030E94380B80938B0390918C0389170F
S1131F6021F081E080935103089510925103089564
S1131F708091A603813049F50E94B9052FE788E3D3
S1131F8091E0215080409040E1F700C0000084E5DA
S1131F9093E00E943B070E94A606809387030E9459
S1131FA0D5052FE788E391E0215080409040E1F788
S1131FB000C0000084E593E00E943B070E94B6063F
S1131FC08093890381E08093500308950E94140351
S1131FD02FEF80E792E0215080409040E1F700C06D
S1131FE000000E9499021092A20308950E94B50273
S1131FF081E08093A20380939D03EEE9F3E0908156
S1132000936090838093510308950E94300382E08B
S11320108093A20381E080939D03EEE9F3E0908135
S11320209360908380935103089581EC0E944F0242
S113203081E08093A30380939D03EEE9F3E0908114
S1132040956090838093510380918403853049F493
S11320502FEF80E792E0215080409040E1F700C0EC
S11320600000089588EA0E944F0282E08093A3034F
S113207081E080939D03EEE9F3E090819560908385
S11320808093510380918403853049F42FEF80E7D6
S113209092E0215080409040E1F700C00000089594
S11320A088E70E944F0283E08093A30381E080933A
S11320B09D03EEE9F3E09081956090838093510352
S11320C080918403853049F42FEF80E792E021501A
S11320D080409040E1F700C0000008950F931F93E3
S11320E0CF93DF93CDB7DEB764970FB6F894DEBF16
S11320F00FBECDBF8AE0E5E6F2E0DE011196019065
S11321000D928A95E1F78AE0EFE6F2E0DE011B9694
S113211001900D928A95E1F70E9433021092A60372
S113212007E813E0F80180810E944F02F801608102
S113213080E090E00E94281AFFEF21EE84E0F15045
S113214020408040E1F700C0000009E813E0F801F6
S113215080810E947402F801608181E090E00E9415
S1132160281A0FE813E0BE01655F7F4FF8018081F4
S11321700E941F04BE01655F7F4FF80180810E94A9
S11321807304FFEF21EE84E0F15020408040E1F73A
S113219000C000000E94BC038091840381110AC026
S11321A09FEFE5EEFAEA9150E040F040E1F700C01D
S11321B0000009C02FEF83ED90E321508040904050
S11321C0E1F700C00000BE016F5F7F4F80918F0375
S11321D00E941F04EFEFF3ED20E3E150F0402040B4
S11321E0E1F700C00000BE01655F7F4F80918F035F
S11321F00E941F0464960FB6F894DEBF0FBECDBFD5
S1132200DF91CF911F910F9108958091A6038111C1
S113221017C08091A003882329F00E94F80210922D
S1132220A0030AC00E94DC0281E08093A003EEE9CF
S1132230F3E080818860808381E080935103089576
S11322400E946E100895CF930E9433021092A60349
S113225080E090E00E94201AC82F8093870381E0D9
S113226090E00E94201A809389038C2F0E944F02D1
S11322702FEF80E792E0215080409040E1F700C0CA
S11322800000809189030E94740281E080935103CD
S1132290809350032FEF80E792E0215080409040DC
S11322A0E1F700C00000CF9108958091A603811149
S11322B02AC08091A303811111C08091A2038130AF
S11322C039F018F0823039F01AC00E94F60F17C0A6
S11322D00E94051014C00E94E60F11C0809188036B
S11322E00E944F021092A3031092A2032FEF80E7E3
S11322F092E0215080409040E1F700C0000081E06E
S11323008093500308950E94231108958091A60399
S113231081111AC08091A20381110E94E60F80915D
S1132320A303813041F020F0823041F0833041F446
S11323300E94151005C00E94321002C00E94501065
S113234081E08093500308950E94231108951F9300
S1132350CF93DF930E94840383E08093A50311E06D
S113236010939D03EEE9F3E080818F7D816180838A
S113237010939F0382E080939103CFE8D3E0888198
S11323800E94C704188310939003109392036881EA
S113239079818A819B810E94D8032FEF80E792E0A4
S11323A0215080409040E1F700C0000080918F03ED
S11323B00E940805DF91CF911F910895CF93DF9379
S11323C00E94A00384E08093A50310929D03EEE98C
S11323D0F3E080818E7E808310929F03CFE8D3E068
S11323E088810E94C7048AE0888381E080939003F7
S11323F08093910310929203688179818A819B81F1
S11324000E94D8032FEF80E792E021508040904053
S1132410E1F700C0000080918F030E940805DF915E
S1132420CF9108951F93CF93DF930E944C0311E043
S11324301093A50310939D03EEE9F3E080818F7D53
S11324408161808310939F0382E080939103CFE89E
S1132450D3E088810E94C7041883109390031093DB
S11324609203688179818A819B810E94D8032FEF2E
S113247080E792E0215080409040E1F700C00000E6
S113248080918F030E940805DF91CF911F910895D9
S1132490CF93DF930E94680382E08093A503109298
S11324A09D03EEE9F3E080818E7E808310929F038A
S11324B0CFE8D3E088810E94C7048AE0888381E062
S11324C080939003809391031092920368817981A1
S11324D08A819B810E94D8032FEF80E792E02150EC
S11324E080409040E1F700C0000080918F030E947B
S11324F00805DF91CF9108958091A503823059F0AA
S113250028F4882341F0813079F010C0833031F011
S1132510843039F00BC00E94A71108C00E94DE115C
S113252005C00E94121202C00E94481281E08093EA
S113253051038093500308958091380390E08C30C8
S1132540910540F5FC01EC5CFF4F0C94EC190E94E2
S1132550890B20C00E94090C1DC00E94E60B1AC002
S11325600E94D70C17C00E94A60D14C00E945511DA
S113257011C00E9486110EC00E9405110BC00E945A
S11325807C1208C00E94B40D05C00E94FF0D02C059
S11325900E944C0E8091420390E088309105E0F453
S11325A0FC01E05CFF4F0C94EC190E94890B089528
S11325B00E94090C08950E94E60B08950E94D70C0E
S11325C008950E94A60D08950E94551108950E9431
S11325D0861108950E940511089580914303816036
S11325E0809343030895809143038460809343035D
S11325F0089588B18F6188B987B117B8089580911B
S11326004303282F2270982F9370933079F021116F
S11326100FC08260809343034DEE52E16AE070E0A4
S113262080E090E00E94CF1580E0089581E0089555
S113263080E0089586B184FF2AC08F7090E0FC0189
S11326403197EC30F105A8F4E85BFF4F0C94EC19DA
S113265081E010C088E00EC080E10CC080E20AC0B6
S113266080E408C080E806C081E08093400382E0F3
S113267006C080E083FF03C091E090933E0388236B
S113268051F0909143039C7F90934303089580E01D
S1132690F1CF84E0EFCF089590914403209141035A
S11326A02927822319F060934203089580914303FC
S11326B083FF29C082FF1FC0809194038130C1F43D
S11326C0923051F48091990381111DC081E080936F
S11326D099036093420308959830A9F480919B0371
S11326E0811111C081E080939B036093420308959C
S11326F060934203089543EF52E16CE271E080E09D
S113270090E00E946F15089580914403883011F180
S113271038F48230A9F08430C1F08130A1F50BC0C7
S1132720803211F118F48031D1F02DC0803409F1D8
S1132730803821F128C060E081E00E944C130895A4
S113274061E082E00E944C13089562E084E00E94FC
S11327504C13089563E088E00E944C13089564E0EC
S113276080E10E944C13089565E080E20E944C13BE
S1132770089566E080E40E944C13089567E080E8C1
S11327800E944C130895809143038B7F80934303ED
S113279083EF92E10E94071608958DE0809342032F
S11327A00E94FF12882309F180914403809341031E
S11327B00E941A1380934403823011F0883071F41C
S11327C08091A403882321F080919403813031F413
S11327D08091430388608093430305C08091430341
S11327E0877F809343030E9484130895FC01118220
S11327F0108280E090E7948383831582178287E0B8
S113280081871286138688E0848781E08787108A0F
S11328108EE0818B128A148A138A168A158A178A83
S1132820108E118E128E138E148E158E168E178E98
S113283010A211A212A213A214A20895CF93DF939F
S1132840EC01DC01FC013A9680E09BE19D939193BD
S11328508F5F8A30D9F785E1888382E089838FE4AA
S11328608A838FE18B8387E28C838D8387E08E83D9
S113287083E08F8381E08C8B1D8ADF91CF91089553
S1132880813081F488E19CEF9093850080938400EB
S1132890EFE6F0E0808181608083E1E8F0E0808110
S11328A0826080830895CF92DF92EF92FF920F931C
S11328B01F93CF93DF93CFEBD3E009EE13E0CC2447
S11328C0CA94DC2CE12CF12C88819981AA81BB81EA
S11328D0892B8A2B8B2B49F4C882D982EA82FB820A
S11328E010924903EC81FD8109952696C017D10702
S11328F059F7DF91CF911F910F91FF90EF90DF90E7
S1132900CF900895CF93DF93EFEBF3E029EE33E01C
S113291080819181A281B3818F3F4FEF9407A105FC
S1132920B10559F00097A105B10539F00197A10946
S1132930B10980839183A283B3833696E217F307A8
S113294039F7DF91CF9108951F920F920FB60F922E
S113295011242F933F934F935F936F937F938F93A0
S11329609F93AF93BF93EF93FF9388E19CEF909372
S113297085008093840080919F03882309F45CC0C0
S113298080914A0390914B03A0914C03B0914D0365
S1132990BC01CD016F5F7F4F8F4F9F4F60934A0300
S11329A070934B0380934C0390934D0328EE33E0D4
S11329B040E050E00E94CA19672B682B692B09F08C
S11329C047C081E08093480310924A0310924B035E
S11329D010924C0310924D03809146038F5F8093B5
S11329E046038091460399E8899F912D112492957D
S11329F0969597702CE3929F80191124811128C019
S1132A0081E08093480310924603809147038F5FCF
S1132A10809347038091470399E8899F912D11245E
S1132A209295969597702CE3929F801911248111A9
S1132A300FC0109247030CC010924A0310924B032C
S1132A4010924C0310924D031092460310924703C8
S1132A504C9B09C080913303882329F010923303DF
S1132A6081E080933203359B09C080913103882330
S1132A7029F01092310381E08093300386B1809372
S1132A80450384FD0FC080914003882391F0109288
S1132A90400381E080933F030CC010923E0381E029
S1132AA080933D0380914903811108C00E948214E0
S1132AB005C080913E038111F0CFF4CFFF91EF91D7
S1132AC0BF91AF919F918F917F916F915F914F9142
S1132AD03F912F910F900FBE0F901F901895CF929A
S1132AE0DF92EF92FF920F931F93CF93DF93EFEB5D
S1132AF0F3E029EE33E0C080D180E280F380AFEFD1
S1132B00CA16DA06E104F10429F0A481B581A417F8
S1132B10B507E1F13696E217F30769F70091BF03B1
S1132B201091C0032091C1033091C2030F3F1F4F86
S1132B302105310581F0E5ECF3E021E030E0E90125
S1132B40C080D180E280F380AFEFCA16DA06E104D8
S1132B50F104B1F402C0C0E0D0E09E01220F331FA3
S1132B60F901EC0FFD1FEE0FFF1FE154FC4F6083D2
S1132B70718382839383109249035583448306C0EF
S1132B802F5F3F4F369627303105C9F6DF91CF913D
S1132B901F910F91FF90EF90DF90CF900895CF9207
S1132BA0DF92EF92FF92CF93DF93EFEBF3E020E01D
S1132BB030E0E901C080D180E280F380AFEFCA1633
S1132BC0DA06E104F104A1F0A481B581A417B507E4
S1132BD079F4220F331FC20FD31FCC0FDD1FC15452
S1132BE0DC4F688379838A839B831092490308C0EE
S1132BF02F5F3F4F369627303105D9F60E946F1567
S1132C00DF91CF91FF90EF90DF90CF900895CF9315
S1132C10DF93C0914903EFEBF3E0A9EEB3E04FEF8C
S1132C205FEF60E070E0D0E0248135812817390738
S1132C3029F44083518362837383CD2F3696EA1738
S1132C40FB0791F7C0934903DF91CF910895EFEB10
S1132C50F3E029EE33E08FEF9FEFA0E0B0E0808354
S1132C609183A283B3833696E217F307C1F70895DD
S1132C70CF93DF93CDB7DEB72A970FB6F894DEBFB4
S1132C800FBECDBF8AE0E9E7F2E0DE0111960190C4
S1132C900D928A95E1F780919D038823E1F080915C
S1132CA09E0380FF18C020918B03822F90E0019631
S1132CB037E13A836AE070E00E94B6197727FB0196
S1132CC0EB5AFD4F30813B83FC01EB5AFD4F808171
S1132CD08C8320938C03809194038130A1F48091A0
S1132CE09E0385FF10C08CE08E8385E08F838FE484
S1132CF0888780918D03E82FF0E0EB5AFD4F908197
S1132D00998780938E038091A003882369F0809132
S1132D109E0383FF09C082E18E8383E18F8388E071
S1132D2088878BE089878A878091A603813081F424
S1132D3086E189839AE49A831B8293E09C8399E0D9
S1132D409D839FE49E831F8293E19887898713C0A4
S1132D508250823080F486E189838AE48A831B82EC
S1132D6083E08C8389E08D838FE48E838CE08F8372
S1132D7018868DE08987BE016F5F7F4F80918F0336
S1132D800E941F042A960FB6F894DEBF0FBECDBF73
S1132D90DF91CF910895CF93DF93CDB7DEB72A9714
S1132DA00FB6F894DEBF0FBECDBF8AE0E9E7F2E0CC
S1132DB0DE01119601900D928A95E1F780919403BA
S1132DC0813059F480919E038076803631F484E01A
S1132DD08A838DE08B8383E08C8380919D03882399
S1132DE039F180919E0381FFEBC08091A203813071
S1132DF031F485E08A831B828BE18C83E1C08230CD
S1132E0009F0DEC085E08A8381E08B838BE18C83CB
S1132E10D7C0E091A3038FEF8E0F833048F486E090
S1132E208A83F0E0EB5AFD4F80818B838BE18C83A6
S1132E3080919F03882309F442C08091A0038111EB
S1132E4008C08091470380934F0380914603809389
S1132E504E03E0914F038DECE89F912D112496953C
S1132E6096959695A92FB0E0AB5ABD4F2C912E8321
S1132E70990F292F220F220F920FE91BF0E0EB5A32
S1132E80FD4F90819F839AE49887E0914E03E89FD9
S1132E90812D1124869586958695A82FB0E0AB5A8E
S1132EA0BD4F9C919987880F982F990F990F890F7F
S1132EB0E81BF0E0EB5AFD4F80818A8704C0109232
S1132EC04F0310924E038091A603882309F468C02F
S1132ED081E189833AE43A83E091870329E2E29F1E
S1132EE0A12D1124A295AF70B0E0AB5ABD4F8C91C7
S1132EF08B838DECE89F912D11249695969596954C
S1132F00989F412D1124469546954695440F542F7C
S1132F10550F550F450FA92FA41BB0E0AB5ABD4F59
S1132F204C914C83990F492F440F440F940FE91B84
S1132F30F0E0EB5AFD4F90819D8391E09E833F83A7
S1132F40E0918903E29F212D112422952F70A22F55
S1132F50B0E0AB5ABD4F9C919887E89F912D112406
S1132F60969596959695989F812D1124869586958C
S1132F708695880F282F220F220F820FA92FA81BB6
S1132F80B0E0AB5ABD4F8C918987990F892F880F78
S1132F90880F980FE91BF0E0EB5AFD4F80818A8778
S1132FA080915003811104C08091A00381110DC050
S1132FB0BE016F5F7F4F80918F030E94730405C031
S1132FC080919E0382FD25CF33CF2A960FB6F894C5
S1132FD0DEBF0FBECDBFDF91CF9108958091510325
S1132FE0882351F0109251030E9438168FE19EE419
S1132FF00197F1F700C0000080914803811104C0DB
S113300080915003882331F00E94CB16109248031C
S11330101092500308951F93CF93DF93CDB7DEB77B
S11330202A970FB6F894DEBF0FBECDBF182F8AE0E3
S1133030E9E7F2E0DE01119601900D928A95E1F73D
S113304069EA73E0812F0E941F042FEF80E792E06A
S1133050215080409040E1F700C0000086E0898361
S113306082E08A8385E18B83A091BD03EDECAE9F62
S1133070E12D1124E695E695E6958E2F880F982F7D
S1133080990F990F890FA81BEE2339F0F0E0EB5A42
S1133090FD4F80818C8384E001C083E0E1E0F0E0B7
S11330A0EC0FFD1FE80FF11DB0E0AB5ABD4F9C9132
S11330B0908391E0980FE1E0F0E0EC0FFD1FE90F41
S11330C0F11D9CE490839091BE0322E0280FE1E07F
S11330D0F0E0EC0FFD1FE20FF11D2DEC929F212D6E
S11330E01124269526952695A22FB0E0AB5ABD4F04
S11330F03C91308333E0380FE1E0F0E0EC0FFD1F4A
S1133100E30FF11D220F322F330F330F230F921BC6
S1133110A92FB0E0AB5ABD4F9C91908325E0280FB6
S113312094E0980FE1E0F0E0EC0FFD1FE90FF11DD2
S11331309BE1908390918403923081F128F4992348
S113314049F09130C9F05EC09330C9F1953009F46B
S113315048C058C0E1E0F0E0EC0FFD1FE20FF11DA4
S113316091E290838A5FE1E0F0E0EC0FFD1FE80F4D
S1133170F11D85E2808346C0E1E0F0E0EC0FFD1F25
S1133180E20FF11D9EE190838A5FE1E0F0E0EC0F35
S1133190FD1FE80FF11D87E2808334C0E1E0F0E019
S11331A0EC0FFD1FE20FF11D90E290838A5FE1E0D6
S11331B0F0E0EC0FFD1FE80FF11D908323C0E1E068
S11331C0F0E0EC0FFD1FE20FF11D93E290838A5FA4
S11331D0E1E0F0E0EC0FFD1FE80FF11D80E28083D9
S11331E011C0E1E0F0E0EC0FFD1FE20FF11D94E2ED
S11331F090838A5FE1E0F0E0EC0FFD1FE80FF11D22
S113320082E28083BE016F5F7F4F812F0E9473042F
S11332102A960FB6F894DEBF0FBECDBFDF91CF91D3
S11332201F9108951F920F920FB60F9211242F939E
S11332303F934F935F936F937F938F939F93AF933A
S1133240BF93EF93FF938091C6008093090480910C
S11332500904803919F08F3F59F027C081E0809329
S11332605303909109049093E903809352032DC072
S113327080915303882349F1E091520321E02E0FFA
S11332802093520380910904F0E0E751FC4F8083BE
S1133290109253038091EA038093590349EE53E05B
S11332A064E573E00E94FC0610C0809153038823F8
S11332B061F0E091520381E08E0F8093520380917C
S11332C00904F0E0E751FC4F8083FF91EF91BF9137
S11332D0AF919F918F917F916F915F914F913F91AA
S11332E02F910F900FBE0F901F9018959093C500CB
S11332F08093C40088E98093C10086E08093C20073
S1133300089583E390E00E9476190895E0ECF0E0DC
S1133310908195FFFDCF8093C60008950F931F936E
S1133320CF93DF93EC01062F662359F010E08991C7
S11333300E94861985E38A95F1F700001F5F101338
S1133340F6CFDF91CF911F910F910895DB018F93F9
S11333509F930E94F219BF91AF91A29F800D911D7E
S1133360A39F900DB29F900D1124089597FB072EF3
S113337016F4009407D077FD09D00E94FD1907FCCC
S113338005D03EF4909581959F4F08957095619571
S11333907F4F0895A1E21A2EAA1BBB1BFD010DC08D
S11333A0AA1FBB1FEE1FFF1FA217B307E407F507F1
S11333B020F0A21BB30BE40BF50B661F771F881FCD
S11333C0991F1A9469F760957095809590959B0163
S11333D0AC01BD01CF010895EE0FFF1F0590F491DC
S11333E0E02D09940E94111AA59F900DB49F900D91
S11333F0A49F800D911D11240895AA1BBB1B51E1AC
S113340007C0AA1FBB1FA617B70710F0A61BB70B50
S1133410881F991F5A95A9F780959095BC01CD01F5
S11334200895A29FB001B39FC001A39F700D811D99
S11334301124911DB29F700D811D1124911D0895B9
S1133440F999FECF92BD81BDF89A992780B5089568
S1133450262FF999FECF1FBA92BD81BD20BD0FB6AC
S1133460F894FA9AF99A0FBE01960895F894FFCF4A
S113347081090002FF81090422FF81090444FF81BC
S1133480090443FF81090428FF81090448FF8109D5
S11334900447FF81010424560001FF8101047420C4
S11334A0FF8101047410FF81010473301B1B1B1B7B
S11334B01B1B1B1B1B1BFF81010473201B1B1B1BE2
S11334C01B1B1B1B1B1BFF8101047310000000004E
S11334D0000000000000FF8101047402FF81010468
S11334E07400FF81010473021B1B1B1B1B1B1B1B92
S11334F01B1BFF81010473011B1B1B1B1B1B1B1BC1
S11335001B1BFF8101047300000000000000000089
S11335100000FF8101043F017FFF8101046103FF7B
S11335208101046102FF8101046603FF81010466D5
S113353002FF8101046304FF8101046300FF810130
S1133540046203FF8101046202FF8101044200005E
S11335500000FF8101040200FF8101044400000017
S113356000FF8101044300000000FF8101043505D0
S1133570FF8101043504FF8101045700FF81010428
S11335804800000000FF8101043803FF8101043872
S113359002FF8101040832FF8101040822FF810136
S11335A0040800FF8101040602FF810104470000B2
S11335B00000FF8101040733FF8101040723FF8119
S11335C001040700FF271E1F202122232425260093
S11335D0010203040512001504031B1B1B1B1B1B08
S11335E01B1B1B1B1B1B1B1B1B1B1B1B1B1B1B1B27
S11335F01B1B1B00005118BE22F628452D863020C7
S11336003349351E37B338123A423B473C253DDF38
S11336103D7B3EFB3E643FBA3F0040064400470802
S11336204A004DE84F8A5227548055D056005820FE
S113363059305A385B365C305D305E265F20601846
S113364061006200006018C0220029502D903020D3
S113365033503540373039E03A103C303D203EF0AD
S11336603EA03F404180448047704A004D804FB0A7
S113367051A05330558056A057A0589059705A30D5
S11336805B005CA05C865D505E005FA05F406020D4
S11336906100625F04660465045004570459040021
S9030000FC
