:100000000C9448000C9465000C9465000C946500F9
:100010000C9465000C9465000C9465000C946500CC
:100020000C9465000C9465000C9465000C946500BC
:100030000C9465000C9427130C9465000C946500D7
:100040000C9465000C9465000C9471170C94650079
:100050000C9465000C9465000C9465000C9465008C
:100060000C9465000C9465001F11221125112811B4
:100070002B112E113411311137113A113D1140114C
:100080004D1150115311561159115C1162115F112C
:1000900011241FBECFEFD4E0DEBFCDBF13E0A0E040
:1000A000B1E0EAEDF0E302C005900D92A230B10795
:1000B000D9F723E0A2E0B3E001C01D92AF3CB20744
:1000C000E1F70E949E080C946B180C9400008EE2DD
:1000D000E5E2F3E0DF01982F1D929A95E9F7DF0141
:1000E0001D928A95E9F781E492E09183808386E00E
:1000F0008093270381E08093280366E081E492E007
:100100000E94ED1708958EE2E5E2F3E0DF01982FFB
:100110001D929A95E9F7DF011D928A95E9F78BE325
:1001200092E09183808386E08093270381E080932F
:10013000280366E08BE392E00E94ED1708958EE2BB
:10014000E5E2F3E0DF01982F1D929A95E9F7DF01D0
:100150001D928A95E9F785E392E09183808386E09A
:100160008093270381E08093280366E085E392E093
:100170000E94ED170895CF93DF932EE2A5E2B3E03E
:10018000ED01E22F1992EA95E9F7ECE2F2E0ED01D8
:1001900019922A95E9F7ED93FC9329E02093270320
:1001A00021E02093280320915503822F817090E055
:1001B00020915C03880F991F82959295907F9827D4
:1001C000807F9827820F911DDC01AA0FBB1FAB58BF
:1001D000BD4F8D919C911197909367038093660317
:1001E0009C012227307F232F22952F7024839C018E
:1001F00022273F703583807F9927929582958F7053
:1002000089279F70892786838C918F70878369E007
:10021000CF010E94ED17DF91CF9108958EE2E5E2C4
:10022000F3E0DF01982F1D929A95E9F7DF011D9207
:100230008A95E9F786E292E09183808386E0809355
:10024000270381E08093280366E086E292E00E9423
:10025000ED1708958EE2E5E2F3E0DF01982F1D929D
:100260009A95E9F7DF011D928A95E9F780E292E01D
:100270009183808386E08093270381E08093280325
:1002800066E080E292E00E94ED1708958EE2E5E2DA
:10029000F3E0DF01982F1D929A95E9F7DF011D9297
:1002A0008A95E9F78AE192E09183808386E08093E2
:1002B000270381E08093280366E08AE192E00E94B0
:1002C000ED1708958EE2E5E2F3E0DF01982F1D922D
:1002D0009A95E9F7DF011D928A95E9F784E192E0AA
:1002E0009183808386E08093270381E080932803B5
:1002F00066E084E192E00E94ED1708958EE2E5E267
:10030000F3E0DF01982F1D929A95E9F7DF011D9226
:100310008A95E9F78EE092E09183808386E080936E
:10032000270381E08093280366E08EE092E00E943C
:10033000ED17109265030895CF938EE2E5E2F3E0A6
:10034000DF01982F1D929A95E9F7C1E0DF011D9218
:100350008A95E9F788E092E09183808386E0809334
:100360002703C093280366E088E092E00E94ED171F
:10037000C0936503CF9108958EE2E5E2F3E0DF01DB
:10038000982F1D929A95E9F7DF011D928A95E9F75A
:1003900082E092E09183808386E08093270381E06E
:1003A0008093280366E082E092E00E94ED170895B2
:1003B0008EE2E5E2F3E0DF01982F1D929A95E9F7CE
:1003C000DF011D928A95E9F78CEF91E0918380839C
:1003D00086E08093270381E08093280366E08CEF1A
:1003E00091E00E94ED1708958EE2E5E2F3E0DF016F
:1003F000982F1D929A95E9F7DF011D928A95E9F7EA
:1004000086EF91E09183808386E08093270381E0EB
:100410008093280366E086EF91E00E94ED1708952F
:10042000CF93DF939EE2A5E2B3E0ED01E92F1992AD
:10043000EA95E9F7EDEEF1E0ED0119929A95E9F709
:10044000ED93FC9399E09093270391E09093280318
:10045000982F92959F7096838F70878369E0CF0164
:100460000E94ED17DF91CF910895CF93DF939EE225
:10047000A5E2B3E0ED01E92F1992EA95E9F7E4EE80
:10048000F1E0ED0119929A95E9F7ED93FC9399E06B
:100490009093270391E090932803982F92959F7053
:1004A00096838F70878369E0CF010E94ED17DF91FB
:1004B000CF9108958EE2E5E2F3E0DF01982F1D92DF
:1004C0009A95E9F7DF011D928A95E9F78EED91E0A3
:1004D0009183808386E08093270381E080932803C3
:1004E00066E08EED91E00E94ED170895CF93DF93C3
:1004F0008EE2A5E2B3E0ED01E82F1992EA95E9F763
:10050000E5EDF1E0ED0119928A95E9F7ED93FC93A1
:1005100089E08093270381E080932803809164031E
:10052000982F92959F7096838F70878369E0CF0193
:100530000E94ED17DF91CF9108958EE2E5E2F3E09E
:10054000DF01982F1D929A95E9F7DF011D928A9598
:10055000E9F78FEC91E09183808386E08093270315
:1005600081E08093280366E08FEC91E00E94ED1714
:1005700008958EE2E5E2F3E0DF01982F1D929A954F
:10058000E9F7DF011D928A95E9F789EC91E0918303
:10059000808386E08093270381E08093280366E0D0
:1005A00089EC91E00E94ED1708958EE2E5E2F3E018
:1005B000DF01982F1D929A95E9F7DF011D928A9528
:1005C000E9F783EC91E09183808386E080932703B1
:1005D00081E08093280366E083EC91E00E94ED17B0
:1005E00008958EE2E5E2F3E0DF01982F1D929A95DF
:1005F000E9F7DF011D928A95E9F78DEB91E0918390
:10060000808386E08093270381E08093280366E05F
:100610008DEB91E00E94ED1708958EE2E5E2F3E0A4
:10062000DF01982F1D929A95E9F7DF011D928A95B7
:10063000E9F787EB91E09183808386E0809327033D
:1006400081E08093280366E087EB91E00E94ED173C
:1006500008958EE2E5E2F3E0DF01982F1D929A956E
:10066000E9F7DF011D928A95E9F781EB91E091832B
:10067000808386E08093270381E08093280366E0EF
:1006800081EB91E00E94ED1708958EE2E5E2F3E040
:10069000DF01982F1D929A95E9F7DF011D928A9547
:1006A000E9F78BEA91E09183808386E080932703CA
:1006B00081E08093280366E08BEA91E00E94ED17C9
:1006C00008958EE2E5E2F3E0DF01982F1D929A95FE
:1006D000E9F7DF011D928A95E9F785EA91E09183B8
:1006E000808386E08093270381E08093280366E07F
:1006F00085EA91E00E94ED1708958EE2E5E2F3E0CD
:10070000DF01982F1D929A95E9F7DF011D928A95D6
:10071000E9F78EE991E09183808387E08093270356
:1007200081E08093280367E08EE991E00E94ED1755
:100730000895CF93DF93209155032230C8F42EE221
:10074000E5E2F3E0DF01C22F1D92CA95E9F7AEE8BA
:10075000B1E0EF0119922A95E9F7B183A08320E176
:100760002093270321E02093280315966C9319C04A
:100770002EE2E5E2F3E0DF01C22F1D92CA95E9F710
:10078000A2E5B1E0EF0119922A95E9F7B183A083C0
:1007900020E12093270321E0209328036061149631
:1007A0006C93E0912503F0912603768387839087ED
:1007B00060912703CF010E94ED17DF91CF9108953B
:1007C000CF93DF93909155039230B8F48EE2E5E237
:1007D000F3E0DF01C82F1D92CA95E9F7DF011D92F2
:1007E0008A95E9F78EE791E09183808380E1809399
:1007F000270381E0809328032FC09EE2E5E2F3E027
:10080000EF01292F19922A95E9F7A2E4B1E0EF014F
:1008100019929A95E9F7B183A08390E19093270309
:1008200091E090932803806214968C9315C02191D7
:10083000A0912503B0912603A80FB91F2C93019610
:100840008F309105A1F76091270380912503909146
:1008500026030E94ED1705C0E62FF72F85E090E0F4
:10086000E6CFDF91CF910895CF93DF939091550319
:100870009230B8F48EE2E5E2F3E0DF01C82F1D927A
:10088000CA95E9F7DF011D928A95E9F78EE691E0B6
:100890009183808380E18093270381E08093280304
:1008A0002FC09EE2E5E2F3E0EF01292F19922A958D
:1008B000E9F7A2E3B1E0EF0119929A95E9F7B18364
:1008C000A08390E19093270391E0909328038063A5
:1008D00014968C9315C02191A0912503B091260305
:1008E000A80FB91F2C9301968F309105A1F7609145
:1008F000270380912503909126030E94ED1705C0E0
:10090000E62FF72F85E090E0E6CFDF91CF910895B5
:10091000809155038230B8F48EE2E5E2F3E0DF0126
:10092000982F1D929A95E9F7DF011D928A95E9F7B4
:1009300088E691E09183808386E08093270381E0BD
:100940008093280316C08EE2E5E2F3E0DF01982FE2
:100950001D929A95E9F7DF011D928A95E9F78CE2DD
:1009600091E09183808386E08093270381E08093E8
:1009700028036091270380912503909126030E940C
:10098000ED170895809155038230B8F48EE2E5E2C8
:10099000F3E0DF01982F1D929A95E9F7DF011D9290
:1009A0008A95E9F782E691E09183808386E08093DF
:1009B000270381E08093280316C08EE2E5E2F3E08E
:1009C000DF01982F1D929A95E9F7DF011D928A9514
:1009D000E9F786E291E09183808386E080932703A4
:1009E00081E08093280360912703809125039091F3
:1009F00026030E94ED1708958EE2E5E2F3E0DF01A1
:100A0000982F1D929A95E9F7DF011D928A95E9F7D3
:100A10008EE191E09183808388E08093270381E0D9
:100A20008093280368E08EE191E00E94ED1708951D
:100A30008EE2E5E2F3E0DF01982F1D929A95E9F747
:100A4000DF011D928A95E9F789E191E09183808326
:100A500085E08093270389E08093280365E089E19E
:100A600091E00E94ED1708958EE2E5E2F3E0DF01E8
:100A7000982F1D929A95E9F7DF011D928A95E9F763
:100A800084E191E09183808385E08093270389E06E
:100A90008093280365E084E191E00E94ED170895BA
:100AA0008EE2E5E2F3E0DF01982F1D929A95E9F7D7
:100AB000DF011D928A95E9F78FE091E091838083B1
:100AC00085E08093270389E08093280365E08FE029
:100AD00091E00E94ED1708958EE2E5E2F3E0DF0178
:100AE000982F1D929A95E9F7DF011D928A95E9F7F3
:100AF0008AE091E09183808385E08093270389E0F9
:100B00008093280365E08AE091E00E94ED17089544
:100B10008EE2E5E2F3E0DF01982F1D929A95E9F766
:100B2000DF011D928A95E9F785E091E0918380834A
:100B300085E08093270389E08093280365E085E0C2
:100B400091E00E94ED1708958EE2E5E2F3E0DF0107
:100B5000982F1D929A95E9F7DF011D928A95E9F782
:100B600080E091E09183808385E08093270389E092
:100B70008093280365E080E091E00E94ED170895DE
:100B8000809152038430F1F4209142032F7030E0C1
:100B9000322F22273295307F809143038F7090E06F
:100BA000982F8827820F931F209145032F70820F63
:100BB000911D209144032F7030E1239F800D911DE2
:100BC000112402C080E090E090935403809353037B
:100BD0000895809152038430F1F4209142032F70E4
:100BE00030E0322F22273295307F809143038F707F
:100BF00090E0982F8827820F931F209145032F7034
:100C0000820F911D209144032F7030E1239F800DAE
:100C1000911D1124089580E090E008958091520381
:100C20008430F1F4209142032F7030E0322F2227DC
:100C30003295307F809143038F7090E0982F882702
:100C4000820F931F209145032F70820F911D2091D9
:100C500044032F7030E1239F800D911D11240895CE
:100C600080E090E008958091440390E0982F8827D9
:100C700020914503820F911D089580915203843085
:100C800051F490914403809145038F7020E1929F2D
:100C9000800D1124089580E00895809152038430DE
:100CA00051F490914403809145038F7020E1929F0D
:100CB000800D1124089580E00895DC0111961C92A6
:100CC0001E9212961C9212978FEF13968C93139785
:100CD00092E014969C93149715968C9315971696FC
:100CE0001C92169717961C92179718961C92189795
:100CF000FD01399680E111928150E9F759961C92D5
:100D000059975A961C925A975B961C925B975C96E1
:100D10001C925C97FD017D9611928F5F8031E1F707
:100D20009D961C920895807F803541F0803619F0A1
:100D30008034B9F506C0211126C030C0211112C07F
:100D40001EC0222361F0FA0180E090E03191DB01C6
:100D5000A80FB91F16963C9301968217B8F3FB01B2
:100D600014820895FA01DB0119964F5F5F4F2150FD
:100D7000420F511D81918D93E417F507D9F781E05A
:100D8000FB0184830895942FDB015996E42FF52FFE
:100D900081918D938E2F891B8217D0F381E0FB0107
:100DA00084830895CF93DF93EC018B858F3F59F4B3
:100DB00080E007C091919F3F21F08F5F9D938E301F
:100DC000C9F78DA707C08D8FFE013C96DE015E96A8
:100DD00081E0F0CFDF91CF91089580912903813098
:100DE00081F480912803893049F480912A03807529
:100DF000803521F485E293E00E94D20682E0809360
:100E00002903089580910B03816080930B0308955B
:100E100080910B03846080930B03089588E284B96A
:100E20008FEF85B917B888B99AEE9AB98BB908953A
:100E3000CF93DF9333B1E6B169B125E080E090E074
:100E4000A62FA071F32FF470E072732F707464708A
:100E5000532F5170432F427033230CF08160A11146
:100E600001C08260F11101C08460E11101C088609D
:100E7000711101C08061611101C08062511101C016
:100E80008064411101C08068CFE1DEE42197F1F771
:100E900000C00000215001F781FF03C021E0209332
:100EA000050383FF03C021E020930303009729F08B
:100EB00020910B032C7F20930B03DF91CF9108959A
:100EC00080910B03282F2270982F9370933079F024
:100ED00021110FC0826080930B0342E057E064E66B
:100EE00070E080E090E00E94381480E0089581E096
:100EF000089580E0089540910603509107032091E2
:100F00000803309109032427352782239323892B53
:100F100019F060930A03089580910B0383FF0DC0BD
:100F200082FF03C060930A03089548E057E06CE233
:100F300071E080E090E00E94D8130895809106034C
:100F4000909107038A30910509F46BC088F48430CE
:100F5000910589F130F48130910509F1029729F169
:100F600066C08630910509F450C0089751F15FC002
:100F70008032910591F138F48C30910509F44BC021
:100F8000409729F154C08038910599F1811521E0ED
:100F90009207A9F18034910509F049C024C060E0AE
:100FA00081E090E00E947B07089561E082E090E09C
:100FB0000E947B07089562E084E090E00E947B0736
:100FC000089563E088E090E00E947B07089564E064
:100FD00080E190E00E947B07089565E080E290E068
:100FE0000E947B07089566E080E490E00E947B0702
:100FF000089567E080E890E00E947B07089568E02C
:1010000080E091E00E947B07089569E086E090E02F
:101010000E947B0708956AE08CE090E00E947B07C5
:1010200008956BE08AE090E00E947B07089580912C
:101030000B038B7F80930B0388E097E00E94701472
:1010400008958CE080930A030E946007882321F1B1
:1010500080910603909107039093090380930803FE
:101060000E9418079093070380930603823091052E
:1010700011F0089751F480917503811106C0809199
:101080000B03886080930B0305C080910B03877F5F
:1010900080930B030E949E070895559A08955D98CA
:1010A00008955D9A0895CF93DF93D82F8823D1F0C8
:1010B000C0E00E9451082FE78AE196E0215080406D
:1010C0009040E1F700C000000E944F082FE78AE13E
:1010D00096E0215080409040E1F700C00000CF5FD3
:1010E000CD13E7CFDF91CF91089581E00E94C31225
:1010F0000E944D080E940E070E9490140E947111D8
:101100000E94E017789408950E941807049721F030
:101110000E949211843089F484E090E09093090356
:10112000809308039093070380930603809313032F
:101130008093160381E08093720308950E947508DE
:1011400085E293E00E945D0683E593E00E946812C9
:101150000E94840888E793E00E9490120E94490947
:101160000E9421080E94D6120E9447120E94141168
:101170000E94160D0E94ED060E94500E80911903E8
:10118000811108C080912203811104C08091210344
:10119000882331F38FE19EE40197F1F700C000004E
:1011A0000E945116DDCF662399F0FC012081318128
:1011B0002417350779F0329620E005C0819191918E
:1011C0008417950749F02F5F2613F8CF80E0089524
:1011D00080E0089581E0089581E00895CF93DF9342
:1011E000EC01AC0162E08DEF92E00E94D30888230D
:1011F00019F01092550327C0AE0161E08BEF92E029
:101200000E94D308882321F081E0809355031BC0FE
:10121000AE0161E089EF92E00E94D308882321F0BB
:1012200082E0809355030FC0AE0162E085EF92E04B
:101230000E94D308882321F083E08093550303C0E4
:1012400085E080935503DF91CF91089580915503F8
:10125000823099F028F4882341F0813051F00895CC
:10126000833079F0853089F0089581E00E94530839
:10127000089581E00E945308089586E00E94530873
:10128000089580E10E945308089584E30E94530862
:1012900008952FEF84E39CE0215080409040E1F7D7
:1012A00000C0000088E00E9453080E94A4052FE7B8
:1012B00089EA93E0215080409040E1F700C00000AF
:1012C00085E293E00E94D2060E9433060E94EE0857
:1012D0000E9426090E94510880915503853089F0AB
:1012E0000E9488052FE788E391E0215080409040DC
:1012F000E1F700C0000085E293E00E94D2060E9460
:10130000C0050E9488042FE788E391E021508040C7
:101310009040E1F700C000000E94C2042FE788E37C
:1013200091E0215080409040E1F700C000008091A2
:101330007203882331F180915503811102C071E05D
:1013400001C075E061E082E090E00E9499032FE720
:1013500088E391E0215080409040E1F700C0000018
:1013600081E00E946E168AE00E9453080E94880461
:101370002FE788E391E0215080409040E1F700C0E2
:10138000000080915503811104C081E080936103C6
:1013900009C095E090936103853021F48EE080933D
:1013A000600303C08AE080936003609160037091E2
:1013B000610380916203909163030E9499032FE778
:1013C00088E391E0215080409040E1F700C00000A8
:1013D0000E94C2042FE788E391E0215080409040B2
:1013E000E1F700C000000E944F080E94F4012FE7BF
:1013F00088E391E0215080409040E1F700C0000078
:101400000E9450052FE788E391E0215080409040F2
:10141000E1F700C0000085E293E00E94D2060E943E
:101420003D0680935803809359030E946C052FE773
:1014300088E391E0215080409040E1F700C0000037
:1014400085E293E00E94D2060E944D0680935A03E3
:1014500080935B038FE39CE90197F1F700C00000E4
:101460000E947E019FE728E381E091502040804068
:10147000E1F700C000000E9451080E940E010E9486
:10148000BC019FE728E381E0915020408040E1F7D4
:1014900000C000000E94FC049FE728E381E0915017
:1014A00020408040E1F700C000000E94BB0082E0C5
:1014B0000E945308089540916603509167038091FC
:1014C0005503682F617070E0FB010024F695E795E5
:1014D0000794F695E7950794FE2FE02DEB58FD4F06
:1014E000808191818417950778F5FB010024F6959A
:1014F000E7950794F695E7950794FE2FE02D329631
:10150000EB58FD4F81E0219131912417350720F4EC
:101510008F5F8032C1F71AC0660F771F6295729590
:10152000707F7627607F7627680F711DFB01EE0FB5
:10153000FF1FEB58FD4F2081318124173507D1F073
:101540008823C1F08150089580E00895660F771FC9
:1015500062957295707F7627607F7627FB01E80F92
:10156000F11DEE0FFF1FEB58FD4F20813181241735
:10157000350741F7089580916503882319F081307C
:10158000E9F14BC00E949C0181E08093650380914A
:101590007603982F9D7F11F0843029F4EFE6F3E075
:1015A000808180628083EFE6F3E0808181608083C8
:1015B00081E080936E032FE788E391E02150804023
:1015C0009040E1F700C000000E9434052FE788E357
:1015D00091E0215080409040E1F700C0000085E29A
:1015E00093E00E94D2060E940E06E8E6F3E08083B4
:1015F000918392959F7090935E030FC00E947E012D
:1016000010926503EFE6F3E0908181E080936E0332
:101610009F79916090838093210381E080932203DE
:10162000089580916E03882341F010926E03EFE6D7
:10163000F3E08081887F808308C081E080936E031F
:10164000EFE6F3E080818760808381E0809322036E
:1016500080917303811104C080917403882319F071
:1016600081E08093210308950F931F93CF93DF931D
:101670008091770381115FC080916503882321F0F9
:10168000813009F450C074C08091750381110DC080
:1016900010926A0380915C03882309F469C0815029
:1016A00080935C030E94BB0035C00E9418052FE7A1
:1016B00089EA93E0215080409040E1F700C00000AB
:1016C00085E293E00E94D2060E94E9058C01909386
:1016D0006703809366030E945B0A80935C0380919A
:1016E00055038170C82F20E0D22F0024D695C795CE
:1016F0000794D695C7950794DC2FC02DCB58DD4FA6
:10170000888199818017910728F40E949F0081E0C9
:1017100080936B0381E080932203EFE6F3E0808106
:101720008160808325C00E94460181E080936A0326
:10173000809322031DC0823069F480915803823067
:10174000B8F08150809358030E94100281E080938A
:1017500021030EC0833061F480915A03823040F03F
:10176000815080935A030E94350281E080932103C7
:10177000DF91CF911F910F9108950F931F93CF93F6
:10178000DF938091770381115FC080916503882387
:1017900021F0813009F450C074C08091750381112B
:1017A0000DC010926C0380915C038F3108F069C00A
:1017B0008F5F80935C030E94BB0035C00E941805B8
:1017C0002FE789EA93E0215080409040E1F700C084
:1017D000000085E293E00E94D2060E94E9058C0198
:1017E00090936703809366030E945B0A80935C0377
:1017F000809155038170C82F20E0D22F0024D69508
:10180000C7950794D695C7950794DC2FC02DCB5864
:10181000DD4F8EAD9FAD0817190728F40E94830095
:1018200081E080936D0381E080932203EFE6F3E093
:1018300080818160808325C00E94620181E0809365
:101840006C03809322031DC0823069F48091580399
:101850008F3FB9F08F5F809358030E94100281E0A0
:10186000809321030EC0833061F480915A038F3F2F
:1018700041F08F5F80935A030E94350281E080938C
:101880002103DF91CF911F910F91089580917003F3
:10189000882319F01092700303C081E080937003D5
:1018A00081E080932103089580917703811146C0E0
:1018B00083E00E94530881E0809377030E94D8015F
:1018C0000E9450052FEF80E792E021508040904029
:1018D000E1F700C0000085E293E00E94D2060E947A
:1018E0003D06809358030E946C052FEF80E792E03D
:1018F000215080409040E1F700C0000085E293E075
:101900000E94D2060E944D0680935A0360915803AC
:1019100080E090E00E945D182FEF81EE94E021506E
:1019200080409040E1F700C0000060915A0381E0E0
:1019300090E00E945D1881E08093220308958091D9
:101940007703811148C083E00E94530882E08093AE
:1019500077030E94F4010E9450052FEF80E792E088
:10196000215080409040E1F700C0000085E293E004
:101970000E94D2060E943D06809358030E946C0587
:101980002FEF80E792E0215080409040E1F700C0C7
:10199000000085E293E00E94D2060E944D068093EB
:1019A0005A036091580380E090E00E945D182FEF89
:1019B00082E597E0215080409040E1F700C00000B0
:1019C00060915A0381E090E00E945D1881E080936D
:1019D0002203809321030895809177038230C1F020
:1019E0008330E9F0811121C083E00E945308809187
:1019F0007503811104C081E08093750308950E94EE
:101A0000670010926D0310926B0310927503089596
:101A100083E00E94530883E080937703089583E076
:101A20000E94530882E08093770308952091040375
:101A3000222321F01092040331E009C02091020317
:101A4000222321F01092020331E001C030E0209106
:101A50006503213009F0AEC020916A03211105C051
:101A600020916C03222309F4A5C031110DC080918F
:101A70006803909169038115904B08F44CC08091E4
:101A80006C03882309F447C080915C03833038F4E9
:101A90008FEC97E00197F1F700C000002DC0843073
:101AA00050F49FE728E381E0915020408040E1F727
:101AB00000C0000021C0873050F49FEF23EF81E089
:101AC000915020408040E1F700C0000015C08A30EE
:101AD00050F49FEF21EE84E0915020408040E1F7E8
:101AE00000C0000009C09FE72BE888E0915020402B
:101AF0008040E1F700C000000E942A0110926A03B2
:101B000010926C039FE728E381E0915020408040D1
:101B1000E1F700C000000E9434059FE729EA83E056
:101B2000915020408040E1F700C0000085E293E042
:101B30000E94D2060E940E06909369038093680368
:101B400020910D0330910E038217930789F0909333
:101B50000E0380930D0310920C0380916F0386FF98
:101B600018C08F7B80936F0381E08093210311C0A5
:101B700080910C038F5F80930C03823050F0809132
:101B80006F0386FD06C0806480936F0381E08093BD
:101B900021038091690382958F7080935E039091F9
:101BA0005F03981721F081E080932203089510923B
:101BB0002203089520917503213009F070C04091EF
:101BC0006D03411105C020916B03222309F467C006
:101BD00031111CC020915503822F817090E0FC01CF
:101BE0000024F695E7950794F695E7950794FE2F60
:101BF000E02DEB58FD4F209166033091670386ADD1
:101C000097AD2817390740F1442331F180915503EE
:101C100081110AC09FE728E381E091502040804075
:101C2000E1F700C0000009C09FE729EA83E0915076
:101C300020408040E1F700C000000E946700109241
:101C40006D0310926B039FE728E381E091502040E1
:101C50008040E1F700C000000E9418059FE729EAD4
:101C600083E0915020408040E1F700C0000085E211
:101C700093E00E94D2060E94E90590936703809347
:101C800066030E945B0A80935C0390915D03891751
:101C900021F081E080932203089510922203089599
:101CA00080917703813049F50E9450052FE788E342
:101CB00091E0215080409040E1F700C0000085E2B3
:101CC00093E00E94D2060E943D06809358030E9432
:101CD0006C052FE788E391E0215080409040E1F7C8
:101CE00000C0000085E293E00E94D2060E944D06EB
:101CF00080935A0381E08093210308950E94D502C6
:101D00002FEF80E792E0215080409040E1F700C043
:101D100000000E945A021092730308950E947602F6
:101D200081E08093730380936E03EFE6F3E090818C
:101D3000936090838093220308950E94F10282E0D1
:101D40008093730381E080936E03EFE6F3E090816C
:101D50009360908380932203089581EC0E94100287
:101D600081E08093740380936E03EFE6F3E090814B
:101D7000956090838093220380915503853049F4C8
:101D80002FEF80E792E0215080409040E1F700C0C3
:101D90000000089588EA0E94100282E08093740394
:101DA00081E080936E03EFE6F3E09081956090838D
:101DB0008093220380915503853049F42FEF80E70B
:101DC00092E0215080409040E1F700C0000008956B
:101DD00088E70E94100283E08093740381E080937F
:101DE0006E03EFE6F3E09081956090838093220389
:101DF00080915503853049F42FEF80E792E0215020
:101E000080409040E1F700C0000008950F931F93B9
:101E1000CF93DF93CDB7DEB764970FB6F894DEBFEC
:101E20000FBECDBF8AE0E7E5F2E0DE01119601903A
:101E30000D928A95E1F78AE0E1E6F2E0DE011B9679
:101E400001900D928A95E1F70E94F40110927703B8
:101E500008E513E0F80180810E941002F80160811A
:101E600080E090E00E945D18FFEF21EE84E0F150E9
:101E700020408040E1F700C000000AE513E0F801CF
:101E800080810E943502F801608181E090E00E942B
:101E90005D1800E613E0BE01655F7F4FF8018081A9
:101EA0000E94E003BE01655F7F4FF80180810E94C0
:101EB0003404FFEF21EE84E0F15020408040E1F750
:101EC00000C000000E947D038091550381110AC06B
:101ED0009FEFE5EEFAEA9150E040F040E1F700C0F4
:101EE000000009C02FEF83ED90E321508040904027
:101EF000E1F700C00000BE016F5F7F4F809160037B
:101F00000E94E003EFEFF3ED20E3E150F0402040CA
:101F1000E1F700C00000BE01655F7F4F8091600364
:101F20000E94E00364960FB6F894DEBF0FBECDBFEB
:101F3000DF91CF911F910F910895809177038111C7
:101F400017C080917103882329F00E94B902109272
:101F500071030AC00E949D0281E080937103EFE645
:101F6000F3E080818860808381E08093220308957C
:101F70000E94060F0895CF930E94F40110927703F8
:101F800080E090E00E945518C82F8093580381E0AC
:101F900090E00E94551880935A038C2F0E941002E3
:101FA0002FEF80E792E0215080409040E1F700C0A1
:101FB000000080915A030E94350281E08093220341
:101FC000809321032FEF80E792E0215080409040E2
:101FD000E1F700C00000CF9108958091770381114F
:101FE0002AC080917403811111C0809173038130E4
:101FF00039F018F0823039F01AC00E948E0E17C0E6
:102000000E949D0E14C00E947E0E11C08091590343
:102010000E94100210927403109273032FEF80E756
:1020200092E0215080409040E1F700C0000081E044
:102030008093210308950E94BB0F08958091770338
:1020400081111AC08091730381110E947E0E8091CC
:102050007403813041F020F0823041F0833041F44C
:102060000E94AD0E05C00E94CA0E02C00E94E80E7A
:1020700081E08093210308950E94BB0F08950E9480
:10208000450383E08093760381E080936E03EFE65F
:10209000F3E090819F7D916190838093700392E043
:1020A00090936203E0E6F3E0808380936103809382
:1020B000630360817181828193810E949903809181
:1020C0005503853049F42FEF80E792E0215080409E
:1020D0009040E1F700C0000008950E94610384E091
:1020E0008093760310926E03EFE6F3E080818E7E9C
:1020F000808310927003E0E6F3E08AE0808381E061
:102100008093610380936203109263036081718105
:10211000828193810E94990380915503853049F40F
:102120002FEF80E792E0215080409040E1F700C01F
:10213000000008950E940D0381E080937603809350
:102140006E03EFE6F3E090819F7D91619083809331
:10215000700392E090936203E0E6F3E08083809363
:1021600061038093630360817181828193810E9406
:10217000990380915503853049F42FEF80E792E071
:10218000215080409040E1F700C0000008950E9477
:10219000290382E08093760310926E03EFE6F3E06A
:1021A00080818E7E808310927003E0E6F3E08AE007
:1021B000808381E0809361038093620310926303C4
:1021C00060817181828193810E949903809155037E
:1021D000853049F42FEF80E792E021508040904015
:1021E000E1F700C00000089580917603823059F035
:1021F00028F4882341F0813079F010C0833031F029
:10220000843039F00BC00E943F1008C00E946D104E
:1022100005C00E949A1002C00E94C71081E08093FE
:10222000220380932103089580910A0390E08C306B
:10223000910540F5FC01EC5CFF4F0C943B180E94AB
:10224000BB0A20C00E94340B1DC00E94110B1AC093
:102250000E94BD0B17C00E94460C14C00E94ED0FD7
:1022600011C00E941E100EC00E949D0F0BC00E9444
:10227000F41008C00E94540C05C00E949F0C02C0BC
:102280000E94EC0C8091140390E088309105E0F4FA
:10229000FC01E05CFF4F0C943B180E94BB0A0895C0
:1022A0000E94340B08950E94110B08950E94BD0BEB
:1022B00008950E94460C08950E94ED0F08950E9413
:1022C0001E1008950E949D0F08958091150381604E
:1022D00080931503089580911503846080931503FE
:1022E000089588B18F6188B987B117B80895809132
:1022F0001503282F2270982F9370933079F02111B5
:102300000FC082608093150345E651E16AE070E0FA
:1023100080E090E00E94381480E0089581E0089504
:1023200080E0089596B194FF48C09F70993069F09D
:1023300080911203882329F01092120381E0809388
:102340001103963061F180E001C082E0209110031A
:10235000222329F01092100321E020930F039330E1
:1023600079F028F49130A1F0923081F012C09830C9
:1023700029F09C3039F0943039F00BC0816009C0ED
:10238000846007C0806105C0806203C0806401C0B2
:10239000806881FF05C091E09093120301C088E03E
:1023A00083FF03C091E090931003882339F090914C
:1023B00015039C7F90931503089580E00895209164
:1023C0001603909113039227892319F06093140345
:1023D00008958091150383FF10C082FF06C06093AB
:1023E00014038B7F8093150308954BE651E16CE253
:1023F00071E080E090E00E94D81308958091160368
:10240000883011F138F48230A9F08430C1F0813085
:10241000A1F50BC0803211F118F48031D1F02DC03C
:10242000803409F1803821F128C060E081E00E9409
:10243000DF11089561E082E00E94DF11089562E0FB
:1024400084E00E94DF11089563E088E00E94DF11BC
:10245000089564E080E10E94DF11089565E080E264
:102460000E94DF11089566E080E40E94DF11089564
:1024700067E080E80E94DF110895809115038B7F4B
:10248000809315038BE691E10E94701408958CE00F
:10249000809314030E9477118823C9F0809116035A
:1024A000809313030E94921180931603823011F0DF
:1024B000883031F48091150388608093150305C03E
:1024C00080911503877F809315030E94FE11089564
:1024D000FC011182108280E090E79483838315824F
:1024E000178287E081871286138688E0848781E0DF
:1024F0008787108A8EE0818B128A148A138A168A43
:10250000158A178A108E118E128E138E148E158EC8
:10251000168E178E10A211A212A213A214A2089551
:10252000DC01FC0180E09BE191938F5F8A30E1F751
:102530001C928BE011968C9311978FE412968C93DA
:1025400012978EE113968C93139787E214968C93CF
:10255000149783E215968C93159781E016968C93C9
:1025600016979BE117969C93179796E018969C9365
:10257000189792E019969C9319971A968C931A972C
:102580001B961C920895813081F488E19CEF909312
:10259000850080938400EFE6F0E080818160808395
:1025A000E1E8F0E08081826080830895CF92DF923D
:1025B000EF92FF920F931F93CF93DF93C4E8D3E082
:1025C0000EEA13E0CC24CA94DC2CE12CF12C888197
:1025D0009981AA81BB81892B8A2B8B2B49F4C882D4
:1025E000D982EA82FB8210921A03EC81FD8109955F
:1025F0002696C017D10759F7DF91CF911F910F9100
:10260000FF90EF90DF90CF900895CF93DF93E4E8B1
:10261000F3E02EEA33E080819181A281B3818F3F84
:102620004FEF9407A105B10559F00097A105B10539
:1026300039F00197A109B10980839183A283B38303
:102640003696E217F30739F7DF91CF9108951F927D
:102650000F920FB60F9211242F933F934F935F93D6
:102660006F937F938F939F93AF93BF93EF93FF935A
:1026700088E19CEF909385008093840080917003A3
:10268000882309F45CC080911B0390911C03A091E6
:102690001D03B0911E03BC01CD016F5F7F4F8F4FB3
:1026A0009F4F60931B0370931C0380931D039093B3
:1026B0001E0328EE33E040E050E00E941918672B1B
:1026C000682B692B09F047C081E0809319031092B1
:1026D0001B0310921C0310921D0310921E03809185
:1026E00017038F5F809317038091170399E8899FE1
:1026F000912D11249295969597702CE3929F8019B5
:102700001124811128C081E08093190310921703CE
:10271000809118038F5F809318038091180399E8C4
:10272000899F912D11249295969597702CE3929FF5
:102730008019112481110FC0109218030CC010923F
:102740001B0310921C0310921D0310921E03109283
:102750001703109218034C9B09C08091050388232E
:1027600029F01092050381E080930403359B09C092
:1027700080910303882329F01092030381E0809362
:10278000020380911A03811102C00E940513FF9178
:10279000EF91BF91AF919F918F917F916F915F91D9
:1027A0004F913F912F910F900FBE0F901F90189552
:1027B000CF92DF92EF92FF920F931F93CF93DF930D
:1027C000E4E8F3E02EEA33E0C080D180E280F380D9
:1027D000AFEFCA16DA06E104F10429F0A481B5814D
:1027E000A417B507E1F13696E217F30769F70091F0
:1027F00084031091850320918603309187030F3F56
:102800001F4F2105310581F0EAE8F3E021E030E0D7
:10281000E901C080D180E280F380AFEFCA16DA060A
:10282000E104F104B1F402C0C0E0D0E09E01220F47
:10283000331FF901EC0FFD1FEE0FFF1FEC57FC4F8C
:10284000608371838283938310921A035583448338
:1028500006C02F5F3F4F369627303105C9F6DF910E
:10286000CF911F910F91FF90EF90DF90CF9008953F
:10287000CF92DF92EF92FF92CF93DF93E4E8F3E001
:1028800020E030E0E901C080D180E280F380AFEF4A
:10289000CA16DA06E104F104A1F0A481B581A417F7
:1028A000B50779F4220F331FC20FD31FCC0FDD1FE2
:1028B000CC57DC4F688379838A839B8310921A03F9
:1028C00008C02F5F3F4F369627303105D9F60E945A
:1028D000D813DF91CF91FF90EF90DF90CF900895C4
:1028E000CF93DF93C0911A03E4E8F3E0AEEAB3E0DC
:1028F0004FEF5FEF60E070E0D0E024813581281772
:10290000390729F44083518362837383CD2F369630
:10291000EA17FB0791F7C0931A03DF91CF9108954F
:10292000E4E8F3E02EEA33E08FEF9FEFA0E0B0E0C1
:1029300080839183A283B3833696E217F307C1F7AE
:102940000895CF93DF93CDB7DEB72A970FB6F894EB
:10295000DEBF0FBECDBF8AE0EBE6F2E0DE011196EE
:1029600001900D928A95E1F780916E038823E1F042
:1029700080916F0380FF18C020915C03822F90E04C
:10298000019637E13A836AE070E00E9405187727E4
:10299000FB01E95BFD4F30813B83FC01E95BFD4FAF
:1029A00080818C8320935D03809165038130A1F445
:1029B00080916F0385FF10C08CE08E8385E08F834C
:1029C0008FE4888780915E03E82FF0E0E95BFD4F9C
:1029D0009081998780935F0380917103882369F0C8
:1029E00080916F0383FF09C082E18E8383E18F832F
:1029F00088E088878BE089878A8780917703813098
:102A000081F486E189839AE49A831B8293E09C8314
:102A100099E09D839FE49E831F8293E19887898735
:102A200013C08250823080F486E189838AE48A83ED
:102A30001B8283E08C8389E08D838FE48E838CE01E
:102A40008F8318868DE08987BE016F5F7F4F8091ED
:102A500060030E94E0032A960FB6F894DEBF0FBE13
:102A6000CDBFDF91CF910895CF93DF93CDB7DEB780
:102A70002A970FB6F894DEBF0FBECDBF8AE0EBE613
:102A8000F2E0DE01119601900D928A95E1F78091B6
:102A90006503813059F480916F038076803631F47C
:102AA00084E08A838DE08B8383E08C8380916E0346
:102AB000882309F180916F0381FFE5C08091730342
:102AC000813021F485E08A831B82DDC0823009F0E9
:102AD000DAC085E08A8381E08B83D5C0E0917403FE
:102AE0008FEF8E0F833038F486E08A83F0E0E95B65
:102AF000FD4F80818B8380917003882309F442C04D
:102B000080917103811108C0809118038093200384
:102B10008091170380931F03E09120038DECE89FC1
:102B2000912D1124969596959695A92FB0E0A95BC5
:102B3000BD4F2C912E83990F292F220F220F920F18
:102B4000E91BF0E0E95BFD4F90819F839AE4988751
:102B5000E0911F03E89F812D112486958695869527
:102B6000A82FB0E0A95BBD4F9C919987880F982F43
:102B7000990F990F890FE81BF0E0E95BFD4F808109
:102B80008A8704C01092200310921F03809177035C
:102B9000882309F468C081E189833AE43A83E091AB
:102BA000580329E2E29FA12D1124A295AF70B0E055
:102BB000A95BBD4F8C918B838DECE89F912D1124E7
:102BC000969596959695989F412D112446954695F4
:102BD0004695440F542F550F550F450FA92FA41B91
:102BE000B0E0A95BBD4F4C914C83990F492F440F26
:102BF000440F940FE91BF0E0E95BFD4F90819D834A
:102C000091E09E833F83E0915A03E29F212D11249E
:102C100022952F70A22FB0E0A95BBD4F9C919887A1
:102C2000E89F912D1124969596959695989F812DC4
:102C30001124869586958695880F282F220F220FBE
:102C4000820FA92FA81BB0E0A95BBD4F8C9189878B
:102C5000990F892F880F880F980FE91BF0E0E95B27
:102C6000FD4F80818A8780912103811104C080916A
:102C7000710381110DC0BE016F5F7F4F80916003B2
:102C80000E94340405C080916F0382FD27CF33CFAB
:102C90002A960FB6F894DEBF0FBECDBFDF91CF915D
:102CA000089580912203882351F0109222030E94FC
:102CB000A1148FE19EE40197F1F700C0000080911C
:102CC0001903811104C080912103882331F00E94EF
:102CD0003415109219031092210308951F93CF9376
:102CE000DF93CDB7DEB72A970FB6F894DEBF0FBEDD
:102CF000CDBF182F8AE0EBE6F2E0DE0111960190DD
:102D00000D928A95E1F768E773E0812F0E94E00356
:102D10002FEF80E792E0215080409040E1F700C023
:102D2000000085E18B83A0918203EDECAE9FE12D45
:102D30001124E695E695E6958E2F880F982F990F2A
:102D4000990F890FA81BEE2339F0F0E0E95BFD4FE6
:102D500080818C8384E001C083E0E1E0F0E0EC0F4F
:102D6000FD1FE80FF11DB0E0A95BBD4F9C91908362
:102D700091E0980FE1E0F0E0EC0FFD1FE90FF11D8D
:102D80009CE490839091830322E0280FE1E0F0E03F
:102D9000EC0FFD1FE20FF11D2DEC929F212D112450
:102DA000269526952695A22FB0E0A95BBD4F3C91B4
:102DB000308333E0380FE1E0F0E0EC0FFD1FE30F6C
:102DC000F11D220F322F330F330F230F921BA92F28
:102DD000B0E0A95BBD4F9C91908325E0280F94E063
:102DE000980FE1E0F0E0EC0FFD1FE90FF11D9BE112
:102DF000908390915503923081F128F4992349F002
:102E00009130C9F05EC09330C9F1953009F448C0E3
:102E100058C0E1E0F0E0EC0FFD1FE20FF11D91E280
:102E200090838A5FE1E0F0E0EC0FFD1FE80FF11DF9
:102E300085E2808346C0E1E0F0E0EC0FFD1FE20F89
:102E4000F11D9EE190838A5FE1E0F0E0EC0FFD1F51
:102E5000E80FF11D87E2808334C0E1E0F0E0EC0F81
:102E6000FD1FE20FF11D90E290838A5FE1E0F0E048
:102E7000EC0FFD1FE80FF11D908323C0E1E0F0E0AF
:102E8000EC0FFD1FE20FF11D93E290838A5FE1E0FA
:102E9000F0E0EC0FFD1FE80FF11D80E2808311C010
:102EA000E1E0F0E0EC0FFD1FE20FF11D94E29083F2
:102EB0008A5FE1E0F0E0EC0FFD1FE80FF11D82E218
:102EC0008083BE016F5F7F4F812F0E9434042A965A
:102ED0000FB6F894DEBF0FBECDBFDF91CF911F912B
:102EE00008951F920F920FB60F9211242F933F93C4
:102EF0004F935F936F937F938F939F93AF93BF9302
:102F0000EF93FF938091C6008093CE038091CE0310
:102F1000803919F08F3F59F027C081E08093240356
:102F20009091CE039093AE03809323032DC08091A4
:102F30002403882349F1E091230321E02E0F2093FD
:102F400023038091CE03F0E0E255FC4F8083109282
:102F500024038091AF0380932A034EEA53E065E295
:102F600073E00E94930610C080912403882361F0CF
:102F7000E091230381E08E0F809323038091CE03A1
:102F8000F0E0E255FC4F8083FF91EF91BF91AF914C
:102F90009F918F917F916F915F914F913F912F9171
:102FA0000F900FBE0F901F9018959093C5008093BF
:102FB000C40088E98093C10086E08093C200089530
:102FC00083E390E00E94D5170895E0ECF0E0908153
:102FD00095FFFDCF8093C60008950F931F93CF9365
:102FE000DF93EC01062F662359F010E089910E94CF
:102FF000E51785E38A95F1F700001F5F1013F6CF00
:10300000DF91CF911F910F91089597FB072E16F432
:10301000009407D077FD09D00E94411807FC05D025
:103020003EF4909581959F4F0895709561957F4FDF
:103030000895A1E21A2EAA1BBB1BFD010DC0AA1FF9
:10304000BB1FEE1FFF1FA217B307E407F50720F011
:10305000A21BB30BE40BF50B661F771F881F991F8C
:103060001A9469F760957095809590959B01AC01D5
:10307000BD01CF010895EE0FFF1F0590F491E02DE3
:103080000994AA1BBB1B51E107C0AA1FBB1FA617AF
:10309000B70710F0A61BB70B881F991F5A95A9F701
:1030A00080959095BC01CD010895F999FECF92BD10
:1030B00081BDF89A992780B50895262FF999FECFFA
:1030C0001FBA92BD81BD20BD0FB6F894FA9AF99A45
:0A30D0000FBE01960895F894FFCF9B
:1030DA0081090002FF81090422FF81090444FF815A
:1030EA00090443FF81090448FF81090447FF81015C
:1030FA000424560001FF810104742FFF8101047426
:10310A001FFF81010473301B1B1B1B1B1B1B1B1B7B
:10311A001BFF81010473201B1B1B1B1B1B1B1B1B7F
:10312A001BFF810104731000000000000000000072
:10313A0000FF8101047402FF8101047400FF810110
:10314A000473021B1B1B1B1B1B1B1B1B1BFF81016D
:10315A000473011B1B1B1B1B1B1B1B1B1BFF81015E
:10316A0004730000000000000000000000FF81015D
:10317A00043F017FFF8101046103FF8101046102B1
:10318A00FF8101046603FF8101046602FF810104D5
:10319A006304FF8101046300FF8101046203FF816C
:1031AA0001046202FF8101044200000000FF810164
:1031BA00040200FF8101044400000000FF810104B1
:1031CA004300000000FF8101043505FF8101043539
:1031DA0004FF8101045700FF8101043803FF8101C4
:1031EA00043802FF8101040833FF8101040823FF28
:1031FA008101040800FF8101040602FF81010447DE
:10320A0000000000FF8101040733FF810104072346
:10321A00FF8101040700FF271E1F202122232425E6
:10322A002600010203040512001504031B1B1B1BC5
:10323A001B1B1B1B1B1B1B1B1B1B1B1B1B1B1B1BD4
:10324A001B1B1B1B1B0000061651210028A02C006B
:10325A0030D03240352037C038383A7B3BA83CA9B9
:10326A003DA03E603F0042B0446047104AB84C302F
:10327A004F90515053F854A05610588059E05A2094
:10328A005C505D705E0000061651210028A02C00DB
:10329A0030D03240352037C038383A7B3BA83CA979
:1032AA003DA03E603F0042B0446047104AB84C30EF
:1032BA004F90515053F854A05610588059E05A2054
:1032CA005C505D705E5F04660465045004570459DF
:0232DA000400EE
:00000001FF
