:100000000C9448000C9465000C9465000C946500F9
:100010000C9465000C9465000C9465000C946500CC
:100020000C9465000C9465000C9465000C946500BC
:100030000C9465000C94AF120C9465000C94650050
:100040000C9465000C9465000C9413170C946500D7
:100050000C9465000C9465000C9465000C9465008C
:100060000C9465000C946500A810AB10AE10B11094
:10007000B410B710BD10BA10C010C310C610C9100C
:10008000D610D910DC10DF10E210E510EB10E810EC
:1000900011241FBECFEFD4E0DEBFCDBF13E0A0E040
:1000A000B1E0EEE1F0E302C005900D92A033B1079C
:1000B000D9F723E0A0E3B3E001C01D92AD3FB20742
:1000C000E1F70E9463080C940D180C9400008EE276
:1000D000E3E5F3E0DF01982F1D929A95E9F7DF0140
:1000E0001D928A95E9F785E392E09183808386E00B
:1000F0008093550381E08093560366E085E392E0A8
:100100000E948F1708958EE2E3E5F3E0DF01982F58
:100110001D929A95E9F7DF011D928A95E9F78FE222
:1001200092E09183808386E08093550381E0809301
:10013000560366E08FE292E00E948F1708958EE2E8
:10014000E3E5F3E0DF01982F1D929A95E9F7DF01CF
:100150001D928A95E9F789E292E09183808386E097
:100160008093550381E08093560366E089E292E034
:100170000E948F170895CF93DF932EE2A3E5B3E09B
:10018000ED01E22F1992EA95E9F7E0E2F2E0ED01E4
:1001900019922A95E9F7ED93FC9329E020935503F2
:1001A00021E02093560320918303822F817090E0F9
:1001B00020918A0334E3389FD001399FB00D112478
:1001C000A20FB11DAA0FBB1FAB5ABD4F8D919C91C1
:1001D000119790939503809394039C012227307F7D
:1001E000232F22952F7024839C0122273F70358373
:1001F000807F9927929582958F7089279F70892794
:1002000086838C918F70878369E0CF010E948F175E
:10021000DF91CF9108958EE2E3E5F3E0DF01982FBF
:100220001D929A95E9F7DF011D928A95E9F78AE117
:1002300092E09183808386E08093550381E08093F0
:10024000560366E08AE192E00E948F1708958EE2DD
:10025000E3E5F3E0DF01982F1D929A95E9F7DF01BE
:100260001D928A95E9F784E192E09183808386E08C
:100270008093550381E08093560366E084E192E029
:100280000E948F1708958EE2E3E5F3E0DF01982FD7
:100290001D929A95E9F7DF011D928A95E9F78EE0A4
:1002A00092E09183808386E08093550381E0809380
:1002B000560366E08EE092E00E948F1708958EE26A
:1002C000E3E5F3E0DF01982F1D929A95E9F7DF014E
:1002D0001D928A95E9F788E092E09183808386E019
:1002E0008093550381E08093560366E088E092E0B6
:1002F0000E948F1708958EE2E3E5F3E0DF01982F67
:100300001D929A95E9F7DF011D928A95E9F782E03F
:1003100092E09183808386E08093550381E080930F
:10032000560366E082E092E00E948F1710929303DA
:100330000895CF938EE2E3E5F3E0DF01982F1D925D
:100340009A95E9F7C1E0DF011D928A95E9F78CEFF4
:1003500091E09183808386E080935503C093560398
:1003600066E08CEF91E00E948F17C0939303CF91CA
:1003700008958EE2E3E5F3E0DF01982F1D929A9550
:10038000E9F7DF011D928A95E9F786EF91E0918305
:10039000808386E08093550381E08093560366E076
:1003A00086EF91E00E948F1708958EE2E3E5F3E077
:1003B000DF01982F1D929A95E9F7DF011D928A952A
:1003C000E9F780EF91E09183808386E08093550385
:1003D00081E08093560366E080EF91E00E948F17E2
:1003E00008958EE2E3E5F3E0DF01982F1D929A95E0
:1003F000E9F7DF011D928A95E9F78AEE91E0918392
:10040000808386E08093550381E08093560366E005
:100410008AEE91E00E948F170895CF93DF939EE2BA
:10042000A3E5B3E0ED01E92F1992EA95E9F7E1EED2
:10043000F1E0ED0119929A95E9F7ED93FC9399E0BB
:100440009093550391E090935603982F92959F7047
:1004500096838F70878369E0CF010E948F17DF91A9
:10046000CF910895CF93DF939EE2A3E5B3E0ED0132
:10047000E92F1992EA95E9F7E8EDF1E0ED0119921B
:100480009A95E9F7ED93FC9399E09093550391E0E9
:1004900090935603982F92959F7096838F708783C1
:1004A00069E0CF010E948F17DF91CF9108958EE20E
:1004B000E3E5F3E0DF01982F1D929A95E9F7DF015C
:1004C0001D928A95E9F782ED91E09183808386E021
:1004D0008093550381E08093560366E082ED91E0BE
:1004E0000E948F170895CF93DF938EE2A3E5B3E0C8
:1004F000ED01E82F1992EA95E9F7E9ECF1E0ED0159
:1005000019928A95E9F7ED93FC9389E0809355035E
:1005100081E08093560380919203982F92959F706B
:1005200096838F70878369E0CF010E948F17DF91D8
:10053000CF9108958EE2E3E5F3E0DF01982F1D925D
:100540009A95E9F7DF011D928A95E9F783EC91E02E
:100550009183808386E08093550381E080935603E6
:1005600066E083EC91E00E948F1708958EE2E3E548
:10057000F3E0DF01982F1D929A95E9F7DF011D92B4
:100580008A95E9F78DEB91E09183808386E08093F3
:10059000550381E08093560366E08DEB91E00E9465
:1005A0008F1708958EE2E3E5F3E0DF01982F1D92A7
:1005B0009A95E9F7DF011D928A95E9F787EB91E0BB
:1005C0009183808386E08093550381E08093560376
:1005D00066E087EB91E00E948F1708958EE2E3E5D5
:1005E000F3E0DF01982F1D929A95E9F7DF011D9244
:1005F0008A95E9F781EB91E09183808386E080938F
:10060000550381E08093560366E081EB91E00E9400
:100610008F1708958EE2E3E5F3E0DF01982F1D9236
:100620009A95E9F7DF011D928A95E9F78BEA91E047
:100630009183808386E08093550381E08093560305
:1006400066E08BEA91E00E948F1708958EE2E3E561
:10065000F3E0DF01982F1D929A95E9F7DF011D92D3
:100660008A95E9F785EA91E09183808386E080931B
:10067000550381E08093560366E085EA91E00E948D
:100680008F1708958EE2E3E5F3E0DF01982F1D92C6
:100690009A95E9F7DF011D928A95E9F78EE991E0D5
:1006A0009183808387E08093550381E08093560394
:1006B00067E08EE991E00E948F170895CF93DF9352
:1006C00020918303211119C02EE2E3E5F3E0DF015D
:1006D000C22F1D92CA95E9F7AEE8B1E0EF01199279
:1006E0002A95E9F7B183A08320E12093550321E007
:1006F0002093560315966C9319C02EE2E3E5F3E0C0
:10070000DF01C22F1D92CA95E9F7A2E5B1E0EF0122
:1007100019922A95E9F7B183A08320E1209355032C
:1007200021E020935603606114966C93E09153038B
:10073000F091540376838783908760915503CF01AE
:100740000E948F17DF91CF910895CF93DF939091FF
:100750008303911117C08EE2E3E5F3E0DF01C82FB8
:100760001D92CA95E9F7DF011D928A95E9F78EE798
:1007700091E09183808380E18093550381E08093B1
:1007800056032FC09EE2E3E5F3E0EF01292F199213
:100790002A95E9F7A2E4B1E0EF0119929A95E9F7F9
:1007A000B183A08390E19093550391E09093560319
:1007B000806214968C9315C02191A0915303B0913F
:1007C0005403A80FB91F2C9301968F309105A1F700
:1007D0006091550380915303909154030E948F17A9
:1007E00005C0E62FF72F85E090E0E6CFDF91CF91AF
:1007F0000895CF93DF9390918303911117C08EE2F8
:10080000E3E5F3E0DF01C82F1D92CA95E9F7DF01A8
:100810001D928A95E9F78EE691E09183808380E1CD
:100820008093550381E0809356032FC09EE2E3E559
:10083000F3E0EF01292F19922A95E9F7A2E3B1E03D
:10084000EF0119929A95E9F7B183A08390E1909313
:10085000550391E090935603806314968C9315C0D2
:100860002191A0915303B0915403A80FB91F2C9369
:1008700001968F309105A1F7609155038091530344
:10088000909154030E948F1705C0E62FF72F85E043
:1008900090E0E6CFDF91CF9108958091830381119D
:1008A00017C08EE2E3E5F3E0DF01982F1D929A95E1
:1008B000E9F7DF011D928A95E9F788E691E09183D7
:1008C000808386E08093550381E08093560316C0B1
:1008D0008EE2E3E5F3E0DF01982F1D929A95E9F7A8
:1008E000DF011D928A95E9F78CE291E09183808384
:1008F00086E08093550381E0809356036091550311
:1009000080915303909154030E948F170895809112
:100910008303811117C08EE2E3E5F3E0DF01982F36
:100920001D929A95E9F7DF011D928A95E9F782E613
:1009300091E09183808386E08093550381E08093EA
:10094000560316C08EE2E3E5F3E0DF01982F1D9217
:100950009A95E9F7DF011D928A95E9F786E291E021
:100960009183808386E08093550381E080935603D2
:100970006091550380915303909154030E948F1707
:1009800008958EE2E3E5F3E0DF01982F1D929A953A
:10099000E9F7DF011D928A95E9F78EE191E09183F5
:1009A000808388E08093550381E08093560368E05C
:1009B0008EE191E00E948F1708958EE2E3E5F3E067
:1009C000DF01982F1D929A95E9F7DF011D928A9514
:1009D000E9F789E191E09183808385E08093550375
:1009E00089E08093560365E089E191E00E948F17CA
:1009F00008958EE2E3E5F3E0DF01982F1D929A95CA
:100A0000E9F7DF011D928A95E9F784E191E091838E
:100A1000808385E08093550389E08093560365E0E9
:100A200084E191E00E948F1708958EE2E3E5F3E000
:100A3000DF01982F1D929A95E9F7DF011D928A95A3
:100A4000E9F78FE091E09183808385E080935503FF
:100A500089E08093560365E08FE091E00E948F1754
:100A600008958EE2E3E5F3E0DF01982F1D929A9559
:100A7000E9F7DF011D928A95E9F78AE091E0918319
:100A8000808385E08093550389E08093560365E079
:100A90008AE091E00E948F1708958EE2E3E5F3E08B
:100AA000DF01982F1D929A95E9F7DF011D928A9533
:100AB000E9F785E091E09183808385E08093550399
:100AC00089E08093560365E085E091E00E948F17EE
:100AD00008958EE2E3E5F3E0DF01982F1D929A95E9
:100AE000E9F7DF011D928A95E9F780E091E09183B3
:100AF000808385E08093550389E08093560365E009
:100B000080E091E00E948F170895809180038430E7
:100B1000F1F4209170032F7030E0322F22273295AC
:100B2000307F809171038F7090E0982F8827820F1B
:100B3000931F209173032F70820F911D20917203D8
:100B40002F7030E1239F800D911D112402C080E0A1
:100B500090E09093820380938103089580918003B5
:100B60008430F1F4209170032F7030E0322F22276F
:100B70003295307F809171038F7090E0982F882795
:100B8000820F931F209173032F70820F911D20916C
:100B900072032F7030E1239F800D911D1124089561
:100BA00080E090E00895809180038430F1F42091FA
:100BB00070032F7030E0322F22273295307F8091E2
:100BC00071038F7090E0982F8827820F931F2091D8
:100BD00073032F70820F911D209172032F7030E1EB
:100BE000239F800D911D1124089580E090E00895C9
:100BF0008091720390E0982F882720917303820FD1
:100C0000911D089580918003843051F49091720376
:100C1000809173038F7020E1929F800D11240895BD
:100C200080E0089580918003843051F490917203A4
:100C3000809173038F7020E1929F800D112408959D
:100C400080E00895DC0111961C921E9212961C926F
:100C500012978FEF13968C93139792E014969C93B0
:100C6000149715968C93159716961C9216971796AF
:100C70001C92179718961C921897FD01399680E1DF
:100C800011928150E9F759961C9259975A961C92E5
:100C90005A975B961C925B975C961C925C97FD0141
:100CA0007D9611928F5F8031E1F79D961C92089599
:100CB000807F803541F0803619F08034B9F506C068
:100CC000211126C030C0211112C01EC0222361F0A4
:100CD000FA0180E090E03191DB01A80FB91F169670
:100CE0003C9301968217B8F3FB0114820895FA0130
:100CF000DB0119964F5F5F4F2150420F511D8191CB
:100D00008D93E417F507D9F781E0FB0184830895FB
:100D1000942FDB015996E42FF52F81918D938E2F1F
:100D2000891B8217D0F381E0FB0184830895CF9360
:100D3000DF93EC018B858F3F59F480E007C09191E0
:100D40009F3F21F08F5F9D938E30C9F78DA707C01D
:100D50008D8FFE013C96DE015E9681E0F0CFDF9143
:100D6000CF91089580915703813081F4809156038B
:100D7000893049F4809158038075803521F483E5EA
:100D800093E00E94970682E0809357030895809134
:100D90003903816080933903089580913903846019
:100DA00080933903089588E284B98FEF85B917B825
:100DB00088B99AEE9AB98BB90895CF93DF9333B17E
:100DC000E6B169B125E080E090E0A62FA071F32F95
:100DD000F470E072732F70746470532F5170432F4E
:100DE000427033230CF08160A11101C08260F111C7
:100DF00001C08460E11101C08860711101C080618F
:100E0000611101C08062511101C08064411101C0B3
:100E10008068CFE1DEE42197F1F700C000002150A7
:100E200001F781FF03C021E02093330383FF03C058
:100E300021E020933103009729F0209139032C7F82
:100E400020933903DF91CF91089580913903282FA2
:100E50002270982F9370933079F021110FC0826027
:100E60008093390347EC56E064E670E080E090E060
:100E70000E94C01380E0089581E0089580E0089505
:100E8000409134035091350320913603309137035C
:100E90002427352782239323892B19F06093380365
:100EA00008958091390383FF0DC082FF03C06093D2
:100EB000380308954DEC56E06CE271E080E090E07C
:100EC0000E946013089580913403909135038A3015
:100ED000910509F46BC088F48430910589F130F4F0
:100EE0008130910509F1029729F166C0863091059C
:100EF00009F450C0089751F15FC08032910591F11B
:100F000038F48C30910509F44BC0409729F154C056
:100F10008038910599F1811521E09207A9F180347B
:100F2000910509F049C024C060E081E090E00E9492
:100F30004007089561E082E090E00E944007089534
:100F400062E084E090E00E944007089563E088E05A
:100F500090E00E944007089564E080E190E00E94E4
:100F60004007089565E080E290E00E944007089500
:100F700066E080E490E00E944007089567E080E822
:100F800090E00E944007089568E080E091E00E94B0
:100F90004007089569E086E090E00E9440070895C8
:100FA0006AE08CE090E00E94400708956BE08AE0E0
:100FB00090E00E9440070895809139038B7F8093D1
:100FC00039038DEC96E00E94F81308958CE080932D
:100FD00038030E942507882321F1809134039091E2
:100FE000350390933703809336030E94DD06909378
:100FF0003503809334038230910511F0089751F442
:101000008091A303811106C0809139038860809389
:10101000390305C080913903877F809339030E948B
:1010200063070895559A08955D9808955D9A089507
:10103000CF93DF93D82F8823D1F0C0E00E94160809
:101040002FE78AE196E0215080409040E1F700C010
:1010500000000E9414082FE78AE196E021508040AA
:101060009040E1F700C00000CF5FCD13E7CFDF91E4
:10107000CF91089581E00E944B120E9412080E94B5
:10108000D3060E9418140E94FA100E9482177894C6
:1010900008950E94DD06049721F00E941B11843000
:1010A00089F484E090E09093370380933603909323
:1010B000350380933403809341038093440381E09C
:1010C0008093A00308950E943A0883E593E00E946C
:1010D000220681E893E00E94F1110E94490886EA05
:1010E00093E00E9419120E940E090E94E6070E94D6
:1010F0005E120E94D0110E949D100E940F0D0E944E
:10110000B2060E94450E80914703811108C080916C
:101110005003811104C080914F03882331F38FE184
:101120009EE40197F1F700C000000E94F315DDCFA7
:10113000662399F0FC01208131812417350779F06D
:10114000329620E005C0819191918417950749F06E
:101150002F5F2613F8CF80E0089580E0089581E0A6
:10116000089581E00895CF93DF93EC01AC0162E034
:101170008BE293E00E949808882319F01092830371
:1011800027C0AE0161E089E293E00E9498088823BD
:1011900021F081E0809383031BC0AE0161E087E210
:1011A00093E00E949808882321F082E080938303D3
:1011B0000FC0AE0161E085E293E00E9498088823A9
:1011C00021F083E08093830303C085E08093830351
:1011D000DF91CF91089580918303823099F028F4B4
:1011E000882341F0813051F00895833079F08530C3
:1011F00089F0089581E00E941808089581E00E9416
:101200001808089586E00E941808089580E10E9459
:101210001808089584E30E94180808952FEF84E3C6
:101220009CE0215080409040E1F700C0000088E041
:101230000E9418080E9469052FE789EA93E021506F
:1012400080409040E1F700C0000083E593E00E94F9
:1012500097060E94F8050E94B3080E94EB080E94BE
:10126000160880918303853089F00E944D052FE791
:1012700088E391E0215080409040E1F700C00000F9
:1012800083E593E00E9497060E9485050E944D0425
:101290002FE788E391E0215080409040E1F700C0C3
:1012A00000000E9487042FE788E391E021508040EE
:1012B0009040E1F700C000008091A003882331F145
:1012C00080918303811102C071E001C075E061E08B
:1012D00082E090E00E945E032FE788E391E02150D6
:1012E00080409040E1F700C0000081E00E941016AD
:1012F0008AE00E9418080E944D042FE788E391E0DD
:10130000215080409040E1F700C0000080918303AD
:10131000811104C081E080938F0309C095E0909310
:101320008F03853021F48EE080938E0303C08AE022
:1013300080938E0360918E0370918F038091900350
:10134000909191030E945E032FE788E391E0215082
:1013500080409040E1F700C000000E9487042FE722
:1013600088E391E0215080409040E1F700C0000008
:101370000E9414080E94F1012FE788E391E02150B8
:1013800080409040E1F700C000000E9415052FE763
:1013900088E391E0215080409040E1F700C00000D8
:1013A00083E593E00E9497060E94020680938603DD
:1013B000809387030E9431052FE788E391E0215055
:1013C00080409040E1F700C0000083E593E00E9478
:1013D00097060E94120680938803809389038FE307
:1013E0009CE90197F1F700C000000E947B019FE794
:1013F00028E381E0915020408040E1F700C00000E8
:101400000E9416080E940B010E94B9019FE728E381
:1014100081E0915020408040E1F700C000000E9430
:10142000C1049FE728E381E0915020408040E1F72C
:1014300000C000000E94BB0082E00E9418080895CE
:10144000409194035091950380918303682F6170BC
:1014500070E088E6869FF001879FF00D1124EB5A1B
:10146000FD4F808191818417950738F588E6869F26
:10147000F001879FF00D1124E95AFD4F81E0219181
:1014800031912417350720F48F5F8433C1F717C0DB
:1014900094E3969FF001979FF00D1124E80FF11D42
:1014A000EE0FFF1FEB5AFD4F2081318124173507C6
:1014B000B9F08823A9F08150089580E0089594E35D
:1014C000969FF001979FF00D1124E80FF11DEE0F8C
:1014D000FF1FEB5AFD4F208131812417350759F743
:1014E000089580919303882321F0813009F453C03B
:1014F0007BC00E94990181E0809393038091A403B3
:10150000982F9D7F11F0843029F4EDE9F3E080817C
:10151000806280832FE788E391E0215080409040F3
:10152000E1F700C000000E94F9042FE788E391E092
:10153000215080409040E1F700C0000083E593E037
:101540000E9497060E94D305E6E9F3E08083918329
:1015500092959F7090938C03EEE8F3E081E0808396
:1015600080938F0392E09093900380939103608126
:101570007181828193810E945E0380918303853013
:1015800099F52FEF80E792E0215080409040E1F7FD
:1015900000C0000029C00E947B0110929303EDE976
:1015A000F3E080818F79808381E080934F03EEE8C0
:1015B000F3E09AE0908380938F03809390031092DE
:1015C000910360817181828193810E945E03809189
:1015D0008303853049F42FEF80E792E0215080406B
:1015E0009040E1F700C0000081E08093500308952F
:1015F00080919C03882369F010929C03EDE9F3E04D
:101600008081887F808310929E0381E080934F03C6
:1016100029C081E080939C03EDE9F3E0908197601D
:10162000908380939E0380934F03EEE8F3E09AE06B
:10163000908380938F038093900310929103608135
:101640007181828193810E945E0380918303853042
:1016500049F42FEF80E792E0215080409040E1F77D
:1016600000C0000081E0809350038091A1038111AC
:1016700004C08091A203882319F081E080934F0376
:1016800008950F931F93CF93DF938091A50381114A
:101690005CC080919303882321F0813009F44DC010
:1016A00071C08091A30381110DC0109298038091A5
:1016B0008A03882309F466C0815080938A030E94BC
:1016C000BB0032C00E94DD042FE789EA93E021507D
:1016D00080409040E1F700C0000083E593E00E9465
:1016E00097060E94AE058C01909395038093940316
:1016F0000E94200A80938A03809183038170C82FFF
:1017000020E0D22F88E68C9FF0018D9FF00D1124F0
:10171000EB5AFD4F808191818017910728F40E9438
:101720009F0081E08093990381E080935003EDE96D
:10173000F3E080818160808325C00E94430181E0C5
:1017400080939803809350031DC0823069F4809188
:1017500086038230B8F08150809386030E940D0288
:1017600081E080934F030EC0833061F48091880341
:10177000823040F08150809388030E94320281E0E1
:1017800080934F03DF91CF911F910F9108950F9395
:101790001F93CF93DF938091A50381115CC080914B
:1017A0009303882321F0813009F44DC071C08091EA
:1017B000A30381110DC010929A0380918A03833391
:1017C00008F066C08F5F80938A030E94BB0032C01E
:1017D0000E94DD042FE789EA93E021508040904089
:1017E000E1F700C0000083E593E00E9497060E94A5
:1017F000AE058C0190939503809394030E94200A78
:1018000080938A03809183038170C82F20E0D22FB8
:1018100088E68C9FF0018D9FF00D1124E554FD4F5B
:10182000808191810817190728F40E94830081E0C4
:1018300080939B0381E080935003EDE9F3E0808186
:101840008160808325C00E945F0181E080939A03BC
:10185000809350031DC0823069F4809186038F3FCE
:10186000B9F08F5F809386030E940D0281E0809320
:101870004F030EC0833061F4809188038F3F41F0A5
:101880008F5F809388030E94320281E080934F0330
:10189000DF91CF911F910F9108958091A503811140
:1018A00046C083E00E94180881E08093A5030E944F
:1018B000D5010E9415052FEF80E792E0215080406E
:1018C0009040E1F700C0000083E593E00E94970696
:1018D0000E940206809386030E9431052FEF80E765
:1018E00092E0215080409040E1F700C0000083E585
:1018F00093E00E9497060E941206809388036091ED
:10190000860380E090E00E94FF172FEF81EE94E0C5
:10191000215080409040E1F700C0000060918803B2
:1019200081E090E00E94FF1781E0809350030895CA
:101930008091A503811148C083E00E94180882E0CD
:101940008093A5030E94F1010E9415052FEF80E707
:1019500092E0215080409040E1F700C0000083E514
:1019600093E00E9497060E940206809386030E94DD
:1019700031052FEF80E792E0215080409040E1F761
:1019800000C0000083E593E00E9497060E941206C3
:10199000809388036091860380E090E00E94FF17A7
:1019A0002FEF82E597E0215080409040E1F700C0A2
:1019B00000006091880381E090E00E94FF1781E0C1
:1019C0008093500380934F0308958091A503823044
:1019D000C1F08330E9F0811121C083E00E94180832
:1019E0008091A303811104C081E08093A303089533
:1019F0000E94670010929B03109299031092A30318
:101A0000089583E00E94180883E08093A503089559
:101A100083E00E94180882E08093A5030895209136
:101A20003203222321F01092320331E009C02091C9
:101A30003003222321F01092300331E001C030E066
:101A400020919303213009F0AEC020919803211119
:101A500005C020919A03222309F4A5C031110DC0BD
:101A600080919603909197038115904B08F44CC098
:101A700080919A03882309F447C080918A038330B8
:101A800038F48FEC97E00197F1F700C000002DC00B
:101A9000843050F49FE728E381E09150204080405B
:101AA000E1F700C0000021C0873050F49FEF23EF22
:101AB00081E0915020408040E1F700C0000015C057
:101AC0008A3050F49FEF21EE84E091502040804016
:101AD000E1F700C0000009C09FE72BE888E09150C3
:101AE00020408040E1F700C000000E9427011092D2
:101AF000980310929A039FE728E381E091502040D9
:101B00008040E1F700C000000E94F9049FE729EA45
:101B100083E0915020408040E1F700C0000083E561
:101B200093E00E9497060E94D305909397038093B9
:101B3000960320913B0330913C038217930789F071
:101B400090933C0380933B0310923A0380919D0352
:101B500086FF18C08F7B80939D0381E080934F03A5
:101B600011C080913A038F5F80933A03823050F026
:101B700080919D0386FD06C0806480939D0381E073
:101B800080934F038091970382958F7080938C038D
:101B900090918D03981721F081E080935003089570
:101BA0001092500308952091A303213009F06CC0D6
:101BB00040919B03411105C020919903222309F410
:101BC00063C0311118C020918303822F817090E08F
:101BD00028E6289FF001299FF00D1124E554FD4FC0
:101BE00020919403309195038081918128173907C2
:101BF00040F1442331F18091830381110AC09FE7B2
:101C000028E381E0915020408040E1F700C00000CF
:101C100009C09FE729EA83E0915020408040E1F726
:101C200000C000000E94670010929B03109299036D
:101C30009FE728E381E0915020408040E1F700C019
:101C400000000E94DD049FE729EA83E091502040D4
:101C50008040E1F700C0000083E593E00E94970612
:101C60000E94AE0590939503809394030E94200AEE
:101C700080938A0390918B03891721F081E08093F0
:101C8000500308951092500308958091A503813068
:101C900019F50E9415058FE59AEE0197F1F700C03E
:101CA000000083E593E00E9497060E94020680935D
:101CB00086030E9431058FE59AEE0197F1F700C087
:101CC000000083E593E00E9497060E94120680932D
:101CD000880381E080934F0308950E949A022FEFBA
:101CE00080E792E0215080409040E1F700C0000082
:101CF0000E9457021092A10308950E94730281E08E
:101D00008093A10380939C03EDE9F3E090819360BD
:101D100090838093500308950E94B60282E08093DE
:101D2000A10381E080939C03EDE9F3E0908193604F
:101D3000908380935003089581EC0E940D0281E00E
:101D40008093A20380939C03EDE9F3E0908195607A
:101D500090838093500380918303853049F42FEF63
:101D600080E792E0215080409040E1F700C0000001
:101D7000089588EA0E940D0282E08093A20381E028
:101D800080939C03EDE9F3E09081956090838093CC
:101D9000500380918303853049F42FEF80E792E070
:101DA000215080409040E1F700C00000089588E78E
:101DB0000E940D0283E08093A20381E080939C0344
:101DC000EDE9F3E0908195609083809350038091DA
:101DD0008303853049F42FEF80E792E02150804063
:101DE0009040E1F700C000000895CF93DF930E9478
:101DF000F1011092A503C6E8D3E088810E940D028C
:101E0000688180E090E00E94FF172FEF81EE94E060
:101E1000215080409040E1F700C00000C8E8D3E0C6
:101E200088810E943202688181E090E00E94FF1761
:101E30000E944D042FEF81EE94E0215080409040AD
:101E4000E1F700C000000E9442032FEF8FE493EC03
:101E5000215080409040E1F700C00000DF91CF9119
:101E600008958091A50381110CC05B982FEF82E546
:101E700097E0215080409040E1F700C000005B9A5D
:101E800008950E94F50E0895CF930E94F1011092DB
:101E9000A50380E090E00E94F717C82F8093860387
:101EA00081E090E00E94F717809388038C2F0E94B6
:101EB0000D022FEF80E792E0215080409040E1F743
:101EC00000C00000809188030E94320281E080936C
:101ED000500380934F032FEF80E792E02150804022
:101EE0009040E1F700C00000CF9108958091A503D4
:101EF00081112AC08091A203811111C08091A10398
:101F0000813039F018F0823039F01AC00E947D0E0D
:101F100017C00E948C0E14C00E946D0E11C08091DB
:101F200087030E940D021092A2031092A1032FEFCB
:101F300080E792E0215080409040E1F700C000002F
:101F400081E080934F0308950E94440F089580918B
:101F5000A50381111AC08091A10381110E946D0E09
:101F60008091A203813041F020F0823041F0833033
:101F700041F40E949C0E05C00E94B90E02C00E944E
:101F8000D70E81E080934F0308950E94440F089577
:101F90000E940A0383E08093A40381E080939C0362
:101FA000EDE9F3E090819F7D9161908380939E03A2
:101FB00092E090939003EEE8F3E0808380938F03A8
:101FC0008093910360817181828193810E945E037D
:101FD00080918303853049F42FEF80E792E0215010
:101FE00080409040E1F700C0000008950E94260361
:101FF00084E08093A40310929C03EDE9F3E08081D8
:102000008E7E808310929E03EEE8F3E08AE0808368
:1020100081E080938F0380939003109291036081FD
:102020007181828193810E945E0380918303853058
:1020300049F42FEF80E792E0215080409040E1F793
:1020400000C0000008950E94D20281E08093A403A2
:1020500080939C03EDE9F3E090819F7D91619083F3
:1020600080939E0392E090939003EEE8F3E08083E8
:1020700080938F038093910360817181828193812A
:102080000E945E0380918303853049F42FEF80E73F
:1020900092E0215080409040E1F700C00000089598
:1020A0000E94EE0282E08093A40310929C03EDE96B
:1020B000F3E080818E7E808310929E03EEE8F3E051
:1020C0008AE0808381E080938F0380939003109255
:1020D000910360817181828193810E945E0380916E
:1020E0008303853049F42FEF80E792E02150804050
:1020F0009040E1F700C0000008958091A403823071
:1021000059F028F4882341F0813079F010C08330F1
:1021100031F0843039F00BC00E94C80F08C00E9413
:10212000F60F05C00E94231002C00E94501081E0EB
:102130008093500380934F0308958091380390E07B
:102140008C30910540F5FC01EC5CFF4F0C94DD17E1
:102150000E94710A20C00E94410B1DC00E94F80A13
:102160001AC00E94C70B17C00E947D1014C00E94A5
:10217000760F11C00E94A70F0EC00E94310F0BC036
:102180000E947D1008C00E944D0C05C00E94980C52
:1021900002C00E94E50C8091420390E088309105D6
:1021A000E0F4FC01E05CFF4F0C94DD170E94710A23
:1021B00008950E94410B08950E94F80A08950E9414
:1021C000C70B08950E947D1008950E94760F089510
:1021D0000E94A70F08950E94310F08958091430334
:1021E00081608093430308958091430384608093CA
:1021F0004303089588B18F6188B987B117B80895EE
:1022000080914303282F2270982F9370933079F098
:1022100021110FC08260809343034EEE50E16AE0CB
:1022200070E080E090E00E94C01380E0089581E0BB
:10223000089580E0089596B194FF48C09F7099304A
:1022400069F080914003882329F01092400381E0D7
:1022500080933F03963061F180E001C082E02091DD
:102260003E03222329F010923E0321E020933D03F8
:10227000933079F028F49130A1F0923081F012C0BF
:10228000983029F09C3039F0943039F00BC08160DF
:1022900009C0846007C0806105C0806203C080649B
:1022A00001C0806881FF05C091E09093400301C0A8
:1022B00088E083FF03C091E090933E03882339F0C8
:1022C000909143039C7F90934303089580E0089589
:1022D00020914403909141039227892319F0609340
:1022E000420308958091430383FF10C082FF06C01C
:1022F000609342038B7F80934303089544EF50E142
:102300006CE271E080E090E00E946013089580919B
:102310004403883011F138F48230A9F08430C1F0E0
:102320008130A1F50BC0803211F118F48031D1F069
:102330002DC0803409F1803821F128C060E081E0AF
:102340000E946811089561E082E00E94681108957A
:1023500062E084E00E946811089563E088E00E94D2
:102360006811089564E080E10E946811089565E0B5
:1023700080E20E946811089566E080E40E9468117E
:10238000089567E080E80E946811089580914303F2
:102390008B7F8093430384EF90E10E94F8130895AC
:1023A0008CE0809342030E9400118823C9F0809141
:1023B0004403809341030E941B11809344038230A5
:1023C00011F0883031F48091430388608093430397
:1023D00005C080914303877F809343030E94871148
:1023E0000895FC011182108280E090E7948383833A
:1023F0001582178287E081871286138688E084879A
:1024000081E08787108A8EE0818B128A148A138A72
:10241000168A158A178A108E118E128E138E148EBC
:10242000158E168E178E10A211A212A213A214A23C
:102430000895DC01FC0180E09BE191938F5F8A307D
:10244000E1F783E08C9385E111968C93119792E0EC
:1024500012969C9312978EE113968C93139781E2B8
:1024600014968C93149787E215968C93159716966D
:102470008C93169717968C93179786E018968C93E3
:10248000189719969C93199781E01A968C931A972E
:102490001B961C920895813081F488E19CEF909303
:1024A000850080938400EFE6F0E080818160808386
:1024B000E1E8F0E08081826080830895CF92DF922E
:1024C000EF92FF920F931F93CF93DF93C2EBD3E072
:1024D0000CED13E0CC24CA94DC2CE12CF12C888187
:1024E0009981AA81BB81892B8A2B8B2B49F4C882C5
:1024F000D982EA82FB8210924803EC81FD81099522
:102500002696C017D10759F7DF91CF911F910F91F0
:10251000FF90EF90DF90CF900895CF93DF93E2EBA1
:10252000F3E02CED33E080819181A281B3818F3F74
:102530004FEF9407A105B10559F00097A105B1052A
:1025400039F00197A109B10980839183A283B383F4
:102550003696E217F30739F7DF91CF9108951F926E
:102560000F920FB60F9211242F933F934F935F93C7
:102570006F937F938F939F93AF93BF93EF93FF934B
:1025800088E19CEF909385008093840080919E0366
:10259000882309F45CC08091490390914A03A0917B
:1025A0004B03B0914C03BC01CD016F5F7F4F8F4F48
:1025B0009F4F6093490370934A0380934B0390931A
:1025C0004C0328EE33E040E050E00E94BB17672B3D
:1025D000682B692B09F047C081E080934703109274
:1025E000490310924A0310924B0310924C038091BE
:1025F00045038F5F809345038091450399E8899F48
:10260000912D11249295969597702CE3929F8019A5
:102610001124811128C081E0809347031092450363
:10262000809146038F5F809346038091460399E82B
:10263000899F912D11249295969597702CE3929FE6
:102640008019112481110FC0109246030CC0109202
:10265000490310924A0310924B0310924C031092BC
:102660004503109246034C9B09C080913303882395
:1026700029F01092330381E080933203359B09C027
:1026800080913103882329F01092310381E08093F7
:10269000300380914803811102C00E948D12FF9186
:1026A000EF91BF91AF919F918F917F916F915F91CA
:1026B0004F913F912F910F900FBE0F901F90189543
:1026C000CF92DF92EF92FF920F931F93CF93DF93FE
:1026D000E2EBF3E02CED33E0C080D180E280F380C8
:1026E000AFEFCA16DA06E104F10429F0A481B5813E
:1026F000A417B507E1F13696E217F30769F70091E1
:10270000B2031091B3032091B4033091B5030F3F8E
:102710001F4F2105310581F0E8EBF3E021E030E0C7
:10272000E901C080D180E280F380AFEFCA16DA06FB
:10273000E104F104B1F402C0C0E0D0E09E01220F38
:10274000331FF901EC0FFD1FEE0FFF1FEE54FC4F7E
:1027500060837183828393831092480355834483FB
:1027600006C02F5F3F4F369627303105C9F6DF91FF
:10277000CF911F910F91FF90EF90DF90CF90089530
:10278000CF92DF92EF92FF92CF93DF93E2EBF3E0F1
:1027900020E030E0E901C080D180E280F380AFEF3B
:1027A000CA16DA06E104F104A1F0A481B581A417E8
:1027B000B50779F4220F331FC20FD31FCC0FDD1FD3
:1027C000CE54DC4F688379838A839B8310924803BD
:1027D00008C02F5F3F4F369627303105D9F60E944B
:1027E0006013DF91CF91FF90EF90DF90CF9008952D
:1027F000CF93DF93C0914803E2EBF3E0ACEDB3E09D
:102800004FEF5FEF60E070E0D0E024813581281762
:10281000390729F44083518362837383CD2F369621
:10282000EA17FB0791F7C0934803DF91CF91089512
:10283000E2EBF3E02CED33E08FEF9FEFA0E0B0E0B0
:1028400080839183A283B3833696E217F307C1F79F
:102850000895CF93DF93CDB7DEB72A970FB6F894DC
:10286000DEBF0FBECDBF8AE0EBE4F2E0DE011196E1
:1028700001900D928A95E1F78091A403813059F47B
:1028800085E08E838BE08F8388E088878FE089875F
:102890008BE18A870BC0833049F488E08E838CE01B
:1028A0008F83188686E0898784E08A8780919C03DD
:1028B0008823E1F080919D0380FF18C020918A0356
:1028C000822F90E0019637E13A836AE070E00E943F
:1028D000A7177727FB01E55CFD4F30813B83FC01A7
:1028E000E55CFD4F80818C8320938B038091930363
:1028F0008130A1F480919D0385FF10C08CE08E8310
:1029000085E08F838FE4888780918C03E82FF0E047
:10291000E55CFD4F9081998780938D0380919F03A3
:10292000882369F080919D0383FF09C082E18E8333
:1029300083E18F8388E088878BE089878A8780910D
:10294000A503813081F486E189839AE49A831B820E
:1029500093E09C8399E09D839FE49E831F8293E193
:102960009887898713C08250823080F486E18983FA
:102970008AE48A831B8283E08C8389E08D838FE4E1
:102980008E838CE08F8318868DE08987BE016F5F10
:102990007F4F80918E030E94A5032A960FB6F8946C
:1029A000DEBF0FBECDBFDF91CF910895CF93DF93F0
:1029B000CDB7DEB72A970FB6F894DEBF0FBECDBFF6
:1029C0008AE0EBE4F2E0DE01119601900D928A9527
:1029D000E1F780919303813059F480919D038076D3
:1029E000803631F484E08A838DE08B8383E08C83AE
:1029F00080919C03882309F180919D0381FFE5C0AC
:102A00008091A103813021F485E08A831B82DDC09F
:102A1000823009F0DAC085E08A8381E08B83D5C0FB
:102A2000E091A2038FEF8E0F833038F486E08A8323
:102A3000F0E0E55CFD4F80818B8380919E038823CD
:102A400009F442C080919F03811108C08091460320
:102A500080934E038091450380934D03E0914E0394
:102A60008DECE89F912D1124969596959695A92F1A
:102A7000B0E0A55CBD4F2C912E83990F292F220F1A
:102A8000220F920FE91BF0E0E55CFD4F90819F83E0
:102A90009AE49887E0914D03E89F812D1124869553
:102AA00086958695A82FB0E0A55CBD4F9C9199872F
:102AB000880F982F990F990F890FE81BF0E0E55CBC
:102AC000FD4F80818A8704C010924E0310924D03FF
:102AD0008091A503882309F468C081E189833AE4E1
:102AE0003A83E091860329E2E29FA12D1124A29569
:102AF000AF70B0E0A55CBD4F8C918B838DECE89FEF
:102B0000912D1124969596959695989F412D112477
:102B1000469546954695440F542F550F550F450F32
:102B2000A92FA41BB0E0A55CBD4F4C914C83990F1D
:102B3000492F440F440F940FE91BF0E0E55CFD4F73
:102B400090819D8391E09E833F83E0918803E29F83
:102B5000212D112422952F70A22FB0E0A55CBD4F2E
:102B60009C919887E89F912D11249695969596951E
:102B7000989F812D1124869586958695880F282FFC
:102B8000220F220F820FA92FA81BB0E0A55CBD4F1A
:102B90008C918987990F892F880F880F980FE91BCF
:102BA000F0E0E55CFD4F80818A8780914F038111C1
:102BB00004C080919F0381110DC0BE016F5F7F4FE4
:102BC00080918E030E94F90305C080919D0382FDD0
:102BD00027CF33CF2A960FB6F894DEBF0FBECDBFF6
:102BE000DF91CF91089580915003882351F0109286
:102BF00050030E9429148FE19EE40197F1F700C071
:102C0000000080914703811104C080914F03882305
:102C100031F00E94D6141092470310924F0308958A
:102C20001F93CF93DF93CDB7DEB72A970FB6F894F3
:102C3000DEBF0FBECDBF182F8AE0EBE4F2E0DE016D
:102C4000119601900D928A95E1F766EA73E0812F63
:102C50000E94A5032FEF80E792E021508040904032
:102C6000E1F700C0000085E18B83A091B003EDEC9B
:102C7000AE9FE12D1124E695E695E6958E2F880FFF
:102C8000982F990F990F890FA81BEE2339F0F0E0C8
:102C9000E55CFD4F80818C8384E001C083E0E1E04E
:102CA000F0E0EC0FFD1FE80FF11DB0E0A55CBD4F9B
:102CB0009C91908391E0980FE1E0F0E0EC0FFD1F14
:102CC000E90FF11D9CE490839091B10322E0280F5D
:102CD000E1E0F0E0EC0FFD1FE20FF11D2DEC929F03
:102CE000212D1124269526952695A22FB0E0A55CCE
:102CF000BD4F3C91308333E0380FE1E0F0E0EC0F62
:102D0000FD1FE30FF11D220F322F330F330F230F5F
:102D1000921BA92FB0E0A55CBD4F9C91908325E04C
:102D2000280F94E0980FE1E0F0E0EC0FFD1FE90FB1
:102D3000F11D9BE1908390918303923081F128F4FF
:102D4000992349F09130C9F05EC09330C9F19530B4
:102D500009F448C058C0E1E0F0E0EC0FFD1FE20FBD
:102D6000F11D91E290838A5FE1E0F0E0EC0FFD1F3E
:102D7000E80FF11D85E2808346C0E1E0F0E0EC0F52
:102D8000FD1FE20FF11D9EE190838A5FE1E0F0E01C
:102D9000EC0FFD1FE80FF11D87E2808334C0E1E0F6
:102DA000F0E0EC0FFD1FE20FF11D90E290838A5FCF
:102DB000E1E0F0E0EC0FFD1FE80FF11D908323C070
:102DC000E1E0F0E0EC0FFD1FE20FF11D93E29083D4
:102DD0008A5FE1E0F0E0EC0FFD1FE80FF11D80E2FB
:102DE000808311C0E1E0F0E0EC0FFD1FE20FF11D68
:102DF00094E290838A5FE1E0F0E0EC0FFD1FE80FC2
:102E0000F11D82E28083BE016F5F7F4F812F0E94A0
:102E1000F9032A960FB6F894DEBF0FBECDBFDF913F
:102E2000CF911F9108951F920F920FB60F92112408
:102E30002F933F934F935F936F937F938F939F93C2
:102E4000AF93BF93EF93FF938091C6008093FC03F1
:102E50008091FC03803919F08F3F59F027C081E041
:102E6000809352039091FC039093DC038093510371
:102E70002DC080915203882349F1E091510321E054
:102E80002E0F209351038091FC03F0E0E452FC4F9D
:102E90008083109252038091DD03809358034CEDA0
:102EA00053E063E573E00E94580610C0809152031E
:102EB000882361F0E091510381E08E0F80935103EC
:102EC0008091FC03F0E0E452FC4F8083FF91EF918E
:102ED000BF91AF919F918F917F916F915F914F9132
:102EE0003F912F910F900FBE0F901F9018959093C8
:102EF000C5008093C40088E98093C10086E0809378
:102F0000C200089583E390E00E9477170895E0ECF3
:102F1000F0E0908195FFFDCF8093C60008950F9358
:102F20001F93CF93DF93EC01062F662359F010E037
:102F300089910E94871785E38A95F1F700001F5F4A
:102F40001013F6CFDF91CF911F910F91089597FB4A
:102F5000072E16F4009407D077FD09D00E94E317DE
:102F600007FC05D03EF4909581959F4F089570958C
:102F700061957F4F0895A1E21A2EAA1BBB1BFD018C
:102F80000DC0AA1FBB1FEE1FFF1FA217B307E40748
:102F9000F50720F0A21BB30BE40BF50B661F771FA0
:102FA000881F991F1A9469F7609570958095909580
:102FB0009B01AC01BD01CF010895EE0FFF1F0590ED
:102FC000F491E02D0994AA1BBB1B51E107C0AA1F75
:102FD000BB1FA617B70710F0A61BB70B881F991FBA
:102FE0005A95A9F780959095BC01CD010895F9995E
:102FF000FECF92BD81BDF89A992780B50895262FFE
:10300000F999FECF1FBA92BD81BD20BD0FB6F894CD
:0E301000FA9AF99A0FBE01960895F894FFCF30
:10301E0081090002FF81090422FF81090444FF8116
:10302E00090443FF81090448FF81090447FF810118
:10303E000424560001FF810104742FFF81010474E2
:10304E001FFF81010473301B1B1B1B1B1B1B1B1B38
:10305E001BFF81010473201B1B1B1B1B1B1B1B1B3C
:10306E001BFF81010473100000000000000000002F
:10307E0000FF8101047402FF8101047400FF8101CD
:10308E000473021B1B1B1B1B1B1B1B1B1BFF81012A
:10309E000473011B1B1B1B1B1B1B1B1B1BFF81011B
:1030AE0004730000000000000000000000FF81011A
:1030BE00043F017FFF8101046103FF81010461026E
:1030CE00FF8101046603FF8101046602FF81010492
:1030DE006304FF8101046300FF81010442000000CC
:1030EE0000FF8101040200FF810104440000000082
:1030FE00FF8101044300000000FF8101043505FF3C
:10310E008101043504FF8101045700FF8101043859
:10311E0003FF8101043802FF8101040833FF81019E
:10312E00040823FF8101040800FF8101040602FF49
:10313E008101044700000000FF8101040733FF8175
:10314E0001040723FF8101040700FF271E1F202112
:10315E0022232425260001020304051B1B1B1B1B17
:10316E001B1B1B1B1B0000061651216028B52C6073
:10317E0030D33245352737A938423A4B3B853C751B
:10318E003D4E3EF73EA03F004006440047084A0031
:10319E004DE84F8A5227548055D05600582059304A
:1031AE005A385B365C305D305E265F2060186100F9
:1031BE0062D0628063066490642665B965506600CD
:1031CE006798672868B8684069D069706A00000619
:1031DE001651216028B52C6030D33245352737A9DA
:1031EE0038423A4B3B853C753D4E3EF73EA03F0084
:1031FE004006440047084A004DE84F8A5227548043
:10320E0055D05600582059305A385B365C305D30F8
:10321E005E265F206018610062D062806306649053
:10322E00642665B9655066006798672868B8684077
:10323E0069D069706A5F046504500457045904002C
:00000001FF
