S012000043414D636F6E74726F6C2E7372656340
S11300000C9448000C9465000C9465000C946500F5
S11300100C9465000C9465000C9465000C946500C8
S11300200C9465000C9465000C9465000C946500B8
S11300300C9465000C94E90F0C9465000C94650015
S11300400C9465000C9465000C94DB130C9465000F
S11300500C9465000C9465000C9465000C94650088
S11300600C9465000C946500DF0DE20DE50DE80DC0
S1130070EB0DEE0DF40DF10DF70DFA0DFD0D000E67
S11300800D0E100E130E160E190E1C0E220E1F0E40
S113009011241FBECFEFD4E0DEBFCDBF12E0A0E03D
S11300A0B1E0EEEAF9E202C005900D92A037B10783
S11300B0D9F723E0A0E7B2E001C01D92AC33B20748
S11300C0E1F70E9460070C94D5140C9400008EE2B2
S11300D0E3E9F2E0DF01982F1D929A95E9F7DF0139
S11300E01D928A95E9F787EE91E09183808386E0FB
S11300F08093950281E08093960266E087EE91E01A
S11301000E94571408958EE2E3E9F2E0DF01982F8C
S11301101D929A95E9F7DF011D928A95E9F781EE20
S113012091E09183808386E08093950281E08093BF
S1130130960266E081EE91E00E94571408958EE2E3
S1130140E3E9F2E0DF01982F1D929A95E9F7DF01C8
S11301501D928A95E9F78BED91E09183808386E087
S11301608093950281E08093960266E08BED91E0A6
S11301700E9457140895CF93DF938EE2A3E9B2E06F
S1130180ED01E82F1992EA95E9F7E2EDF1E0ED01CE
S113019019928A95E9F7ED93FC9389E0809395028F
S11301A081E080939602A091C902B0E0AA0FBB1F20
S11301B0A351BE4F8D919C9111979093D40280933B
S11301C0D3029C012227307F232F22952F70248372
S11301D09C0122273F703583807F992792958295D1
S11301E08F7089279F70892786838C918F7087836E
S11301F069E0CF010E945714DF91CF9108958EE2F8
S1130200E3E9F2E0DF01982F1D929A95E9F7DF0107
S11302101D928A95E9F78CEC91E09183808386E0C6
S11302208093950281E08093960266E08CEC91E0E5
S11302300E94571408958EE2E3E9F2E0DF01982F5B
S11302401D929A95E9F7DF011D928A95E9F786ECEC
S113025091E09183808386E08093950281E080938E
S1130260960266E086EC91E00E94571408958EE2AF
S1130270E3E9F2E0DF01982F1D929A95E9F7DF0197
S11302801D928A95E9F780EC91E09183808386E062
S11302908093950281E08093960266E080EC91E081
S11302A00E94571408958EE2E3E9F2E0DF01982FEB
S11302B01D929A95E9F7DF011D928A95E9F78AEB79
S11302C091E09183808386E08093950281E080931E
S11302D0960266E08AEB91E00E9457141092D202D3
S11302E00895CF938EE2E3E9F2E0DF01982F1D92A7
S11302F09A95E9F7C1E0DF011D928A95E9F784EB4D
S113030091E09183808386E080939502C093960266
S113031066E084EB91E00E945714C093D202CF911F
S113032008958EE2E3E9F2E0DF01982F1D929A9599
S1130330E9F7DF011D928A95E9F78EEA91E091834E
S1130340808386E08093950281E08093960266E044
S11303508EEA91E00E94571408958EE2E3E9F2E0F8
S1130360DF01982F1D929A95E9F7DF011D928A9576
S1130370E9F788EA91E09183808386E0809395028F
S113038081E08093960266E088EA91E00E94571427
S113039008958EE2E3E9F2E0DF01982F1D929A9529
S11303A0E9F7DF011D928A95E9F782EA91E09183EA
S11303B0808386E08093950281E08093960266E0D4
S11303C082EA91E00E9457140895CF93DF939EE24E
S11303D0A3E9B2E0ED01E92F1992EA95E9F7E9E919
S11303E0F1E0ED0119929A95E9F7ED93FC9399E008
S11303F09093950291E090939602982F92959F7016
S113040096838F70878369E0CF010E945714DF9130
S1130410CF910895CF93DF939EE2A3E9B2E0ED017B
S1130420E92F1992EA95E9F7E0E9F1E0ED01199273
S11304309A95E9F7ED93FC9399E09093950291E0F6
S113044090939602982F92959F7096838F708783CE
S113045069E0CF010E945714DF91CF9108958EE295
S1130460E3E9F2E0DF01982F1D929A95E9F7DF01A5
S11304701D928A95E9F78AE891E09183808386E06A
S11304808093950281E08093960266E08AE891E089
S11304900E9457140895CF93DF938EE2A3E9B2E04C
S11304A0ED01E82F1992EA95E9F7E1E8F1E0ED01B1
S11304B019928A95E9F7ED93FC9389E0809395026C
S11304C081E0809396028091D102982F92959F703B
S11304D096838F70878369E0CF010E945714DF9160
S11304E0CF9108958EE2E3E9F2E0DF01982F1D92A7
S11304F09A95E9F7DF011D928A95E9F78BE791E078
S11305009183808386E08093950281E080939602B4
S113051066E08BE791E00E94571408958EE2E3E9C8
S1130520F2E0DF01982F1D929A95E9F7DF011D9201
S11305308A95E9F785E791E09183808386E080934B
S1130540950281E08093960266E085E791E00E943F
S1130550571408958EE2E3E9F2E0DF01982F1D922B
S11305609A95E9F7DF011D928A95E9F78FE691E004
S11305709183808386E08093950281E08093960244
S113058066E08FE691E00E94571408958EE2E3E955
S1130590F2E0DF01982F1D929A95E9F7DF011D9291
S11305A08A95E9F789E691E09183808386E08093D8
S11305B0950281E08093960266E089E691E00E94CC
S11305C0571408958EE2E3E9F2E0DF01982F1D92BB
S11305D09A95E9F7DF011D928A95E9F783E691E0A0
S11305E09183808386E08093950281E080939602D4
S11305F066E083E691E00E94571408958EE2E3E9F1
S1130600F2E0DF01982F1D929A95E9F7DF011D9220
S11306108A95E9F78DE591E09183808386E0809364
S1130620950281E08093960266E08DE591E00E9458
S113063057140895CF93DF932EE2A3E9B2E0ED01BE
S1130640E22F1992EA95E9F7EDE4F1E0ED01199250
S11306502A95E9F7ED93FC9320E12093950221E09C
S113066020939602658376838783908760E1CF0128
S11306700E945714DF91CF9108958EE2E3E9F2E0EE
S1130680DF01982F1D929A95E9F7DF011D928A9553
S1130690E9F78DE391E09183808380E18093950273
S11306A081E080939602E62FF72F85E090E0219178
S11306B0A0919302B0919402A80FB91F2C930196B4
S11306C08F309105A1F760919502809193029091EA
S11306D094020E94571408958EE2E3E9F2E0DF01E8
S11306E0982F1D929A95E9F7DF011D928A95E9F7F3
S11306F08DE291E09183808380E18093950281E093
S113070080939602E62FF72F85E090E02191A09147
S11307109302B0919402A80FB91F2C9301968F30C5
S11307209105A1F7609195028091930290919402B2
S11307300E94571408958EE2E3E9F2E0DF01982F56
S11307401D929A95E9F7DF011D928A95E9F787E2F0
S113075091E09183808386E08093950281E0809389
S1130760960266E087E291E00E94571408958EE2B3
S1130770E3E9F2E0DF01982F1D929A95E9F7DF0192
S11307801D928A95E9F781E291E09183808386E066
S11307908093950281E08093960266E081E291E085
S11307A00E94571408958EE2E3E9F2E0DF01982FE6
S11307B01D929A95E9F7DF011D928A95E9F789E17F
S11307C091E09183808388E08093950281E0809317
S11307D0960268E089E191E00E94571408958EE240
S11307E0E3E9F2E0DF01982F1D929A95E9F7DF0122
S11307F01D928A95E9F784E191E09183808385E0F5
S11308008093950289E08093960265E084E191E00B
S11308100E94571408958EE2E3E9F2E0DF01982F75
S11308201D929A95E9F7DF011D928A95E9F78FE009
S113083091E09183808385E08093950289E08093A1
S1130840960265E08FE091E00E94571408958EE2CD
S1130850E3E9F2E0DF01982F1D929A95E9F7DF01B1
S11308601D928A95E9F78AE091E09183808385E07F
S11308708093950289E08093960265E08AE091E096
S11308800E94571408958EE2E3E9F2E0DF01982F05
S11308901D929A95E9F7DF011D928A95E9F785E0A3
S11308A091E09183808385E08093950289E0809331
S11308B0960265E085E091E00E94571408958EE267
S11308C0E3E9F2E0DF01982F1D929A95E9F7DF0141
S11308D01D928A95E9F780E091E09183808385E019
S11308E08093950289E08093960265E080E091E030
S11308F00E94571408958091C0028430F1F420912D
S1130900B0022F7030E0322F22273295307F809151
S1130910B1028F7090E0982F8827820F931F209147
S1130920B3022F70820F911D2091B2022F7030E11B
S1130930239F800D911D112402C080E090E09093CC
S1130940C2028093C10208958091C0028430F1F400
S11309502091B0022F7030E0322F22273295307F61
S11309608091B1028F7090E0982F8827820F931F97
S11309702091B3022F70820F911D2091B2022F702B
S113098030E1239F800D911D1124089580E090E0B3
S113099008958091C0028430F1F42091B0022F7048
S11309A030E0322F22273295307F8091B1028F7050
S11309B090E0982F8827820F931F2091B3022F7005
S11309C0820F911D2091B2022F7030E1239F800D80
S11309D0911D1124089580E090E008958091C00253
S11309E0873051F48091B20290E0982F88272091AB
S11309F0B302820F911D089580E090E008958091E4
S1130A00C002843051F49091B2028091B3028F708D
S1130A1020E1929F800D1124089580E00895809133
S1130A20C002843051F49091B2028091B3028F706D
S1130A3020E1929F800D1124089580E00895DC0147
S1130A4011961C921E9212961C9212978FEF139677
S1130A508C93139792E014969C93149715968C9309
S1130A60159716961C92169717961C921797189618
S1130A701C921897FD01399680E111928150E9F793
S1130A8059961C9259975A961C925A975B961C92A7
S1130A905B975C961C925C97FD017D9611928F5F2B
S1130AA08031E1F79D961C920895807F803541F056
S1130AB0803619F08034B9F506C0211126C030C043
S1130AC0211112C01EC0222361F0FA0180E090E0DF
S1130AD03191DB01A80FB91F16963C93019682173A
S1130AE0B8F3FB0114820895FA01DB0119964F5FF4
S1130AF05F4F2150420F511D81918D93E417F507EB
S1130B00D9F781E0FB0184830895942FDB01599682
S1130B10E42FF52F81918D938E2F891B8217D0F3AB
S1130B2081E0FB0184830895CF93DF93EC018B85EF
S1130B308F3F59F480E007C091919F3F21F08F5F70
S1130B409D938E30C9F78DA707C08D8FFE013C960B
S1130B50DE015E9681E0F0CFDF91CF910895809120
S1130B609702813081F480919602893049F4809112
S1130B7098028075803521F483E992E00E949405FF
S1130B8082E0809397020895809179028160809336
S1130B90790208958091790284608093790208959E
S1130BA088E284B98FEF85B917B888B99AEE9AB9F3
S1130BB08BB90895CF93DF9333B1E6B169B125E0E2
S1130BC080E090E0A62FA071F32FF470E072732FF1
S1130BD070746470532F5170432F427033230CF0A0
S1130BE08160A11101C08260F11101C08460E11132
S1130BF001C08860711101C08061611101C080620F
S1130C00511101C08064411101C08068CFE1DEE46C
S1130C102197F1F700C00000215001F781FF03C0C4
S1130C2021E02093730283FF03C021E0209371022B
S1130C30009729F0209179022C7F20937902DF918B
S1130C40CF91089580917902282F2270982F937064
S1130C50933079F021110FC082608093790244ECC3
S1130C6055E064E670E080E090E00E94FA1080E0D5
S1130C70089581E0089580E00895409174025091B0
S1130C80750220917602309177022427352782233A
S1130C909323892B19F06093780208958091790247
S1130CA083FF0DC082FF03C06093780208954AEC6D
S1130CB055E06CE271E080E090E00E949A100895A3
S1130CC080917402909175028A30910509F46BC089
S1130CD088F48430910589F130F48130910509F16B
S1130CE0029729F166C08630910509F450C008972F
S1130CF051F15FC08032910591F138F48C30910547
S1130D0009F44BC0409729F154C08038910599F1FA
S1130D10811521E09207A9F18034910509F049C0B9
S1130D2024C060E081E090E00E943D06089561E007
S1130D3082E090E00E943D06089562E084E090E045
S1130D400E943D06089563E088E090E00E943D061D
S1130D50089564E080E190E00E943D06089565E016
S1130D6080E290E00E943D06089566E080E490E011
S1130D700E943D06089567E080E890E00E943D06E9
S1130D80089568E080E091E00E943D06089569E0DE
S1130D9086E090E00E943D0608956AE08CE090E0D1
S1130DA00E943D0608956BE08AE090E00E943D06B3
S1130DB00895809179028B7F809379028AEC95E083
S1130DC00E94321108958CE0809378020E942206DA
S1130DD0882321F180917402909175029093770297
S1130DE0809376020E94DA059093750280937402D0
S1130DF08230910511F0089751F48091E20281113B
S1130E0006C08091790288608093790205C0809140
S1130E107902877F809379020E9460060895559A2B
S1130E2008955D9808955D9A0895CF93DF93D82F20
S1130E308823D1F0C0E00E9413072FE78AE196E0EF
S1130E40215080409040E1F700C000000E9411074B
S1130E502FE78AE196E0215080409040E1F700C0FE
S1130E600000CF5FCD13E7CFDF91CF91089581E0EC
S1130E700E94850F0E940F070E94D0050E94521104
S1130E800E94310E0E944A14789408950E94DA0553
S1130E90049721F00E94520E843089F484E090E09B
S1130EA090937702809376029093750280937402F4
S1130EB0809381028093840281E08093DF0208950D
S1130EC00E94370783E992E00E941F0581EC92E0BB
S1130ED00E94280F0E94460785EE92E00E94530F5D
S1130EE00E9495070E94E3060E94980F0E94070F34
S1130EF00E94D40D0E94090B0E94AF050E94260C8B
S1130F0080918702811108C080919002811104C0F0
S1130F1080918F02882331F38FE19EE40197F1F7EA
S1130F2000C000000E942D13DDCF2FEF84E39CE06E
S1130F30215080409040E1F700C0000089E00E9409
S1130F4015070E9413070E945F042FE788E391E0CE
S1130F50215080409040E1F700C0000083E992E016
S1130F600E9494050E947B040E949B032FE788E360
S1130F7091E0215080409040E1F700C000000E94C1
S1130F80B7032FE788E391E0215080409040E1F7D8
S1130F9000C000008091DF02882301F161E071E06C
S1130FA082E090E00E941A032FE788E391E0215049
S1130FB080409040E1F700C0000081E00E944A13A5
S1130FC08AE00E9415070E949B032FE788E391E0C3
S1130FD0215080409040E1F700C000006091CD02B4
S1130FE07091CE028091CF029091D0020E941A0398
S1130FF02FE788E391E0215080409040E1F700C062
S113100000000E94B7032FE788E391E0215080405D
S11310109040E1F700C000000E9411070E94C9013E
S11310202FE788E391E0215080409040E1F700C031
S113103000000E9427042FE788E391E021508040BC
S11310409040E1F700C0000083E992E00E9494051B
S11310500E94FF048093C5028093C6020E94430449
S11310602FE788E391E0215080409040E1F700C0F1
S1131070000083E992E00E9494050E940F0580938A
S1131080C7028093C8028FE39CE90197F1F700C07F
S113109000000E9453019FE728E381E09150204023
S11310A08040E1F700C000000E9413070E949101F4
S11310B09FE728E381E0915020408040E1F700C0A1
S11310C000000E94D3039FE728E381E09150204071
S11310D08040E1F700C000000E94BB0082E00E9453
S11310E0150708954091D3025091D4028091ED01E7
S11310F09091EE0184179507D8F4EFEEF1E081E0CA
S1131100219131912417350720F48F5F8433C1F77F
S113111011C0E82FF0E0EE0FFF1FE351FE4F2081D6
S113112031812417350789F0882379F08150089597
S113113080E00895E82FF0E0EE0FFF1FE351FE4F2B
S1131140208131812417350789F708958091D202CF
S1131150882321F0813009F446C061C00E947101E6
S113116081E08093D2028091E302982F9D7F11F059
S1131170843029F4ECEDF2E08081806280832FE7F3
S113118088E391E0215080409040E1F700C00000E6
S11311900E940B042FE788E391E0215080409040A7
S11311A0E1F700C0000083E992E00E9494050E94E8
S11311B0C904E5EDF2E08083918392959F7090934A
S11311C0CB02EDECF2E081E080838093CE0292E0EA
S11311D09093CF028093D002608171818281938148
S11311E00E941A031CC00E9453011092D202ECED1B
S11311F0F2E080818F79808381E080938F02EDEC2F
S1131200F2E09AE090838093CE028093CF02109212
S1131210D00260817181828193810E941A0381E0EE
S11312208093900208958091DB02882369F01092E4
S1131230DB02ECEDF2E08081887F80831092DD0296
S113124081E080938F021CC081E08093DB02ECED8F
S1131250F2E09081976090838093DD0280938F0207
S1131260EDECF2E09AE090838093CE028093CF027B
S11312701092D00260817181828193810E941A034D
S113128081E0809390028091E002811104C08091FA
S1131290E102882319F081E080938F020895CF93AF
S11312A0DF938091E402811150C08091D20288239F
S11312B021F0813009F441C065C08091E2028111BE
S11312C00DC01092D7028091C902882309F45AC034
S11312D081508093C9020E94BB0026C00E94EF0384
S11312E02FE789EA93E0215080409040E1F700C065
S11312F0000083E992E00E9494050E94A404EC019A
S11313009093D4028093D3020E9472088093C902FE
S11313108091ED019091EE018C179D0728F40E94B5
S11313209F0081E08093D80281E080939002ECEDED
S1131330F2E080818160808325C00E941B0181E0EE
S11313408093D702809390021DC0823069F480910B
S1131350C5028230B8F081508093C5020E94E50135
S113136081E080938F020EC0833061F48091C702C4
S1131370823040F081508093C7020E940A0281E0CB
S113138080938F02DF91CF910895CF93DF93809163
S1131390E402811150C08091D202882321F081306F
S11313A009F441C065C08091E20281110DC0109220
S11313B0D9028091C902833308F05AC08F5F8093A9
S11313C0C9020E94BB0026C00E94EF032FE789EAEE
S11313D093E0215080409040E1F700C0000083E991
S11313E092E00E9494050E94A404EC019093D4021C
S11313F08093D3020E9472088093C90280915302A1
S113140090915402C817D90728F40E94830081E000
S11314108093DA0281E080939002ECEDF2E0808127
S11314208160808325C00E94370181E08093D902C6
S1131430809390021DC0823069F48091C5028F3F71
S1131440B9F08F5F8093C5020E94E50181E080932B
S11314508F020EC0833061F48091C7028F3F41F048
S11314608F5F8093C7020E940A0281E080938F02FB
S1131470DF91CF9108955B982FEF82E597E021509B
S113148080409040E1F700C000005B9A089580918D
S1131490E402811146C083E00E94150781E0809335
S11314A0E4020E94AD010E9427042FEF80E792E03E
S11314B0215080409040E1F700C0000083E992E0B1
S11314C00E9494050E94FF048093C5020E94430475
S11314D02FEF80E792E0215080409040E1F700C078
S11314E0000083E992E00E9494050E940F05809316
S11314F0C7026091C50280E090E00E94C7142FEFFC
S113150081EE94E0215080409040E1F700C000005B
S11315106091C70281E090E00E94C71481E080934B
S1131520900208958091E402811148C083E00E94F2
S1131530150782E08093E4020E94C9010E942704F7
S11315402FEF80E792E0215080409040E1F700C007
S1131550000083E992E00E9494050E94FF048093B6
S1131560C5020E9443042FEF80E792E0215080409F
S11315709040E1F700C0000083E992E00E949405E6
S11315800E940F058093C7026091C50280E090E03D
S11315900E94C7142FEF82E597E0215080409040CD
S11315A0E1F700C000006091C70281E090E00E9472
S11315B0C71481E08093900280938F0208958091F4
S11315C0E4028230C1F08330E9F0811121C083E06C
S11315D00E9415078091E202811104C081E080938A
S11315E0E20208950E9467001092DA021092D80273
S11315F01092E202089583E00E94150783E080932D
S1131600E402089583E00E94150782E08093E402D7
S1131610089580917202882321F01092720291E061
S113162009C080917002882321F01092700291E029
S113163001C090E08091D202813009F0AEC0809167
S1131640D702811105C08091D902882309F4A5C06D
S113165091110DC08091D5029091D6028115904BC5
S113166008F44CC08091D902882309F447C08091C2
S1131670C902833038F48FEC97E00197F1F700C08A
S113168000002DC0843050F49FE728E381E091509E
S113169020408040E1F700C0000021C0873050F4B2
S11316A09FEF23EF81E0915020408040E1F700C09C
S11316B0000015C08A3050F49FEF21EE84E0915071
S11316C020408040E1F700C0000009C09FE72BE8FC
S11316D088E0915020408040E1F700C000000E9463
S11316E0FF001092D7021092D9029FE728E381E00D
S11316F0915020408040E1F700C000000E940B049C
S11317009FE729EA83E0915020408040E1F700C040
S1131710000083E992E00E9494050E94C90490931A
S1131720D6028093D50220917B0230917C028217ED
S1131730930789F090937C0280937B0210927A0243
S11317408091DC0286FF18C08F7B8093DC0281E0ED
S113175080938F0211C080917A028F5F80937A0206
S1131760823050F08091DC0286FD06C08064809354
S1131770DC0281E080938F028091D60282958F7083
S11317808093CB029091CC02981721F081E0809352
S1131790900208951092900208958091E20281309F
S11317A009F053C04091DA02411105C08091D8027A
S11317B0882309F44AC091110DC02091D3023091BD
S11317C0D402809153029091540228173907D0F023
S11317D04423C1F09FE728E381E0915020408040FA
S11317E0E1F700C000000E9467001092DA02109234
S11317F0D8029FE728E381E0915020408040E1F740
S113180000C000000E94EF039FE729EA83E09150A3
S113181020408040E1F700C0000083E992E00E948C
S113182094050E94A4049093D4028093D3020E944E
S113183072088093C9029091CA02891721F081E04D
S11318408093900208951092900208958091E4028A
S1131850813019F50E9427048FE59AEE0197F1F77C
S113186000C0000083E992E00E9494050E94FF04F6
S11318708093C5020E9443048FE59AEE0197F1F725
S113188000C0000083E992E00E9494050E940F05C5
S11318908093C70281E080938F0208950E947202B0
S11318A02FEF80E792E0215080409040E1F700C0A4
S11318B000000E942F021092E00208950E944B0241
S11318C081E08093E0028093DB02ECEDF2E0908112
S11318D0936090838093900208950E948E0282E028
S11318E08093E00281E08093DB02ECEDF2E09081F2
S11318F09360908380939002089581EC0E94E501A7
S113190081E08093E1028093DB02ECEDF2E09081D0
S11319109560908380939002089588EA0E94E5017F
S113192082E08093E10281E08093DB02ECEDF2E05F
S113193090819560908380939002089588E70E9437
S1131940E50183E08093E10281E08093DB02ECED2A
S1131950F2E0908195609083809390020895CF93F4
S11319600E94C9011092E40280E090E00E94BF143A
S1131970C82F8093C50281E090E00E94BF14809339
S1131980C7028C2F0E94E5012FEF80E792E02150DF
S113199080409040E1F700C000008091C7020E949F
S11319A00A0281E08093900280938F022FEF80E7F8
S11319B092E0215080409040E1F700C00000CF91B8
S11319C008958091E40281112AC08091E10281117D
S11319D011C08091E002813039F018F0823039F082
S11319E01AC00E945E0C17C00E946D0C14C00E94A5
S11319F04E0C11C08091C6020E94E5011092E102D2
S1131A001092E0022FEF80E792E021508040904056
S1131A10E1F700C0000081E080938F0208950E94E6
S1131A20AF0C08958091E40281111AC08091E00204
S1131A3081110E944E0C8091E102813041F020F02E
S1131A40823041F0833041F40E947D0C05C00E9435
S1131A508D0C02C00E949E0C81E080938F02089539
S1131A600E94AF0C08950E94E20283E08093E30297
S1131A7081E08093DB02ECEDF2E090819F7D916147
S1131A8090838093DD0292E09093CF02EDECF2E03C
S1131A9080838093CE028093D002608171818281A1
S1131AA093810E941A0308950E94FE0284E08093A9
S1131AB0E3021092DB02ECEDF2E080818E7E808303
S1131AC01092DD02EDECF2E08AE0808381E0809305
S1131AD0CE028093CF021092D00260817181828104
S1131AE093810E941A0308950E94AA0281E08093C0
S1131AF0E3028093DB02ECEDF2E090819F7D916143
S1131B0090838093DD0292E09093CF02EDECF2E0BB
S1131B1080838093CE028093D00260817181828120
S1131B2093810E941A0308950E94C60282E0809362
S1131B30E3021092DB02ECEDF2E080818E7E808382
S1131B401092DD02EDECF2E08AE0808381E0809384
S1131B50CE028093CF021092D00260817181828183
S1131B6093810E941A0308958091E302823059F010
S1131B7028F4882341F0813079F010C0833031F0AB
S1131B80843039F00BC00E94330D08C00E94540DFC
S1131B9005C00E94740D02C00E94940D81E08093E0
S1131BA0900280938F0208958091780290E08C30A7
S1131BB0910540F5FC01EC5CFF4F0C94A5140E94C8
S1131BC0A60820C00E944F091DC00E9413091AC014
S1131BD00E94C50917C00E94B40D14C00E94E10CF4
S1131BE011C00E94120D0EC00E943B0A0BC00E943D
S1131BF0B40D08C00E94470A05C00E94920A02C0A0
S1131C000E94DF0A8091820290E088309105E0F41E
S1131C10FC01E05CFF4F0C94A5140E94A6080895F3
S1131C200E944F0908950E94130908950E94C5094E
S1131C3008950E94B40D08950E94E10C08950E9435
S1131C40120D08950E943B0A0895809183028160D9
S1131C508093830208958091830284608093830239
S1131C60089588B18F6188B987B117B808958091B4
S1131C708302282F2270982F9370933079F02111CA
S1131C800FC082608093830245E25EE06AE070E008
S1131C9080E090E00E94FA1080E0089581E00895C9
S1131CA080E0089596B194FF48C09F70993069F020
S1131CB080918002882329F01092800281E0809331
S1131CC07F02963061F180E001C082E020917E02C3
S1131CD0222329F010927E0221E020937D0293308A
S1131CE079F028F49130A1F0923081F012C098304C
S1131CF029F09C3039F0943039F00BC0816009C070
S1131D00846007C0806105C0806203C0806401C034
S1131D10806881FF05C091E09093800201C088E053
S1131D2083FF03C091E090937E02882339F0909161
S1131D3083029C7F90938302089580E0089520910C
S1131D408402909181029227892319F06093820280
S1131D5008958091830283FF10C082FF06C06093C0
S1131D6082028B7F8093830208954BE25EE06CE2F3
S1131D7071E080E090E00E949A10089580918402BE
S1131D80883011F138F48230A9F08430C1F0813008
S1131D90A1F50BC0803211F118F48031D1F02DC0BF
S1131DA0803409F1803821F128C060E081E00E948C
S1131DB09F0E089561E082E00E949F0E089562E004
S1131DC084E00E949F0E089563E088E00E949F0EC5
S1131DD0089564E080E10E949F0E089565E080E22A
S1131DE00E949F0E089566E080E40E949F0E08956D
S1131DF067E080E80E949F0E0895809183028B7FA4
S1131E00809383028BE29EE00E94321108958CE05D
S1131E10809382020E94370E8823C9F08091840245
S1131E20809381020E94520E80938402823011F0CA
S1131E30883031F48091830288608093830205C0E6
S1131E4080918302877F809383020E94BE0E08954F
S1131E50FC011182108280E090E7938382831482D4
S1131E60168287E080871186128688E083878AE05D
S1131E70848781E08587868717868EE0808B118A28
S1131E80138A128A158A148A168A178A108E118E5A
S1131E90128E138E148E158E168E178E10A211A20A
S1131EA012A213A20895DC01FC0180E09BE191934E
S1131EB08F5F8A30E1F783E08C9385E111968C93F0
S1131EC0119792E012969C9312978EE113968C933D
S1131ED0139781E214968C93149787E215968C934A
S1131EE0159716968C93169717968C93179786E0EA
S1131EF018968C93189719969C93199781E01A96C3
S1131F008C931A971B961C920895813081F488E172
S1131F109CEF9093850080938400EFE6F0E080814D
S1131F2081608083E1E8F0E08081826080830895AD
S1131F30CF92DF92EF92FF920F931F93CF93DF9391
S1131F40C1EFD2E00BE113E0CC24CA94DC2CE12CE9
S1131F50F12C88819981AA81BB81892B8A2B8B2BB7
S1131F6049F4C882D982EA82FB8210928802EC8109
S1131F70FD8109952696C017D10759F7DF91CF91B6
S1131F801F910F91FF90EF90DF90CF900895CF9322
S1131F90DF93E1EFF2E02BE133E080819181A281D4
S1131FA0B3818F3F4FEF9407A105B10559F0009716
S1131FB0A105B10539F00197A109B1098083918385
S1131FC0A283B3833696E217F30739F7DF91CF91F3
S1131FD008951F920F920FB60F9211242F933F93DF
S1131FE04F935F936F937F938F939F93AF93BF931D
S1131FF0EF93FF9388E19CEF909385008093840096
S11320008091DD02882309F45CC08091890290915B
S11320108A02A0918B02B0918C02BC01CD016F5F4A
S11320207F4F8F4F9F4F6093890270938A028093F2
S11320308B0290938C0228EE33E040E050E00E9443
S11320408314672B682B692B09F047C081E08093C8
S113205087021092890210928A0210928B021092C7
S11320608C02809185028F5F809385028091850226
S113207099E8899F912D11249295969597702CE358
S1132080929F80191124811128C081E080938702D6
S113209010928502809186028F5F809386028091E0
S11320A0860299E8899F912D1124929596959770AF
S11320B02CE3929F8019112481110FC01092860283
S11320C00CC01092890210928A0210928B02109214
S11320D08C0210928502109286024C9B09C080915A
S11320E07302882329F01092730281E080937202B4
S11320F0359B09C080917102882329F010927102E6
S113210081E08093700280918802811102C00E9454
S1132110C70FFF91EF91BF91AF919F918F917F91E5
S11321206F915F914F913F912F910F900FBE0F9040
S11321301F901895CF92DF92EF92FF920F931F9307
S1132140CF93DF93E1EFF2E02BE133E0C080D18065
S1132150E280F380AFEFCA16DA06E104F10429F055
S1132160A481B581A417B507E1F13696E217F30708
S113217069F70091F1021091F2022091F30230917B
S1132180F4020F3F1F4F2105310581F0E7EFF2E024
S113219021E030E0E901C080D180E280F380AFEF3C
S11321A0CA16DA06E104F104B1F402C0C0E0D0E0DA
S11321B09E01220F331FF901EC0FFD1FEE0FFF1FCD
S11321C0EF50FD4F60837183828393831092880262
S11321D05583448306C02F5F3F4F36962730310521
S11321E0C9F6DF91CF911F910F91FF90EF90DF908F
S11321F0CF900895CF92DF92EF92FF92CF93DF9327
S1132200E1EFF2E020E030E0E901C080D180E2803B
S1132210F380AFEFCA16DA06E104F104A1F0A48159
S1132220B581A417B50779F4220F331FC20FD31F4A
S1132230CC0FDD1FCF50DD4F688379838A839B8366
S11322401092880208C02F5F3F4F36962730310521
S1132250D9F60E949A10DF91CF91FF90EF90DF9012
S1132260CF900895CF93DF93C0918802E1EFF2E01D
S1132270ABE1B3E04FEF5FEF60E070E0D0E02481CA
S113228035812817390729F4408351836283738386
S1132290CD2F3696EA17FB0791F7C0938802DF919A
S11322A0CF910895E1EFF2E02BE133E08FEF9FEF60
S11322B0A0E0B0E080839183A283B3833696E217D3
S11322C0F307C1F70895CF93DF93CDB7DEB72A970D
S11322D00FB6F894DEBF0FBECDBF8AE0E5E6F2E0AC
S11322E0DE01119601900D928A95E1F78091E30247
S11322F0813059F485E08E838BE08F8388E0888772
S11323008FE089878BE18A870BC0833049F488E0AA
S11323108E838CE08F83188686E0898784E08A87A1
S11323208091DB028823E1F08091DC0280FF18C0F9
S11323302091C902822F90E0019637E13A836AE046
S113234070E00E946F147727FB01EB5AFD4F308138
S11323503B83FC01EB5AFD4F80818C832093CA029E
S11323608091D2028130A1F48091DC0285FF10C0FB
S11323708CE08E8385E08F838FE488878091CB0205
S1132380E82FF0E0EB5AFD4F908199878093CC02BF
S11323908091DE02882369F08091DC0283FF09C00A
S11323A082E18E8383E18F8388E088878BE089874D
S11323B08A878091E402813081F486E189839AE4FA
S11323C09A831B8293E09C8399E09D839FE49E8380
S11323D01F8293E19887898713C08250823080F4EA
S11323E086E189838AE48A831B8283E08C8389E083
S11323F08D838FE48E838CE08F8318868DE08987AC
S1132400BE016F5F7F4F8091CD020E943D032A96EB
S11324100FB6F894DEBF0FBECDBFDF91CF91089504
S1132420CF93DF93CDB7DEB72A970FB6F894DEBF0C
S11324300FBECDBF8AE0E5E6F2E0DE011196019021
S11324400D928A95E1F78091D202813059F48091FE
S1132450DC028076803631F484E08A838DE08B83DD
S113246083E08C838091DB02882309F18091DC0274
S113247081FFE5C08091E002813021F485E08A8308
S11324801B82DDC0823009F0DAC085E08A8381E0F6
S11324908B83D5C0E091E1028FEF8E0F833038F447
S11324A086E08A83F0E0EB5AFD4F80818B83809134
S11324B0DD02882309F442C08091DE02811108C044
S11324C08091860280938E028091850280938D0292
S11324D0E0918E028DECE89F912D112496959695AE
S11324E09695A92FB0E0AB5ABD4F2C912E83990F2E
S11324F0292F220F220F920FE91BF0E0EB5AFD4F18
S113250090819F839AE49887E0918D02E89F812DC2
S11325101124869586958695A82FB0E0AB5ABD4FB9
S11325209C919987880F982F990F990F890FE81B11
S1132530F0E0EB5AFD4F80818A8704C010928E022E
S113254010928D028091E402882309F468C081E12D
S113255089833AE43A83E091C50229E2E29FA12DFE
S11325601124A295AF70B0E0AB5ABD4F8C918B8310
S11325708DECE89F912D1124969596959695989FAC
S1132580412D1124469546954695440F542F550FD9
S1132590550F450FA92FA41BB0E0AB5ABD4F4C916A
S11325A04C83990F492F440F440F940FE91BF0E01B
S11325B0EB5AFD4F90819D8391E09E833F83E09190
S11325C0C702E29F212D112422952F70A22FB0E083
S11325D0AB5ABD4F9C919887E89F912D11249695F5
S11325E096959695989F812D112486958695869526
S11325F0880F282F220F220F820FA92FA81BB0E0CB
S1132600AB5ABD4F8C918987990F892F880F880FFA
S1132610980FE91BF0E0EB5AFD4F80818A87809187
S11326208F02811104C08091DE0281110DC0BE01B0
S11326306F5F7F4F8091CD020E946C0305C0809133
S1132640DC0282FD27CF33CF2A960FB6F894DEBF83
S11326500FBECDBFDF91CF91089580919002882362
S113266051F0109290020E9463118FE19EE4019751
S1132670F1F700C0000080918702811104C08091AD
S11326808F02882331F00E94101210928702109258
S11326908F0208951F93CF93DF93CDB7DEB72A97A8
S11326A00FB6F894DEBF0FBECDBF182F8AE0E5E663
S11326B0F2E0DE01119601900D928A95E1F70E94F5
S11326C0EE0465EE72E0812F0E943D032FEF80E758
S11326D092E0215080409040E1F700C0000085E185
S11326E08B83A091EF02EDECAE9FE12D1124E695D2
S11326F0E695E6958E2F880F982F990F990F890FDD
S1132700A81BEE2339F0F0E0EB5AFD4F80818C8357
S113271084E001C083E0E1E0F0E0EC0FFD1FE80F8E
S1132720F11DB0E0AB5ABD4F9C91908391E0980F9E
S1132730E1E0F0E0EC0FFD1FE90FF11D9CE4908354
S11327409091F00222E0280FE1E0F0E0EC0FFD1F91
S1132750E20FF11D2DEC929F212D11242695269533
S11327602695A22FB0E0AB5ABD4F3C9130838D5FCC
S1132770E1E0F0E0EC0FFD1FE80FF11D822F880F60
S1132780282F220F220F820F981BA92FB0E0AB5ADB
S1132790BD4F8C918083BE016F5F7F4F812F0E945C
S11327A06C032A960FB6F894DEBF0FBECDBFDF913F
S11327B0CF911F9108951F920F920FB60F9211247B
S11327C02F933F934F935F936F937F938F939F9335
S11327D0AF93BF93EF93FF938091C60080933B0325
S11327E080913B03803919F08F3F59F027C081E075
S11327F08093920290913B0390931B0380939102E8
S11328002DC080919202882349F1E091910221E048
S11328102E0F2093910280913B03F0E0E55EFC4F84
S113282080831092920280911C03809398024BE162
S113283053E063E972E00E94550510C08091920252
S1132840882361F0E091910281E08E0F80939102E0
S113285080913B03F0E0E55EFC4F8083FF91EF91B4
S1132860BF91AF919F918F917F916F915F914F91A4
S11328703F912F910F900FBE0F901F90189590933A
S1132880C5008093C40088E98093C10086E08093EA
S1132890C200089583E390E00E943F140895E0ECA1
S11328A0F0E0908195FFFDCF8093C60008950F93CB
S11328B01F93CF93DF93EC01062F662359F010E0AA
S11328C089910E944F1485E38A95F1F700001F5FF8
S11328D01013F6CFDF91CF911F910F91089597FBBD
S11328E0072E16F4009407D077FD09D00E94AB148C
S11328F007FC05D03EF4909581959F4F08957095FF
S113290061957F4F0895A1E21A2EAA1BBB1BFD01FE
S11329100DC0AA1FBB1FEE1FFF1FA217B307E407BA
S1132920F50720F0A21BB30BE40BF50B661F771F12
S1132930881F991F1A9469F76095709580959095F2
S11329409B01AC01BD01CF010895EE0FFF1F05905F
S1132950F491E02D0994AA1BBB1B51E107C0AA1FE7
S1132960BB1FA617B70710F0A61BB70B881F991F2C
S11329705A95A9F780959095BC01CD010895F999D0
S1132980FECF92BD81BDF89A992780B50895262F70
S1132990F999FECF1FBA92BD81BD20BD0FB6F89440
S11129A0FA9AF99A0FBE01960895F894FFCFA3
S11329AE81090422FF81090444FF81090443FF8144
S11329BE090448FF81090447FF81010424560001DC
S11329CEFF8101047402FF8101047400FF8101047C
S11329DE73021B1B1B1B1B1B1B1B1B1BFF810104DD
S11329EE73011B1B1B1B1B1B1B1B1B1BFF810104CE
S11329FE730000000000000000000000FF810104CD
S1132A0E6103FF8101046102FF8101046603FF81FA
S1132A1E01046602FF8101046304FF810104630063
S1132A2EFF8101044200000000FF8101040200FF47
S1132A3E8101044400000000FF81010443000000F2
S1132A4E00FF8101043505FF8101043504FF810176
S1132A5E045700FF8101043803FF8101043802FF8B
S1132A6E8101040833FF8101040823FF8101040856
S1132A7E00FF8101044700000000FF8101040733B9
S1132A8EFF8101040723FF8101040700FF000006F4
S1132A9E1651216028B52C6030D33245352737A91D
S1132AAE38423A4B3B853C753D4E3EF73EA03F00C7
S1132ABE4006440047084A004DE84F8A5227548086
S1132ACE55D05600582059305A385B365C305D303C
S1132ADE5E265F206018610062D062806306649097
S1132AEE642665B9655066006798672868B86840BB
S1132AFE69D069706A271E1F2021222324252600EF
S1132B0E01020304051B1B1B1B1B1B1B1B1B1B0096
S9030000FC
