:100000000C9454000C9471000C9471000C947100C9
:100010000C9471000C9471000C9471000C9471009C
:100020000C9471000C9471000C9471000C9471008C
:100030000C9471000C94B6140C9471000C94710023
:100040000C9471000C9471000C9420190C947100A4
:100050000C9471000C9471000C9471000C9471005C
:100060000C9471000C947100A712AA12AD12B01278
:10007000B312B612BC12B912BF12C212C512C81204
:10008000D512D812DB12DE12E112E412EA12E712E4
:100090003213301349132E1339132A13391328132B
:1000A0003413391339132C1311241FBECFEFD4E0AE
:1000B000DEBFCDBF13E0A0E0B1E0ECE8F4E302C0A6
:1000C00005900D92A036B107D9F724E0A0E6B3E081
:1000D00001C01D92A033B207E1F70E9424090C94DD
:1000E000441A0C9400008EE2E4E8F3E0DF01982F5C
:1000F0001D929A95E9F7DF011D928A95E9F78FE441
:1001000092E09183808386E08093860381E08093F0
:10011000870366E08FE492E00E949C1908958EE2C6
:10012000E4E8F3E0DF01982F1D929A95E9F7DF01EB
:100130001D928A95E9F789E492E09183808386E0B5
:100140008093860381E08093870366E089E492E0F0
:100150000E949C1908958EE2E4E8F3E0DF01982FF5
:100160001D929A95E9F7DF011D928A95E9F783E4DC
:1001700092E09183808386E08093860381E0809380
:10018000870366E083E492E00E949C190895CF9370
:10019000DF932EE2A4E8B3E0ED01E22F1992EA9595
:1001A000E9F7EAE3F2E0ED0119922A95E9F7ED9318
:1001B000FC9329E02093860321E02093870320917C
:1001C000B403822F817090E02091BB0334E3389F09
:1001D000D001399FB00D1124A20FB11DAA0FBB1F72
:1001E000AD57BD4F8D919C9111979093C60380930D
:1001F000C5039C012227307F232F22952F70248353
:100200009C0122273F703583807F992792958295A4
:100210008F7089279F70892786838C918F70878341
:1002200069E0CF010E949C19DF91CF9108958EE281
:10023000E4E8F3E0DF01982F1D929A95E9F7DF01DA
:100240001D928A95E9F784E392E09183808386E0AA
:100250008093860381E08093870366E084E392E0E5
:100260000E949C1908958EE2E4E8F3E0DF01982FE4
:100270001D929A95E9F7DF011D928A95E9F78EE2C2
:1002800092E09183808386E08093860381E080936F
:10029000870366E08EE292E00E949C1908958EE248
:1002A000E4E8F3E0DF01982F1D929A95E9F7DF016A
:1002B0001D928A95E9F788E292E09183808386E037
:1002C0008093860381E08093870366E088E292E072
:1002D0000E949C1908958EE2E4E8F3E0DF01982F74
:1002E0001D929A95E9F7DF011D928A95E9F782E25E
:1002F00092E09183808386E08093860381E08093FF
:10030000870366E082E292E00E949C1908958EE2E3
:10031000E4E8F3E0DF01982F1D929A95E9F7DF01F9
:100320001D928A95E9F78CE192E09183808386E0C3
:100330008093860381E08093870366E08CE192E0FE
:100340000E949C191092C4030895CF938EE2E4E8B2
:10035000F3E0DF01982F1D929A95E9F7C1E0DF01E4
:100360001D928A95E9F786E192E09183808386E089
:1003700080938603C093870366E086E192E00E9443
:100380009C19C093C403CF910895CF93DF932EE2BD
:10039000A4E8B3E0ED01E22F1992EA95E9F7EDE068
:1003A000F2E0ED0119922A95E9F7ED93FC9329E02B
:1003B0002093860321E0209387039C012227307F2E
:1003C000232F22952F7024839C0122273F70358391
:1003D0009C01207F3327329522952F7023273F7071
:1003E000232726838F70878369E0CF010E949C19A1
:1003F000DF91CF9108958EE2E4E8F3E0DF01982FDA
:100400001D929A95E9F7DF011D928A95E9F787E039
:1004100092E09183808386E08093860381E08093DD
:10042000870366E087E092E00E949C1908958EE2BF
:10043000E4E8F3E0DF01982F1D929A95E9F7DF01D8
:100440001D928A95E9F781E092E09183808386E0AE
:100450008093860381E08093870366E081E092E0E9
:100460000E949C1908958EE2E4E8F3E0DF01982FE2
:100470001D929A95E9F7DF011D928A95E9F78BEFB6
:1004800091E09183808386E08093860381E080936E
:10049000870366E08BEF91E00E949C190895CF934B
:1004A000DF939EE2A4E8B3E0ED01E92F1992EA950B
:1004B000E9F7E2EFF1E0ED0119929A95E9F7ED9392
:1004C000FC9399E09093860391E090938703982F93
:1004D00092959F7096838F70878369E0CF010E9409
:1004E0009C19DF91CF910895CF93DF939EE2A4E80A
:1004F000B3E0ED01E92F1992EA95E9F7E9EEF1E0B1
:10050000ED0119929A95E9F7ED93FC9399E0909398
:10051000860391E090938703982F92959F7096831E
:100520008F70878369E0CF010E949C19DF91CF9182
:1005300008958EE2E4E8F3E0DF01982F1D929A958A
:10054000E9F7DF011D928A95E9F783EE91E0918347
:10055000808386E08093860381E08093870366E052
:1005600083EE91E00E949C190895CF93DF938EE271
:10057000A4E8B3E0ED01E82F1992EA95E9F7EAED76
:10058000F1E0ED0119928A95E9F7ED93FC9389E08A
:100590008093860381E0809387038091C303982F23
:1005A00092959F7096838F70878369E0CF010E9438
:1005B0009C19DF91CF9108958EE2E4E8F3E0DF012A
:1005C000982F1D929A95E9F7DF011D928A95E9F718
:1005D00084ED91E09183808386E08093860381E0BF
:1005E0008093870366E084ED91E00E949C19089552
:1005F0008EE2E4E8F3E0DF01982F1D929A95E9F787
:10060000DF011D928A95E9F78EEC91E0918380835A
:1006100086E08093860381E08093870366E08EEC1A
:1006200091E00E949C1908958EE2E4E8F3E0DF0176
:10063000982F1D929A95E9F7DF011D928A95E9F7A7
:1006400088EC91E09183808386E08093860381E04B
:100650008093870366E088EC91E00E949C190895DE
:100660008EE2E4E8F3E0DF01982F1D929A95E9F716
:10067000DF011D928A95E9F782EC91E091838083F6
:1006800086E08093860381E08093870366E082ECB6
:1006900091E00E949C1908958EE2E4E8F3E0DF0106
:1006A000982F1D929A95E9F7DF011D928A95E9F737
:1006B0008CEB91E09183808386E08093860381E0D8
:1006C0008093870366E08CEB91E00E949C1908956B
:1006D0008EE2E4E8F3E0DF01982F1D929A95E9F7A6
:1006E000DF011D928A95E9F786EB91E09183808383
:1006F00086E08093860381E08093870366E086EB43
:1007000091E00E949C1908958EE2E4E8F3E0DF0195
:10071000982F1D929A95E9F7DF011D928A95E9F7C6
:1007200080EB91E09183808386E08093860381E073
:100730008093870366E080EB91E00E949C19089506
:100740008EE2E4E8F3E0DF01982F1D929A95E9F735
:10075000DF011D928A95E9F78AEA91E0918380830F
:1007600086E08093860381E08093870366E08AEACF
:1007700091E00E949C1908958EE2E4E8F3E0DF0125
:10078000982F1D929A95E9F7DF011D928A95E9F756
:1007900083EA91E09183808387E08093860381E000
:1007A0008093870367E083EA91E00E949C19089593
:1007B000CF93DF932091B4032230C8F42EE2E4E813
:1007C000F3E0DF01C22F1D92CA95E9F7A3E9B1E07A
:1007D000EF0119922A95E9F7B183A08320E12093D4
:1007E000860321E02093870315966C9319C02EE2AF
:1007F000E4E8F3E0DF01C22F1D92CA95E9F7A7E50F
:10080000B1E0EF0119922A95E9F7B183A08320E1C5
:100810002093860321E020938703606114966C93F4
:10082000E0918403F09185037683878390876091BC
:100830008603CF010E949C19DF91CF910895CF9339
:10084000DF939091B4039230B8F48EE2E4E8F3E0E1
:10085000DF01C82F1D92CA95E9F7DF011D928A9525
:10086000E9F783E891E09183808380E180938603B8
:1008700081E0809387032FC09EE2E4E8F3E0EF017C
:10088000292F19922A95E9F7A7E4B1E0EF0119920F
:100890009A95E9F7B183A08390E19093860391E064
:1008A00090938703806214968C9315C02191A09138
:1008B0008403B0918503A80FB91F2C9301968F3044
:1008C0009105A1F76091860380918403909185033F
:1008D0000E949C1905C0E62FF72F85E090E0E6CF37
:1008E000DF91CF910895CF93DF939091B40392302D
:1008F000B8F48EE2E4E8F3E0DF01C82F1D92CA9558
:10090000E9F7DF011D928A95E9F783E791E091838A
:10091000808380E18093860381E0809387032FC0EA
:100920009EE2E4E8F3E0EF01292F19922A95E9F716
:10093000A7E3B1E0EF0119929A95E9F7B183A0839B
:1009400090E19093860391E09093870380631496DF
:100950008C9315C02191A0918403B0918503A80FB9
:10096000B91F2C9301968F309105A1F760918603F2
:1009700080918403909185030E949C1905C0E62F05
:10098000F72F85E090E0E6CFDF91CF910895CF93E8
:10099000DF939091B4039230B8F48EE2E4E8F3E090
:1009A000DF01C82F1D92CA95E9F7DF011D928A95D4
:1009B000E9F78DE691E09183808386E0809386035A
:1009C00081E08093870319C09EE2E4E8F3E0EF0141
:1009D000292F19922A95E9F7A1E3B1E0EF011992C5
:1009E0009A95E9F7B183A08396E09093860391E00E
:1009F00090938703806114968C9360918603809115
:100A00008403909185030E949C19DF91CF910895F2
:100A1000CF93DF939091B4039230B8F48EE2E4E880
:100A2000F3E0DF01C82F1D92CA95E9F7DF011D929F
:100A30008A95E9F787E691E09183808386E0809349
:100A4000860381E08093870319C09EE2E4E8F3E027
:100A5000EF01292F19922A95E9F7ABE2B1E0EF01F6
:100A600019929A95E9F7B183A08396E09093860353
:100A700091E090938703806214968C936091860333
:100A800080918403909185030E949C19DF91CF91FE
:100A900008958EE2E4E8F3E0DF01982F1D929A9525
:100AA000E9F7DF011D928A95E9F783E291E09183EE
:100AB000808388E08093860381E08093870368E0E9
:100AC00083E291E00E949C1908958EE2E4E8F3E04D
:100AD000DF01982F1D929A95E9F7DF011D928A9503
:100AE000E9F78EE191E09183808385E0809386032E
:100AF00089E08093870365E08EE191E00E949C1974
:100B000008958EE2E4E8F3E0DF01982F1D929A95B4
:100B1000E9F7DF011D928A95E9F789E191E0918378
:100B2000808385E08093860389E08093870365E076
:100B300089E191E00E949C1908958EE2E4E8F3E0D7
:100B4000DF01982F1D929A95E9F7DF011D928A9592
:100B5000E9F784E191E09183808385E080938603C7
:100B600089E08093870365E084E191E00E949C190D
:100B700008958EE2E4E8F3E0DF01982F1D929A9544
:100B8000E9F7DF011D928A95E9F78FE091E0918303
:100B9000808385E08093860389E08093870365E006
:100BA0008FE091E00E949C1908958EE2E4E8F3E062
:100BB000DF01982F1D929A95E9F7DF011D928A9522
:100BC000E9F78AE091E09183808385E08093860352
:100BD00089E08093870365E08AE091E00E949C1998
:100BE00008958EE2E4E8F3E0DF01982F1D929A95D4
:100BF000E9F7DF011D928A95E9F785E091E091839D
:100C0000808385E08093860389E08093870365E095
:100C100085E091E00E949C1908958EE2E4E8F3E0FB
:100C2000DF01982F1D929A95E9F7DF011D928A95B1
:100C3000E9F780E091E09183808385E080938603EB
:100C400089E08093870365E080E091E00E949C1931
:100C500008958091B1038430F1F42091A1032F70A5
:100C600030E0322F22273295307F8091A2038F709F
:100C700090E0982F8827820F931F2091A4032F7054
:100C8000820F911D2091A3032F7030E1239F800DCF
:100C9000911D112402C080E090E09093B3038093F3
:100CA000B20308958091B1038430F1F42091A1033F
:100CB0002F7030E0322F22273295307F8091A203AF
:100CC0008F7090E0982F8827820F931F2091A403A4
:100CD0002F70820F911D2091A3032F7030E1239F6D
:100CE000800D911D1124089580E090E00895809179
:100CF000B1038430F1F42091A1032F7030E0322F42
:100D000022273295307F8091A2038F7090E0982F38
:100D10008827820F931F2091A4032F70820F911DAB
:100D20002091A3032F7030E1239F800D911D11248A
:100D3000089580E090E008958091A30390E0982FBB
:100D400088272091A403820F911D08958091B103FB
:100D5000843051F49091A3038091A4038F7020E11B
:100D6000929F800D1124089580E008958091B10331
:100D7000843051F49091A3038091A4038F7020E1FB
:100D8000929F800D1124089580E00895DC01119652
:100D90001C921E9212961C9212978FEF13968C93B0
:100DA000139792E014969C93149715968C9315972D
:100DB00016961C92169717961C92179718961C92C7
:100DC0001897FD01399680E111928150E9F7599603
:100DD0001C9259975A961C925A975B961C925B9755
:100DE0005C961C925C97FD017D9611928F5F80311D
:100DF000E1F79D961C920895807F803541F0803602
:100E000019F08034B9F506C0211126C030C0211177
:100E100012C01EC0222361F0FA0180E090E03191FF
:100E2000DB01A80FB91F16963C9301968217B8F301
:100E3000FB0114820895FA01DB0119964F5F5F4FA1
:100E40002150420F511D81918D93E417F507D9F779
:100E500081E0FB0184830895942FDB015996E42FF0
:100E6000F52F81918D938E2F891B8217D0F381E00E
:100E7000FB0184830895CF93DF93EC018B858F3F33
:100E800059F480E007C091919F3F21F08F5F9D93BF
:100E90008E30C9F78DA707C08D8FFE013C96DE010D
:100EA0005E9681E0F0CFDF91CF9108950E949D057D
:100EB0002FE789EA93E0215080409040E1F700C09D
:100EC000000084E893E00E943B070E9477060895A3
:100ED00080918803813081F480918703893049F4BF
:100EE000809189038075803521F484E893E00E9425
:100EF0003B0782E0809388030895809169038160B5
:100F000080936903089580916903846080936903E5
:100F1000089588E284B98FEF85B917B888B99AEE39
:100F20009AB98BB9089535E080E090E023B156B1CD
:100F300049B122230CF0816044FF826022FF84606B
:100F400055FF886026FF806142FF806220FF806439
:100F500021FF8068EFE1FEE43197F1F700C0000067
:100F6000315021F781FF03C021E02093630383FF09
:100F700003C021E020936103009729F020916903C9
:100F80002C7F20936903089580916903282F227094
:100F9000982F9370933079F021110FC08260809365
:100FA00069034DE757E064E670E080E090E00E945E
:100FB000E11580E0089581E0089580E00895209192
:100FC00064033091650340916603509167034227A3
:100FD000532784239523892B19F060936803089580
:100FE0008091690383FF2BC082FF21C08091C403DD
:100FF0008130D1F42230310551F48091C90381113F
:101000001EC081E08093C90360936803089528306F
:101010003105A9F48091CB03811111C081E0809347
:10102000CB0360936803089560936803089543E8D1
:1010300057E06CE271E080E090E00E948115089535
:1010400080916403909165038A30910509F46BC027
:1010500088F48430910589F130F48130910509F1EB
:10106000029729F166C08630910509F450C00897AF
:1010700051F15FC08032910591F138F48C309105C7
:1010800009F44BC0409729F154C08038910599F17B
:10109000811521E09207A9F18034910509F049C03A
:1010A00024C060E081E090E00E94DF07089561E0E5
:1010B00082E090E00E94DF07089562E084E090E023
:1010C0000E94DF07089563E088E090E00E94DF0758
:1010D000089564E080E190E00E94DF07089565E0F4
:1010E00080E290E00E94DF07089566E080E490E0EF
:1010F0000E94DF07089567E080E890E00E94DF0724
:10110000089568E080E091E00E94DF07089569E0BB
:1011100086E090E00E94DF0708956AE08CE090E0AE
:101120000E94DF0708956BE08AE090E00E94DF07ED
:101130000895809169038B7F8093690383E897E02A
:101140000E94191608958DE0809368030E94C407D9
:10115000882341F180916403909165039093670324
:10116000809366030E9493079093650380936403C2
:101170008230910511F0089771F48091D40388238F
:1011800021F08091C403813031F48091690388603B
:101190008093690305C080916903877F8093690309
:1011A0000E9420080895559A08955D9808955D9AC3
:1011B0000895CF93DF93D82F8823D1F0C0E00E9409
:1011C000D7082FE78AE196E0215080409040E1F770
:1011D00000C000000E94D5082FE78AE196E0215068
:1011E00080409040E1F700C00000CF5FCD13E7CF13
:1011F000DF91CF91089581E00E9452140E94D3089C
:101200000E9489070E9439160E94F9120E948F19C4
:10121000789408950E949307049721F00E941A136E
:10122000843089F484E090E09093670380936603B0
:101230009093650380936403809371038093740398
:1012400081E08093D10308950E94FB0884E893E035
:101250000E94C60682EB93E00E94F6130E940A09E0
:1012600089ED93E00E941E140E940C0A0E94A308BC
:101270000E9465140E94CD130E949C120E94760E5B
:101280000E9468070E94B80F80917803811108C0FE
:1012900080918103811104C080918003882331F300
:1012A0008FE19EE40197F1F700C000000E94001852
:1012B000DDCF662399F0FC012081318124173507A9
:1012C00079F0329620E005C08191919184179507BD
:1012D00049F02F5F2613F8CF80E0089580E008954D
:1012E00081E0089581E00895CF92DF92EF92FF921E
:1012F000CF93DF936B017C01CB01880F991F880F7F
:10130000991F880F991F8C0D9D1D825491408C9DB3
:10131000E0018D9DD00D9C9DD00D1124CA52DF4E51
:10132000A7019601C701B6010E94B4199B01AC0147
:10133000C701B6010E94B41928EE33E040E050E046
:101340000E94D81968EA6203C001639F900D1124BE
:101350008C0F9D1FDF91CF91FF90EF90DF90CF908A
:101360000895CF93DF93EC01AC0162E08BE593E04D
:101370000E945909882319F01092B40327C0AE01C6
:1013800061E089E593E00E945909882321F081E01A
:101390008093B4031BC0AE0161E087E593E00E9437
:1013A0005909882321F082E08093B4030FC0AE0175
:1013B00062E083E593E00E945909882321F083E0ED
:1013C0008093B40303C085E08093B403DF91CF9191
:1013D00008958091B403823099F028F4882341F075
:1013E000813051F00895833079F0853089F0089587
:1013F00081E00E94D908089581E00E94D9080895EB
:1014000086E00E94D908089580E10E94D9080895D5
:1014100084E30E94D90808952FEF84E39CE02150D3
:1014200080409040E1F700C0000088E00E94D908A9
:101430000E940D062FE789EA93E0215080409040FA
:10144000E1F700C0000084E893E00E943B070E949F
:101450009C060E94B1090E94E9090E94D708809168
:10146000B403853089F00E94F1052FE788E391E00D
:10147000215080409040E1F700C0000084E893E0F4
:101480000E943B070E9429068FE00E94C7042FE7B5
:1014900088E391E0215080409040E1F700C00000D7
:1014A0008FE00E9408052FE788E391E021508040FB
:1014B0009040E1F700C000008091D103882339F10A
:1014C0008091B403823010F471E001C075E061E0F6
:1014D00082E090E00E94D8032FE788E391E021505A
:1014E00080409040E1F700C0000081E00E941D189C
:1014F0008AE00E94D90881E00E94C7042FE788E3B0
:1015000091E0215080409040E1F700C000008091C0
:10151000B403823020F491E09093C00303C095E0BF
:101520009093C003853021F48EE08093BF0303C005
:101530008AE08093BF036091BF037091C0038091E4
:10154000C1039091C2030E94D8032FE788E391E082
:10155000215080409040E1F700C000008091BF031F
:101560000E9408052FE788E391E0215080409040D9
:10157000E1F700C000000E94D5080E9433022FE767
:1015800088E391E0215080409040E1F700C00000E6
:101590000E94B9052FE788E391E0215080409040F8
:1015A000E1F700C0000084E893E00E943B070E943E
:1015B000A6068093B7038093B8030E94D5052FE752
:1015C00088E391E0215080409040E1F700C00000A6
:1015D00084E893E00E943B070E94B6068093B9031B
:1015E0008093BA038FE39CE90197F1F700C00000F4
:1015F0000E9487019FE728E381E0915020408040CE
:10160000E1F700C000000E94D7080E9417010E9465
:10161000FB019FE728E381E0915020408040E1F703
:1016200000C000000E9449059FE728E381E0915037
:1016300020408040E1F700C000000E94C70082E027
:101640000E94D9080E9481059FE729EA83E0915012
:1016500020408040E1F700C0000084E893E00E9451
:101660003B070E9477069093C8038093C7030895B1
:101670004091C5035091C6038091B403682F6170F7
:1016800070E088E6869FF001879FF00D1124ED57EA
:10169000FD4F808191818417950738F588E6869FF4
:1016A000F001879FF00D1124EB57FD4F81E0219150
:1016B00031912417350720F48F5F8433C1F717C0A9
:1016C00094E3969FF001979FF00D1124E80FF11D10
:1016D000EE0FFF1FED57FD4F208131812417350795
:1016E000B9F08823A9F08150089580E0089594E32B
:1016F000969FF001979FF00D1124E80FF11DEE0F5A
:10170000FF1FED57FD4F208131812417350759F711
:1017100008958091C403882321F0813009F443C0E7
:1017200051C00E94A50181E08093C4038091D5033C
:10173000982F9D7F11F0843029F4EEECF3E0808146
:1017400080628083EEECF3E080818160808381E0C1
:101750008093CD032FE788E391E0215080409040B3
:10176000E1F700C000000E9481052FE788E391E0C7
:10177000215080409040E1F700C0000084E893E0F1
:101780000E943B070E947706E7ECF3E08083918399
:1017900092959F709093BD030E9456079093D80333
:1017A0008093D7030FC00E9487011092C403EEEC10
:1017B000F3E0908181E08093CD039F7991609083E5
:1017C0008093800381E08093810308958091CD030D
:1017D000882341F01092CD03EEECF3E08081887F06
:1017E000808308C081E08093CD03EEECF3E080813C
:1017F0008760808381E0809381038091D20381118F
:1018000004C08091D303882319F081E08093800382
:1018100008950F931F93CF93DF938091D603811187
:10182000A4C08091C403882321F0813009F44DC005
:10183000B9C08091D40381110DC01092C903809169
:10184000BB03882309F4AEC081508093BB030E9480
:10185000C70032C00E9465052FE739EA83E02150B6
:1018600030408040E1F700C0000084E893E00E942F
:101870003B070E9452068C019093C6038093C503D8
:101880000E94380B8093BB038091B4038170C82FF2
:1018900090E0D92F88E68C9FF0018D9FF00D1124E8
:1018A000ED57FD4F808191818017910728F40E94A8
:1018B000AB0081E08093CA0381E080938103EEEC6A
:1018C000F3E08081816080836DC08091C9038823AB
:1018D00019F00E944F0143C00E9481052FEF30E7AD
:1018E00082E0215030408040E1F700C0000084E8F1
:1018F00093E00E943B070E947706EC016091BB03D6
:1019000070E06F5F7F4F882777FD8095982F0E944A
:1019100074099E01281B390BC901C7ECD3E0398338
:1019200028830E94C501888199818130904160F4AB
:1019300080E090E19093C8038093C703EEECF3E05E
:1019400080818064808305C0EEECF3E080818F7B32
:1019500080838091C80382958F708093BD0381E05E
:1019600080938103809380031DC0823069F480914D
:10197000B7038230B8F081508093B7030E944F02C2
:1019800081E0809380030EC0833061F48091B903BD
:10199000823040F081508093B9030E94740281E04C
:1019A00080938003DF91CF911F910F9108950F9342
:1019B0001F93CF93DF938091D6038111A5C08091AF
:1019C000C403882321F0813009F44DC0BAC080914E
:1019D000D40381110DC01092CB038091BB038333DC
:1019E00008F0AFC08F5F8093BB030E94C70032C076
:1019F0000E9465052FE789EA93E0215080409040DE
:101A0000E1F700C0000084E893E00E943B070E94D9
:101A100052068C019093C6038093C5030E94380B35
:101A20008093BB038091B4038170C82F20E0D22F34
:101A300088E68C9FF0018D9FF00D1124E751FD4F3A
:101A4000808191810817190728F40E948F0081E096
:101A50008093CC0381E080938103EEECF3E08081FE
:101A6000816080836EC08091CB03882319F00E942F
:101A70006B0144C00E9481058FEF90E722E0815006
:101A800090402040E1F700C0000084E893E00E940D
:101A90003B070E947706EC016091BB0370E06F5F2B
:101AA0007F4F882777FD8095982F0E9474098C0FAF
:101AB0009D1F9093C8038093C7032091D703309153
:101AC000D8038217930750F03093C8032093C703BD
:101AD000EEECF3E080818064808305C0EEECF3E0FF
:101AE00080818F7B8083C7ECD3E0888199810E94BD
:101AF000C501898182958F708093BD0381E08093B9
:101B00008103809380031DC0823069F48091B70304
:101B10008F3FB9F08F5F8093B7030E944F0281E03F
:101B2000809380030EC0833061F48091B9038F3FAE
:101B300041F08F5F8093B9030E94740281E080932B
:101B40008003DF91CF911F910F9108958091CF0372
:101B5000882319F01092CF0303C081E08093CF0354
:101B600081E08093800308958091D603811146C05F
:101B700083E00E94D90881E08093D6030E94170277
:101B80000E94B9052FEF80E792E0215080409040FD
:101B9000E1F700C0000084E893E00E943B070E9448
:101BA000A6068093B7030E94D5052FEF80E792E049
:101BB000215080409040E1F700C0000084E893E0AD
:101BC0000E943B070E94B6068093B9036091B70359
:101BD00080E090E00E94361A2FEF81EE94E02150D1
:101BE00080409040E1F700C000006091B90381E0BF
:101BF00090E00E94361A81E08093810308958091DD
:101C0000D603811148C083E00E94D90882E0809306
:101C1000D6030E9433020E94B9052FEF80E792E0BD
:101C2000215080409040E1F700C0000084E893E03C
:101C30000E943B070E94A6068093B7030E94D50529
:101C40002FEF80E792E0215080409040E1F700C004
:101C5000000084E893E00E943B070E94B606809350
:101C6000B9036091B70380E090E00E94361A2FEF2D
:101C700082E597E0215080409040E1F700C00000ED
:101C80006091B90381E090E00E94361A81E0809370
:101C900081038093800308958091D6038230C1F040
:101CA0008330E9F0811121C083E00E94D90880913E
:101CB000D403811104C081E08093D40308950E946D
:101CC00073001092CC031092CA031092D4030895AB
:101CD00083E00E94D90883E08093D603089583E0CF
:101CE0000E94D90882E08093D60308952091620370
:101CF000211104C020916F03222331F0109262035E
:101D000010926F0331E00FC020916003211104C0D5
:101D100020916D03222331F01092600310926D0325
:101D200031E001C030E02091C403213009F0AEC0A1
:101D30002091C903211105C02091CB03222309F46E
:101D4000A5C031110DC08091C7039091C8038115C2
:101D5000904B08F44CC08091CB03882309F447C012
:101D60008091BB03833038F48FEC97E00197F1F753
:101D700000C000002DC0843050F49FE728E381E0CC
:101D8000915020408040E1F700C0000021C0873022
:101D900050F49FEF23EF81E0915020408040E1F725
:101DA00000C0000015C08A3050F49FEF21EE84E09F
:101DB000915020408040E1F700C0000009C09FE73B
:101DC0002BE888E0915020408040E1F700C00000FF
:101DD0000E9433011092C9031092CB039FE728E3BE
:101DE00081E0915020408040E1F700C000000E9457
:101DF00081059FE729EA83E0915020408040E1F788
:101E000000C0000084E893E00E943B070E94770630
:101E10009093C8038093C70320916B0330916C03A8
:101E20008217930789F090936C0380936B03109251
:101E30006A038091CE0386FF18C08F7B8093CE0308
:101E400081E08093800311C080916A038F5F80934B
:101E50006A03823050F08091CE0386FD06C0806414
:101E60008093CE0381E0809380038091C8038295A4
:101E70008F708093BD039091BE03981721F081E08D
:101E80008093810308951092810308952091D403D3
:101E9000213009F06CC04091CC03411105C0209164
:101EA000CA03222309F463C0311118C02091B4037E
:101EB000822F817090E028E6289FF001299FF00D85
:101EC0001124E751FD4F2091C5033091C603808155
:101ED00091812817390740F1442331F18091B403EF
:101EE00081110AC09FE728E381E0915020408040A3
:101EF000E1F700C0000009C09FE729EA83E09150A4
:101F000020408040E1F700C000000E947300109262
:101F1000CC031092CA039FE728E381E09150204050
:101F20008040E1F700C000000E9465059FE729EAB4
:101F300083E0915020408040E1F700C0000084E839
:101F400093E00E943B070E9452069093C603809341
:101F5000C5030E94380B8093BB039091BC03891783
:101F600021F081E080938103089510928103089508
:101F70008091D603813049F50E94B9052FE788E3A7
:101F800091E0215080409040E1F700C0000084E8DB
:101F900093E00E943B070E94A6068093B7030E942D
:101FA000D5052FE788E391E0215080409040E1F78C
:101FB00000C0000084E893E00E943B070E94B60640
:101FC0008093B90381E08093800308950E941403F5
:101FD0002FEF80E792E0215080409040E1F700C071
:101FE00000000E9499021092D20308950E94B50247
:101FF00081E08093D2038093CD03EEECF3E09081F7
:10200000936090838093810308950E94300382E05F
:102010008093D20381E08093CD03EEECF3E09081D6
:102020009360908380938103089581EC0E944F0216
:1020300081E08093D3038093CD03EEECF3E09081B5
:1020400095609083809381038091B403853049F437
:102050002FEF80E792E0215080409040E1F700C0F0
:102060000000089588EA0E944F0282E08093D30323
:1020700081E08093CD03EEECF3E090819560908356
:10208000809381038091B403853049F42FEF80E77A
:1020900092E0215080409040E1F700C00000089598
:1020A00088E70E944F0283E08093D30381E080930E
:1020B000CD03EEECF3E090819560908380938103F3
:1020C0008091B403853049F42FEF80E792E02150EE
:1020D00080409040E1F700C0000008950F931F93E7
:1020E000CF93DF93CDB7DEB764970FB6F894DEBF1A
:1020F0000FBECDBF8AE0E5E6F2E0DE011196019069
:102100000D928A95E1F78AE0EFE6F2E0DE011B9698
:1021100001900D928A95E1F70E9433021092D60346
:1021200007EB13E0F80180810E944F02F801608103
:1021300080E090E00E94361AFFEF21EE84E0F1503B
:1021400020408040E1F700C0000009EB13E0F801F7
:1021500080810E947402F801608181E090E00E9419
:10216000361A0FEB13E0BE01655F7F4FF8018081E7
:102170000E941F04BE01655F7F4FF80180810E94AD
:102180007304FFEF21EE84E0F15020408040E1F73E
:1021900000C000000E94BC038091B40381110AC0FA
:1021A0009FEFE5EEFAEA9150E040F040E1F700C021
:1021B000000009C02FEF83ED90E321508040904054
:1021C000E1F700C00000BE016F5F7F4F8091BF0349
:1021D0000E941F04EFEFF3ED20E3E150F0402040B8
:1021E000E1F700C00000BE01655F7F4F8091BF0333
:1021F0000E941F0464960FB6F894DEBF0FBECDBFD9
:10220000DF91CF911F910F9108958091D603811195
:1022100017C08091D003882329F00E94F802109201
:10222000D0030AC00E94DC0281E08093D003EEEC70
:10223000F3E080818860808381E08093810308954A
:102240000E946E100895CF930E9433021092D6031D
:1022500080E090E00E942E1AC82F8093B70381E09F
:1022600090E00E942E1A8093B9038C2F0E944F0297
:102270002FEF80E792E0215080409040E1F700C0CE
:1022800000008091B9030E94740281E08093810371
:10229000809380032FEF80E792E0215080409040B0
:1022A000E1F700C00000CF9108958091D60381111D
:1022B0002AC08091D303811111C08091D203813053
:1022C00039F018F0823039F01AC00E94F60F17C0AA
:1022D0000E94051014C00E94E60F11C08091B8033F
:1022E0000E944F021092D3031092D2032FEF80E787
:1022F00092E0215080409040E1F700C0000081E072
:102300008093800308950E94231108958091D6033D
:1023100081111AC08091D20381110E94E60F809131
:10232000D303813041F020F0823041F0833041F41A
:102330000E94151005C00E94321002C00E94501069
:1023400081E08093800308950E94231108951F93D4
:10235000CF93DF930E94840383E08093D50311E041
:102360001093CD03EEECF3E080818F7D816180835B
:102370001093CF0382E08093C103CFEBD3E0888139
:102380000E94C70418831093C0031093C20368818E
:1023900079818A819B810E94D8032FEF80E792E0A8
:1023A000215080409040E1F700C000008091BF03C1
:1023B0000E940805DF91CF911F910895CF93DF937D
:1023C0000E94A00384E08093D5031092CD03EEEC2D
:1023D000F3E080818E7E80831092CF03CFEBD3E039
:1023E00088810E94C7048AE0888381E08093C003CB
:1023F0008093C1031092C203688179818A819B8195
:102400000E94D8032FEF80E792E021508040904057
:10241000E1F700C000008091BF030E940805DF9132
:10242000CF9108951F93CF93DF930E944C0311E047
:102430001093D5031093CD03EEECF3E080818F7DF4
:10244000816180831093CF0382E08093C103CFEB3F
:10245000D3E088810E94C70418831093C0031093AF
:10246000C203688179818A819B810E94D8032FEF02
:1024700080E792E0215080409040E1F700C00000EA
:102480008091BF030E940805DF91CF911F910895AD
:10249000CF93DF930E94680382E08093D50310926C
:1024A000CD03EEECF3E080818E7E80831092CF032B
:1024B000CFEBD3E088810E94C7048AE0888381E063
:1024C0008093C0038093C1031092C2036881798115
:1024D0008A819B810E94D8032FEF80E792E02150F0
:1024E00080409040E1F700C000008091BF030E944F
:1024F0000805DF91CF9108958091D503823059F07E
:1025000028F4882341F0813079F010C0833031F015
:10251000843039F00BC00E94A71108C00E94DE1160
:1025200005C00E94121202C00E94481281E08093EE
:1025300081038093800308958091680390E08C303C
:10254000910540F5FC01EC5CFF4F0C94FA190E94D8
:10255000890B20C00E94090C1DC00E94E60B1AC006
:102560000E94D70C17C00E94A60D14C00E945511DE
:1025700011C00E9486110EC00E9405110BC00E945E
:102580007C1208C00E94B40D05C00E94FF0D02C05D
:102590000E944C0E8091720390E088309105E0F427
:1025A000FC01E05CFF4F0C94FA190E94890B08951E
:1025B0000E94090C08950E94E60B08950E94D70C12
:1025C00008950E94A60D08950E94551108950E9435
:1025D000861108950E94051108958091730381600A
:1025E00080937303089580917303846080937303D1
:1025F000089588B18F6188B987B117B8089580911F
:102600007303282F2270982F9370933079F0211143
:102610000FC08260809373034DEE52E16AE070E078
:1026200080E090E00E94E11580E0089581E0089547
:1026300080E0089586B184FF2AC08F7090E0FC018D
:102640003197EC30F105A8F4E85BFF4F0C94FA19D0
:1026500081E010C088E00EC080E10CC080E20AC0BA
:1026600080E408C080E806C081E08093700382E0C7
:1026700006C080E083FF03C091E090936E0388233F
:1026800051F0909173039C7F90937303089580E0C1
:10269000F1CF84E0EFCF08959091740320917103FE
:1026A0002927822319F060937203089580917303A0
:1026B00083FF29C082FF1FC08091C4038130C1F411
:1026C000923051F48091C90381111DC081E0809343
:1026D000C9036093720308959830A9F48091CB03E5
:1026E000811111C081E08093CB0360937203089540
:1026F00060937203089543EF52E16CE271E080E071
:1027000090E00E948115089580917403883011F142
:1027100038F48230A9F08430C1F08130A1F50BC0CB
:10272000803211F118F48031D1F02DC0803409F1DC
:10273000803821F128C060E081E00E944C130895A8
:1027400061E082E00E944C13089562E084E00E9400
:102750004C13089563E088E00E944C13089564E0F0
:1027600080E10E944C13089565E080E20E944C13C2
:10277000089566E080E40E944C13089567E080E8C5
:102780000E944C130895809173038B7F8093730391
:1027900083EF92E10E94191608958DE080937203F1
:1027A0000E94FF12882309F18091740380937103C2
:1027B0000E941A1380937403823011F0883071F4F0
:1027C0008091D403882321F08091C403813031F4B7
:1027D0008091730388608093730305C080917303B5
:1027E000877F809373030E9484130895FC011182F4
:1027F000108280E090E7948383831582178287E0BC
:1028000081871286138688E0848781E08787108A13
:102810008EE0818B128A148A138A168A158A178A87
:10282000108E118E128E138E148E158E168E178E9C
:1028300010A211A212A213A214A20895DC01FC019D
:1028400080E09BE191938F5F8A30E1F71C928BE0EF
:1028500011968C9311978EE112968C93129787E2C2
:1028600013968C93139783E214968C93149787E0B6
:1028700015968C93159783E016968C9316978BE19B
:1028800017968C93179786E018968C93189782E08A
:1028900019968C93199781E01A968C931A971B9628
:1028A0001C920895813081F488E19CEF909385001B
:1028B00080938400EFE6F0E0808181608083E1E82E
:1028C000F0E08081826080830895CF92DF92EF9262
:1028D000FF920F931F93CF93DF93C5EED3E00FE0EA
:1028E00014E0CC24CA94DC2CE12CF12C8881998151
:1028F000AA81BB81892B8A2B8B2B49F4C882D98270
:10290000EA82FB8210927903EC81FD81099526967B
:10291000C017D10759F7DF91CF911F910F91FF9009
:10292000EF90DF90CF900895CF93DF93E5EEF3E043
:102930002FE034E080819181A281B3818F3F4FEFFE
:102940009407A105B10559F00097A105B10539F02B
:102950000197A109B10980839183A283B38336963D
:10296000E217F30739F7DF91CF9108951F920F9285
:102970000FB60F9211242F933F934F935F936F9352
:102980007F938F939F93AF93BF93EF93FF9388E1D0
:102990009CEF90938500809384008091CF038823DF
:1029A00009F45CC080917A0390917B03A0917C0331
:1029B000B0917D03BC01CD016F5F7F4F8F4F9F4F63
:1029C00060937A0370937B0380937C0390937D03E1
:1029D00028EE33E040E050E00E94D819672B682BC6
:1029E000692B09F047C081E08093780310927A0345
:1029F00010927B0310927C0310927D0380917603EA
:102A00008F5F809376038091760399E8899F912D5B
:102A100011249295969597702CE3929F801911241A
:102A2000811128C081E08093780310927603809111
:102A300077038F5F809377038091770399E8899F6D
:102A4000912D11249295969597702CE3929F801961
:102A5000112481110FC0109277030CC010927A03D9
:102A600010927B0310927C0310927D0310927603E8
:102A7000109277034C9B09C080916303882329F04F
:102A80001092630381E080936203359B09C08091BB
:102A90006103882329F01092610381E08093600331
:102AA00086B18093750384FD0FC0809170038823E5
:102AB00091F01092700381E080936F030CC010922C
:102AC0006E0381E080936D0380917903811108C0CA
:102AD0000E94941405C080916E038111F0CFF4CF51
:102AE000FF91EF91BF91AF919F918F917F916F91E6
:102AF0005F914F913F912F910F900FBE0F901F90BC
:102B00001895CF92DF92EF92FF920F931F93CF937E
:102B1000DF93E5EEF3E02FE034E0C080D180E28087
:102B2000F380AFEFCA16DA06E104F10429F0A481BC
:102B3000B581A417B507E1F13696E217F30769F7F7
:102B40000091E5031091E6032091E7033091E8033B
:102B50000F3F1F4F2105310581F0EBEEF3E021E03F
:102B600030E0E901C080D180E280F380AFEFCA1687
:102B7000DA06E104F104B1F402C0C0E0D0E09E0145
:102B8000220F331FF901EC0FFD1FEE0FFF1FEB515A
:102B9000FC4F608371838283938310927903558302
:102BA000448306C02F5F3F4F369627303105C9F664
:102BB000DF91CF911F910F91FF90EF90DF90CF9019
:102BC0000895CF92DF92EF92FF92CF93DF93E5EEDD
:102BD000F3E020E030E0E901C080D180E280F380C2
:102BE000AFEFCA16DA06E104F104A1F0A481B581C1
:102BF000A417B50779F4220F331FC20FD31FCC0FD0
:102C0000DD1FCB51DC4F688379838A839B831092CD
:102C1000790308C02F5F3F4F369627303105D9F62C
:102C20000E948115DF91CF91FF90EF90DF90CF90C0
:102C30000895CF93DF93C0917903E5EEF3E0AFE021
:102C4000B4E04FEF5FEF60E070E0D0E024813581C9
:102C50002817390729F44083518362837383CD2F6A
:102C60003696EA17FB0791F7C0937903DF91CF916E
:102C70000895E5EEF3E02FE034E08FEF9FEFA0E062
:102C8000B0E080839183A283B3833696E217F30783
:102C9000C1F70895CF93DF93CDB7DEB72A970FB66C
:102CA000F894DEBF0FBECDBF8AE0E9E7F2E0DE01B7
:102CB000119601900D928A95E1F78091CD038823BA
:102CC000E1F08091CE0380FF18C02091BB03822FDA
:102CD00090E0019637E13A836AE070E00E94C419FF
:102CE0007727FB01EB5AFD4F30813B83FC01EB5A08
:102CF000FD4F80818C832093BC038091C40381307D
:102D0000A1F48091CE0385FF10C08CE08E8385E016
:102D10008F838FE488878091BD03E82FF0E0EB5A22
:102D2000FD4F908199878093BE038091D0038823C3
:102D300069F08091CE0383FF09C082E18E8383E135
:102D40008F8388E088878BE089878A878091D60384
:102D5000813081F486E189839AE49A831B8293E02F
:102D60009C8399E09D839FE49E831F8293E19887D3
:102D7000898713C08250823080F486E189838AE497
:102D80008A831B8283E08C8389E08D838FE48E832A
:102D90008CE08F8318868DE08987BE016F5F7F4F3F
:102DA0008091BF030E941F042A960FB6F894DEBFDD
:102DB0000FBECDBFDF91CF910895CF93DF93CDB7F5
:102DC000DEB72A970FB6F894DEBF0FBECDBF8AE0FC
:102DD000E9E7F2E0DE01119601900D928A95E1F7A4
:102DE0008091C403813059F48091CE03807680367F
:102DF00031F484E08A838DE08B8383E08C8380913F
:102E0000CD03882339F18091CE0381FFEBC08091FF
:102E1000D203813031F485E08A831B828BE18C837D
:102E2000E1C0823009F0DEC085E08A8381E08B83D7
:102E30008BE18C83D7C0E091D3038FEF8E0F83306B
:102E400048F486E08A83F0E0EB5AFD4F80818B8363
:102E50008BE18C838091CF03882309F442C0809159
:102E6000D003811108C08091770380937F03809104
:102E7000760380937E03E0917F038DECE89F912D94
:102E80001124969596959695A92FB0E0AB5ABD4F13
:102E90002C912E83990F292F220F220F920FE91BBD
:102EA000F0E0EB5AFD4F90819F839AE49887E09180
:102EB0007E03E89F812D1124869586958695A82FFF
:102EC000B0E0AB5ABD4F9C919987880F982F990F0E
:102ED000990F890FE81BF0E0EB5AFD4F80818A873C
:102EE00004C010927F0310927E038091D603882342
:102EF00009F468C081E189833AE43A83E091B70339
:102F000029E2E29FA12D1124A295AF70B0E0AB5A47
:102F1000BD4F8C918B838DECE89F912D112496955C
:102F200096959695989F412D1124469546954695E0
:102F3000440F542F550F550F450FA92FA41BB0E078
:102F4000AB5ABD4F4C914C83990F492F440F440FFE
:102F5000940FE91BF0E0EB5AFD4F90819D8391E0C7
:102F60009E833F83E091B903E29F212D1124229596
:102F70002F70A22FB0E0AB5ABD4F9C919887E89F6D
:102F8000912D1124969596959695989F812D1124B3
:102F9000869586958695880F282F220F220F820FFF
:102FA000A92FA81BB0E0AB5ABD4F8C918987990F10
:102FB000892F880F880F980FE91BF0E0EB5AFD4F1F
:102FC00080818A8780918003811104C08091D00321
:102FD00081110DC0BE016F5F7F4F8091BF030E94C2
:102FE000730405C08091CE0382FD25CF33CF2A968E
:102FF0000FB6F894DEBF0FBECDBFDF91CF9108951D
:1030000080918103882351F0109281030E944A1617
:103010008FE19EE40197F1F700C0000080917803F2
:10302000811104C080918003882331F00E94DD1655
:10303000109278031092800308951F93CF93DF932B
:10304000CDB7DEB72A970FB6F894DEBF0FBECDBF5F
:10305000182F8AE0E9E7F2E0DE01119601900D9267
:103060008A95E1F769ED73E0812F0E941F042FEF2D
:1030700080E792E0215080409040E1F700C00000DE
:1030800085E18B83A091E303EDECAE9FE12D11244C
:10309000E695E695E6958E2F880F982F990F990F54
:1030A000890FA81BEE2339F0F0E0EB5AFD4F808129
:1030B0008C8384E001C083E0E1E0F0E0EC0FFD1FD1
:1030C000E80FF11DB0E0AB5ABD4F9C91908391E0A9
:1030D000980FE1E0F0E0EC0FFD1FE90FF11D9CE41B
:1030E00090839091E40322E0280FE1E0F0E0EC0F00
:1030F000FD1FE20FF11D2DEC929F212D112426952D
:1031000026952695A22FB0E0AB5ABD4F3C91308357
:1031100033E0380FE1E0F0E0EC0FFD1FE30FF11DAD
:10312000220F322F330F330F230F921BA92FB0E042
:10313000AB5ABD4F9C91908325E0280F94E0980FE7
:10314000E1E0F0E0EC0FFD1FE90FF11D9BE1908342
:103150009091B403923081F128F4992349F0913091
:10316000C9F05EC09330C9F1953009F448C058C029
:10317000E1E0F0E0EC0FFD1FE20FF11D91E2908322
:103180008A5FE1E0F0E0EC0FFD1FE80FF11D85E242
:10319000808346C0E1E0F0E0EC0FFD1FE20FF11D7F
:1031A0009EE190838A5FE1E0F0E0EC0FFD1FE80F05
:1031B000F11D87E2808334C0E1E0F0E0EC0FFD1FF9
:1031C000E20FF11D90E290838A5FE1E0F0E0EC0F06
:1031D000FD1FE80FF11D908323C0E1E0F0E0EC0F4C
:1031E000FD1FE20FF11D93E290838A5FE1E0F0E0C2
:1031F000EC0FFD1FE80FF11D80E2808311C0E1E0BC
:10320000F0E0EC0FFD1FE20FF11D94E290838A5F66
:10321000E1E0F0E0EC0FFD1FE80FF11D82E280839A
:10322000BE016F5F7F4F812F0E9473042A960FB6F5
:10323000F894DEBF0FBECDBFDF91CF911F910895EF
:103240001F920F920FB60F9211242F933F934F931B
:103250005F936F937F938F939F93AF93BF93EF93FE
:10326000FF938091C60080932F0480912F048039B2
:1032700019F08F3F59F027C081E08093830390912C
:103280002F0490930F04809382032DC080918303B9
:10329000882349F1E091820321E02E0F20938203DD
:1032A00080912F04F0E0E15FFB4F80831092830355
:1032B00080911004809389034FE054E064E873E048
:1032C0000E94FC0610C080918303882361F0E09186
:1032D000820381E08E0F8093820380912F04F0E0BF
:1032E000E15FFB4F8083FF91EF91BF91AF919F9181
:1032F0008F917F916F915F914F913F912F910F909F
:103300000FBE0F901F9018959093C5008093C40036
:1033100088E98093C10086E08093C200089583E32A
:1033200090E00E9484190895E0ECF0E0908195FF10
:10333000FDCF8093C60008950F931F93CF93DF9323
:10334000EC01062F662359F010E089910E94941930
:1033500085E38A95F1F700001F5F1013F6CFDF9128
:10336000CF911F910F910895DB018F939F930E943E
:10337000001ABF91AF91A29F800D911DA39F900D48
:10338000B29F900D1124089597FB072E16F4009418
:1033900007D077FD09D00E940B1A07FC05D03EF438
:1033A000909581959F4F0895709561957F4F0895F1
:1033B000A1E21A2EAA1BBB1BFD010DC0AA1FBB1F39
:1033C000EE1FFF1FA217B307E407F50720F0A21BAB
:1033D000B30BE40BF50B661F771F881F991F1A9418
:1033E00069F760957095809590959B01AC01BD0142
:1033F000CF010895EE0FFF1F0590F491E02D099481
:103400000E941F1AA59F900DB49F900DA49F800D40
:10341000911D11240895AA1BBB1B51E107C0AA1FCF
:10342000BB1FA617B70710F0A61BB70B881F991F65
:103430005A95A9F780959095BC01CD010895A29F5A
:10344000B001B39FC001A39F700D811D1124911D78
:10345000B29F700D811D1124911D0895F999FECF21
:1034600092BD81BDF89A992780B50895262FF999C4
:10347000FECF1FBA92BD81BD20BD0FB6F894FA9A57
:0C348000F99A0FBE01960895F894FFCF52
:10348C0081090002FF81090422FF81090444FF81A4
:10349C00090443FF81090428FF81090448FF8109BD
:1034AC000447FF81010424560001FF8101047420AC
:1034BC00FF8101047410FF81010473301B1B1B1B63
:1034CC001B1B1B1B1B1BFF81010473201B1B1B1BCA
:1034DC001B1B1B1B1B1BFF81010473100000000036
:1034EC00000000000000FF8101047402FF81010450
:1034FC007400FF81010473021B1B1B1B1B1B1B1B7A
:10350C001B1BFF81010473011B1B1B1B1B1B1B1BA8
:10351C001B1BFF8101047300000000000000000071
:10352C000000FF8101043F017FFF8101046103FF63
:10353C008101046102FF8101046603FF81010466BD
:10354C0002FF8101046304FF8101046300FF810118
:10355C00046203FF8101046202FF81010442000046
:10356C000000FF8101040200FF81010444000000FF
:10357C0000FF8101044300000000FF8101043505B8
:10358C00FF8101043504FF8101045700FF81010410
:10359C004800000000FF8101043803FF810104385A
:1035AC0002FF8101040832FF8101040822FF81011E
:1035BC00040800FF8101040602FF8101044700009A
:1035CC000000FF8101040733FF8101040723FF8101
:1035DC0001040700FF271E1F20212223242526007B
:1035EC00010203040512001504031B1B1B1B1B1BF0
:1035FC001B1B1B1B1B1B1B1B1B1B1B1B1B1B1B1B0F
:10360C001B1B1B0000061651216028B52C6030D303
:10361C003245352737A938423A4B3B853C753D4EF0
:10362C003EF73EA03F004006440047084A004DE8E4
:10363C004F8A5227548055D05600582059305A384A
:10364C005B365C305D305E265F206018610062D0B6
:10365C00628063066490642665B96550660067985D
:10366C00672868B8684069D069706A00000616510E
:10367C00216028B52C6030D33245352737A9384224
:10368C003A4B3B853C753D4E3EF73EA03F00400615
:10369C00440047084A004DE84F8A5227548055D0C1
:1036AC005600582059305A385B365C305D305E26F7
:1036BC005F206018610062D06280630664906426AB
:1036CC0065B9655066006798672868B8684069D026
:1036DC0069706A5F04660465045004570459040059
:00000001FF
