:100000000C9454000C9471000C9471000C947100C9
:100010000C9471000C9471000C9471000C9471009C
:100020000C9471000C9471000C9471000C9471008C
:100030000C9471000C94D2140C9471000C94710007
:100040000C9471000C9471000C9456190C9471006E
:100050000C9471000C9471000C9471000C9471005C
:100060000C9471000C947100C512C812CB12CE1200
:10007000D112D412DA12D712DD12E012E312E61214
:10008000F312F612F912FC12FF12021308130513F1
:1000900050134E1367134C1357134813571346133B
:1000A0005213571357134A1311241FBECFEFD4E036
:1000B000DEBFCDBF13E0A0E0B1E0E8EFF4E302C0A3
:1000C00005900D92A435B107D9F724E0A4E5B3E07B
:1000D00001C01D92A432B207E1F70E94EC080C9413
:1000E0007A1A0C9400008EE2E8E7F3E0DF01982F23
:1000F0001D929A95E9F7DF011D928A95E9F783E44D
:1001000092E09183808386E080937A0381E08093FC
:100110007B0366E083E492E00E94D21908958EE2A8
:10012000E8E7F3E0DF01982F1D929A95E9F7DF01E8
:100130001D928A95E9F78DE392E09183808386E0B2
:1001400080937A0381E080937B0366E08DE392E005
:100150000E94D21908958EE2E8E7F3E0DF01982FBC
:100160001D929A95E9F7DF011D928A95E9F787E3D9
:1001700092E09183808386E080937A0381E080938C
:100180007B0366E087E392E00E94D2190895CF9343
:10019000DF932EE2A8E7B3E0ED01E22F1992EA9592
:1001A000E9F7EEE2F2E0ED0119922A95E9F7ED9315
:1001B000FC9329E020937A0321E020937B03209194
:1001C000A803822F817090E02091AF0334E3389F21
:1001D000D001399FB00D1124A20FB11DAA0FBB1F72
:1001E000A958BD4F8D919C9111979093BA0380931C
:1001F000B9039C012227307F232F22952F7024835F
:100200009C0122273F703583807F992792958295A4
:100210008F7089279F70892786838C918F70878341
:1002200069E0CF010E94D219DF91CF9108958EE24B
:10023000E8E7F3E0DF01982F1D929A95E9F7DF01D7
:100240001D928A95E9F788E292E09183808386E0A7
:1002500080937A0381E080937B0366E088E292E0FA
:100260000E94D21908958EE2E8E7F3E0DF01982FAB
:100270001D929A95E9F7DF011D928A95E9F782E2CE
:1002800092E09183808386E080937A0381E080937B
:100290007B0366E082E292E00E94D21908958EE22A
:1002A000E8E7F3E0DF01982F1D929A95E9F7DF0167
:1002B0001D928A95E9F78CE192E09183808386E034
:1002C00080937A0381E080937B0366E08CE192E087
:1002D0000E94D21908958EE2E8E7F3E0DF01982F3B
:1002E0001D929A95E9F7DF011D928A95E9F786E15B
:1002F00092E09183808386E080937A0381E080930B
:100300007B0366E086E192E00E94D21908958EE2B6
:10031000E8E7F3E0DF01982F1D929A95E9F7DF01F6
:100320001D928A95E9F780E192E09183808386E0CF
:1003300080937A0381E080937B0366E080E192E022
:100340000E94D2191092B8030895CF938EE2E8E785
:10035000F3E0DF01982F1D929A95E9F7C1E0DF01E4
:100360001D928A95E9F78AE092E09183808386E086
:1003700080937A03C0937B0366E08AE092E00E9458
:10038000D219C093B803CF910895CF93DF932EE293
:10039000A8E7B3E0ED01E22F1992EA95E9F7E1E071
:1003A000F2E0ED0119922A95E9F7ED93FC9329E02B
:1003B00020937A0321E020937B039C012227307F46
:1003C000232F22952F7024839C0122273F70358391
:1003D0009C01207F3327329522952F7023273F7071
:1003E000232726838F70878369E0CF010E94D2196B
:1003F000DF91CF9108958EE2E8E7F3E0DF01982FD7
:100400001D929A95E9F7DF011D928A95E9F78BEF26
:1004100091E09183808386E080937A0381E08093EA
:100420007B0366E08BEF91E00E94D21908958EE283
:10043000E8E7F3E0DF01982F1D929A95E9F7DF01D5
:100440001D928A95E9F785EF91E09183808386E09C
:1004500080937A0381E080937B0366E085EF91E0EF
:100460000E94D21908958EE2E8E7F3E0DF01982FA9
:100470001D929A95E9F7DF011D928A95E9F78FEEB3
:1004800091E09183808386E080937A0381E080937A
:100490007B0366E08FEE91E00E94D2190895CF931E
:1004A000DF939EE2A8E7B3E0ED01E92F1992EA9508
:1004B000E9F7E6EEF1E0ED0119929A95E9F7ED938F
:1004C000FC9399E090937A0391E090937B03982FAB
:1004D00092959F7096838F70878369E0CF010E9409
:1004E000D219DF91CF910895CF93DF939EE2A8E7D1
:1004F000B3E0ED01E92F1992EA95E9F7EDEDF1E0AE
:10050000ED0119929A95E9F7ED93FC9399E0909398
:100510007A0391E090937B03982F92959F70968336
:100520008F70878369E0CF010E94D219DF91CF914C
:1005300008958EE2E8E7F3E0DF01982F1D929A9587
:10054000E9F7DF011D928A95E9F787ED91E0918344
:10055000808386E080937A0381E080937B0366E06A
:1005600087ED91E00E94D2190895CF93DF938EE238
:10057000A8E7B3E0ED01E82F1992EA95E9F7EEEC70
:10058000F1E0ED0119928A95E9F7ED93FC9389E08A
:1005900080937A0381E080937B038091B703982F47
:1005A00092959F7096838F70878369E0CF010E9438
:1005B000D219DF91CF9108958EE2E8E7F3E0DF01F1
:1005C000982F1D929A95E9F7DF011D928A95E9F718
:1005D00088EC91E09183808386E080937A0381E0C8
:1005E00080937B0366E088EC91E00E94D219089525
:1005F0008EE2E8E7F3E0DF01982F1D929A95E9F784
:10060000DF011D928A95E9F782EC91E09183808366
:1006100086E080937A0381E080937B0366E082EC3E
:1006200091E00E94D21908958EE2E8E7F3E0DF013D
:10063000982F1D929A95E9F7DF011D928A95E9F7A7
:100640008CEB91E09183808386E080937A0381E054
:1006500080937B0366E08CEB91E00E94D2190895B1
:100660008EE2E8E7F3E0DF01982F1D929A95E9F713
:10067000DF011D928A95E9F786EB91E091838083F3
:1006800086E080937A0381E080937B0366E086EBCB
:1006900091E00E94D21908958EE2E8E7F3E0DF01CD
:1006A000982F1D929A95E9F7DF011D928A95E9F737
:1006B00080EB91E09183808386E080937A0381E0F0
:1006C00080937B0366E080EB91E00E94D21908954D
:1006D0008EE2E8E7F3E0DF01982F1D929A95E9F7A3
:1006E000DF011D928A95E9F78AEA91E09183808380
:1006F00086E080937A0381E080937B0366E08AEA58
:1007000091E00E94D21908958EE2E8E7F3E0DF015C
:10071000982F1D929A95E9F7DF011D928A95E9F7C6
:1007200083EA91E09183808387E080937A0381E07C
:1007300080937B0367E083EA91E00E94D2190895D9
:10074000CF93DF932091A8032230C8F42EE2E8E78C
:10075000F3E0DF01C22F1D92CA95E9F7A3E9B1E0EA
:10076000EF0119922A95E9F7B183A08320E1209344
:100770007A0321E020937B0315966C9319C02EE237
:10078000E8E7F3E0DF01C22F1D92CA95E9F7A7E57C
:10079000B1E0EF0119922A95E9F7B183A08320E136
:1007A00020937A0321E020937B03606114966C937D
:1007B000E0917803F0917903768387839087609145
:1007C0007A03CF010E94D219DF91CF910895CF9380
:1007D000DF939091A8039230B8F48EE2E8E7F3E05B
:1007E000DF01C82F1D92CA95E9F7DF011D928A9596
:1007F000E9F783E891E09183808380E180937A0335
:1008000081E080937B032FC09EE2E8E7F3E0EF01F5
:10081000292F19922A95E9F7A7E4B1E0EF0119927F
:100820009A95E9F7B183A08390E190937A0391E0E0
:1008300090937B03806214968C9315C02191A091B4
:100840007803B0917903A80FB91F2C9301968F30CC
:100850009105A1F760917A038091780390917903D3
:100860000E94D21905C0E62FF72F85E090E0E6CF71
:10087000DF91CF910895CF93DF939091A8039230A9
:10088000B8F48EE2E8E7F3E0DF01C82F1D92CA95C5
:10089000E9F7DF011D928A95E9F783E791E09183FB
:1008A000808380E180937A0381E080937B032FC073
:1008B0009EE2E8E7F3E0EF01292F19922A95E9F784
:1008C000A7E3B1E0EF0119929A95E9F7B183A0830C
:1008D00090E190937A0391E090937B038063149668
:1008E0008C9315C02191A0917803B0917903A80F42
:1008F000B91F2C9301968F309105A1F760917A036F
:1009000080917803909179030E94D21905C0E62F57
:10091000F72F85E090E0E6CFDF91CF910895CF9358
:10092000DF939091A8039230B8F48EE2E8E7F3E009
:10093000DF01C82F1D92CA95E9F7DF011D928A9544
:10094000E9F78DE691E09183808386E080937A03D6
:1009500081E080937B0319C09EE2E8E7F3E0EF01BA
:10096000292F19922A95E9F7A1E3B1E0EF01199235
:100970009A95E9F7B183A08396E090937A0391E08A
:1009800090937B03806114968C9360917A0380919D
:100990007803909179030E94D219DF91CF91089545
:1009A000CF93DF939091A8039230B8F48EE2E8E7FA
:1009B000F3E0DF01C82F1D92CA95E9F7DF011D9210
:1009C0008A95E9F787E691E09183808386E08093BA
:1009D0007A0381E080937B0319C09EE2E8E7F3E0AD
:1009E000EF01292F19922A95E9F7ABE2B1E0EF0167
:1009F00019929A95E9F7B183A08396E090937A03D0
:100A000091E090937B03806214968C9360917A03BB
:100A100080917803909179030E94D219DF91CF9150
:100A200008958EE2E8E7F3E0DF01982F1D929A9592
:100A3000E9F7DF011D928A95E9F783E291E091835E
:100A4000808388E080937A0381E080937B0368E071
:100A500083E291E00E94D21908958EE2E8E7F3E084
:100A6000DF01982F1D929A95E9F7DF011D928A9573
:100A7000E9F78EE191E09183808385E080937A03AA
:100A800089E080937B0365E08EE191E00E94D219BA
:100A900008958EE2E8E7F3E0DF01982F1D929A9522
:100AA000E9F7DF011D928A95E9F789E191E09183E9
:100AB000808385E080937A0389E080937B0365E0FF
:100AC00089E191E00E94D21908958EE2E8E7F3E00F
:100AD000DF01982F1D929A95E9F7DF011D928A9503
:100AE000E9F784E191E09183808385E080937A0344
:100AF00089E080937B0365E084E191E00E94D21954
:100B000008958EE2E8E7F3E0DF01982F1D929A95B1
:100B1000E9F7DF011D928A95E9F78FE091E0918373
:100B2000808385E080937A0389E080937B0365E08E
:100B30008FE091E00E94D21908958EE2E8E7F3E099
:100B4000DF01982F1D929A95E9F7DF011D928A9592
:100B5000E9F78AE091E09183808385E080937A03CE
:100B600089E080937B0365E08AE091E00E94D219DE
:100B700008958EE2E8E7F3E0DF01982F1D929A9541
:100B8000E9F7DF011D928A95E9F785E091E091830D
:100B9000808385E080937A0389E080937B0365E01E
:100BA00085E091E00E94D21908958EE2E8E7F3E033
:100BB000DF01982F1D929A95E9F7DF011D928A9522
:100BC000E9F780E091E09183808385E080937A0368
:100BD00089E080937B0365E080E091E00E94D21978
:100BE00008958091A5038430F1F4209195032F702E
:100BF00030E0322F22273295307F809196038F701C
:100C000090E0982F8827820F931F209198032F70D0
:100C1000820F911D209197032F7030E1239F800D4B
:100C2000911D112402C080E090E09093A70380936F
:100C3000A60308958091A5038430F1F420919503D3
:100C40002F7030E0322F22273295307F809196032B
:100C50008F7090E0982F8827820F931F2091980320
:100C60002F70820F911D209197032F7030E1239FE9
:100C7000800D911D1124089580E090E008958091E9
:100C8000A5038430F1F4209195032F7030E0322FCA
:100C900022273295307F809196038F7090E0982FB5
:100CA0008827820F931F209198032F70820F911D28
:100CB000209197032F7030E1239F800D911D112407
:100CC000089580E090E008958091970390E0982F38
:100CD000882720919803820F911D08958091A50384
:100CE000843051F490919703809198038F7020E1A4
:100CF000929F800D1124089580E008958091A503AE
:100D0000843051F490919703809198038F7020E183
:100D1000929F800D1124089580E00895DC011196C2
:100D20001C921E9212961C9212978FEF13968C9320
:100D3000139792E014969C93149715968C9315979D
:100D400016961C92169717961C92179718961C9237
:100D50001897FD01399680E111928150E9F7599673
:100D60001C9259975A961C925A975B961C925B97C5
:100D70005C961C925C97FD017D9611928F5F80318D
:100D8000E1F79D961C920895807F803541F0803672
:100D900019F08034B9F506C0211126C030C02111E8
:100DA00012C01EC0222361F0FA0180E090E0319170
:100DB000DB01A80FB91F16963C9301968217B8F372
:100DC000FB0114820895FA01DB0119964F5F5F4F12
:100DD0002150420F511D81918D93E417F507D9F7EA
:100DE00081E0FB0184830895942FDB015996E42F61
:100DF000F52F81918D938E2F891B8217D0F381E07F
:100E0000FB0184830895CF93DF93EC018B858F3FA3
:100E100059F480E007C091919F3F21F08F5F9D932F
:100E20008E30C9F78DA707C08D8FFE013C96DE017D
:100E30005E9681E0F0CFDF91CF9108950E94650525
:100E40002FE789EA93E0215080409040E1F700C00D
:100E5000000088E793E00E9403070E943F06089580
:100E600080917C03813081F480917B03893049F447
:100E700080917D038075803521F488E793E00E949E
:100E8000030782E080937C03089580915D03816075
:100E900080935D03089580915D03846080935D037A
:100EA000089588E284B98FEF85B917B888B99AEEAA
:100EB0009AB98BB9089535E080E090E023B156B13E
:100EC00049B122230CF0816044FF826022FF8460DC
:100ED00055FF886026FF806142FF806220FF8064AA
:100EE00021FF8068EFE1FEE43197F1F700C00000D8
:100EF000315021F781FF03C021E02093570383FF86
:100F000003C021E020935503009729F020915D0351
:100F10002C7F20935D03089580915D03282F22701C
:100F2000982F9370933079F021110FC082608093D5
:100F30005D0345E457E064E670E080E090E00E94E5
:100F4000FD1580E0089581E0089580E008952091E6
:100F500058033091590340915A0350915B03422743
:100F6000532784239523892B19F060935C030895FC
:100F700080915D0383FF2BC082FF21C08091B80365
:100F80008130D1F42230310551F48091BD038111BB
:100F90001EC081E08093BD0360935C0308952830F8
:100FA0003105A9F48091BF03811111C081E08093C4
:100FB000BF0360935C03089560935C0308954BE462
:100FC00057E06CE271E080E090E00E949D1508958A
:100FD00080915803909159038A30910509F46BC0B0
:100FE00088F48430910589F130F48130910509F15C
:100FF000029729F166C08630910509F450C0089720
:1010000051F15FC08032910591F138F48C30910537
:1010100009F44BC0409729F154C08038910599F1EB
:10102000811521E09207A9F18034910509F049C0AA
:1010300024C060E081E090E00E94A707089561E08D
:1010400082E090E00E94A707089562E084E090E0CB
:101050000E94A707089563E088E090E00E94A70738
:10106000089564E080E190E00E94A707089565E09C
:1010700080E290E00E94A707089566E080E490E097
:101080000E94A707089567E080E890E00E94A70704
:10109000089568E080E091E00E94A707089569E064
:1010A00086E090E00E94A70708956AE08CE090E057
:1010B0000E94A70708956BE08AE090E00E94A707CE
:1010C000089580915D038B7F80935D038BE497E0AF
:1010D0000E94351608958DE080935C030E948C0772
:1010E000882341F1809158039091590390935B03B9
:1010F00080935A030E945B0790935903809358038F
:101100008230910511F0089771F48091C80388230B
:1011100021F08091B803813031F480915D038860C3
:1011200080935D0305C080915D03877F80935D039D
:101130000E94E8070895559A08955D9808955D9A6C
:101140000895CF93DF93D82F8823D1F0C0E00E9479
:101150009F082FE78AE196E0215080409040E1F718
:1011600000C000000E949D082FE78AE196E0215010
:1011700080409040E1F700C00000CF5FCD13E7CF83
:10118000DF91CF91089581E00E946E140E949B0828
:101190000E9451070E9455160E9417130E94C519FC
:1011A000789408950E945B07049721F00E943813F9
:1011B000843089F484E090E090935B0380935A0339
:1011C0009093590380935803809365038093680339
:1011D00081E08093C50308950E94C30888E793E0E7
:1011E0000E948E0686EA93E00E9414140E94D208A0
:1011F0008DEC93E00E943C140E94D4090E946B087D
:101200000E9481140E94EB130E94BA120E949F0E4A
:101210000E9430070E94E10F80916C03811108C089
:1012200080917503811104C080917403882331F388
:101230008FE19EE40197F1F700C000000E9436188C
:10124000DDCF662399F0FC01208131812417350719
:1012500079F0329620E005C081919191841795072D
:1012600049F02F5F2613F8CF80E0089580E00895BD
:1012700081E0089581E00895CF92DF92EF92FF928E
:10128000CF93DF936B017C01CB01880F991F880FEF
:10129000991F880F991F8C0D9D1D825491408C9D24
:1012A000E0018D9DD00D9C9DD00D1124CA52DF4EC2
:1012B000A7019601C701B6010E94EA199B01AC0182
:1012C000C701B6010E94EA1928EE33E040E050E081
:1012D0000E940E1A68EA6203C001639F900D1124F8
:1012E0008C0F9D1FDF91CF91FF90EF90DF90CF90FB
:1012F0000895CF93DF93EC01AC0162E08FE493E0BB
:101300000E942109882319F01092A80327C0AE017A
:1013100061E08DE493E00E942109882321F081E0BF
:101320008093A8031BC0AE0161E08BE493E00E94B0
:101330002109882321F082E08093A8030FC0AE0129
:1013400062E087E493E00E942109882321F083E092
:101350008093A80303C085E08093A803DF91CF9119
:1013600008958091A803823099F028F4882341F0F1
:10137000813051F00895833079F0853089F00895F7
:1013800081E00E94A108089581E00E94A1080895CB
:1013900086E00E94A108089580E10E94A1080895B6
:1013A00084E30E94A10808952FEF84E39CE021507C
:1013B00080409040E1F700C0000088E00E94A10852
:1013C0000E94D5052FE789EA93E0215080409040A4
:1013D000E1F700C0000088E793E00E9403070E9445
:1013E00064060E9479090E94B1090E949F088091B9
:1013F000A803853089F00E94B9052FE788E391E0C2
:10140000215080409040E1F700C0000088E793E061
:101410000E9403070E94F1058FE00E948F042FE7CE
:1014200088E391E0215080409040E1F700C0000047
:101430008FE00E94D0042FE788E391E021508040A4
:101440009040E1F700C000008091C503882339F186
:101450008091A803823010F471E001C075E061E072
:1014600082E090E00E94A0032FE788E391E0215002
:1014700080409040E1F700C0000081E00E945318D6
:101480008AE00E94A10881E00E948F042FE788E390
:1014900091E0215080409040E1F700C00000809131
:1014A000A803823020F491E09093B40303C095E048
:1014B0009093B403853021F48EE08093B30303C08E
:1014C0008AE08093B3036091B3037091B403809179
:1014D000B5039091B6030E94A0032FE788E391E043
:1014E000215080409040E1F700C000008091B3039C
:1014F0000E94D0042FE788E391E021508040904083
:10150000E1F700C000000E949D080E9433022FE70F
:1015100088E391E0215080409040E1F700C0000056
:101520000E9481052FE788E391E0215080409040A0
:10153000E1F700C0000088E793E00E9403070E94E3
:101540006E068093AB038093AC030E949D052FE74A
:1015500088E391E0215080409040E1F700C0000016
:1015600088E793E00E9403070E947E068093AD0304
:101570008093AE038FE39CE90197F1F700C0000070
:101580000E9487019FE728E381E09150204080403E
:10159000E1F700C000000E949F080E9417010E940E
:1015A000FB019FE728E381E0915020408040E1F774
:1015B00000C000000E9411059FE728E381E09150E0
:1015C00020408040E1F700C000000E94C70082E098
:1015D0000E94A1080E9449059FE729EA83E09150F3
:1015E00020408040E1F700C0000088E793E00E94BF
:1015F00003070E943F069093BC038093BB030895AA
:101600004091B9035091BA038091A803682F61708B
:1016100070E088E6869FF001879FF00D1124E9585D
:10162000FD4F808191818417950738F588E6869F64
:10163000F001879FF00D1124E758FD4F81E02191C3
:1016400031912417350720F48F5F8433C1F717C019
:1016500094E3969FF001979FF00D1124E80FF11D80
:10166000EE0FFF1FE958FD4F208131812417350708
:10167000B9F08823A9F08150089580E0089594E39B
:10168000969FF001979FF00D1124E80FF11DEE0FCA
:10169000FF1FE958FD4F208131812417350759F785
:1016A00008951F93CF93DF938091B803882321F08F
:1016B000813009F45CC087C00E94A50181E080935D
:1016C000B8038091C903982F9D7F11F0843029F4CD
:1016D000E2ECF3E08081806280832FE788E391E091
:1016E000215080409040E1F700C000000E94490571
:1016F0002FE788E391E0215080409040E1F700C05F
:10170000000088E793E00E9403070E943F06EBEB8E
:10171000F3E08083918392959F709093B1030E9430
:101720001E079093CC038093CB03C3EBD3E0888157
:101730000E948F0481E088838093B40392E09093A9
:10174000B5038093B603688179818A819B810E9469
:10175000A0032FEF80E792E0215080409040E1F716
:1017600000C000008091B3030E94D0042CC00E94EE
:1017700087011092B803E2ECF3E080818F798083D7
:1017800011E010937403C3EBD3E088810E948F04AF
:101790008AE088831093B4031093B5031092B603C4
:1017A000688179818A819B810E94A0032FEF80E765
:1017B00092E0215080409040E1F700C0000080910D
:1017C000B3030E94D00481E080937503DF91CF9131
:1017D0001F9108951F93CF93DF938091C1038823B6
:1017E00069F01092C103E2ECF3E08081887F80838E
:1017F0001092C30381E08093740330C011E0109312
:10180000C103E2ECF3E08081876080831093C3031F
:1018100010937403C3EBD3E088810E948F048AE0A5
:1018200088831093B4031093B5031092B6036881B4
:1018300079818A819B810E94A0038091A8038530D1
:1018400049F42FEF80E792E0215080409040E1F78B
:1018500000C000008091B3030E94D00481E0809317
:1018600075038091C603811104C08091C70388234A
:1018700019F081E080937403DF91CF911F91089557
:101880000F931F93CF93DF938091CA038111A4C05C
:101890008091B803882321F0813009F44DC0B9C08C
:1018A0008091C80381110DC01092BD038091AF03D8
:1018B000882309F4AEC081508093AF030E94C70013
:1018C00032C00E942D052FE739EA83E021503040D5
:1018D0008040E1F700C0000088E793E00E94030722
:1018E0000E941A068C019093BA038093B9030E9458
:1018F000000B8093AF038091A8038170C82F90E004
:10190000D92F88E68C9FF0018D9FF00D1124E958A6
:10191000FD4F808191818017910728F40E94AB00D0
:1019200081E08093BE0381E080937503E2ECF3E0F5
:101930008081816080836DC08091BD03882319F010
:101940000E944F0143C00E9449052FEF30E782E01B
:10195000215030408040E1F700C0000088E793E06C
:101960000E9403070E943F06EC016091AF0370E004
:101970006F5F7F4F882777FD8095982F0E943C09E5
:101980009E01281B390BC901CBEBD3E03983288397
:101990000E94C501888199818130904160F480E086
:1019A00090E19093BC038093BB03E2ECF3E0808171
:1019B0008064808305C0E2ECF3E080818F7B8083CC
:1019C0008091BC0382958F708093B10381E08093F6
:1019D0007503809374031DC0823069F48091AB035A
:1019E0008230B8F081508093AB030E944F0281E0B7
:1019F000809374030EC0833061F48091AD03823014
:101A000040F081508093AD030E94740281E0809386
:101A10007403DF91CF911F910F9108950F931F933E
:101A2000CF93DF938091CA038111A5C08091B80341
:101A3000882321F0813009F44DC0BAC08091C803D9
:101A400081110DC01092BF038091AF03833308F062
:101A5000AFC08F5F8093AF030E94C70032C00E9467
:101A60002D052FE789EA93E0215080409040E1F76F
:101A700000C0000088E793E00E9403070E941A0656
:101A80008C019093BA038093B9030E94000B80935A
:101A9000AF038091A8038170C82F20E0D22F88E681
:101AA0008C9FF0018D9FF00D1124E352FD4F80813A
:101AB00091810817190728F40E948F0081E0809314
:101AC000C00381E080937503E2ECF3E080818160E4
:101AD00080836EC08091BF03882319F00E946B0140
:101AE00044C00E9449058FEF90E722E0815090406A
:101AF0002040E1F700C0000088E793E00E94030760
:101B00000E943F06EC016091AF0370E06F5F7F4F72
:101B1000882777FD8095982F0E943C098C0F9D1F88
:101B20009093BC038093BB032091CB033091CC03F3
:101B30008217930750F03093BC032093BB03E2EC71
:101B4000F3E080818064808305C0E2ECF3E0808173
:101B50008F7B8083CBEBD3E0888199810E94C50184
:101B6000898182958F708093B10381E080937503A2
:101B7000809374031DC0823069F48091AB038F3F62
:101B8000B9F08F5F8093AB030E944F0281E0809396
:101B900074030EC0833061F48091AD038F3F41F038
:101BA0008F5F8093AD030E94740281E08093740381
:101BB000DF91CF911F910F9108958091CA038111F8
:101BC00046C083E00E94A10881E08093CA030E947E
:101BD00017020E9481052FEF80E792E0215080409C
:101BE0009040E1F700C0000088E793E00E940307FF
:101BF0000E946E068093AB030E949D052FEF80E745
:101C000092E0215080409040E1F700C0000088E75A
:101C100093E00E9403070E947E068093AD036091CB
:101C2000AB0380E090E00E946C1A2FEF81EE94E00D
:101C3000215080409040E1F700C000006091AD036A
:101C400081E090E00E946C1A81E080937503089512
:101C50008091CA03811148C083E00E94A10882E0FC
:101C60008093CA030E9433020E9481052FEF80E710
:101C700092E0215080409040E1F700C0000088E7EA
:101C800093E00E9403070E946E068093AB030E94BC
:101C90009D052FEF80E792E0215080409040E1F7D2
:101CA00000C0000088E793E00E9403070E947E06C0
:101CB0008093AD036091AB0380E090E00E946C1ACA
:101CC0002FEF82E597E0215080409040E1F700C07F
:101CD00000006091AD0381E090E00E946C1A81E009
:101CE000809375038093740308958091CA038230B2
:101CF000C1F08330E9F0811121C083E00E94A10886
:101D00008091C803811104C081E08093C8030895C5
:101D10000E9473001092C0031092BE031092C80379
:101D2000089583E00E94A10883E08093CA03089588
:101D300083E00E94A10882E08093CA030895209165
:101D40005603211104C020916303222331F0109225
:101D500056031092630331E00FC020915403211108
:101D600004C020916103222331F010925403109299
:101D7000610331E001C030E02091B803213009F067
:101D8000AEC02091BD03211105C02091BF032223C5
:101D900009F4A5C031110DC08091BB039091BC0323
:101DA0008115904B08F44CC08091BF03882309F43F
:101DB00047C08091AF03833038F48FEC97E00197F0
:101DC000F1F700C000002DC0843050F49FE728E3F5
:101DD00081E0915020408040E1F700C0000021C028
:101DE000873050F49FEF23EF81E0915020408040F6
:101DF000E1F700C0000015C08A3050F49FEF21EEDB
:101E000084E0915020408040E1F700C0000009C00C
:101E10009FE72BE888E0915020408040E1F700C028
:101E200000000E9433011092BD031092BF039FE790
:101E300028E381E0915020408040E1F700C000009D
:101E40000E9449059FE729EA83E0915020408040A5
:101E5000E1F700C0000088E793E00E9403070E94BA
:101E60003F069093BC038093BB0320915F033091A6
:101E700060038217930789F09093600380935F0358
:101E800010925E038091C20386FF18C08F7B8093FF
:101E9000C20381E08093740311C080915E038F5F61
:101EA00080935E03823050F08091C20386FD06C0AD
:101EB00080648093C20381E0809374038091BC03AB
:101EC00082958F708093B1039091B203981721F09F
:101ED00081E0809375030895109275030895209111
:101EE000C803213009F06CC04091C003411105C006
:101EF0002091BE03222309F463C0311118C0209140
:101F0000A803822F817090E028E6289FF001299F86
:101F1000F00D1124E352FD4F2091B9033091BA0323
:101F2000808191812817390740F1442331F1809154
:101F3000A80381110AC09FE728E381E09150204067
:101F40008040E1F700C0000009C09FE729EA83E074
:101F5000915020408040E1F700C000000E947300D3
:101F60001092C0031092BE039FE728E381E09150D6
:101F700020408040E1F700C000000E942D059FE74F
:101F800029EA83E0915020408040E1F700C0000042
:101F900088E793E00E9403070E941A069093BA0311
:101FA0008093B9030E94000B8093AF039091B0031C
:101FB000891721F081E080937503089510927503CD
:101FC00008958091CA03813049F50E9481052FE769
:101FD00088E391E0215080409040E1F700C000008C
:101FE00088E793E00E9403070E946E068093AB038C
:101FF0000E949D052FE788E391E0215080409040AA
:10200000E1F700C0000088E793E00E9403070E9408
:102010007E068093AD0381E08093740308950E944F
:10202000DC022FEF80E792E0215080409040E1F702
:1020300000C000000E9499021092C60308950E94F9
:10204000B50281E08093C6038093C103E2ECF3E024
:102050009081936090838093750308950E94F802A5
:1020600082E08093C60381E08093C103E2ECF3E059
:1020700090819360908380937503089581EC0E9412
:102080004F0281E08093C7038093C103E2ECF3E049
:10209000908195609083809375038091A80385302B
:1020A00049F42FEF80E792E0215080409040E1F723
:1020B00000C00000089588EA0E944F0282E08093E9
:1020C000C70381E08093C103E2ECF3E09081956067
:1020D0009083809375038091A803853049F42FEF96
:1020E00080E792E0215080409040E1F700C000007E
:1020F000089588E70E944F0283E08093C70381E040
:102100008093C103E2ECF3E090819560908380932B
:1021100075038091A803853049F42FEF80E792E0A2
:10212000215080409040E1F700C0000008950F93D7
:102130001F93CF93DF93CDB7DEB764970FB6F894B4
:10214000DEBF0FBECDBF8AE0E9E5F2E0DE01119609
:1021500001900D928A95E1F78AE0E3E6F2E0DE0174
:102160001B9601900D928A95E1F70E94330210921E
:10217000CA030BEA13E0F80180810E944F02F801C4
:10218000608180E090E00E946C1AFFEF21EE84E015
:10219000F15020408040E1F700C000000DEA13E05C
:1021A000F80180810E947402F801608181E090E072
:1021B0000E946C1A03EB13E0BE01655F7F4FF801CC
:1021C00080810E94E703BE01655F7F4FF801808137
:1021D0000E943B04FFEF21EE84E0F150204080405C
:1021E000E1F700C000000E9484038091A8038111E0
:1021F0000AC09FEFE5EEFAEA9150E040F040E1F7C7
:1022000000C0000009C02FEF83ED90E32150804013
:102210009040E1F700C00000BE016F5F7F4F8091EA
:10222000B3030E94E703EFEFF3ED20E3E150F0404A
:102230002040E1F700C00000BE01655F7F4F809144
:10224000B3030E94E70364960FB6F894DEBF0FBE97
:10225000CDBFDF91CF911F910F9108958091CA0357
:1022600081110CC05B982FEF82E597E021508040F0
:102270009040E1F700C000005B9A08950E9497101B
:102280000895CF930E9433021092CA0380E090E039
:102290000E94641AC82F8093AB0381E090E00E94F3
:1022A000641A8093AD038C2F0E944F022FEF80E7BA
:1022B00092E0215080409040E1F700C00000809102
:1022C000AD030E94740281E08093750380937403D0
:1022D0002FEF80E792E0215080409040E1F700C06E
:1022E0000000CF9108958091CA0381112AC0809186
:1022F000C703811111C08091C603813039F018F0F5
:10230000823039F01AC00E941F1017C00E942E1090
:1023100014C00E940F1011C08091AC030E944F02A4
:102320001092C7031092C6032FEF80E792E021506E
:1023300080409040E1F700C0000081E0809374038A
:1023400008950E94411108958091CA0381111AC015
:102350008091C60381110E940F108091C7038130C4
:1023600041F020F0823041F0833041F40E943E1071
:1023700005C00E945B1002C00E94791081E080932A
:10238000740308950E94411108951F93CF93DF9322
:102390000E944C0383E08093C90311E01093C103B2
:1023A000E2ECF3E080818F7D816180831093C30331
:1023B00082E08093B503C3EBD3E088810E948F0451
:1023C00018831093B4031093B603688179818A81CE
:1023D0009B810E94A0032FEF80E792E02150804074
:1023E0009040E1F700C000008091B3030E94D00448
:1023F000DF91CF911F910895CF93DF930E946803DF
:1024000084E08093C9031092C103E2ECF3E0808181
:102410008E7E80831092C303C3EBD3E088810E9439
:102420008F048AE0888381E08093B4038093B503AE
:102430001092B603688179818A819B810E94A003F2
:102440002FEF80E792E0215080409040E1F700C0FC
:1024500000008091B3030E94D004DF91CF910895D2
:102460001F93CF93DF930E94140311E01093C903CD
:102470001093C103E2ECF3E080818F7D8161808362
:102480001093C30382E08093B503C3EBD3E088814C
:102490000E948F0418831093B4031093B6036881CD
:1024A00079818A819B810E94A0032FEF80E792E0CF
:1024B000215080409040E1F700C000008091B303BC
:1024C0000E94D004DF91CF911F910895CF93DF93A5
:1024D0000E94300382E08093C9031092C103E2ECB2
:1024E000F3E080818E7E80831092C303C3EBD3E040
:1024F00088810E948F048AE0888381E08093B403FE
:102500008093B5031092B603688179818A819B819B
:102510000E94A0032FEF80E792E02150804090407E
:10252000E1F700C000008091B3030E94D004DF9166
:10253000CF9108958091C903823059F028F48823FF
:1025400041F0813079F010C0833031F0843039F0BF
:102550000BC00E94C51108C00E94FC1105C00E945A
:10256000301202C00E94661281E08093750380934E
:102570007403089580915C0390E08C30910540F5E0
:10258000FC01EC5CFF4F0C94301A0E94510B20C0F0
:102590000E94400C1DC00E94EA0B1AC00E940E0D42
:1025A00017C00E949A1214C00E94731111C00E9499
:1025B000A4110EC00E942E110BC00E949A1208C0D6
:1025C0000E94DD0D05C00E94280E02C00E94750EFB
:1025D0008091660390E088309105E0F4FC01E05CB6
:1025E000FF4F0C94301A0E94510B08950E94400C2A
:1025F00008950E94EA0B08950E940E0D08950E940E
:102600009A1208950E94731108950E94A4110895CA
:102610000E942E1108958091670381608093670363
:10262000089580916703846080936703089588B15B
:102630008F6188B987B117B8089580916703282FF3
:102640002270982F9370933079F021110FC082601F
:10265000809367034BE053E16AE070E080E090E034
:102660000E94FD1580E0089581E0089580E00895BE
:1026700086B184FF2AC08F7090E0FC013197EC3066
:10268000F105A8F4E85BFF4F0C94301A81E010C00C
:1026900088E00EC080E10CC080E20AC080E408C07F
:1026A00080E806C081E08093640382E006C080E099
:1026B00083FF03C091E090936203882351F09091CF
:1026C00067039C7F90936703089580E0F1CF84E0D7
:1026D000EFCF089590916803209165032927822305
:1026E00019F06093660308958091670383FF29C002
:1026F00082FF1FC08091B8038130C1F4923051F441
:102700008091BD0381111DC081E08093BD03609362
:10271000660308959830A9F48091BF03811111C018
:1027200081E08093BF03609366030895609366031E
:10273000089541E153E16CE271E080E090E00E9495
:102740009D15089580916803883011F138F4823026
:10275000A9F08430C1F08130A1F50BC0803211F1B5
:1027600018F48031D1F02DC0803409F1803821F186
:1027700028C060E081E00E946A13089561E082E071
:102780000E946A13089562E084E00E946A1308952B
:1027900063E088E00E946A13089564E080E10E948B
:1027A0006A13089565E080E20E946A13089566E066
:1027B00080E40E946A13089567E080E80E946A132B
:1027C0000895809167038B7F8093670381E193E194
:1027D0000E94351608958DE0809366030E941D13B4
:1027E000882309F180916803809365030E94381360
:1027F00080936803823011F0883071F48091C803AF
:10280000882321F08091B803813031F480916703EF
:1028100088608093670305C080916703877F8093FA
:1028200067030E94A2130895FC011182108280E0C8
:1028300090E7948383831582178287E081871286CD
:10284000138688E0848781E08787108A8EE0818BF9
:10285000128A148A138A168A158A178A108E118E84
:10286000128E138E148E158E168E178E10A211A234
:1028700012A213A214A20895DC01FC0180E09BE1E6
:1028800091938F5F8A30E1F783E08C9385E1119615
:102890008C93119792E012969C9312978EE1139667
:1028A0008C93139781E214968C93149787E2159674
:1028B0008C93159716968C93169717968C9317975B
:1028C00086E018968C93189719969C93199781E037
:1028D0001A968C931A971B961C920895813081F456
:1028E00088E19CEF9093850080938400EFE6F0E010
:1028F000808181608083E1E8F0E080818260808374
:102900000895CF92DF92EF92FF920F931F93CF9390
:10291000DF93C9EDD3E003E014E0CC24CA94DC2CAF
:10292000E12CF12C88819981AA81BB81892B8A2B8A
:102930008B2B49F4C882D982EA82FB8210926D0304
:10294000EC81FD8109952696C017D10759F7DF91D3
:10295000CF911F910F91FF90EF90DF90CF9008954E
:10296000CF93DF93E9EDF3E023E034E080819181C0
:10297000A281B3818F3F4FEF9407A105B10559F0B4
:102980000097A105B10539F00197A109B10980832C
:102990009183A283B3833696E217F30739F7DF9169
:1029A000CF9108951F920F920FB60F9211242F937B
:1029B0003F934F935F936F937F938F939F93AF93C7
:1029C000BF93EF93FF9388E19CEF909385008093F2
:1029D00084008091C303882309F45CC080916E0356
:1029E00090916F03A0917003B0917103BC01CD0170
:1029F0006F5F7F4F8F4F9F4F60936E0370936F0396
:102A0000809370039093710328EE33E040E050E030
:102A10000E940E1A672B682B692B09F047C081E0D2
:102A200080936C0310926E0310926F0310927003E8
:102A30001092710380916A038F5F80936A03809183
:102A40006A0399E8899F912D112492959695977024
:102A50002CE3929F80191124811128C081E080937A
:102A60006C0310926A0380916B038F5F80936B03FA
:102A700080916B0399E8899F912D112492959695E9
:102A800097702CE3929F8019112481110FC010922E
:102A90006B030CC010926E0310926F0310927003C0
:102AA0001092710310926A0310926B034C9B09C041
:102AB00080915703882329F01092570381E0809377
:102AC0005603359B09C080915503882329F0109245
:102AD000550381E08093540386B18093690384FD9C
:102AE0000FC080916403882391F01092640381E009
:102AF000809363030CC01092620381E080936103B2
:102B000080916D03811108C00E94B01405C08091AE
:102B100062038111F0CFF4CFFF91EF91BF91AF919C
:102B20009F918F917F916F915F914F913F912F91E5
:102B30000F900FBE0F901F901895CF92DF92EF92DB
:102B4000FF920F931F93CF93DF93E9EDF3E023E020
:102B500034E0C080D180E280F380AFEFCA16DA069D
:102B6000E104F10429F0A481B581A417B507E1F1CE
:102B70003696E217F30769F70091D9031091DA034B
:102B80002091DB033091DC030F3F1F4F21053105FE
:102B900081F0EFEDF3E021E030E0E901C080D18089
:102BA000E280F380AFEFCA16DA06E104F104B1F473
:102BB00002C0C0E0D0E09E01220F331FF901EC0FEC
:102BC000FD1FEE0FFF1FE752FC4F6083718382836E
:102BD000938310926D035583448306C02F5F3F4F4C
:102BE000369627303105C9F6DF91CF911F910F91AD
:102BF000FF90EF90DF90CF900895CF92DF92EF9209
:102C0000FF92CF93DF93E9EDF3E020E030E0E901BC
:102C1000C080D180E280F380AFEFCA16DA06E1040B
:102C2000F104A1F0A481B581A417B50779F4220FAE
:102C3000331FC20FD31FCC0FDD1FC752DC4F688379
:102C400079838A839B8310926D0308C02F5F3F4F67
:102C5000369627303105D9F60E949D15DF91CF9128
:102C6000FF90EF90DF90CF900895CF93DF93C091C6
:102C70006D03E9EDF3E0A3E0B4E04FEF5FEF60E058
:102C800070E0D0E0248135812817390729F440838A
:102C9000518362837383CD2F3696EA17FB0791F732
:102CA000C0936D03DF91CF910895E9EDF3E023E048
:102CB00034E08FEF9FEFA0E0B0E080839183A283A8
:102CC000B3833696E217F307C1F70895CF93DF93E6
:102CD000CDB7DEB72A970FB6F894DEBF0FBECDBFD3
:102CE0008AE0EDE6F2E0DE01119601900D928A9500
:102CF000E1F78091C903813059F485E08E838BE040
:102D00008F8388E088878FE089878BE18A870BC073
:102D1000833049F488E08E838CE08F83188686E0C8
:102D2000898784E08A878091C1038823E1F08091BC
:102D3000C20380FF18C02091AF03822F90E001965C
:102D400037E13A836AE070E00E94FA197727FB01C5
:102D5000E75BFD4F30813B83FC01E75BFD4F8081EA
:102D60008C832093B0038091B8038130A1F48091CB
:102D7000C20385FF10C08CE08E8385E08F838FE4D3
:102D800088878091B103E82FF0E0E75BFD4F9081E9
:102D900099878093B2038091C403882369F080915E
:102DA000C20383FF09C082E18E8383E18F8388E0C1
:102DB00088878BE089878A878091CA03813081F474
:102DC00086E189839AE49A831B8293E09C8399E04D
:102DD0009D839FE49E831F8293E19887898713C018
:102DE0008250823080F486E189838AE48A831B8260
:102DF00083E08C8389E08D838FE48E838CE08F83E6
:102E000018868DE08987BE016F5F7F4F8091B30385
:102E10000E94E7032A960FB6F894DEBF0FBECDBF1F
:102E2000DF91CF910895CF93DF93CDB7DEB72A9787
:102E30000FB6F894DEBF0FBECDBF8AE0EDE6F2E03C
:102E4000DE01119601900D928A95E1F78091B80309
:102E5000813059F48091C2038076803631F484E069
:102E60008A838DE08B8383E08C838091C1038823E8
:102E700039F18091C20381FFEBC08091C60381309C
:102E800031F485E08A831B828BE18C83E1C0823040
:102E900009F0DEC085E08A8381E08B838BE18C833F
:102EA000D7C0E091C7038FEF8E0F833048F486E0E0
:102EB0008A83F0E0E75BFD4F80818B838BE18C831D
:102EC0008091C303882309F442C08091C403811117
:102ED00008C080916B038093730380916A03809391
:102EE0007203E09173038DECE89F912D1124969568
:102EF00096959695A92FB0E0A75BBD4F2C912E8398
:102F0000990F292F220F220F920FE91BF0E0E75BA8
:102F1000FD4F90819F839AE49887E0917203E89F28
:102F2000812D1124869586958695A82FB0E0A75B04
:102F3000BD4F9C919987880F982F990F990F890FF2
:102F4000E81BF0E0E75BFD4F80818A8704C01092A8
:102F50007303109272038091CA03882309F468C036
:102F600081E189833AE43A83E091AB0329E2E29F6D
:102F7000A12D1124A295AF70B0E0A75BBD4F8C913D
:102F80008B838DECE89F912D1124969596959695BF
:102F9000989F412D1124469546954695440F542FF0
:102FA000550F550F450FA92FA41BB0E0A75BBD4FD0
:102FB0004C914C83990F492F440F440F940FE91BF8
:102FC000F0E0E75BFD4F90819D8391E09E833F831E
:102FD000E091AD03E29F212D112422952F70A22FA5
:102FE000B0E0A75BBD4F9C919887E89F912D11247D
:102FF000969596959695989F812D11248695869500
:103000008695880F282F220F220F820FA92FA81B29
:10301000B0E0A75BBD4F8C918987990F892F880FEE
:10302000880F980FE91BF0E0E75BFD4F80818A87EE
:1030300080917403811104C08091C40381110DC07B
:10304000BE016F5F7F4F8091B3030E943B0405C0B8
:103050008091C20382FD25CF33CF2A960FB6F89414
:10306000DEBF0FBECDBFDF91CF9108958091750374
:10307000882351F0109275030E9466168FE19EE43A
:103080000197F1F700C0000080916C03811104C02A
:1030900080917403882331F00E94131710926C03FF
:1030A0001092740308951F93CF93DF93CDB7DEB7CB
:1030B0002A970FB6F894DEBF0FBECDBF182F8AE057
:1030C000EDE6F2E0DE01119601900D928A95E1F7AE
:1030D0006DEC73E0812F0E94E7032FEF80E792E011
:1030E000215080409040E1F700C0000085E18B83D3
:1030F000A091D703EDECAE9FE12D1124E695E69566
:10310000E6958E2F880F982F990F990F890FA81B7E
:10311000EE2339F0F0E0E75BFD4F80818C8384E0A3
:1031200001C083E0E1E0F0E0EC0FFD1FE80FF11DCE
:10313000B0E0A75BBD4F9C91908391E0980FE1E0D8
:10314000F0E0EC0FFD1FE90FF11D9CE490839091DE
:10315000D80322E0280FE1E0F0E0EC0FFD1FE20FC2
:10316000F11D2DEC929F212D112426952695269553
:10317000A22FB0E0A75BBD4F3C91308333E0380F06
:10318000E1E0F0E0EC0FFD1FE30FF11D220F322F05
:10319000330F330F230F921BA92FB0E0A75BBD4F56
:1031A0009C91908325E0280F94E0980FE1E0F0E0F7
:1031B000EC0FFD1FE90FF11D9BE190839091A80397
:1031C000923081F128F4992349F09130C9F05EC022
:1031D0009330C9F1953009F448C058C0E1E0F0E0FF
:1031E000EC0FFD1FE20FF11D91E290838A5FE1E099
:1031F000F0E0EC0FFD1FE80FF11D85E2808346C073
:10320000E1E0F0E0EC0FFD1FE20FF11D9EE1908385
:103210008A5FE1E0F0E0EC0FFD1FE80FF11D87E2AF
:10322000808334C0E1E0F0E0EC0FFD1FE20FF11D00
:1032300090E290838A5FE1E0F0E0EC0FFD1FE80F81
:10324000F11D908323C0E1E0F0E0EC0FFD1FE20FE1
:10325000F11D93E290838A5FE1E0F0E0EC0FFD1F47
:10326000E80FF11D80E2808311C0E1E0F0E0EC0F97
:10327000FD1FE20FF11D94E290838A5FE1E0F0E030
:10328000EC0FFD1FE80FF11D82E28083BE016F5F2E
:103290007F4F812F0E943B042A960FB6F894DEBF21
:1032A0000FBECDBFDF91CF911F9108951F920F9256
:1032B0000FB60F9211242F933F934F935F936F9309
:1032C0007F938F939F93AF93BF93EF93FF938091DF
:1032D000C6008093230480912304803919F08F3F26
:1032E00059F027C081E08093770390912304909355
:1032F0000304809376032DC080917703882349F1DE
:10330000E091760321E02E0F209376038091230431
:10331000F0E0ED5FFB4F808310927703809104040F
:1033200080937D0343E054E068E773E00E94C406A5
:1033300010C080917703882361F0E091760381E0EB
:103340008E0F8093760380912304F0E0ED5FFB4FB6
:103350008083FF91EF91BF91AF919F918F917F916A
:103360006F915F914F913F912F910F900FBE0F90F2
:103370001F9018959093C5008093C40088E98093AE
:10338000C10086E08093C200089583E390E00E942C
:10339000BA190895E0ECF0E0908195FFFDCF80939D
:1033A000C60008950F931F93CF93DF93EC01062F70
:1033B000662359F010E089910E94CA1985E38A9525
:1033C000F1F700001F5F1013F6CFDF91CF911F912F
:1033D0000F910895DB018F939F930E94361ABF913E
:1033E000AF91A29F800D911DA39F900DB29F900D54
:1033F0001124089597FB072E16F4009407D077FD4B
:1034000009D00E94411A07FC05D03EF490958195A1
:103410009F4F0895709561957F4F0895A1E21A2EF0
:10342000AA1BBB1BFD010DC0AA1FBB1FEE1FFF1F68
:10343000A217B307E407F50720F0A21BB30BE40BB8
:10344000F50B661F771F881F991F1A9469F76095FF
:103450007095809590959B01AC01BD01CF010895B9
:10346000EE0FFF1F0590F491E02D09940E94551A6C
:10347000A59F900DB49F900DA49F800D911D1124C8
:103480000895AA1BBB1B51E107C0AA1FBB1FA617AB
:10349000B70710F0A61BB70B881F991F5A95A9F7FD
:1034A00080959095BC01CD010895A29FB001B39F76
:1034B000C001A39F700D811D1124911DB29F700D3D
:1034C000811D1124911D0895F999FECF92BD81BDF2
:1034D000F89A992780B50895262FF999FECF1FBA3B
:1034E00092BD81BD20BD0FB6F894FA9AF99A0FBE2D
:0834F00001960895F894FFCF46
:1034F80081090002FF81090422FF81090444FF8138
:10350800090443FF81090428FF81090448FF810950
:103518000447FF81010424560001FF81010474203F
:10352800FF8101047410FF81010473301B1B1B1BF6
:103538001B1B1B1B1B1BFF81010473201B1B1B1B5D
:103548001B1B1B1B1B1BFF810104731000000000C9
:10355800000000000000FF8101047402FF810104E3
:103568007400FF81010473021B1B1B1B1B1B1B1B0D
:103578001B1BFF81010473011B1B1B1B1B1B1B1B3C
:103588001B1BFF8101047300000000000000000005
:103598000000FF8101043F017FFF8101046103FFF7
:1035A8008101046102FF8101046603FF8101046651
:1035B80002FF8101046304FF8101046300FF8101AC
:1035C800044200000000FF8101040200FF810104A1
:1035D8004400000000FF8101044300000000FF8157
:1035E80001043505FF8101043504FF8101045700FA
:1035F800FF8101044800000000FF8101043803FF37
:103608008101043802FF8101040832FF81010408A6
:1036180022FF8101040800FF8101040602FF8101E5
:10362800044700000000FF8101040733FF81010403
:103638000723FF8101040700FF271E1F20212223E3
:1036480024252600010203040512001504031B1B90
:103658001B1B1B1B1B1B1B1B1B1B1B1B1B1B1B1BB2
:103668001B1B1B1B1B1B1B0000061651216028B5CA
:103678002C6030D33245352737A938423A4B3B8541
:103688003C753D4E3EF73EA03F00400644004708CB
:103698004A004DE84F8A5227548055D0560058208A
:1036A80059305A385B365C305D305E265F206018D2
:1036B800610062D0628063066490642665B96550D3
:1036C80066006798672868B8684069D069706A00BA
:1036D80000061651216028B52C6030D332453527B5
:1036E80037A938423A4B3B853C753D4E3EF73EA0E4
:1036F8003F004006440047084A004DE84F8A5227D9
:10370800548055D05600582059305A385B365C30B2
:103718005D305E265F206018610062D062806306BB
:103728006490642665B9655066006798672868B82C
:10373800684069D069706A5F04660465045004577C
:04374800045904001C
:00000001FF
