S012000043414D636F6E74726F6C2E7372656340
S11300000C9448000C9465000C9465000C946500F5
S11300100C9465000C9465000C9465000C946500C8
S11300200C9465000C9465000C9465000C946500B8
S11300300C9465000C94A6120C9465000C94650055
S11300400C9465000C9465000C94F0160C946500F7
S11300500C9465000C9465000C9465000C94650088
S11300600C9465000C946500A110A410A710AA10AC
S1130070AD10B010B610B310B910BC10BF10C21040
S1130080CF10D210D510D810DB10DE10E410E11020
S113009011241FBECFEFD4E0DEBFCDBF13E0A0E03C
S11300A0B1E0E8EDFFE202C005900D92AC30B1077B
S11300B0D9F723E0ACE0B3E001C01D92A93DB2073B
S11300C0E1F70E949B080C94EA170C9400008EE25E
S11300D0EFE2F3E0DF01982F1D929A95E9F7DF0133
S11300E01D928A95E9F781E492E09183808386E00A
S11300F08093310381E08093320366E081E492E0EF
S11301000E946C1708958EE2EFE2F3E0DF01982F6E
S11301101D929A95E9F7DF011D928A95E9F78BE321
S113012092E09183808386E08093310381E0809321
S1130130320366E08BE392E00E946C1708958EE22E
S1130140EFE2F3E0DF01982F1D929A95E9F7DF01C2
S11301501D928A95E9F785E392E09183808386E096
S11301608093310381E08093320366E085E392E07B
S11301700E946C170895CF93DF932EE2AFE2B3E0B1
S1130180ED01E22F1992EA95E9F7ECE2F2E0ED01D4
S113019019922A95E9F7ED93FC9329E02093310312
S11301A021E02093320320915F03822F817090E03D
S11301B02091660338E2389FD001399FB00D112495
S11301C0A20FB11DAA0FBB1FAF59BD4F8D919C91BA
S11301D0119790937103809370039C012227307FC1
S11301E0232F22952F7024839C0122273F7035836F
S11301F0807F9927929582958F7089279F70892790
S113020086838C918F70878369E0CF010E946C177D
S1130210DF91CF9108958EE2EFE2F3E0DF01982FB2
S11302201D929A95E9F7DF011D928A95E9F786E216
S113023092E09183808386E08093310381E0809310
S1130240320366E086E292E00E946C1708958EE223
S1130250EFE2F3E0DF01982F1D929A95E9F7DF01B1
S11302601D928A95E9F780E292E09183808386E08B
S11302708093310381E08093320366E080E292E070
S11302800E946C1708958EE2EFE2F3E0DF01982FED
S11302901D929A95E9F7DF011D928A95E9F78AE1A3
S11302A092E09183808386E08093310381E08093A0
S11302B0320366E08AE192E00E946C1708958EE2B0
S11302C0EFE2F3E0DF01982F1D929A95E9F7DF0141
S11302D01D928A95E9F784E192E09183808386E018
S11302E08093310381E08093320366E084E192E0FD
S11302F00E946C1708958EE2EFE2F3E0DF01982F7D
S11303001D929A95E9F7DF011D928A95E9F78EE02F
S113031092E09183808386E08093310381E080932F
S1130320320366E08EE092E00E946C1710926F0335
S11303300895CF938EE2EFE2F3E0DF01982F1D9250
S11303409A95E9F7C1E0DF011D928A95E9F788E003
S113035092E09183808386E080933103C0933203DB
S113036066E088E092E00E946C17C0936F03CF911F
S113037008958EE2EFE2F3E0DF01982F1D929A9543
S1130380E9F7DF011D928A95E9F782E092E0918313
S1130390808386E08093310381E08093320366E0BA
S11303A082E092E00E946C1708958EE2EFE2F3E09F
S11303B0DF01982F1D929A95E9F7DF011D928A9526
S11303C0E9F78CEF91E09183808386E08093310399
S11303D081E08093320366E08CEF91E00E946C1719
S11303E008958EE2EFE2F3E0DF01982F1D929A95D3
S11303F0E9F7DF011D928A95E9F786EF91E0918391
S1130400808386E08093310381E08093320366E049
S113041086EF91E00E946C170895CF93DF939EE2DC
S1130420AFE2B3E0ED01E92F1992EA95E9F7EDEEB9
S1130430F1E0ED0119929A95E9F7ED93FC9399E0B7
S11304409093310391E090933203982F92959F708B
S113045096838F70878369E0CF010E946C17DF91C8
S1130460CF910895CF93DF939EE2AFE2B3E0ED0125
S1130470E92F1992EA95E9F7E4EEF1E0ED0119921A
S11304809A95E9F7ED93FC9399E09093310391E009
S113049090933203982F92959F7096838F708783E1
S11304A069E0CF010E946C17DF91CF9108958EE22D
S11304B0EFE2F3E0DF01982F1D929A95E9F7DF014F
S11304C01D928A95E9F78EED91E09183808386E011
S11304D08093310381E08093320366E08EED91E0F6
S11304E00E946C170895CF93DF938EE2AFE2B3E0DE
S11304F0ED01E82F1992EA95E9F7E5EDF1E0ED0158
S113050019928A95E9F7ED93FC9389E0809331037E
S113051081E08093320380916E03982F92959F70AF
S113052096838F70878369E0CF010E946C17DF91F7
S1130530CF9108958EE2EFE2F3E0DF01982F1D9250
S11305409A95E9F7DF011D928A95E9F78FEC91E01E
S11305509183808386E08093310381E0809332032A
S113056066E08FEC91E00E946C1708958EE2EFE252
S1130570F3E0DF01982F1D929A95E9F7DF011D92B0
S11305808A95E9F789EC91E09183808386E08093F2
S1130590310381E08093320366E089EC91E00E94AC
S11305A06C1708958EE2EFE2F3E0DF01982F1D92BD
S11305B09A95E9F7DF011D928A95E9F783EC91E0BA
S11305C09183808386E08093310381E080933203BA
S11305D066E083EC91E00E946C1708958EE2EFE2EE
S11305E0F3E0DF01982F1D929A95E9F7DF011D9240
S11305F08A95E9F78DEB91E09183808386E080937F
S1130600310381E08093320366E08DEB91E00E9438
S11306106C1708958EE2EFE2F3E0DF01982F1D924C
S11306209A95E9F7DF011D928A95E9F787EB91E046
S11306309183808386E08093310381E08093320349
S113064066E087EB91E00E946C1708958EE2EFE27A
S1130650F3E0DF01982F1D929A95E9F7DF011D92CF
S11306608A95E9F781EB91E09183808386E080931A
S1130670310381E08093320366E081EB91E00E94D4
S11306806C1708958EE2EFE2F3E0DF01982F1D92DC
S11306909A95E9F7DF011D928A95E9F78BEA91E0D3
S11306A09183808386E08093310381E080933203D9
S11306B066E08BEA91E00E946C1708958EE2EFE207
S11306C0F3E0DF01982F1D929A95E9F7DF011D925F
S11306D08A95E9F785EA91E09183808386E08093A7
S11306E0310381E08093320366E085EA91E00E9461
S11306F06C1708958EE2EFE2F3E0DF01982F1D926C
S11307009A95E9F7DF011D928A95E9F78EE991E060
S11307109183808387E08093310381E08093320367
S113072067E08EE991E00E946C170895CF93DF9300
S113073020915F03211119C02EE2EFE2F3E0DF0103
S1130740C22F1D92CA95E9F7AEE8B1E0EF01199204
S11307502A95E9F7B183A08320E12093310321E0B6
S11307602093320315966C9319C02EE2EFE2F3E066
S1130770DF01C22F1D92CA95E9F7A2E5B1E0EF01AE
S113078019922A95E9F7B183A08320E120933103DC
S113079021E020933203606114966C93E0912F035F
S11307A0F091300376838783908760913103CF0182
S11307B00E946C17DF91CF910895CF93DF939091AE
S11307C05F03911117C08EE2EFE2F3E0DF01C82F5F
S11307D01D92CA95E9F7DF011D928A95E9F78EE724
S11307E091E09183808380E18093310381E0809361
S11307F032032FC09EE2EFE2F3E0EF01292F1992BA
S11308002A95E9F7A2E4B1E0EF0119929A95E9F784
S1130810B183A08390E19093310391E090933203EC
S1130820806214968C9315C02191A0912F03B091EE
S11308303003A80FB91F2C9301968F309105A1F7AF
S11308406091310380912F03909130030E946C17C3
S113085005C0E62FF72F85E090E0E6CFDF91CF913A
S11308600895CF93DF9390915F03911117C08EE2A7
S1130870EFE2F3E0DF01C82F1D92CA95E9F7DF012B
S11308801D928A95E9F78EE691E09183808380E159
S11308908093310381E0809332032FC09EE2EFE224
S11308A0F3E0EF01292F19922A95E9F7A2E3B1E0C9
S11308B0EF0119929A95E9F7B183A08390E190939F
S11308C0310391E090933203806314968C9315C0A6
S11308D02191A0912F03B0913003A80FB91F2C933D
S11308E001968F309105A1F76091310380912F0318
S11308F0909130030E946C1705C0E62FF72F85E016
S113090090E0E6CFDF91CF91089580915F0381114C
S113091017C08EE2EFE2F3E0DF01982F1D929A9563
S1130920E9F7DF011D928A95E9F788E691E0918362
S1130930808386E08093310381E08093320316C084
S11309408EE2EFE2F3E0DF01982F1D929A95E9F72A
S1130950DF011D928A95E9F78CE291E0918380830F
S113096086E08093310381E0809332036091310308
S113097080912F03909130030E946C170895809109
S11309805F03811117C08EE2EFE2F3E0DF01982FDD
S11309901D929A95E9F7DF011D928A95E9F782E69F
S11309A091E09183808386E08093310381E080939A
S11309B0320316C08EE2EFE2F3E0DF01982F1D92BE
S11309C09A95E9F7DF011D928A95E9F786E291E0AD
S11309D09183808386E08093310381E080933203A6
S11309E06091310380912F03909130030E946C1722
S11309F008958EE2EFE2F3E0DF01982F1D929A95BD
S1130A00E9F7DF011D928A95E9F78EE191E0918380
S1130A10808388E08093310381E08093320368E02F
S1130A208EE191E00E946C1708958EE2EFE2F3E00C
S1130A30DF01982F1D929A95E9F7DF011D928A959F
S1130A40E9F789E191E09183808385E08093310324
S1130A5089E08093320365E089E191E00E946C179C
S1130A6008958EE2EFE2F3E0DF01982F1D929A954C
S1130A70E9F7DF011D928A95E9F784E191E091831A
S1130A80808385E08093310389E08093320365E0BD
S1130A9084E191E00E946C1708958EE2EFE2F3E0A6
S1130AA0DF01982F1D929A95E9F7DF011D928A952F
S1130AB0E9F78FE091E09183808385E080933103AF
S1130AC089E08093320365E08FE091E00E946C1727
S1130AD008958EE2EFE2F3E0DF01982F1D929A95DC
S1130AE0E9F7DF011D928A95E9F78AE091E09183A5
S1130AF0808385E08093310389E08093320365E04D
S1130B008AE091E00E946C1708958EE2EFE2F3E030
S1130B10DF01982F1D929A95E9F7DF011D928A95BE
S1130B20E9F785E091E09183808385E08093310348
S1130B3089E08093320365E085E091E00E946C17C0
S1130B4008958EE2EFE2F3E0DF01982F1D929A956B
S1130B50E9F7DF011D928A95E9F780E091E091833E
S1130B60808385E08093310389E08093320365E0DC
S1130B7080E091E00E946C17089580915C038430BA
S1130B80F1F420914C032F7030E0322F222732955C
S1130B90307F80914D038F7090E0982F8827820FCB
S1130BA0931F20914F032F70820F911D20914E03AC
S1130BB02F7030E1239F800D911D112402C080E02D
S1130BC090E090935E0380935D03089580915C03AD
S1130BD08430F1F420914C032F7030E0322F22271F
S1130BE03295307F80914D038F7090E0982F882745
S1130BF0820F931F20914F032F70820F911D20911C
S1130C004E032F7030E1239F800D911D1124089510
S1130C1080E090E0089580915C038430F1F42091A9
S1130C204C032F7030E0322F22273295307F809191
S1130C304D038F7090E0982F8827820F931F209187
S1130C404F032F70820F911D20914E032F7030E1BE
S1130C50239F800D911D1124089580E090E0089554
S1130C6080914E0390E0982F882720914F03820FA4
S1130C70911D089580915C03843051F490914E034A
S1130C8080914F038F7020E1929F800D112408956D
S1130C9080E0089580915C03843051F490914E0378
S1130CA080914F038F7020E1929F800D112408954D
S1130CB080E00895DC0111961C921E9212961C92FB
S1130CC012978FEF13968C93139792E014969C933C
S1130CD0149715968C93159716961C92169717963B
S1130CE01C92179718961C921897FD01399680E16B
S1130CF011928150E9F759961C9259975A961C9271
S1130D005A975B961C925B975C961C925C97FD01CC
S1130D107D9611928F5F8031E1F79D961C92089524
S1130D20807F803541F0803619F08034B9F506C0F3
S1130D30211126C030C0211112C01EC0222361F02F
S1130D40FA0180E090E03191DB01A80FB91F1696FB
S1130D503C9301968217B8F3FB0114820895FA01BB
S1130D60DB0119964F5F5F4F2150420F511D819156
S1130D708D93E417F507D9F781E0FB018483089587
S1130D80942FDB015996E42FF52F81918D938E2FAB
S1130D90891B8217D0F381E0FB0184830895CF93EC
S1130DA0DF93EC018B858F3F59F480E007C091916C
S1130DB09F3F21F08F5F9D938E30C9F78DA707C0A9
S1130DC08D8FFE013C96DE015E9681E0F0CFDF91CF
S1130DD0CF91089580913303813081F4809132035F
S1130DE0893049F4809134038075803521F48FE291
S1130DF093E00E94CF0682E08093330308958091AC
S1130E001503816080931503089580911503846010
S1130E1080931503089588E284B98FEF85B917B8D4
S1130E2088B99AEE9AB98BB90895CF93DF9333B109
S1130E30E6B169B125E080E090E0A62FA071F32F20
S1130E40F470E072732F70746470532F5170432FD9
S1130E50427033230CF08160A11101C08260F11152
S1130E6001C08460E11101C08860711101C080611A
S1130E70611101C08062511101C08064411101C03F
S1130E808068CFE1DEE42197F1F700C00000215033
S1130E9001F781FF03C021E020930F0383FF03C008
S1130EA021E020930D03009729F0209115032C7F56
S1130EB020931503DF91CF91089580911503282F76
S1130EC02270982F9370933079F021110FC08260B3
S1130ED0809315034FEF56E064E670E080E090E005
S1130EE00E94B71380E0089581E0089580E008959A
S1130EF04091100350911103209112033091130378
S1130F002427352782239323892B19F06093140314
S1130F1008958091150383FF0DC082FF03C0609381
S1130F201403089545E057E06CE271E080E090E03E
S1130F300E945713089580911003909111038A30F1
S1130F40910509F46BC088F48430910589F130F47B
S1130F508130910509F1029729F166C08630910527
S1130F6009F450C0089751F15FC08032910591F1A6
S1130F7038F48C30910509F44BC0409729F154C0E2
S1130F808038910599F1811521E09207A9F1803407
S1130F90910509F049C024C060E081E090E00E941E
S1130FA07807089561E082E090E00E947807089550
S1130FB062E084E090E00E947807089563E088E0AE
S1130FC090E00E947807089564E080E190E00E9438
S1130FD07807089565E080E290E00E94780708951C
S1130FE066E080E490E00E947807089567E080E876
S1130FF090E00E947807089568E080E091E00E9404
S11310007807089569E086E090E00E9478070895E3
S11310106AE08CE090E00E94780708956BE08AE033
S113102090E00E9478070895809115038B7F809348
S1131030150385E097E00E94EF1308958CE08093F8
S113104014030E945D07882321F18091100390917D
S1131050110390931303809312030E941507909336
S11310601103809310038230910511F0089751F415
S113107080917F03811106C080911503886080935D
S1131080150305C080911503877F809315030E9483
S11310909B070895559A08955D9808955D9A08955B
S11310A0CF93DF93D82F8823D1F0C0E00E944E085D
S11310B02FE78AE196E0215080409040E1F700C09C
S11310C000000E944C082FE78AE196E021508040FE
S11310D09040E1F700C00000CF5FCD13E7CFDF9170
S11310E0CF91089581E00E9442120E944A080E9412
S11310F00B070E940F140E94F3100E945F1778944C
S113110008950E941507049721F00E941411843059
S113111089F484E090E090931303809312039093F6
S113112011038093100380931D038093200381E0B7
S113113080937C0308950E9472088FE293E00E94DA
S11311405A068DE593E00E94EA110E94810882E824
S113115093E00E9412120E9446090E941E080E94F7
S113116055120E94C9110E9496100E94FD0C0E9403
S1131170EA060E94330E80912303811108C08091F6
S11311802C03811104C080912B03882331F38FE158
S11311909EE40197F1F700C000000E94D015DDCF56
S11311A0662399F0FC01208131812417350779F0F9
S11311B0329620E005C0819191918417950749F0FA
S11311C02F5F2613F8CF80E0089580E0089581E032
S11311D0089581E00895CF93DF93EC01AC0162E0C0
S11311E087E093E00E94D008882319F010925F03EF
S11311F027C0AE0161E085E093E00E94D008882317
S113120021F081E080935F031BC0AE0161E083E0C5
S113121093E00E94D008882321F082E080935F034A
S11312200FC0AE0161E081E093E00E94D008882302
S113123021F083E080935F0303C085E080935F0324
S1131240DF91CF91089580915F03823099F028F463
S1131250882341F0813051F00895833079F085304E
S113126089F0089581E00E945008089581E00E9469
S11312705008089586E00E945008089580E10E9475
S11312805008089584E30E94500808952FEF84E3E2
S11312909CE0215080409040E1F700C0000088E0CD
S11312A00E9450080E94A1052FE789EA93E021508B
S11312B080409040E1F700C000008FE293E00E947C
S11312C0CF060E9430060E94EB080E9423090E9468
S11312D04E0880915F03853089F00E9485052FE7D1
S11312E088E391E0215080409040E1F700C0000085
S11312F08FE293E00E94CF060E94BD050E94850400
S11313002FE788E391E0215080409040E1F700C04E
S113131000000E94BF042FE788E391E02150804041
S11313209040E1F700C0000080917C03882331F1F4
S113133080915F03811102C071E001C075E061E03A
S113134082E090E00E9496032FE788E391E0215029
S113135080409040E1F700C0000081E00E94ED155C
S11313608AE00E9450080E9485042FE788E391E0F8
S1131370215080409040E1F700C0000080915F035D
S1131380811104C081E080936B0309C095E09093C0
S11313906B03853021F48EE080936A0303C08AE0F6
S11313A080936A0360916A0370916B0380916C036C
S11313B090916D030E9496032FE788E391E02150FA
S11313C080409040E1F700C000000E94BF042FE776
S11313D088E391E0215080409040E1F700C0000094
S11313E00E944C080E94F1012FE788E391E021500C
S11313F080409040E1F700C000000E944D052FE7B7
S113140088E391E0215080409040E1F700C0000063
S11314108FE293E00E94CF060E943A068093620313
S1131420809363030E9469052FE788E391E02150CC
S113143080409040E1F700C000008FE293E00E94FA
S1131440CF060E944A0680936403809365038FE36A
S11314509CE90197F1F700C000000E947B019FE71F
S113146028E381E0915020408040E1F700C0000073
S11314700E944E080E940B010E94B9019FE728E3D5
S113148081E0915020408040E1F700C000000E94BC
S1131490F9049FE728E381E0915020408040E1F780
S11314A000C000000E94BB0082E00E945008089522
S11314B0409170035091710380915F03682F6170B4
S11314C070E080E5869FF001879FF00D1124EF59AD
S11314D0FD4F808191818417950738F580E5869FBB
S11314E0F001879FF00D1124ED59FD4F81E021910A
S11314F031912417350720F48F5F8832C1F717C064
S113150098E2969FF001979FF00D1124E80FF11DCA
S1131510EE0FFF1FEF59FD4F20813181241735074E
S1131520B9F08823A9F08150089580E0089598E2E5
S1131530969FF001979FF00D1124E80FF11DEE0F17
S1131540FF1FEF59FD4F208131812417350759F7CB
S1131550089580916F03882319F08130E9F14AC01E
S11315600E94990181E080936F0380918003982FFA
S11315709D7F11F0843029F4E9E7F3E080818062F3
S11315808083E9E7F3E080818160808381E0809358
S113159078032FE788E391E0215080409040E1F701
S11315A000C000000E9431052FE788E391E021503C
S11315B080409040E1F700C000008FE293E00E9479
S11315C0CF060E940B06E2E7F3E0808391839295B5
S11315D09F70909368030EC00E947B0110926F036A
S11315E0E9E7F3E08081109278038E79808381E0CB
S11315F080932B0381E080932C03089580917803DA
S1131600882341F010927803E9E7F3E08081887F32
S1131610808308C081E080937803E9E7F3E0808168
S11316208760808381E080932C0380917D03811106
S113163004C080917E03882319F081E080932B03FA
S113164008950F931F93CF93DF93809181038111AA
S11316505CC080916F03882321F0813009F44DC070
S113166071C080917F0381110DC010927403809129
S11316706603882309F466C08150809366030E9440
S1131680BB0032C00E9415052FE789EA93E0215080
S113169080409040E1F700C000008FE293E00E9498
S11316A0CF060E94E6058C0190937103809370032A
S11316B00E94580A8093660380915F038170C82F4B
S11316C020E0D22F80E58C9FF0018D9FF00D112436
S11316D0EF59FD4F808191818017910728F40E9472
S11316E09F0081E08093750381E080932C03E9E7F8
S11316F0F3E080818160808325C00E94430181E002
S11317008093740380932C031DC0823069F480910C
S113171062038230B8F08150809362030E940D020C
S113172081E080932B030EC0833061F480916403C5
S1131730823040F08150809364030E94320281E041
S113174080932B03DF91CF911F910F9108950F93F5
S11317501F93CF93DF938091810381115CC08091AB
S11317606F03882321F0813009F44DC071C080914A
S11317707F0381110DC01092760380916603873236
S113178008F066C08F5F809366030E94BB0032C07E
S11317900E9415052FE789EA93E02150804090408C
S11317A0E1F700C000008FE293E00E94CF060E94A0
S11317B0E6058C0190937103809370030E94580A8C
S11317C08093660380915F038170C82F20E0D22F3D
S11317D080E58C9FF0018D9FF00D1124E155FD4FA4
S11317E0808191810817190728F40E94830081E001
S11317F08093770381E080932C03E9E7F3E0808111
S11318008160808325C00E945F0181E0809376031C
S113181080932C031DC0823069F4809162038F3F52
S1131820B9F08F5F809362030E940D0281E0809380
S11318302B030EC0833061F4809164038F3F41F029
S11318408F5F809364030E94320281E080932B03B4
S1131850DF91CF911F910F91089580917A0388238E
S113186019F010927A0303C081E080937A0381E037
S113187080932B03089580918103811146C083E0F6
S11318800E94500881E0809381030E94D5010E9448
S11318904D052FEF80E792E0215080409040E1F722
S11318A000C000008FE293E00E94CF060E943A0637
S11318B0809362030E9469052FEF80E792E0215034
S11318C080409040E1F700C000008FE293E00E9466
S11318D0CF060E944A06809364036091620380E00D
S11318E090E00E94DC172FEF81EE94E021508040BD
S11318F09040E1F700C000006091640381E090E053
S11319000E94DC1781E080932C0308958091810369
S1131910811148C083E00E94500882E080938103D3
S11319200E94F1010E944D052FEF80E792E02150C3
S113193080409040E1F700C000008FE293E00E94F5
S1131940CF060E943A06809362030E9469052FEF36
S113195080E792E0215080409040E1F700C0000011
S11319608FE293E00E94CF060E944A0680936403AC
S11319706091620380E090E00E94DC172FEF82E523
S113198097E0215080409040E1F700C00000609152
S1131990640381E090E00E94DC1781E080932C03D3
S11319A080932B030895809181038230C1F08330AA
S11319B0E9F0811121C083E00E94500880917F03E7
S11319C0811104C081E080937F0308950E94670021
S11319D0109277031092750310927F03089583E0A9
S11319E00E94500883E080938103089583E00E945D
S11319F0500882E080938103089520910E032223EE
S1131A0021F010920E0331E009C020910C0322232F
S1131A1021F010920C0331E001C030E020916F03FB
S1131A20213009F0AEC020917403211105C020912A
S1131A307603222309F4A5C031110DC080917203ED
S1131A40909173038115904B08F44CC080917603F8
S1131A50882309F447C080916603833038F48FECFF
S1131A6097E00197F1F700C000002DC0843050F4D6
S1131A709FE728E381E0915020408040E1F700C0D7
S1131A80000021C0873050F49FEF23EF81E0915094
S1131A9020408040E1F700C0000015C08A3050F4B7
S1131AA09FEF21EE84E0915020408040E1F700C098
S1131AB0000009C09FE72BE888E091502040804057
S1131AC0E1F700C000000E942701109274031092F5
S1131AD076039FE728E381E0915020408040E1F7BE
S1131AE000C000000E9431059FE729EA83E091507D
S1131AF020408040E1F700C000008FE293E00E94A4
S1131B00CF060E940B069093730380937203209177
S1131B101703309118038217930789F090931803E1
S1131B2080931703109216038091790386FF18C0DF
S1131B308F7B8093790381E080932B0311C0809184
S1131B4016038F5F80931603823050F080917903DF
S1131B5086FD06C080648093790381E080932B0323
S1131B608091730382958F708093680390916903C9
S1131B70981721F081E080932C03089510922C0390
S1131B80089520917F03213009F06CC040917703C0
S1131B90411105C020917503222309F463C031115A
S1131BA018C020915F03822F817090E020E5289F68
S1131BB0F001299FF00D1124E155FD4F2091700390
S1131BC030917103808191812817390740F14423B2
S1131BD031F180915F0381110AC09FE728E381E01E
S1131BE0915020408040E1F700C0000009C09FE709
S1131BF029EA83E0915020408040E1F700C00000D2
S1131C000E94670010927703109275039FE728E300
S1131C1081E0915020408040E1F700C000000E9424
S1131C2015059FE729EA83E0915020408040E1F7C1
S1131C3000C000008FE293E00E94CF060E94E605F8
S1131C4090937103809370030E94580A80936603F3
S1131C5090916703891721F081E080932C03089504
S1131C6010922C03089580918103813019F50E940C
S1131C704D058FE59AEE0197F1F700C000008FE261
S1131C8093E00E94CF060E943A06809362030E946A
S1131C9069058FE59AEE0197F1F700C000008FE225
S1131CA093E00E94CF060E944A068093640381E079
S1131CB080932B0308950E94D2022FEF80E792E0D5
S1131CC0215080409040E1F700C000000E9457027C
S1131CD010927D0308950E94730281E080937D0336
S1131CE080937803E9E7F3E0908193609083809395
S1131CF02C0308950E94EE0282E080937D0381E02C
S1131D0080937803E9E7F3E0908193609083809374
S1131D102C03089581EC0E940D0281E080937E03E0
S1131D2080937803E9E7F3E0908195609083809352
S1131D302C0380915F03853049F42FEF80E792E014
S1131D40215080409040E1F700C00000089588EAE7
S1131D500E940D0282E080937E0381E080937803E9
S1131D60E9E7F3E090819560908380932C03809160
S1131D705F03853049F42FEF80E792E021508040E3
S1131D809040E1F700C00000089588E70E940D022A
S1131D9083E080937E0381E080937803E9E7F3E0B6
S1131DA090819560908380932C0380915F038530AC
S1131DB049F42FEF80E792E0215080409040E1F712
S1131DC000C000000895CF93DF930E94F1011092A8
S1131DD08103C2E6D3E088810E940D02688180E01D
S1131DE090E00E94DC172FEF81EE94E021508040B8
S1131DF09040E1F700C00000C4E6D3E088810E946F
S1131E003202688181E090E00E94DC170E94850420
S1131E102FEF81EE94E0215080409040E1F700C024
S1131E2000000E947A032FEF8FE493EC215080404E
S1131E309040E1F700C00000DF91CF9108958091B8
S1131E408103811117C080917B03882329F00E94AC
S1131E50B60210927B030AC00E949A0281E080932A
S1131E607B03E9E7F3E080818860808381E08093ED
S1131E702C0308950E94E30E0895CF930E94F1016C
S1131E801092810380E090E00E94D417C82F8093C1
S1131E90620381E090E00E94D417809364038C2F46
S1131EA00E940D022FEF80E792E021508040904085
S1131EB0E1F700C00000809164030E94320281E0D7
S1131EC080932C0380932B032FEF80E792E0215023
S1131ED080409040E1F700C00000CF9108958091C8
S1131EE0810381112AC080917E03811111C08091E8
S1131EF07D03813039F018F0823039F01AC00E9425
S1131F006B0E17C00E947A0E14C00E945B0E11C0A3
S1131F10809163030E940D0210927E0310927D0350
S1131F202FEF80E792E0215080409040E1F700C01D
S1131F30000081E080932B0308950E943D0F0895D3
S1131F408091810381111AC080917D0381110E94C7
S1131F505B0E80917E03813041F020F0823041F0AD
S1131F60833041F40E948A0E05C00E94A70E02C06D
S1131F700E94C50E81E080932B0308950E943D0FBB
S1131F8008950E94420383E08093800381E080935C
S1131F907803E9E7F3E090819F7D916190838093DA
S1131FA07A0392E090936C03EAE6F3E080838093F3
S1131FB06B0380936D0360817181828193810E94A0
S1131FC0960380915F03853049F42FEF80E792E018
S1131FD0215080409040E1F700C0000008950E9425
S1131FE05E0384E08093800310927803E9E7F3E0D2
S1131FF080818E7E808310927A03EAE6F3E08AE0A1
S1132000808381E080936B0380936C0310926D0353
S113201060817181828193810E94960380915F0324
S1132020853049F42FEF80E792E0215080409040C2
S1132030E1F700C0000008950E940A0381E0809344
S1132040800380937803E9E7F3E090819F7D9161B9
S1132050908380937A0392E090936C03EAE6F3E032
S1132060808380936B0380936D036081718182818F
S113207093810E94960380915F03853049F42FEF8A
S113208080E792E0215080409040E1F700C00000DA
S113209008950E94260382E08093800310927803BF
S11320A0E9E7F3E080818E7E808310927A03EAE68A
S11320B0F3E08AE0808381E080936B0380936C0378
S11320C010926D0360817181828193810E949603D5
S11320D080915F03853049F42FEF80E792E021502F
S11320E080409040E1F700C0000008958091800393
S11320F0823059F028F4882341F0813079F010C0FF
S1132100833031F0843039F00BC00E94C10F08C015
S11321100E94EF0F05C00E941C1002C00E944910CB
S113212081E080932C0380932B0308958091140302
S113213090E08C30910540F5FC01EC5CFF4F0C9471
S1132140BA170E94A90A20C00E94210B1DC00E9438
S1132150FE0A1AC00E94A70B17C00E942D0C14C0BF
S11321600E946F0F11C00E94A00F0EC00E941F0F8B
S11321700BC00E94761008C00E943B0C05C00E9450
S1132180860C02C00E94D30C80911E0390E088301C
S11321909105E0F4FC01E05CFF4F0C94BA170E9437
S11321A0A90A08950E94210B08950E94FE0A089529
S11321B00E94A70B08950E942D0C08950E946F0F92
S11321C008950E94A00F08950E941F0F0895809102
S11321D01F03816080931F03089580911F0384600F
S11321E080931F03089588B18F6188B987B117B8A8
S11321F0089580911F03282F2270982F9370933095
S113220079F021110FC0826080931F0347EE50E1E3
S11322106AE070E080E090E00E94B71380E00895E7
S113222081E0089580E0089596B194FF48C09F70BE
S1132230993069F080911C03882329F010921C03C3
S113224081E080931B03963061F180E001C082E05D
S113225020911A03222329F010921A0321E02093DB
S11322601903933079F028F49130A1F0923081F081
S113227012C0983029F09C3039F0943039F00BC0FA
S1132280816009C0846007C0806105C0806203C0AA
S1132290806401C0806881FF05C091E090931C03B5
S11322A001C088E083FF03C091E090931A03882360
S11322B039F090911F039C7F90931F03089580E051
S11322C008952091200390911D039227892319F0EA
S11322D060931E03089580911F0383FF10C082FF43
S11322E006C060931E038B7F80931F0308954DEEF9
S11322F050E16CE271E080E090E00E945713089591
S113230080912003883011F138F48230A9F08430B0
S1132310C1F08130A1F50BC0803211F118F4803185
S1132320D1F02DC0803409F1803821F128C060E05B
S113233081E00E946111089561E082E00E946111D0
S1132340089562E084E00E946111089563E088E0EA
S11323500E946111089564E080E10E946111089572
S113236065E080E20E946111089566E080E40E94C5
S11323706111089567E080E80E94611108958091D9
S11323801F038B7F80931F038DEE90E10E94EF1358
S113239008958CE080931E030E94F9108823C9F0ED
S11323A08091200380931D030E94141180932003C5
S11323B0823011F0883031F480911F03886080935B
S11323C01F0305C080911F03877F80931F030E9412
S11323D080110895FC011182108280E090E79483BB
S11323E083831582178287E081871286138688E0AB
S11323F0848781E08787108A8EE0818B128A148A11
S1132400138A168A158A178A108E118E128E138ECD
S1132410148E158E168E178E10A211A212A213A25C
S113242014A20895DC01FC0180E09BE191938F5F8D
S11324308A30E1F71C928BE011968C9311978FE40C
S113244012968C9312978EE113968C93139787E2CE
S113245014968C93149783E215968C9315978BE1BD
S113246016968C93169786E017968C93179782E0AE
S113247018968C93189781E01A968C931A971B964A
S11324801C920895813081F488E19CEF909385003B
S113249080938400EFE6F0E0808181608083E1E84E
S11324A0F0E08081826080830895CF92DF92EF9282
S11324B0FF920F931F93CF93DF93CEE8D3E008EB03
S11324C013E0CC24CA94DC2CE12CF12C8881998172
S11324D0AA81BB81892B8A2B8B2B49F4C882D98290
S11324E0EA82FB8210922403EC81FD8109952696F1
S11324F0C017D10759F7DF91CF911F910F91FF902A
S1132500EF90DF90CF900895CF93DF93EEE8F3E060
S113251028EB33E080819181A281B3818F3F4FEF1B
S11325209407A105B10559F00097A105B10539F04B
S11325300197A109B10980839183A283B38336965D
S1132540E217F30739F7DF91CF9108951F920F92A5
S11325500FB60F9211242F933F934F935F936F9372
S11325607F938F939F93AF93BF93EF93FF9388E1F0
S11325709CEF909385008093840080917A03882354
S113258009F45CC08091250390912603A091270350
S1132590B0912803BC01CD016F5F7F4F8F4F9F4FD8
S11325A06093250370932603809327039093280355
S11325B028EE33E040E050E00E949817672B682B28
S11325C0692B09F047C081E080932303109225030F
S11325D0109226031092270310922803809121035E
S11325E08F5F809321038091210399E8899F912D26
S11325F011249295969597702CE3929F801911243B
S1132600811128C081E080932303109221038091DB
S113261022038F5F809322038091220399E8899F8C
S1132620912D11249295969597702CE3929F801981
S1132630112481110FC0109222030CC010922503A3
S1132640109226031092270310922803109221035C
S1132650109222034C9B09C080910F03882329F018
S113266010920F0381E080930E03359B09C0809183
S11326700D03882329F010920D0381E080930C034D
S113268080912403811102C00E948412FF91EF9172
S1132690BF91AF919F918F917F916F915F914F9176
S11326A03F912F910F900FBE0F901F901895CF92CE
S11326B0DF92EF92FF920F931F93CF93DF93EEE895
S11326C0F3E028EB33E0C080D180E280F380AFEF09
S11326D0CA16DA06E104F10429F0A481B581A4172D
S11326E0B507E1F13696E217F30769F700918E0317
S11326F010918F0320919003309191030F3F1F4F4E
S11327002105310581F0E4E9F3E021E030E0E9015D
S1132710C080D180E280F380AFEFCA16DA06E1040C
S1132720F104B1F402C0C0E0D0E09E01220F331FD7
S1132730F901EC0FFD1FEE0FFF1FE257FC4F608302
S1132740718382839383109224035583448306C048
S11327502F5F3F4F369627303105C9F6DF91CF9171
S11327601F910F91FF90EF90DF90CF900895CF923B
S1132770DF92EF92FF92CF93DF93EEE8F3E020E055
S113278030E0E901C080D180E280F380AFEFCA1667
S1132790DA06E104F104A1F0A481B581A417B50718
S11327A079F4220F331FC20FD31FCC0FDD1FC25782
S11327B0DC4F688379838A839B831092240308C047
S11327C02F5F3F4F369627303105D9F60E945713B5
S11327D0DF91CF91FF90EF90DF90CF900895CF934A
S11327E0DF93C0912403EEE8F3E0A8EBB3E04FEFEE
S11327F05FEF60E070E0D0E024813581281739076D
S113280029F44083518362837383CD2F3696EA176C
S1132810FB0791F7C0932403DF91CF910895EEE86D
S1132820F3E028EB33E08FEF9FEFA0E0B0E080838C
S11328309183A283B3833696E217F307C1F7089511
S1132840CF93DF93CDB7DEB72A970FB6F894DEBFE8
S11328500FBECDBF8AE0E7E5F2E0DE0111960190FC
S11328600D928A95E1F7809178038823E1F08091B5
S1132870790380FF18C020916603822F90E00196AF
S113288037E13A836AE070E00E9484177727FB01FE
S1132890E95BFD4F30813B83FC01E95BFD4F8081A7
S11328A08C832093670380916F038130A1F480911E
S11328B0790385FF10C08CE08E8385E08F838FE4DD
S11328C0888780916803E82FF0E0E95BFD4F9081F1
S11328D099878093690380917B03882369F08091B1
S11328E0790383FF09C082E18E8383E18F8388E0CB
S11328F088878BE089878A8780918103813081F47E
S113290086E189839AE49A831B8293E09C8399E00D
S11329109D839FE49E831F8293E19887898713C0D8
S11329208250823080F486E189838AE48A831B8220
S113293083E08C8389E08D838FE48E838CE08F83A6
S113294018868DE08987BE016F5F7F4F80916A038F
S11329500E94DD032A960FB6F894DEBF0FBECDBFEA
S1132960DF91CF910895CF93DF93CDB7DEB72A9748
S11329700FB6F894DEBF0FBECDBF8AE0E7E5F2E004
S1132980DE01119601900D928A95E1F780916F0313
S1132990813059F4809179038076803631F484E073
S11329A08A838DE08B8383E08C83809178038823F2
S11329B009F18091790381FFE5C080917D03813025
S11329C021F485E08A831B82DDC0823009F0DAC0FD
S11329D085E08A8381E08B83D5C0E0917E038FEF0D
S11329E08E0F833038F486E08A83F0E0E95BFD4F94
S11329F080818B8380917A03882309F442C080917B
S1132A007B03811108C08091220380932A03809163
S1132A10210380932903E0912A038DECE89F912DF3
S1132A201124969596959695A92FB0E0A95BBD4F74
S1132A302C912E83990F292F220F220F920FE91B1D
S1132A40F0E0E95BFD4F90819F839AE49887E091E1
S1132A502903E89F812D1124869586958695A82FB4
S1132A60B0E0A95BBD4F9C919987880F982F990F6F
S1132A70990F890FE81BF0E0E95BFD4F80818A879D
S1132A8004C010922A0310922903809181038823A1
S1132A9009F468C081E189833AE43A83E0916203EE
S1132AA029E2E29FA12D1124A295AF70B0E0A95BA9
S1132AB0BD4F8C918B838DECE89F912D11249695BD
S1132AC096959695989F412D112446954695469541
S1132AD0440F542F550F550F450FA92FA41BB0E0D9
S1132AE0A95BBD4F4C914C83990F492F440F440F60
S1132AF0940FE91BF0E0E95BFD4F90819D8391E029
S1132B009E833F83E0916403E29F212D112422954B
S1132B102F70A22FB0E0A95BBD4F9C919887E89FCE
S1132B20912D1124969596959695989F812D112413
S1132B30869586958695880F282F220F220F820F5F
S1132B40A92FA81BB0E0A95BBD4F8C918987990F71
S1132B50892F880F880F980FE91BF0E0E95BFD4F80
S1132B6080818A8780912B03811104C080917B032B
S1132B7081110DC0BE016F5F7F4F80916A030E9477
S1132B80310405C08091790382FD27CF33CF2A9683
S1132B900FB6F894DEBF0FBECDBFDF91CF9108957D
S1132BA080912C03882351F010922C030E9420144E
S1132BB08FE19EE40197F1F700C0000080912303A8
S1132BC0811104C080912B03882331F00E94B31437
S1132BD01092230310922B0308951F93CF93DF9336
S1132BE0CDB7DEB72A970FB6F894DEBF0FBECDBFC0
S1132BF0182F8AE0E7E5F2E0DE01119601900D92CC
S1132C008A95E1F762E873E0812F0E94DD032FEFDC
S1132C1080E792E0215080409040E1F700C000003E
S1132C2085E18B83A0918C03EDECAE9FE12D112403
S1132C30E695E695E6958E2F880F982F990F990FB4
S1132C40890FA81BEE2339F0F0E0E95BFD4F80818A
S1132C508C8384E001C083E0E1E0F0E0EC0FFD1F31
S1132C60E80FF11DB0E0A95BBD4F9C91908391E00A
S1132C70980FE1E0F0E0EC0FFD1FE90FF11D9CE47B
S1132C80908390918D0322E0280FE1E0F0E0EC0FB7
S1132C90FD1FE20FF11D2DEC929F212D112426958D
S1132CA026952695A22FB0E0A95BBD4F3C913083B9
S1132CB033E0380FE1E0F0E0EC0FFD1FE30FF11D0E
S1132CC0220F322F330F330F230F921BA92FB0E0A3
S1132CD0A95BBD4F9C91908325E0280F94E0980F49
S1132CE0E1E0F0E0EC0FFD1FE90FF11D9BE19083A3
S1132CF090915F03923081F128F4992349F0913047
S1132D00C9F05EC09330C9F1953009F448C058C089
S1132D10E1E0F0E0EC0FFD1FE20FF11D91E2908382
S1132D208A5FE1E0F0E0EC0FFD1FE80FF11D85E2A2
S1132D30808346C0E1E0F0E0EC0FFD1FE20FF11DDF
S1132D409EE190838A5FE1E0F0E0EC0FFD1FE80F65
S1132D50F11D87E2808334C0E1E0F0E0EC0FFD1F59
S1132D60E20FF11D90E290838A5FE1E0F0E0EC0F66
S1132D70FD1FE80FF11D908323C0E1E0F0E0EC0FAC
S1132D80FD1FE20FF11D93E290838A5FE1E0F0E022
S1132D90EC0FFD1FE80FF11D80E2808311C0E1E01C
S1132DA0F0E0EC0FFD1FE20FF11D94E290838A5FC7
S1132DB0E1E0F0E0EC0FFD1FE80FF11D82E28083FB
S1132DC0BE016F5F7F4F812F0E9431042A960FB698
S1132DD0F894DEBF0FBECDBFDF91CF911F91089550
S1132DE01F920F920FB60F9211242F933F934F937C
S1132DF05F936F937F938F939F93AF93BF93EF935F
S1132E00FF938091C6008093D8038091D8038039C2
S1132E1019F08F3F59F027C081E080932E039091E1
S1132E20D8039093B80380932D032DC080912E0373
S1132E30882349F1E0912D0321E02E0F20932D03E7
S1132E408091D803F0E0E854FC4F808310922E0365
S1132E508091B9038093340348EB53E06FE273E04D
S1132E600E94900610C080912E03882361F0E091A7
S1132E702D0381E08E0F80932D038091D803F0E021
S1132E80E854FC4F8083FF91EF91BF91AF919F91E4
S1132E908F917F916F915F914F913F912F910F90FF
S1132EA00FBE0F901F9018959093C5008093C40097
S1132EB088E98093C10086E08093C200089583E38B
S1132EC090E00E9454170895E0ECF0E0908195FFA3
S1132ED0FDCF8093C60008950F931F93CF93DF9384
S1132EE0EC01062F662359F010E089910E946417C3
S1132EF085E38A95F1F700001F5F1013F6CFDF9189
S1132F00CF911F910F91089597FB072E16F400940B
S1132F1007D077FD09D00E94C01707FC05D03EF406
S1132F20909581959F4F0895709561957F4F089571
S1132F30A1E21A2EAA1BBB1BFD010DC0AA1FBB1FB9
S1132F40EE1FFF1FA217B307E407F50720F0A21B2B
S1132F50B30BE40BF50B661F771F881F991F1A9498
S1132F6069F760957095809590959B01AC01BD01C2
S1132F70CF010895EE0FFF1F0590F491E02D099401
S1132F80AA1BBB1B51E107C0AA1FBB1FA617B7078B
S1132F9010F0A61BB70B881F991F5A95A9F78095A7
S1132FA09095BC01CD010895F999FECF92BD81BDE4
S1132FB0F89A992780B50895262FF999FECF1FBA5C
S1132FC092BD81BD20BD0FB6F894FA9AF99A0FBE4E
S10B2FD001960895F894FFCF67
S1132FD881090002FF81090422FF81090444FF8159
S1132FE8090443FF81090448FF81090447FF81015B
S1132FF80424560001FF810104742FFF8101047425
S11330081FFF81010473301B1B1B1B1B1B1B1B1B7A
S11330181BFF81010473201B1B1B1B1B1B1B1B1B7E
S11330281BFF810104731000000000000000000071
S113303800FF8101047402FF8101047400FF81010F
S11330480473021B1B1B1B1B1B1B1B1B1BFF81016C
S11330580473011B1B1B1B1B1B1B1B1B1BFF81015D
S113306804730000000000000000000000FF81015C
S1133078043F017FFF8101046103FF8101046102B0
S1133088FF8101046603FF8101046602FF810104D4
S11330986304FF8101046300FF8101046203FF816B
S11330A801046202FF8101044200000000FF810163
S11330B8040200FF8101044400000000FF810104B0
S11330C84300000000FF8101043505FF8101043538
S11330D804FF8101045700FF8101043803FF8101C3
S11330E8043802FF8101040833FF8101040823FF27
S11330F88101040800FF8101040602FF81010447DD
S113310800000000FF8101040733FF810104072345
S1133118FF8101040700FF271E1F202122232425E5
S1133128260001020304051B1B1B1B1B1B1B1B1B6B
S11331381B0000001600218027002C002F3032606D
S113314834703660383039703AA03BB03CB03DA09A
S11331583E803F00400042B0446047104A804B0024
S11331684F6051A052105480550057E058005A003F
S11331785B005C005D005E005F006000610062FF50
S11331886200006F16F01F7D254029022C2B2EEEBD
S11331982F6A31B232D433D934C835A436733736AA
S11331A838F038A039493AE83A7F3BC03C8E3C06AF
S11331B83D733DD43D2C3E7C3EC23E003F383F68C3
S11331C83F943FBD3FDF3F004000428044E046005B
S10F31D84A5F04650450045704590400C5
S9030000FC
