:100000000C9448000C9465000C9465000C946500F9
:100010000C9465000C9465000C9465000C946500CC
:100020000C9465000C9465000C9465000C946500BC
:100030000C9465000C94D70F0C9465000C9465002B
:100040000C9465000C9465000C940D140C946500E0
:100050000C9465000C9465000C9465000C9465008C
:100060000C9465000C946500D60DD90DDC0DDF0DE8
:10007000E20DE50DEB0DE80DEE0DF10DF40DF70DB4
:10008000040E070E0A0E0D0E100E130E190E160E8C
:1000900011241FBECFEFD4E0DEBFCDBF12E0A0E041
:1000A000B1E0E2E1FAE202C005900D92AC37B1078F
:1000B000D9F723E0ACE7B2E001C01D92A534B20746
:1000C000E1F70E9498070C9407150C9400008EE24B
:1000D000ECE9F2E0DF01982F1D929A95E9F7DF0134
:1000E0001D928A95E9F783EF91E09183808386E002
:1000F00080939E0281E080939F0266E083EF91E00F
:100100000E94891408958EE2ECE9F2E0DF01982F55
:100110001D929A95E9F7DF011D928A95E9F78DEE18
:1001200091E09183808386E080939E0281E08093BA
:100130009F0266E08DEE91E00E94891408958EE2A0
:10014000ECE9F2E0DF01982F1D929A95E9F7DF01C3
:100150001D928A95E9F787EE91E09183808386E08E
:1001600080939E0281E080939F0266E087EE91E09B
:100170000E9489140895CF93DF938EE2ACE9B2E038
:10018000ED01E82F1992EA95E9F7EEEDF1E0ED01C6
:1001900019928A95E9F7ED93FC9389E080939E028A
:1001A00081E080939F02A091D202B0E0AA0FBB1F12
:1001B000A750BE4F8D919C9111979093DD02809333
:1001C000DC029C012227307F232F22952F7024836D
:1001D0009C0122273F703583807F992792958295D5
:1001E0008F7089279F70892786838C918F70878372
:1001F00069E0CF010E948914DF91CF9108958EE2CA
:10020000ECE9F2E0DF01982F1D929A95E9F7DF0102
:100210001D928A95E9F788ED91E09183808386E0CD
:1002200080939E0281E080939F0266E088ED91E0DA
:100230000E94891408958EE2ECE9F2E0DF01982F24
:100240001D929A95E9F7DF011D928A95E9F782EDF3
:1002500091E09183808386E080939E0281E0809389
:100260009F0266E082ED91E00E94891408958EE27B
:10027000ECE9F2E0DF01982F1D929A95E9F7DF0192
:100280001D928A95E9F78CEC91E09183808386E05A
:1002900080939E0281E080939F0266E08CEC91E067
:1002A0000E94891408958EE2ECE9F2E0DF01982FB4
:1002B0001D929A95E9F7DF011D928A95E9F786EC80
:1002C00091E09183808386E080939E0281E0809319
:1002D0009F0266E086EC91E00E9489141092DB0296
:1002E0000895CF938EE2ECE9F2E0DF01982F1D92A2
:1002F0009A95E9F7C1E0DF011D928A95E9F780EC54
:1003000091E09183808386E080939E02C0939F0258
:1003100066E080EC91E00E948914C093DB02CF91EB
:1003200008958EE2ECE9F2E0DF01982F1D929A9594
:10033000E9F7DF011D928A95E9F78AEB91E0918355
:10034000808386E080939E0281E080939F0266E036
:100350008AEB91E00E94891408958EE2ECE9F2E0C4
:10036000DF01982F1D929A95E9F7DF011D928A957A
:10037000E9F784EB91E09183808386E080939E028D
:1003800081E080939F0266E084EB91E00E948914F3
:1003900008958EE2ECE9F2E0DF01982F1D929A9524
:1003A000E9F7DF011D928A95E9F78EEA91E09183E2
:1003B000808386E080939E0281E080939F0266E0C6
:1003C0008EEA91E00E9489140895CF93DF939EE214
:1003D000ACE9B2E0ED01E92F1992EA95E9F7E5EA17
:1003E000F1E0ED0119929A95E9F7ED93FC9399E00C
:1003F00090939E0291E090939F02982F92959F7008
:1004000096838F70878369E0CF010E948914DF9102
:10041000CF910895CF93DF939EE2ACE9B2E0ED0176
:10042000E92F1992EA95E9F7ECE9F1E0ED0119926B
:100430009A95E9F7ED93FC9399E090939E0291E0F1
:1004400090939F02982F92959F7096838F708783C9
:1004500069E0CF010E948914DF91CF9108958EE267
:10046000ECE9F2E0DF01982F1D929A95E9F7DF01A0
:100470001D928A95E9F786E991E09183808386E071
:1004800080939E0281E080939F0266E086E991E07E
:100490000E9489140895CF93DF938EE2ACE9B2E015
:1004A000ED01E82F1992EA95E9F7EDE8F1E0ED01A9
:1004B00019928A95E9F7ED93FC9389E080939E0267
:1004C00081E080939F028091DA02982F92959F702D
:1004D00096838F70878369E0CF010E948914DF9132
:1004E000CF9108958EE2ECE9F2E0DF01982F1D92A2
:1004F0009A95E9F7DF011D928A95E9F787E891E07F
:100500009183808386E080939E0281E080939F02A6
:1005100066E087E891E00E94891408958EE2ECE994
:10052000F2E0DF01982F1D929A95E9F7DF011D9205
:100530008A95E9F781E891E09183808386E0809352
:100540009E0281E080939F0266E081E891E00E9434
:10055000891408958EE2ECE9F2E0DF01982F1D92F4
:100560009A95E9F7DF011D928A95E9F78BE791E00B
:100570009183808386E080939E0281E080939F0236
:1005800066E08BE791E00E94891408958EE2ECE921
:10059000F2E0DF01982F1D929A95E9F7DF011D9295
:1005A0008A95E9F785E791E09183808386E08093DF
:1005B0009E0281E080939F0266E085E791E00E94C1
:1005C000891408958EE2ECE9F2E0DF01982F1D9284
:1005D0009A95E9F7DF011D928A95E9F78FE691E098
:1005E0009183808386E080939E0281E080939F02C6
:1005F00066E08FE691E00E94891408958EE2ECE9AE
:10060000F2E0DF01982F1D929A95E9F7DF011D9224
:100610008A95E9F789E691E09183808386E080936B
:100620009E0281E080939F0266E089E691E00E944D
:10063000891408958EE2ECE9F2E0DF01982F1D9213
:100640009A95E9F7DF011D928A95E9F783E691E033
:100650009183808386E080939E0281E080939F0255
:1006600066E083E691E00E94891408958EE2ECE949
:10067000F2E0DF01982F1D929A95E9F7DF011D92B4
:100680008A95E9F78DE591E09183808386E08093F8
:100690009E0281E080939F0266E08DE591E00E94DA
:1006A00089140895CF93DF932EE2ACE9B2E0ED0117
:1006B000E22F1992EA95E9F7EDE4F1E0ED011992E4
:1006C0002A95E9F7ED93FC9320E120939E0221E027
:1006D00020939F02658376838783908760E1CF01B3
:1006E0000E948914DF91CF9108958EE2ECE9F2E047
:1006F000DF01982F1D929A95E9F7DF011D928A95E7
:10070000E9F78DE391E09183808380E180939E02FD
:1007100081E080939F02E62FF72F85E090E0219102
:10072000A0919C02B0919D02A80FB91F2C93019635
:100730008F309105A1F760919E0280919C0290916B
:100740009D020E94891408958EE2ECE9F2E0DF0137
:10075000982F1D929A95E9F7DF011D928A95E9F786
:100760008DE291E09183808380E180939E0281E01D
:1007700080939F02E62FF72F85E090E02191A091D2
:100780009C02B0919D02A80FB91F2C9301968F3047
:100790009105A1F760919E0280919C0290919D022B
:1007A0000E94891408958EE2ECE9F2E0DF01982FAF
:1007B0001D929A95E9F7DF011D928A95E9F787E284
:1007C00091E09183808386E080939E0281E0809314
:1007D0009F0266E087E291E00E94891408958EE20C
:1007E000ECE9F2E0DF01982F1D929A95E9F7DF011D
:1007F0001D928A95E9F781E291E09183808386E0FA
:1008000080939E0281E080939F0266E081E291E006
:100810000E94891408958EE2ECE9F2E0DF01982F3E
:100820001D929A95E9F7DF011D928A95E9F789E112
:1008300091E09183808388E080939E0281E08093A1
:100840009F0268E089E191E00E94891408958EE298
:10085000ECE9F2E0DF01982F1D929A95E9F7DF01AC
:100860001D928A95E9F784E191E09183808385E088
:1008700080939E0289E080939F0265E084E191E08D
:100880000E94891408958EE2ECE9F2E0DF01982FCE
:100890001D929A95E9F7DF011D928A95E9F78FE09D
:1008A00091E09183808385E080939E0289E080932C
:1008B0009F0265E08FE091E00E94891408958EE226
:1008C000ECE9F2E0DF01982F1D929A95E9F7DF013C
:1008D0001D928A95E9F78AE091E09183808385E013
:1008E00080939E0289E080939F0265E08AE091E018
:1008F0000E94891408958EE2ECE9F2E0DF01982F5E
:100900001D929A95E9F7DF011D928A95E9F785E036
:1009100091E09183808385E080939E0289E08093BB
:100920009F0265E085E091E00E94891408958EE2BF
:10093000ECE9F2E0DF01982F1D929A95E9F7DF01CB
:100940001D928A95E9F780E091E09183808385E0AC
:1009500080939E0289E080939F0265E080E091E0B1
:100960000E94891408958091C9028430F1F4209185
:10097000B9022F7030E0322F22273295307F8091DC
:10098000BA028F7090E0982F8827820F931F2091D2
:10099000BC022F70820F911D2091BB022F7030E19D
:1009A000239F800D911D112402C080E090E0909360
:1009B000CB028093CA0208958091C9028430F1F479
:1009C0002091B9022F7030E0322F22273295307FEC
:1009D0008091BA028F7090E0982F8827820F931F22
:1009E0002091BC022F70820F911D2091BB022F70AD
:1009F00030E1239F800D911D1124089580E090E047
:100A000008958091C9028430F1F42091B9022F70C9
:100A100030E0322F22273295307F8091BA028F70DA
:100A200090E0982F8827820F931F2091BC022F708F
:100A3000820F911D2091BB022F7030E1239F800D0A
:100A4000911D1124089580E090E008958091C902DD
:100A5000873051F48091BB0290E0982F8827209135
:100A6000BC02820F911D089580E090E0089580916E
:100A7000C902843051F49091BB028091BC028F7006
:100A800020E1929F800D1124089580E008958091C7
:100A9000C902843051F49091BB028091BC028F70E6
:100AA00020E1929F800D1124089580E00895DC01DB
:100AB00011961C921E9212961C9212978FEF13960B
:100AC0008C93139792E014969C93149715968C939D
:100AD000159716961C92169717961C9217971896AC
:100AE0001C921897FD01399680E111928150E9F727
:100AF00059961C9259975A961C925A975B961C923B
:100B00005B975C961C925C97FD017D9611928F5FBE
:100B10008031E1F79D961C920895807F803541F0E9
:100B2000803619F08034B9F506C0211126C030C0D6
:100B3000211112C01EC0222361F0FA0180E090E072
:100B40003191DB01A80FB91F16963C9301968217CD
:100B5000B8F3FB0114820895FA01DB0119964F5F87
:100B60005F4F2150420F511D81918D93E417F5077E
:100B7000D9F781E0FB0184830895942FDB01599616
:100B8000E42FF52F81918D938E2F891B8217D0F33F
:100B900081E0FB0184830895CF93DF93EC018B8583
:100BA0008F3F59F480E007C091919F3F21F08F5F04
:100BB0009D938E30C9F78DA707C08D8FFE013C969F
:100BC000DE015E9681E0F0CFDF91CF9108958091B4
:100BD000A002813081F480919F02893049F4809194
:100BE000A1028075803521F48CE992E00E94CC0549
:100BF00082E08093A00208958091850281608093B5
:100C0000850208958091850284608093850208950D
:100C100088E284B98FEF85B917B888B99AEE9AB986
:100C20008BB90895CF93DF9333B1E6B169B125E075
:100C300080E090E0A62FA071F32FF470E072732F84
:100C400070746470532F5170432F427033230CF033
:100C50008160A11101C08260F11101C08460E111C5
:100C600001C08860711101C08061611101C08062A2
:100C7000511101C08064411101C08068CFE1DEE400
:100C80002197F1F700C00000215001F781FF03C058
:100C900021E020937F0283FF03C021E020937D02A7
:100CA000009729F0209185022C7F20938502DF9107
:100CB000CF91089580918502282F2270982F9370EC
:100CC000933079F021110FC08260809385024CEF40
:100CD00055E064E670E080E090E00E94E81080E07B
:100CE000089581E0089580E0089540918002509138
:100CF00081022091820230918302242735278223AA
:100D00009323892B19F060938402089580918502C2
:100D100083FF0DC082FF03C060938402089542E008
:100D200056E06CE271E080E090E00E948810089547
:100D300080918002909181028A30910509F46BC004
:100D400088F48430910589F130F48130910509F1FE
:100D5000029729F166C08630910509F450C00897C2
:100D600051F15FC08032910591F138F48C309105DA
:100D700009F44BC0409729F154C08038910599F18E
:100D8000811521E09207A9F18034910509F049C04D
:100D900024C060E081E090E00E947506089561E063
:100DA00082E090E00E947506089562E084E090E0A1
:100DB0000E947506089563E088E090E00E94750641
:100DC000089564E080E190E00E947506089565E072
:100DD00080E290E00E947506089566E080E490E06D
:100DE0000E947506089567E080E890E00E9475060D
:100DF000089568E080E091E00E947506089569E03A
:100E000086E090E00E94750608956AE08CE090E02C
:100E10000E94750608956BE08AE090E00E947506D6
:100E20000895809185028B7F8093850282E096E011
:100E30000E94201108958CE0809384020E945A063B
:100E4000882321F180918002909181029093830206
:100E5000809382020E941206909381028093800206
:100E60008230910511F0089751F48091EB028111C5
:100E700006C08091850288608093850205C08091BC
:100E80008502877F809385020E9498060895559A6F
:100E900008955D9808955D9A0895CF93DF93D82FB4
:100EA0008823D1F0C0E00E944B072FE78AE196E04B
:100EB000215080409040E1F700C000000E944907A7
:100EC0002FE78AE196E0215080409040E1F700C092
:100ED0000000CF5FCD13E7CFDF91CF91089581E080
:100EE0000E94730F0E9447070E9408060E9440114B
:100EF0000E94280E0E947C14789408950E94120685
:100F0000049721F00E94490E843089F484E090E037
:100F10009093830280938202909381028093800257
:100F200080938A0280938D0281E08093E802089585
:100F30000E946F078CE992E00E9457058AEC92E0CC
:100F40000E941F0F0E947E078EEE92E00E944A0FC1
:100F50000E94CD070E941B070E94860F0E94FE0E72
:100F60000E94CB0D0E94810B0E94E7050E946C0C31
:100F700080919002811108C080919902811104C072
:100F800080919802882331F38FE19EE40197F1F775
:100F900000C000000E945F13DDCF2FEF84E39CE0D0
:100FA000215080409040E1F700C0000089E00E949D
:100FB0004D070E944B070E9497042FE788E391E0BA
:100FC000215080409040E1F700C000008CE992E0A1
:100FD0000E94CC050E94B3040E94D3032FE788E34C
:100FE00091E0215080409040E1F700C000000E9455
:100FF000EF032FE788E391E0215080409040E1F734
:1010000000C000008091E802882301F161E071E0F6
:1010100082E090E00E9452032FE788E391E02150A4
:1010200080409040E1F700C0000081E00E947C1306
:101030008AE00E944D070E94D3032FE788E391E0E6
:10104000215080409040E1F700C000006091D6023E
:101050007091D7028091D8029091D9020E945203D8
:101060002FE788E391E0215080409040E1F700C0F5
:1010700000000E94EF032FE788E391E021508040B9
:101080009040E1F700C000000E9449070E94C9019A
:101090002FE788E391E0215080409040E1F700C0C5
:1010A00000000E945F042FE788E391E02150804018
:1010B0009040E1F700C000008CE992E00E94CC056E
:1010C0000E9437058093CE028093CF020E947B045A
:1010D0002FE788E391E0215080409040E1F700C085
:1010E00000008CE992E00E94CC050E9447058093A5
:1010F000D0028093D1028FE39CE90197F1F700C001
:1011000000000E9453019FE728E381E091502040B6
:101110008040E1F700C000000E944B070E9491014F
:101120009FE728E381E0915020408040E1F700C034
:1011300000000E940B049FE728E381E091502040CB
:101140008040E1F700C000000E94BB0082E00E94E6
:101150004D0708954091DC025091DD028091F90124
:101160009091FA0184179507D8F4EBEFF1E081E054
:10117000219131912417350720F48F5F8433C1F713
:1011800011C0E82FF0E0EE0FFF1FE750FE4F208167
:1011900031812417350789F0882379F0815008952B
:1011A00080E00895E82FF0E0EE0FFF1FE750FE4FBC
:1011B000208131812417350789F708958091DB025A
:1011C000882319F0813071F136C00E94710181E0ED
:1011D0008093DB02E5EEF2E08081806280832FE77E
:1011E00088E391E0215080409040E1F700C000008A
:1011F0000E9443042FE788E391E021508040904013
:10120000E1F700C000008CE992E00E94CC050E944A
:101210000105EEEDF2E08083918392959F709093AB
:10122000D40209C00E9453011092DB02E5EEF2E005
:1012300080818F7D808381E08093990208958091E1
:10124000E402882369F01092E402E5EEF2E0808186
:10125000887F80831092E60281E0809398020CC020
:1012600081E08093E402E5EEF2E090819760908364
:101270008093E6028093980281E0809399028091A6
:10128000E902811104C08091EA02882319F081E00B
:10129000809398020895CF93DF938091ED0281119E
:1012A0006EC08091DB02882321F0813009F441C0B7
:1012B00083C08091EB0281110DC01092E0028091F9
:1012C000D202882309F478C081508093D2020E9410
:1012D000BB0026C00E9427042FE789EA93E0215033
:1012E00080409040E1F700C000008CE992E00E944D
:1012F000CC050E94DC04EC019093DD028093DC02BB
:101300000E94AA088093D2028091F9019091FA017B
:101310008C179D0728F40E949F0081E08093E102D2
:1013200081E080939902E5EEF2E080818160808324
:1013300043C00E9443042FEF80E792E02150804099
:101340009040E1F700C000008CE992E00E94CC05DB
:101350000E940105EEEDF2E08083918392959F70EB
:101360009093D4020E941B0181E08093E00280935D
:101370009902E5EEF2E08081806280831DC08230B8
:1013800069F48091CE028230B8F081508093CE0211
:101390000E94E50181E0809398020EC0833061F4E1
:1013A0008091D002823040F081508093D0020E9420
:1013B0000A0281E080939802DF91CF910895CF9344
:1013C000DF938091ED0281116EC08091DB02882352
:1013D00021F0813009F441C083C08091EB0281117A
:1013E0000DC01092E2028091D202833308F078C0DF
:1013F0008F5F8093D2020E94BB0026C00E94270408
:101400002FE789EA93E0215080409040E1F700C047
:1014100000008CE992E00E94CC050E94DC04EC0103
:101420009093DD028093DC020E94AA088093D2028E
:1014300080915F0290916002C817D90728F40E943A
:10144000830081E08093E30281E080939902E5EEDE
:10145000F2E080818160808343C00E9443042FE7D3
:1014600089EA93E0215080409040E1F700C00000FD
:101470008CE992E00E94CC050E940105EEEDF2E0BD
:101480008083918392959F709093D4020E9437013C
:1014900081E08093E20280939902E5EEF2E08081A0
:1014A000806280831DC0823069F48091CE028F3FBC
:1014B000B9F08F5F8093CE020E94E50181E08093B6
:1014C00098020EC0833061F48091D0028F3F41F0CA
:1014D0008F5F8093D0020E940A0281E0809398027D
:1014E000DF91CF9108958091E602882319F0109240
:1014F000E60203C081E08093E60281E080939802D7
:1015000008958091EC02823059F028F4882341F04C
:10151000813011F12BC0833061F08430A9F026C0F6
:101520000E941A0383E08093EC0281E08093990289
:101530001DC00E94360384E08093EC020E94D30316
:1015400081E08093990212C00E94E20281E08093C0
:10155000EC02809399020AC00E94FE0282E080930E
:10156000EC020E94D30381E080939902E5EEF2E061
:1015700080818061808381E08093980208958091CA
:10158000ED02811146C083E00E944D0781E0809307
:10159000ED020E94AD010E945F042FEF80E792E010
:1015A000215080409040E1F700C000008CE992E0BB
:1015B0000E94CC050E9437058093CE020E947B04D6
:1015C0002FEF80E792E0215080409040E1F700C08B
:1015D00000008CE992E00E94CC050E9447058093B0
:1015E000D0026091CE0280E090E00E94F9142FEFCB
:1015F00081EE94E0215080409040E1F700C000006F
:101600006091D00281E090E00E94F91481E0809323
:10161000990208958091ED02811148C083E00E94F3
:101620004D0782E08093ED020E94C9010E945F0491
:101630002FEF80E792E0215080409040E1F700C01A
:1016400000008CE992E00E94CC050E94370580934F
:10165000CE020E947B042FEF80E792E02150804071
:101660009040E1F700C000008CE992E00E94CC05B8
:101670000E9447058093D0026091CE0280E090E006
:101680000E94F9142FEF82E597E0215080409040AE
:10169000E1F700C000006091D00281E090E00E947C
:1016A000F91481E0809399028093980208958091C3
:1016B000ED028230C1F08330E9F0811121C083E076
:1016C0000E944D078091EB02811104C081E080935C
:1016D000EB0208950E9467001092E3021092E1026B
:1016E0001092EB02089583E00E944D0783E08093FF
:1016F000ED02089583E00E944D0782E08093ED02A1
:10170000089580917E02882321F010927E0291E05C
:1017100009C080917C02882321F010927C0291E024
:1017200001C090E08091DB02813009F07CC08091A3
:10173000E002811105C08091E202882309F473C0A0
:1017400091110DC08091DE029091DF028115904BC6
:1017500008F445C08091E202882309F440C08091DA
:10176000D202833068F1843050F48FE798E321E0AF
:10177000815090402040E1F700C0000021C0873038
:1017800050F48FEF93EF21E0815090402040E1F73B
:1017900000C0000015C08A3050F48FEF91EE24E0B5
:1017A000815090402040E1F700C0000009C08FE761
:1017B0009BE828E0815090402040E1F700C0000005
:1017C0000E94FF001092E0021092E2028FE798E37D
:1017D00021E0815090402040E1F700C000000E94CD
:1017E00043048FE799EA23E0815090402040E1F7DD
:1017F00000C000008CE992E00E94CC050E94010527
:10180000EEEDF2E08083918392959F709093D402E5
:101810008091D502891721F081E080939902089583
:101820001092990208958091EB02813009F053C023
:101830004091E302411105C08091E102882309F43F
:101840004AC091110DC02091DC023091DD028091DF
:101850005F029091600228173907D0F04423C1F04D
:101860008FE798E321E0815090402040E1F700C0ED
:1018700000000E9467001092E3021092E1028FE7DD
:1018800098E321E0815090402040E1F700C0000043
:101890000E9427048FE799EA23E08150904020407E
:1018A000E1F700C000008CE992E00E94CC050E94A4
:1018B000DC049093DD028093DC020E94AA088093EE
:1018C000D2029091D302891721F081E0809399028E
:1018D00008951092990208958091ED02813019F5D2
:1018E0000E945F048FE59AEE0197F1F700C00000B7
:1018F0008CE992E00E94CC050E9437058093CE02CD
:101900000E947B048FE59AEE0197F1F700C000007A
:101910008CE992E00E94CC050E9447058093D0029A
:1019200081E08093980208950E94AA022FEF80E739
:1019300092E0215080409040E1F700C000000E94FA
:101940002F021092E90208950E944B0281E08093D9
:10195000E9028093E402E5EEF2E0908193609083E7
:101960008093990208950E94C60282E08093E90262
:1019700081E08093E402E5EEF2E090819360908351
:1019800080939902089581EC0E94E50181E08093A3
:10199000EA028093E402E5EEF2E0908195609083A4
:1019A00080939902089588EA0E94E50182E080937D
:1019B000EA0281E08093E402E5EEF2E09081956036
:1019C000908380939902089588E70E94E50183E05F
:1019D0008093EA0281E08093E402E5EEF2E09081F8
:1019E00095609083809399020895CF93DF930E942E
:1019F000C9011092ED02CEECD2E088810E94E5018F
:101A0000688180E090E00E94F9142FEF81EE94E06D
:101A1000215080409040E1F700C00000C0EDD2E0CE
:101A200088810E940A02688181E090E00E94F91496
:101A300081E080939902809398022FEF81EE94E0E9
:101A4000215080409040E1F700C00000DF91CF912D
:101A500008958091ED02811117C08091E7028823DB
:101A600029F00E948E021092E7020AC00E947202C0
:101A700081E08093E702E5EEF2E080818860808378
:101A800081E08093990208950E94F50C0895CF9308
:101A90000E94C9011092ED0280E090E00E94F114D2
:101AA000C82F8093CE0281E090E00E94F1148093D1
:101AB000D0028C2F0E94E5012FEF80E792E02150A9
:101AC00080409040E1F700C000008091D0020E9469
:101AD0000A0281E080939902809398022FEF80E7B9
:101AE00092E0215080409040E1F700C00000CF918B
:101AF00008958091ED0281112AC08091EA0281113E
:101B000011C08091E902813039F018F0823039F04B
:101B10001AC00E94A40C17C00E94B30C14C00E94EB
:101B2000940C11C08091CF020E94E5011092EA024C
:101B30001092E9022FEF80E792E021508040904020
:101B4000E1F700C0000081E08093980208950E94B0
:101B5000470D08958091ED0281111AC08091E9022C
:101B600081110E94940C8091EA02813041F020F0B2
:101B7000823041F0833041F40E94C30C05C00E94C2
:101B8000D30C02C00E94E40C81E080939802089577
:101B90000E94470D08958091840290E08C30910559
:101BA00040F5FC01EC5CFF4F0C94D7140E94DE085A
:101BB00020C00E944B091DC00E941F091AC00E942C
:101BC000DF0917C00E94810A14C00E94790D11C05C
:101BD0000E94AA0D0EC00E94290D0BC00E94810A0E
:101BE00008C00E94BF0A05C00E940A0B02C00E94E2
:101BF000570B80918B0290E088309105E0F4FC0156
:101C0000E05CFF4F0C94D7140E94DE0808950E94F8
:101C10004B0908950E941F0908950E94DF09089545
:101C20000E94730A08950E94790D08950E94AA0DDA
:101C300008950E94290D089580918C0281608093FF
:101C40008C02089580918C02846080938C020895A8
:101C500088B18F6188B987B117B8089580918C02D7
:101C6000282F2270982F9370933079F021110FC094
:101C7000826080938C024CE15EE06AE070E080E07C
:101C800090E00E94E81080E0089581E0089580E0EF
:101C9000089596B194FF48C09F70993069F0809183
:101CA0008902882329F01092890281E080938802BA
:101CB000963061F180E001C082E02091870222230A
:101CC00029F01092870221E020938602933079F068
:101CD00028F49130A1F0923081F012C0983029F0B0
:101CE0009C3039F0943039F00BC0816009C08460B9
:101CF00007C0806105C0806203C0806401C0806845
:101D000081FF05C091E09093890201C088E083FFC4
:101D100003C091E090938702882339F090918C0260
:101D20009C7F90938C02089580E0089520918D020D
:101D300090918A029227892319F060938B0208956B
:101D400080918C0283FF10C082FF06C060938B02DB
:101D50008B7F80938C02089542E25EE06CE271E03A
:101D600080E090E00E948810089580918D02883074
:101D700011F138F48230A9F08430C1F08130A1F53E
:101D80000BC0803211F118F48031D1F02DC08034B5
:101D900009F1803821F128C060E081E00E94960EB0
:101DA000089561E082E00E94960E089562E084E06A
:101DB0000E94960E089563E088E00E94960E0895B2
:101DC00064E080E10E94960E089565E080E20E9442
:101DD000960E089566E080E40E94960E089567E0EE
:101DE00080E80E94960E089580918C028B7F8093EC
:101DF0008C0282E29EE00E94201108958CE0809384
:101E00008B020E942E0E8823C9F080918D02809350
:101E10008A020E94490E80938D02823011F0883030
:101E200031F480918C02886080938C0205C080918F
:101E30008C02877F80938C020E94B50E0895FC016E
:101E40001182108280E090E793838283148216824D
:101E500087E080871186128688E083878AE08487FE
:101E600081E08587868717868EE0808B118A138AAA
:101E7000128A158A148A168A178A108E118E128E6B
:101E8000138E148E158E168E178E10A211A212A20A
:101E900013A20895DC01FC0180E09BE191938F5F28
:101EA0008A30E1F798E09C938DE011968C9311971E
:101EB00083E012968C93129713969C931397149623
:101EC0001C92149716961C92169792E118969C9362
:101ED000189719968C93199781E01A968C931A97F4
:101EE0001B961C920895813081F488E19CEF9093B9
:101EF000850080938400EFE6F0E08081816080833C
:101F0000E1E8F0E08081826080830895CF92DF92E3
:101F1000EF92FF920F931F93CF93DF93CAEFD2E01C
:101F200004E213E0CC24CA94DC2CE12CF12C88814F
:101F30009981AA81BB81892B8A2B8B2B49F4C8827A
:101F4000D982EA82FB8210929102EC81FD8109958F
:101F50002696C017D10759F7DF91CF911F910F91A6
:101F6000FF90EF90DF90CF900895CF93DF93EAEF4B
:101F7000F2E024E233E080819181A281B3818F3F3E
:101F80004FEF9407A105B10559F00097A105B105E0
:101F900039F00197A109B10980839183A283B383AA
:101FA0003696E217F30739F7DF91CF9108951F9224
:101FB0000F920FB60F9211242F933F934F935F937D
:101FC0006F937F938F939F93AF93BF93EF93FF9301
:101FD00088E19CEF90938500809384008091E602D5
:101FE000882309F45CC08091920290919302A091A1
:101FF0009402B0919502BC01CD016F5F7F4F8F4F6E
:102000009F4F6093920270939302809394029093F7
:10201000950228EE33E040E050E00E94B514672BB3
:10202000682B692B09F047C081E0809390021092E1
:102030009202109293021092940210929502809153
:102040008E028F5F80938E0280918E0299E8899F25
:10205000912D11249295969597702CE3929F80195B
:102060001124811128C081E08093900210928E0289
:1020700080918F028F5F80938F0280918F0299E809
:10208000899F912D11249295969597702CE3929F9C
:102090008019112481110FC010928F020CC0109270
:1020A0009202109293021092940210929502109252
:1020B0008E0210928F024C9B09C080917F02882370
:1020C00029F010927F0281E080937E02359B09C047
:1020D00080917D02882329F010927D0281E0809317
:1020E0007C0280919102811102C00E94B50FFF9184
:1020F000EF91BF91AF919F918F917F916F915F9180
:102100004F913F912F910F900FBE0F901F901895F8
:10211000CF92DF92EF92FF920F931F93CF93DF93B3
:10212000EAEFF2E024E233E0C080D180E280F38085
:10213000AFEFCA16DA06E104F10429F0A481B581F3
:10214000A417B507E1F13696E217F30769F7009196
:10215000FA021091FB022091FC023091FD020F3F28
:102160001F4F2105310581F0E0E0F3E021E030E090
:10217000E901C080D180E280F380AFEFCA16DA06B1
:10218000E104F104B1F402C0C0E0D0E09E01220FEE
:10219000331FF901EC0FFD1FEE0FFF1FE650FD4F3F
:1021A0006083718382839383109291025583448369
:1021B00006C02F5F3F4F369627303105C9F6DF91B5
:1021C000CF911F910F91FF90EF90DF90CF900895E6
:1021D000CF92DF92EF92FF92CF93DF93EAEFF2E09C
:1021E00020E030E0E901C080D180E280F380AFEFF1
:1021F000CA16DA06E104F104A1F0A481B581A4179E
:10220000B50779F4220F331FC20FD31FCC0FDD1F88
:10221000C650DD4F688379838A839B831092910235
:1022200008C02F5F3F4F369627303105D9F60E9400
:102230008810DF91CF91FF90EF90DF90CF900895BD
:10224000CF93DF93C0919102EAEFF2E0A4E2B3E012
:102250004FEF5FEF60E070E0D0E024813581281718
:10226000390729F44083518362837383CD2F3696D7
:10227000EA17FB0791F7C0939102DF91CF91089580
:10228000EAEFF2E024E233E08FEF9FEFA0E0B0E06E
:1022900080839183A283B3833696E217F307C1F755
:1022A0000895CF93DF93CDB7DEB72A970FB6F89492
:1022B000DEBF0FBECDBF8AE0E1E7F2E0DE0111969E
:1022C00001900D928A95E1F78091EC028130D9F46A
:1022D000E6EDF2E080838093D70292E09093D802FB
:1022E0008093D90260817181828193810E9452031F
:1022F00085E08E838BE08F8388E088878FE08987F5
:102300008BE18A874EC08330D9F4E6EDF2E081E0BC
:1023100080838093D70292E09093D8028093D90271
:1023200060817181828193810E94520388E08E8353
:102330008CE08F83188686E0898784E08A8731C0A5
:102340008091DB028130B1F48091E50285FF12C0FB
:10235000E6EDF2E081E080838093D70292E09093F3
:10236000D8028093D90260817181828193810E9419
:10237000520317C08BE18E838F83888789878A8772
:10238000E6EDF2E08AE0808381E08093D7028093DB
:10239000D8021092D90260817181828193810E945A
:1023A00052038091E4028823E1F08091E50280FFEE
:1023B00018C02091D202822F90E0019637E13A8333
:1023C0006AE070E00E94A1147727FB01EF59FD4FEE
:1023D00030813B83FC01EF59FD4F80818C8320933A
:1023E000D3028091DB028130A1F48091E50285FF68
:1023F00010C08CE08E8385E08F838FE48887809186
:10240000D402E82FF0E0EF59FD4F90819987809337
:10241000D5028091E702882369F08091E50283FF6D
:1024200009C082E18E8383E18F8388E088878BE017
:1024300089878A878091ED02813081F486E18983E2
:102440009AE49A831B8293E09C8399E09D839FE4A6
:102450009E831F8293E19887898713C082508230C0
:1024600080F486E189838AE48A831B8283E08C83FB
:1024700089E08D838FE48E838CE08F8318868DE0D6
:102480008987BE016F5F7F4F8091D6020E947503DE
:102490002A960FB6F894DEBF0FBECDBFDF91CF9165
:1024A0000895CF93DF93CDB7DEB72A970FB6F89490
:1024B000DEBF0FBECDBF8AE0E1E7F2E0DE0111969C
:1024C00001900D928A95E1F78091E402882309F149
:1024D0008091E50281FFE5C08091E902813021F41D
:1024E00085E08A831B82DDC0823009F0DAC085E096
:1024F0008A8381E08B83D5C0E091EA028FEF8E0F53
:10250000833038F486E08A83F0E0EF59FD4F808114
:102510008B838091E602882309F442C08091E70210
:10252000811108C080918F028093970280918E0262
:1025300080939602E09197028DECE89F912D1124F3
:10254000969596959695A92FB0E0AF59BD4F2C91D1
:102550002E83990F292F220F220F920FE91BF0E0F3
:10256000EF59FD4F90819F839AE49887E0919602FE
:10257000E89F812D1124869586958695A82FB0E039
:10258000AF59BD4F9C919987880F982F990F990F3C
:10259000890FE81BF0E0EF59FD4F80818A8704C066
:1025A00010929702109296028091ED02882309F40E
:1025B00068C081E189833AE43A83E091CE0229E25E
:1025C000E29FA12D1124A295AF70B0E0AF59BD4F8D
:1025D0008C918B838DECE89F912D11249695969587
:1025E0009695989F412D1124469546954695440F02
:1025F000542F550F550F450FA92FA41BB0E0AF590D
:10260000BD4F4C914C83990F492F440F440F940FA9
:10261000E91BF0E0EF59FD4F90819D8391E09E838F
:102620003F83E091D002E29F212D112422952F704B
:10263000A22FB0E0AF59BD4F9C919887E89F912D94
:102640001124969596959695989F812D112486959F
:1026500086958695880F282F220F220F820FA92F8B
:10266000A81BB0E0AF59BD4F8C918987990F892F76
:10267000880F880F980FE91BF0E0EF59FD4F80811C
:102680008A8780919802811104C08091E7028111AC
:102690000DC0BE016F5F7F4F8091D6020E94A403E0
:1026A00005C08091E50282FD27CF33CF2A960FB671
:1026B000F894DEBF0FBECDBFDF91CF91089580911A
:1026C0009902882351F0109299020E9451118FE1D2
:1026D0009EE40197F1F700C0000080919002811103
:1026E00004C080919802882331F00E945112109208
:1026F00090021092980208951F93CF93DF93CDB765
:10270000DEB72A970FB6F894DEBF0FBECDBF182FE5
:102710008AE0E1E7F2E0DE01119601900D928A95E0
:10272000E1F70E9426056EEE72E0812F0E9475038C
:102730002FEF80E792E0215080409040E1F700C009
:10274000000085E18B83A091F802EDECAE9FE12DB6
:102750001124E695E695E6958E2F880F982F990F10
:10276000990F890FA81BEE2339F0F0E0EF59FD4FC8
:1027700080818C8384E001C083E0E1E0F0E0EC0F35
:10278000FD1FE80FF11DB0E0AF59BD4F9C91908344
:1027900091E0980FE1E0F0E0EC0FFD1FE90FF11D73
:1027A0009CE490839091F90222E0280FE1E0F0E0B0
:1027B000EC0FFD1FE20FF11D2DEC929F212D112436
:1027C000269526952695A22FB0E0AF59BD4F3C9196
:1027D00030838D5FE1E0F0E0EC0FFD1FE80FF11DAD
:1027E000822F880F282F220F220F820F981BA92FCC
:1027F000B0E0AF59BD4F8C918083BE016F5F7F4FBA
:10280000812F0E94A4032A960FB6F894DEBF0FBE54
:10281000CDBFDF91CF911F9108951F920F920FB6F8
:102820000F9211242F933F934F935F936F937F9356
:102830008F939F93AF93BF93EF93FF938091C600C5
:102840008093440380914403803919F08F3F59F0FD
:1028500027C081E080939B029091440390932403CE
:1028600080939A022DC080919B02882349F1E091C8
:102870009A0221E02E0F20939A0280914403F0E007
:10288000EC5DFC4F808310929B0280912503809326
:10289000A10244E253E06CE972E00E948D0510C091
:1028A00080919B02882361F0E0919A0281E08E0F73
:1028B00080939A0280914403F0E0EC5DFC4F8083AA
:1028C000FF91EF91BF91AF919F918F917F916F9108
:1028D0005F914F913F912F910F900FBE0F901F90DE
:1028E00018959093C5008093C40088E98093C10037
:1028F00086E08093C200089583E390E00E94711403
:102900000895E0ECF0E0908195FFFDCF8093C60044
:1029100008950F931F93CF93DF93EC01062F662347
:1029200059F010E089910E94811485E38A95F1F7AE
:1029300000001F5F1013F6CFDF91CF911F910F9111
:10294000089597FB072E16F4009407D077FD09D061
:102950000E94DD1407FC05D03EF4909581959F4FB1
:102960000895709561957F4F0895A1E21A2EAA1BD4
:10297000BB1BFD010DC0AA1FBB1FEE1FFF1FA2172F
:10298000B307E407F50720F0A21BB30BE40BF50B2C
:10299000661F771F881F991F1A9469F760957095B5
:1029A000809590959B01AC01BD01CF010895EE0F7C
:1029B000FF1F0590F491E02D0994AA1BBB1B51E168
:1029C00007C0AA1FBB1FA617B70710F0A61BB70B9F
:1029D000881F991F5A95A9F780959095BC01CD0144
:1029E0000895F999FECF92BD81BDF89A992780B5D7
:1029F0000895262FF999FECF1FBA92BD81BD20BD43
:102A00000FB6F894FA9AF99A0FBE01960895F894C1
:022A1000FFCFF6
:102A120081090422FF81090444FF81090443FF81E3
:102A2200090448FF81090447FF810104245600017B
:102A3200FF8101047402FF8101047400FF8101041B
:102A420073021B1B1B1B1B1B1B1B1B1BFF8101047C
:102A520073011B1B1B1B1B1B1B1B1B1BFF8101046D
:102A6200730000000000000000000000FF8101046C
:102A72006103FF8101046102FF8101046603FF819A
:102A820001046602FF8101046304FF810104630003
:102A9200FF8101046203FF8101046202FF810104DC
:102AA2004200000000FF8101040200FF8101044492
:102AB20000000000FF8101044300000000FF8101CB
:102AC200043505FF8101043504FF8101045700FF2D
:102AD2008101043803FF8101043802FF81010408E7
:102AE20033FF8101040823FF8101040800FF8101F3
:102AF200044700000000FF8101040733FF81010445
:102B02000723FF8101040700FF0000061651216020
:102B120028B52C6030D33245352737A938423A4B95
:102B22003B853C753D4E3EF73EA03F0040064400CB
:102B320047084A004DE84F8A5227548055D0560024
:102B4200582059305A385B365C305D305E265F2043
:102B52006018610062D0628063066490642665B981
:102B6200655066006798672868B8684069D06970E0
:102B72006A271E1F20212223242526000102030486
:0C2B8200051B1B1B1B1B1B1B1B1B1B0034
:00000001FF
