:100000000C9448000C9465000C9465000C946500F9
:100010000C9465000C9465000C9465000C946500CC
:100020000C9465000C9465000C9465000C946500BC
:100030000C9465000C94AE0F0C9465000C94650054
:100040000C9465000C9465000C9463130C9465008B
:100050000C9465000C9465000C9465000C9465008C
:100060000C9465000C946500F70CFA0CFD0C000D67
:10007000030D060D0C0D090D0F0D120D150D180DAC
:10008000250D280D2B0D2E0D310D340D3A0D370D8C
:1000900011241FBECFEFD4E0DEBFCDBF12E0A0E041
:1000A000B1E0EEEBF8E202C005900D92AA35B1077F
:1000B000D9F723E0AAE5B2E001C01D92AC31B20746
:1000C000E1F70E94AD070C945D140C9400008EE2E1
:1000D000EAE7F2E0DF01982F1D929A95E9F7DF0138
:1000E0001D928A95E9F780EF91E09183808386E005
:1000F00080937C0281E080937D0266E080EF91E056
:100100000E94DF1308958EE2EAE7F2E0DF01982F04
:100110001D929A95E9F7DF011D928A95E9F78AEE1B
:1001200091E09183808386E080937C0281E08093DC
:100130007D0266E08AEE91E00E94DF1308958EE270
:10014000EAE7F2E0DF01982F1D929A95E9F7DF01C7
:100150001D928A95E9F784EE91E09183808386E091
:1001600080937C0281E080937D0266E084EE91E0E2
:100170000E94DF130895CF93DF938EE2AAE7B2E0E7
:10018000ED01E82F1992EA95E9F7EBEDF1E0ED01C9
:1001900019928A95E9F7ED93FC9389E080937C02AC
:1001A00081E080937D02A091AC02B0E0AA0FBB1F5A
:1001B000AA50BE4F8D919C9111979093B502809358
:1001C000B4029C012227307F232F22952F70248395
:1001D0009C0122273F703583807F992792958295D5
:1001E0008F7089279F70892786838C918F70878372
:1001F00069E0CF010E94DF13DF91CF9108958EE275
:10020000EAE7F2E0DF01982F1D929A95E9F7DF0106
:100210001D928A95E9F785ED91E09183808386E0D0
:1002200080937C0281E080937D0266E085ED91E021
:100230000E94DF1308958EE2EAE7F2E0DF01982FD3
:100240001D929A95E9F7DF011D928A95E9F78FECE7
:1002500091E09183808386E080937C0281E08093AB
:100260007D0266E08FEC91E00E94DF1308958EE23C
:10027000EAE7F2E0DF01982F1D929A95E9F7DF0196
:100280001D928A95E9F789EC91E09183808386E05D
:1002900080937C0281E080937D0266E089EC91E0AE
:1002A0000E94DF1308958EE2EAE7F2E0DF01982F63
:1002B0001D929A95E9F7DF011D928A95E9F783EC83
:1002C00091E09183808386E080937C0281E080933B
:1002D0007D0266E083EC91E00E94DF131092B3028E
:1002E0000895CF938EE2EAE7F2E0DF01982F1D92A6
:1002F0009A95E9F7C1E0DF011D928A95E9F78DEB48
:1003000091E09183808386E080937C02C0937D029C
:1003100066E08DEB91E00E94DF13C093B302CF91B2
:1003200008958EE2EAE7F2E0DF01982F1D929A9598
:10033000E9F7DF011D928A95E9F787EB91E0918358
:10034000808386E080937C0281E080937D0266E07A
:1003500087EB91E00E94DF1308958EE2EAE7F2E076
:10036000DF01982F1D929A95E9F7DF011D928A957A
:10037000E9F781EB91E09183808386E080937C02B2
:1003800081E080937D0266E081EB91E00E94DF13C3
:1003900008958EE2EAE7F2E0DF01982F1D929A9528
:1003A000E9F7DF011D928A95E9F78BEA91E09183E5
:1003B000808386E080937C0281E080937D0266E00A
:1003C0008BEA91E00E94DF130895CF93DF939EE2C2
:1003D000AAE7B2E0ED01E92F1992EA95E9F7E2EA1E
:1003E000F1E0ED0119929A95E9F7ED93FC9399E00C
:1003F00090937C0291E090937D02982F92959F704C
:1004000096838F70878369E0CF010E94DF13DF91AD
:10041000CF910895CF93DF939EE2AAE7B2E0ED017A
:10042000E92F1992EA95E9F7E9E9F1E0ED0119926E
:100430009A95E9F7ED93FC9399E090937C0291E013
:1004400090937D02982F92959F7096838F708783EB
:1004500069E0CF010E94DF13DF91CF9108958EE212
:10046000EAE7F2E0DF01982F1D929A95E9F7DF01A4
:100470001D928A95E9F783E991E09183808386E074
:1004800080937C0281E080937D0266E083E991E0C5
:100490000E94DF130895CF93DF938EE2AAE7B2E0C4
:1004A000ED01E82F1992EA95E9F7EAE8F1E0ED01AC
:1004B00019928A95E9F7ED93FC9389E080937C0289
:1004C00081E080937D028091B202982F92959F7077
:1004D00096838F70878369E0CF010E94DF13DF91DD
:1004E000CF9108958EE2EAE7F2E0DF01982F1D92A6
:1004F0009A95E9F7DF011D928A95E9F784E891E082
:100500009183808386E080937C0281E080937D02EA
:1005100066E084E891E00E94DF1308958EE2EAE746
:10052000F2E0DF01982F1D929A95E9F7DF011D9205
:100530008A95E9F78EE791E09183808386E0809346
:100540007C0281E080937D0266E08EE791E00E946C
:10055000DF1308958EE2EAE7F2E0DF01982F1D92A3
:100560009A95E9F7DF011D928A95E9F788E791E00E
:100570009183808386E080937C0281E080937D027A
:1005800066E088E791E00E94DF1308958EE2EAE7D3
:10059000F2E0DF01982F1D929A95E9F7DF011D9295
:1005A0008A95E9F782E791E09183808386E08093E2
:1005B0007C0281E080937D0266E082E791E00E9408
:1005C000DF1308958EE2EAE7F2E0DF01982F1D9233
:1005D0009A95E9F7DF011D928A95E9F78CE691E09B
:1005E0009183808386E080937C0281E080937D020A
:1005F00066E08CE691E00E94DF1308958EE2EAE760
:10060000F2E0DF01982F1D929A95E9F7DF011D9224
:100610008A95E9F786E691E09183808386E080936E
:100620007C0281E080937D0266E086E691E00E9494
:10063000DF1308958EE2EAE7F2E0DF01982F1D92C2
:100640009A95E9F7DF011D928A95E9F780E691E036
:100650009183808386E080937C0281E080937D0299
:1006600066E080E691E00E94DF1308958EE2EAE7FB
:10067000F2E0DF01982F1D929A95E9F7DF011D92B4
:100680008A95E9F78AE591E09183808386E08093FB
:100690007C0281E080937D0266E08AE591E00E9421
:1006A000DF130895CF93DF932EE2AAE7B2E0ED01C6
:1006B000E22F1992EA95E9F7EAE4F1E0ED011992E7
:1006C0002A95E9F7ED93FC9320E120937C0221E049
:1006D00020937D02658376838783908760E1CF01D5
:1006E0000E94DF13DF91CF9108958EE2EAE7F2E0F6
:1006F000DF01982F1D929A95E9F7DF011D928A95E7
:10070000E9F78AE391E09183808380E180937C0222
:1007100081E080937D02E62FF72F85E090E0219124
:10072000A0917A02B0917B02A80FB91F2C93019679
:100730008F309105A1F760917C0280917A029091AF
:100740007B020E94DF1308958EE2EAE7F2E0DF0108
:10075000982F1D929A95E9F7DF011D928A95E9F786
:100760008AE291E09183808380E180937C0281E042
:1007700080937D02E62FF72F85E090E02191A091F4
:100780007A02B0917B02A80FB91F2C9301968F308B
:100790009105A1F760917C0280917A0290917B0291
:1007A0000E94DF1308958EE2EAE7F2E0DF01982F5E
:1007B0001D929A95E9F7DF011D928A95E9F784E287
:1007C00091E09183808386E080937C0281E0809336
:1007D0007D0266E084E291E00E94DF1308958EE2DC
:1007E000EAE7F2E0DF01982F1D929A95E9F7DF0121
:1007F0001D928A95E9F78EE191E09183808386E0EE
:1008000080937C0281E080937D0266E08EE191E03E
:100810000E94DF1308958EE2EAE7F2E0DF01982FED
:100820001D929A95E9F7DF011D928A95E9F789E112
:1008300091E09183808385E080937C0289E08093BE
:100840007D0265E089E191E00E94DF1308958EE268
:10085000EAE7F2E0DF01982F1D929A95E9F7DF01B0
:100860001D928A95E9F784E191E09183808385E088
:1008700080937C0289E080937D0265E084E191E0D1
:100880000E94DF1308958EE2EAE7F2E0DF01982F7D
:100890001D929A95E9F7DF011D928A95E9F78FE09D
:1008A00091E09183808385E080937C0289E080934E
:1008B0007D0265E08FE091E00E94DF1308958EE2F3
:1008C000EAE7F2E0DF01982F1D929A95E9F7DF0140
:1008D0001D928A95E9F78AE091E09183808385E013
:1008E00080937C0289E080937D0265E08AE091E05C
:1008F0000E94DF1308958EE2EAE7F2E0DF01982F0D
:100900001D929A95E9F7DF011D928A95E9F785E036
:1009100091E09183808385E080937C0289E08093DD
:100920007D0265E085E091E00E94DF1308958EE28C
:10093000EAE7F2E0DF01982F1D929A95E9F7DF01CF
:100940001D928A95E9F780E091E09183808385E0AC
:1009500080937C0289E080937D0265E080E091E0F5
:100960000E94DF1308958091A7028430F1F4209152
:1009700097022F7030E0322F22273295307F8091FE
:1009800098028F7090E0982F8827820F931F2091F4
:100990009A022F70820F911D209199022F7030E1E1
:1009A000239F800D911D112402C080E090E0909360
:1009B000A9028093A80208958091A7028430F1F4DF
:1009C000209197022F7030E0322F22273295307F0E
:1009D000809198028F7090E0982F8827820F931F44
:1009E00020919A022F70820F911D209199022F70F1
:1009F00030E1239F800D911D1124089580E090E047
:100A000008958091A7028430F1F4209197022F700D
:100A100030E0322F22273295307F809198028F70FC
:100A200090E0982F8827820F931F20919A022F70B1
:100A3000820F911D209199022F7030E1239F800D2C
:100A4000911D1124089580E090E008958091A702FF
:100A5000873051F48091990290E0982F8827209157
:100A60009A02820F911D089580E090E00895809190
:100A7000A702843051F49091990280919A028F706C
:100A800020E1929F800D1124089580E008958091C7
:100A9000A702843051F49091990280919A028F704C
:100AA00020E1929F800D1124089580E00895DC01DB
:100AB00011961C921E9212961C9212978FEF13960B
:100AC0008C93139792E014969C93149715968C939D
:100AD000159716961C92169717961C9217971896AC
:100AE0001C921897FD01399680E111928150E9F727
:100AF00059961C9259975A961C925A975B961C923B
:100B00005B975C961C925C97FD017D9611928F5FBE
:100B10008031E1F79D961C920895807F803541F0E9
:100B2000803619F08034B9F506C0211126C030C0D6
:100B3000211112C01EC0222361F0FA0180E090E072
:100B40003191DB01A80FB91F16963C9301968217CD
:100B5000B8F3FB0114820895FA01DB0119964F5F87
:100B60005F4F2150420F511D81918D93E417F5077E
:100B7000D9F781E0FB0184830895942FDB01599616
:100B8000E42FF52F81918D938E2F891B8217D0F33F
:100B900081E0FB0184830895CF93DF93EC018B8583
:100BA0008F3F59F480E007C091919F3F21F08F5F04
:100BB0009D938E30C9F78DA707C08D8FFE013C969F
:100BC000DE015E9681E0F0CFDF91CF9108958091B4
:100BD0007E02813081F480917D02893049F48091D8
:100BE0007F028075803521F48AE792E00E94CC056F
:100BF00082E080937E0208958091630281608093F9
:100C00006302089580916302846080936302089573
:100C100088E284B98FEF85B917B888B99AEE9AB986
:100C20008BB908951F93CF93DF9333B1E6B169B1C8
:100C300025E080E090E0A62FA07111E0F32FF47082
:100C4000E072732F70746470532F5170432F427091
:100C500033230CF08160A11102C0826008C0B09102
:100C60005D02BB2321F010925D0210935C02F11132
:100C700001C08460E11102C0886008C0B0915B02CD
:100C8000BB2321F010925B0210935A02711101C034
:100C90008061611101C08062511101C08064411105
:100CA00001C08068CFE1DEE42197F1F700C00000C9
:100CB000215071F681FF03C021E020935D0283FF84
:100CC00003C021E020935B02009729F0209163028A
:100CD0002C7F20936302DF91CF911F910895809123
:100CE0006302282F2270982F9370933079F021118E
:100CF0000FC08260809363024CEF55E064E670E0C1
:100D000080E090E00E94A91080E0089581E00895BD
:100D100080E0089540915E0250915F022091600250
:100D2000309161022427352782239323892B19F0E0
:100D30006093620208958091630283FF0DC082FF79
:100D400003C060936202089542E056E06CE271E0F5
:100D500080E090E00E944910089580915E02909199
:100D60005F028A30910509F46BC088F484309105E4
:100D700089F130F48130910509F1029729F166C0BB
:100D80008630910509F450C0089751F15FC0803258
:100D9000910591F138F48C30910509F44BC04097DE
:100DA00029F154C08038910599F1811521E092070D
:100DB000A9F18034910509F049C024C060E081E0C8
:100DC00090E00E948A06089561E082E090E00E942F
:100DD0008A06089562E084E090E00E948A06089501
:100DE00063E088E090E00E948A06089564E080E174
:100DF00090E00E948A06089565E080E290E00E94FB
:100E00008A06089566E080E490E00E948A060895CC
:100E100067E080E890E00E948A06089568E080E03C
:100E200091E00E948A06089569E086E090E00E94C1
:100E30008A0608956AE08CE090E00E948A06089590
:100E40006BE08AE090E00E948A0608958091630238
:100E50008B7F8093630282E096E00E94E110089508
:100E60008CE0809362020E946F06882321F18091BA
:100E70005E0290915F0290936102809360020E94F3
:100E8000120690935F0280935E028230910511F00A
:100E9000089751F48091C202811106C080916302CB
:100EA00088608093630205C080916302877F80938E
:100EB00063020E94AD060895559A08955D980895BD
:100EC0005D9A0895CF93DF93D82F8823D1F0C0E0A7
:100ED0000E9460072FEF80E792E021508040904011
:100EE000E1F700C000000E945E072FEF80E792E06C
:100EF000215080409040E1F700C00000CF5FCD134B
:100F0000E7CFDF91CF91089581E00E944A0F0E94C0
:100F10005C070E9408060E9401110E940A0E0E94AE
:100F2000D213789408950E941206049721F00E942B
:100F30002B0E843089F484E090E0909361028093DA
:100F4000600290935F0280935E02809368028093B8
:100F50006B0281E08093BF0208950E9484078AE7B4
:100F600092E00E94570588EA92E00E94010F0E94D9
:100F7000930785EC92E00E94240F0E94E2070E94F2
:100F800030070E945D0F0E94E00E0E94EC0C0E9450
:100F90003D0D0E94E7050E94D60D80916E028111E1
:100FA00008C080917702811104C080917602882365
:100FB00031F38FE19EE40197F1F700C000000E9439
:100FC0009C12DDCFCF93DF932FEF89E698E121507C
:100FD00080409040E1F700C00000C8EAD2E00E94E3
:100FE0005E070E947B042FEF80E792E02150804053
:100FF0009040E1F700C000000E9460078AE792E09D
:101000000E94CC050E94B3042FEF80E792E02150AC
:1010100080409040E1F700C00000888199810C96E3
:10102000F1F68AE00E9462070E94BB008AE00E94FB
:1010300062070E94D3030E94EF038FEF90E722E044
:10104000815090402040E1F700C000008091BF0235
:10105000882331F163E071E082E090E00E94520366
:101060008FEF90E722E0815090402040E1F700C0F0
:1010700000000E9497048FEF90E722E0815090409B
:101080002040E1F700C000008AE792E00E94CC0512
:1010900083E00E94B91284E10E9462070E94D30398
:1010A0006091AE027091AF028091B0029091B10256
:1010B0000E9452030E945E0780E090E00E94471465
:1010C000C82F8093AA0281E090E00E944714809389
:1010D000AB02CF3F19F08F3F09F042C08FE798E392
:1010E00021E0815090402040E1F700C000000E94C4
:1010F00043048FE798E321E0815090402040E1F7DE
:1011000000C000008AE792E00E94CC050E943705EB
:101110008093AA028FE798E321E08150904020401D
:10112000E1F700C000000E945F048FE798E321E030
:10113000815090402040E1F700C000008AE792E033
:101140000E94CC050E9447058093AB028FE798E38D
:1011500021E0815090402040E1F700C0000010C025
:101160008C2F0E94E5018FEF90E722E081509040A4
:101170002040E1F700C000008091AB020E940A020B
:101180000E9453018FEF90E722E081509040204071
:10119000E1F700C000000E949101DF91CF91089516
:1011A0008091B6029091B7029C013051211540E127
:1011B000340728F13051211540E1340710F1305146
:1011C000211540E13407F8F03051211540E1340792
:1011D000E0F03051211540E13407C8F030512115BD
:1011E00040E13407B0F0305121153041A0F0892F93
:1011F000881F8827881F880F880F880F089581E02F
:10120000089582E0089583E0089584E0089585E0DC
:10121000089586E0089587E008954091B4025091C2
:10122000B5028091F6019091F7018417950780F43B
:10123000E8EFF1E081E0219131912417350720F4A6
:101240008F5F8832C1F702C0882319F0815008955A
:1012500080E008958091B302882319F0813059F11C
:101260002EC00E94710181E08093B3028093BC0282
:101270002FE788E391E0215080409040E1F700C0E3
:1012800000000E9427042FE788E391E0215080406E
:101290009040E1F700C000008AE792E00E94CC0590
:1012A0000E9401059093B7028093B6020E94D00875
:1012B0008093AD0204C00E9453011092B30281E0FA
:1012C0008093770208958091BC02882319F01092D0
:1012D000BC0203C081E08093BC0281E0809377026E
:1012E0008091C002811104C08091C102882319F04D
:1012F00081E0809376020895CF93DF938091C402BA
:10130000811167C08091B302882319F08130C9F13F
:101310005AC08091C20281110DC01092B802809112
:10132000AC02882309F44FC081508093AC020E9424
:10133000BB0049C00E940B042FEF80E792E02150D0
:1013400080409040E1F700C000008AE792E00E94F0
:10135000CC050E94DC04EC019093B5028093B402AA
:101360000E940D098093AC028091F6019091F701E3
:101370008C179D0740F50E949F0081E08093B90281
:1013800022C00E9427042FEF80E792E02150804086
:101390009040E1F700C000008AE792E00E94CC058F
:1013A0000E940105EC019093B7028093B6020E945F
:1013B000D0088093AD02C130D04128F00E941B01BB
:1013C00081E08093B80281E08093BC028093770231
:1013D0001DC0823069F48091AA028230B8F0815039
:1013E0008093AA020E94E50181E0809376020EC0FC
:1013F000833061F48091AB02823040F08150809361
:10140000AB020E940A0281E080937602DF91CF91C5
:101410000895CF93DF938091C402811166C08091BB
:10142000B302882319F08130C9F159C08091C202FA
:1014300081110DC01092BA028091AC02873208F07F
:101440004EC08F5F8093AC020E94BB0048C00E94D8
:101450000B042FEF80E792E0215080409040E1F7AD
:1014600000C000008AE792E00E94CC050E94DC04E4
:10147000EC019093B5028093B4020E940D09809311
:10148000AC028091440290914502C817D90738F503
:101490000E94830081E08093BB0221C00E94270448
:1014A0002FEF80E792E0215080409040E1F700C0AC
:1014B00000008AE792E00E94CC050E940105EC0141
:1014C0009093B7028093B6020E94D0088093AD0239
:1014D000DD232CF00E94370181E08093BA0281E085
:1014E0008093BC02809377021DC0823069F48091A2
:1014F000AA028F3FB9F08F5F8093AA020E94E50194
:1015000081E0809376020EC0833061F48091AB025B
:101510008F3F41F08F5F8093AB020E940A0281E00F
:1015200080937602DF91CF9108958091BD02882348
:1015300019F01092BD0203C081E08093BD0281E0EA
:10154000809376020895CF938091C402811164C084
:101550008091C102811147C08091C002813071F039
:1015600018F08230B1F054C00E944B0281E08093A9
:10157000C0028093BC02809377024AC00E94C602D8
:1015800082E08093C00281E08093BC028093770266
:101590003FC00E94AA022FEF80E792E021508040D6
:1015A0009040E1F700C000000E942F022FEF80E77B
:1015B00092E0215080409040E1F700C0000080910F
:1015C000AA020E94E5012FEF80E792E021508040BF
:1015D0009040E1F700C000008091AB020E940A0237
:1015E0001092C00215C08091AA020E94E5012FEF5F
:1015F00080E792E0215080409040E1F700C0000079
:101600008091AB020E940A021092C1021092C002A5
:1016100081E08093760226C00E94C9011092C40224
:1016200080E090E00E944714C82F8093AA0281E0D6
:1016300090E00E9447148093AB028C2F0E94E5013A
:101640002FEF80E792E0215080409040E1F700C00A
:1016500000008091AB020E940A0281E08093770231
:1016600080937602CF910895CF938091C402811127
:1016700065C08091C002882391F10E94AA022FEFD9
:1016800080E792E0215080409040E1F700C00000E8
:101690000E942F022FEF80E792E02150804090407F
:1016A000E1F700C000008091AA020E94E5012FEF3F
:1016B00080E792E0215080409040E1F700C00000B8
:1016C0008091AB020E940A022FEF80E792E0215046
:1016D00080409040E1F700C000001092C00280916D
:1016E000C102813081F020F08230C9F0833011F5E1
:1016F00081EC0E94E50181E08093C1028093BC02ED
:101700008093770217C088EA0E94E50182E0809307
:10171000C10281E08093BC02809377020BC088E70E
:101720000E94E50183E08093C10281E08093BC02C6
:101730008093770281E08093760226C00E94C901DF
:101740001092C40280E090E00E944714C82F80935A
:10175000AA0281E090E00E9447148093AB028C2F94
:101760000E94E5012FEF80E792E0215080409040F9
:10177000E1F700C000008091AB020E940A0281E004
:101780008093770280937602CF910895CF93DF9371
:101790008091C402811112C08091BE02882329F079
:1017A0000E948E021092BE0205C00E94720281E069
:1017B0008093BE0281E08093770226C00E94C90117
:1017C0001092C402CAEAD2E088810E94E5016881D1
:1017D00080E090E00E944F142FEF81EE94E02150C2
:1017E00080409040E1F700C00000CBEAD2E0888161
:1017F0000E940A02688181E090E00E944F1481E01B
:101800008093770280937602DF91CF910895809143
:10181000C3028230B1F028F4882339F0813059F0C6
:101820001BC08330A1F08430B9F40E94E20281E051
:101830008093C30211C00E94FE0282E08093C30223
:101840000BC00E941A0383E08093C30205C00E946C
:10185000360384E08093C30281E08093760208958A
:101860008091C402811146C083E00E94620781E03A
:101870008093C4020E94AD010E9443042FEF80E7D1
:1018800092E0215080409040E1F700C000008AE7DC
:1018900092E00E94CC050E9437058093AA020E9424
:1018A0005F042FEF80E792E0215080409040E1F705
:1018B00000C000008AE792E00E94CC050E94470524
:1018C0008093AB026091AA0280E090E00E944F14E6
:1018D0002FEF81EE94E0215080409040E1F700C06E
:1018E00000006091AB0281E090E00E944F1481E023
:1018F0008093770208958091C402811148C083E0EB
:101900000E94620782E08093C4020E94C9010E9483
:1019100043042FEF80E792E0215080409040E1F7B0
:1019200000C000008AE792E00E94CC050E943705C3
:101930008093AA020E945F042FEF80E792E021507B
:1019400080409040E1F700C000008AE792E00E94EA
:10195000CC050E9447058093AB026091AA0280E00B
:1019600090E00E944F142FEF81EE94E021508040D0
:101970009040E1F700C000006091AB0281E090E090
:101980000E944F1481E0809377028093760208953D
:101990008091C402823091F08330B9F081111BC074
:1019A00083E00E9462078091C202811104C081E03D
:1019B0008093C20208951092C202089583E00E94AB
:1019C000620783E08093C402089583E00E94620767
:1019D00082E08093C40208958091620290E08C308E
:1019E000910540F5FC01EC5CFF4F0C942D140E9416
:1019F0002A0920C00E947C091DC00E9463091AC0E8
:101A00000E94090A17C00E94950A14C00E94A30AE6
:101A100011C00E94340B0EC00E94C60B0BC00E9466
:101A2000070C08C00E94300C05C00E947B0C02C04D
:101A30000E94C80C8091690290E088309105E0F422
:101A4000FC01E05CFF4F0C942D140E942A090895BC
:101A50000E947C0908950E94630908950E94090A62
:101A600008950E94950A08950E94A30A08950E946D
:101A7000340B08950E94C60B0895CF9380915C02A9
:101A8000882321F010925C02C1E009C080915A02C3
:101A9000882321F010925A02C1E001C0C0E0809179
:101AA000B3028130E1F58091B802811104C08091C8
:101AB000BA028823A1F10E9427042FE788E391E06E
:101AC000215080409040E1F700C000008AE792E09A
:101AD0000E94CC050E9401059093B7028093B60244
:101AE000C11106C099239CF48091BA02882379F031
:101AF0000E94FF001092B8021092BA022FE788E30A
:101B000091E0215080409040E1F700C000000E9429
:101B1000D0088093AD0281E08093770245C0809128
:101B2000C202813009F040C08091BB02811104C023
:101B30008091B9028823C1F10E940B042FE788E34A
:101B400091E0215080409040E1F700C000008AE71A
:101B500092E00E94CC050E94DC049093B502809331
:101B6000B402C1110BC0209144023091450282178A
:101B7000930798F08091BB02882379F00E94670058
:101B80001092BB021092B9022FE788E391E0215036
:101B900080409040E1F700C000000E940D09809352
:101BA000AC0281E080937702CF9108958091C402C6
:101BB000813019F50E9443048FE59AEE0197F1F701
:101BC00000C000008AE792E00E94CC050E94370521
:101BD0008093AA020E945F048FE59AEE0197F1F7C5
:101BE00000C000008AE792E00E94CC050E944705F1
:101BF0008093AB0281E080937602089580916A021F
:101C0000816080936A02089580916A028460809363
:101C10006A02089588B18F6188B987B117B80895AD
:101C200080916A02282F2270982F9370933079F058
:101C300021110FC0826080936A024EEF5DE06AE07E
:101C400070E080E090E00E94A91080E0089581E0BB
:101C5000089580E0089596B194FF48C09F70993030
:101C600069F080916702882329F01092670281E071
:101C700080936602963061F180E001C082E020919D
:101C80006502222329F01092650221E0209364026C
:101C9000933079F028F49130A1F0923081F012C0A5
:101CA000983029F09C3039F0943039F00BC08160C5
:101CB00009C0846007C0806105C0806203C0806481
:101CC00001C0806881FF05C091E09093670201C068
:101CD00088E083FF03C091E090936502882339F088
:101CE00090916A029C7F90936A02089580E0089523
:101CF00020916B02909168029227892319F06093DA
:101D00006902089580916A0283FF10C082FF06C0B5
:101D1000609369028B7F80936A02089544E05EE0DD
:101D20006CE271E080E090E00E944910089580919B
:101D30006B02883011F138F48230A9F08430C1F0A0
:101D40008130A1F50BC0803211F118F48031D1F04F
:101D50002DC0803409F1803821F128C060E081E095
:101D60000E94780E089561E082E00E94780E089546
:101D700062E084E00E94780E089563E088E00E94AB
:101D8000780E089564E080E10E94780E089565E081
:101D900080E20E94780E089566E080E40E94780E4A
:101DA000089567E080E80E94780E089580916A02A5
:101DB0008B7F80936A0284E09EE00E94E110089588
:101DC0008CE0809369020E94100E8823C9F08091F4
:101DD0006B02809368020E942B0E80936B0282300C
:101DE00011F0883031F480916A02886080936A0231
:101DF00005C080916A02877F80936A020E94970ED5
:101E00000895FC01118210821282138287E084837C
:101E100015828FE0868381E08783808711868EE03C
:101E2000828713861586148617861686108A118A6D
:101E3000128A138A148A158A168A178A108E118EAE
:101E4000128E138E148E0895DC01FC0180E09BE15C
:101E500091938F5F8A30E1F78BE08C9383E1119649
:101E60008C9311978FE412968C93129780E21396BD
:101E70008C93139782E214968C93149787E21596AD
:101E80008C93159782E01A968C931A9785E01B968F
:101E90008C930895813081F488E19CEF90938500C4
:101EA00080938400EFE6F0E0808181608083E1E848
:101EB000F0E08081826080830895CF92DF92EF927C
:101EC000FF920F931F93CF93DF93C1EDD2E00BEFFF
:101ED00012E0CC24CA94DC2CE12CF12C888199816D
:101EE000AA81BB81892B8A2B8B2B49F4C882D9828A
:101EF000EA82FB8210926F02EC81FD8109952696A1
:101F0000C017D10759F7DF91CF911F910F91FF9023
:101F1000EF90DF90CF900895CF93DF93E1EDF2E063
:101F20002BEF32E080819181A281B3818F3F4FEF0F
:101F30009407A105B10559F00097A105B10539F045
:101F40000197A109B10980839183A283B383369657
:101F5000E217F30739F7DF91CF9108951F920F929F
:101F60000FB60F9211242F933F934F935F936F936C
:101F70007F938F939F93AF93BF93EF93FF9388E1EA
:101F80009CEF90938500809384008091BD0288230C
:101F900009F45CC08091700290917102A09172026C
:101FA000B0917302BC01CD016F5F7F4F8F4F9F4F88
:101FB0006093700270937102809372029093730227
:101FC00028EE33E040E050E00E940B14672B682BB2
:101FD000692B09F047C081E080936E021092700275
:101FE00010927102109272021092730280916C0230
:101FF0008F5F80936C0280916C0299E8899F912D8C
:1020000011249295969597702CE3929F8019112434
:10201000811128C081E080936E0210926C02809141
:102020006D028F5F80936D0280916D0299E8899FA8
:10203000912D11249295969597702CE3929F80197B
:10204000112481110FC010926D020CC01092700209
:1020500010927102109272021092730210926C022E
:1020600010926D0280916F02811102C00E948C0F4C
:10207000FF91EF91BF91AF919F918F917F916F9160
:102080005F914F913F912F910F900FBE0F901F9036
:102090001895CF92DF92EF92FF920F931F93CF93F9
:1020A000DF93E1EDF2E02BEF32E0C080D180E280FF
:1020B000F380AFEFCA16DA06E104F10429F0A48137
:1020C000B581A417B507E1F13696E217F30769F772
:1020D0000091D1021091D2022091D3023091D4020A
:1020E0000F3F1F4F2105310581F0E7EDF2E021E0C0
:1020F00030E0E901C080D180E280F380AFEFCA1602
:10210000DA06E104F104B1F402C0C0E0D0E09E01BF
:10211000220F331FF901EC0FFD1FEE0FFF1FEF52CF
:10212000FD4F608371838283938310926F02558386
:10213000448306C02F5F3F4F369627303105C9F6DE
:10214000DF91CF911F910F91FF90EF90DF90CF9093
:102150000895CF92DF92EF92FF92CF93DF93E1ED5C
:10216000F2E020E030E0E901C080D180E280F3803D
:10217000AFEFCA16DA06E104F104A1F0A481B5813B
:10218000A417B50779F4220F331FC20FD31FCC0F4A
:10219000DD1FCF52DD4F688379838A839B83109242
:1021A0006F0208C02F5F3F4F369627303105D9F6B2
:1021B0000E944910DF91CF91FF90EF90DF90CF9078
:1021C0000895CF93DF93C0916F02E1EDF2E0ABEFA2
:1021D000B2E04FEF5FEF60E070E0D0E02481358146
:1021E0002817390729F44083518362837383CD2FE5
:1021F0003696EA17FB0791F7C0936F02DF91CF91F4
:102200000895E1EDF2E02BEF32E08FEF9FEFA0E0D9
:10221000B0E080839183A283B3833696E217F307FD
:10222000C1F70895CF93DF93CDB7DEB72A970FB6E6
:10223000F894DEBF0FBECDBF8AE0E0E5F2E0DE013C
:10224000119601900D928A95E1F78091BC02882346
:10225000A9F08091AC0290E0019627E12A836AE020
:1022600070E00E94F7137727FB01EA5BFD4F2081A6
:102270002B83FC01EA5BFD4F80818C838091B3024C
:10228000813079F4E091AD02E93058F48CE08E832E
:1022900085E08F838FE48887F0E0EA5BFD4F8081E3
:1022A00089878091BE02882349F082E18E8383E191
:1022B0008F8388E088878BE089878A878091C40232
:1022C000813081F486E189839AE49A831B8293E0CA
:1022D0009C8399E09D839FE49E831F8293E198876E
:1022E000898713C08250823080F486E189838AE432
:1022F0008A831B8283E08C8389E08D838FE48E83C5
:102300008CE08F8318868DE08987BE016F5F7F4FD9
:102310008091AE020E9475032A960FB6F894DEBF34
:102320000FBECDBFDF91CF910895CF93DF93CDB78F
:10233000DEB72A970FB6F894DEBF0FBECDBF8AE096
:10234000E0E5F2E0DE01119601900D928A95E1F749
:102350008091BC028823B9F08091C002813021F4C1
:1023600085E08A831B82D7C0823009F0D4C085E023
:102370008A8381E08B83CFC086E08A83F0E0EA5BCA
:10238000FD4F80818B838091BD02882309F442C078
:102390008091BE02811108C080916D028093750208
:1023A00080916C0280937402E09175028DECE89F3D
:1023B000912D1124969596959695A92FB0E0AA5B3C
:1023C000BD4F2C912E83990F292F220F220F920F90
:1023D000E91BF0E0EA5BFD4F90819F839AE49887C8
:1023E000E0917402E89F812D11248695869586954B
:1023F000A82FB0E0AA5BBD4F9C919987880F982FBA
:10240000990F990F890FE81BF0E0EA5BFD4F80817F
:102410008A8704C010927502109274028091C402DF
:10242000882309F468C081E189833AE43A83E09122
:10243000AA0229E2E29FA12D1124A295AF70B0E07B
:10244000AA5BBD4F8C918B838DECE89F912D11245D
:10245000969596959695989F412D1124469546956B
:102460004695440F542F550F550F450FA92FA41B08
:10247000B0E0AA5BBD4F4C914C83990F492F440F9C
:10248000440F940FE91BF0E0EA5BFD4F90819D83C0
:1024900091E09E833F83E091AB02E29F212D1124C6
:1024A00022952F70A22FB0E0AA5BBD4F9C91988718
:1024B000E89F912D1124969596959695989F812D3C
:1024C0001124869586958695880F282F220F220F36
:1024D000820FA92FA81BB0E0AA5BBD4F8C91898702
:1024E000990F892F880F880F980FE91BF0E0EA5B9E
:1024F000FD4F80818A8780917602811104C080918E
:10250000BE02811110C0BE016F5F7F4F8091AE028D
:102510000E94A40308C0E091C1028FEF8E0F8330A8
:1025200008F42ACF30CF2A960FB6F894DEBF0FBE3C
:10253000CDBFDF91CF91089580917702882351F02C
:10254000109277020E9412118FE19EE40197F1F739
:1025500000C0000080916E02811104C0809176025B
:10256000882331F00E94951110926E02109276022B
:102570000895FF920F931F93CF93DF93CDB7DEB7EC
:102580002A970FB6F894DEBF0FBECDBFF82E8AE0B3
:10259000E0E5F2E0DE01119601900D928A95E1F7F7
:1025A0000E9426058C0165EC72E08F2D0E94750358
:1025B0002FEF80E792E0215080409040E1F700C08B
:1025C000000085E18983A091CF02EDECAE9FE12D63
:1025D0001124E695E695E6958E2F880F982F990F92
:1025E000990F890FA81BEE2339F0F0E0EA5BFD4F4D
:1025F00080818A8382E001C081E0E1E0F0E0EC0FBD
:10260000FD1FE80FF11DB0E0AA5BBD4F9C919083C8
:1026100091E0980FE1E0F0E0EC0FFD1FE90FF11DF4
:102620009CE490839091D00222E0280FE1E0F0E05A
:10263000EC0FFD1FE20FF11D2DEC929F212D1124B7
:10264000269526952695A22FB0E0AA5BBD4F3C911A
:1026500030838D5FE1E0F0E0EC0FFD1FE80FF11D2E
:10266000822F880F282F220F220F820F981BA92F4D
:10267000B0E0AA5BBD4F8C918083F801E07FFF271B
:10268000F295E295EF70EF27FF70EF27EA5BFD4FC1
:10269000808189870F70E02FF0E0EA5BFD4F808139
:1026A0008A87BE016F5F7F4F8F2D0E94A4032A96F9
:1026B0000FB6F894DEBF0FBECDBFDF91CF911F9153
:1026C0000F91FF9008951F920F920FB60F92112451
:1026D0002F933F934F935F936F937F938F939F932A
:1026E000AF93BF93EF93FF938091C60080931B033A
:1026F00080911B03803919F08F3F59F027C081E08A
:102700008093790290911B039093FB02809378024F
:102710002DC080917902882349F1E091780221E06F
:102720002E0F2093780280911B03F0E0E550FD4FBF
:102730008083109279028091FC0280937F024BEF9C
:1027400052E06AE772E00E948D0510C08091790224
:10275000882361F0E091780281E08E0F8093780207
:1027600080911B03F0E0E550FD4F8083FF91EF91D6
:10277000BF91AF919F918F917F916F915F914F9199
:102780003F912F910F900FBE0F901F90189590932F
:10279000C5008093C40088E98093C10086E08093DF
:1027A000C200089583E390E00E94C7130895E0EC0F
:1027B000F0E0908195FFFDCF8093C60008950F93C0
:1027C0001F93CF93DF93EC01062F662359F010E09F
:1027D00089910E94D71385E38A95F1F700001F5F66
:1027E0001013F6CFDF91CF911F910F91089597FBB2
:1027F000072E16F4009407D077FD09D00E943314F9
:1028000007FC05D03EF4909581959F4F08957095F3
:1028100061957F4F0895A1E21A2EAA1BBB1BFD01F3
:102820000DC0AA1FBB1FEE1FFF1FA217B307E407AF
:10283000F50720F0A21BB30BE40BF50B661F771F07
:10284000881F991F1A9469F76095709580959095E7
:102850009B01AC01BD01CF010895EE0FFF1F059054
:10286000F491E02D0994AA1BBB1B51E107C0AA1FDC
:10287000BB1FA617B70710F0A61BB70B881F991F21
:102880005A95A9F780959095BC01CD010895F999C5
:10289000FECF92BD81BDF89A992780B50895262F65
:1028A000F999FECF1FBA92BD81BD20BD0FB6F89435
:0E28B000FA9AF99A0FBE01960895F894FFCF98
:1028BE0081090002FF81090422FF81090444FF817E
:1028CE00090443FF81090448FF81090447FF810180
:1028DE00047402FF8101047400FF81010473021B62
:1028EE001B1B1B1B1B1B1B1B1BFF81010473011BD3
:1028FE001B1B1B1B1B1B1B1B1BFF810104730000DF
:10290E00000000000000000000FF8101046103FFD1
:10291E008101046102FF8101046603FF81010466E7
:10292E0002FF8101046304FF8101046300FF810142
:10293E00046203FF8101046202FF81010442000070
:10294E000000FF8101040200FF8101044400000029
:10295E0000FF8101044300000000FF8101043505E2
:10296E00FF8101043504FF8101045700FF8101043A
:10297E003803FF8101043802FF8101040803FF813F
:10298E0001040802FF8101040800FF8101044700D1
:10299E00000000FF8101040733FF8101040723FFBC
:1029AE008101040700FF0000001600218027002C83
:1029BE00002F30326034703660383039703AA03BB8
:1029CE00B03CB03DA03E803F00400042B044604766
:1029DE00104A804B004F6051A05210548055005742
:1029EE00E058005A005B005C005D005E005F006016
:1029FE0000610062FF62271E1F202122232425264C
:0A2A0E001B1B1B1B1B1B1B1B1B1BB0
:00000001FF
