:100000000C9448000C9465000C9465000C946500F9
:100010000C9465000C9465000C9465000C946500CC
:100020000C9465000C9465000C9465000C946500BC
:100030000C9465000C9441130C9465000C946500BD
:100040000C9465000C9465000C9491170C94650059
:100050000C9465000C9465000C9465000C9465008C
:100060000C9465000C9465004B114E115111541104
:1000700057115A1160115D116311661169116C11EC
:1000800079117C117F118211851188118E118B11CC
:1000900011241FBECFEFD4E0DEBFCDBF13E0A0E040
:1000A000B1E0EAE1F1E302C005900D92A232B1079E
:1000B000D9F723E0A2E2B3E001C01D92AF3EB20740
:1000C000E1F70E94A9080C948B180C9400008EE2B2
:1000D000E5E4F3E0DF01982F1D929A95E9F7DF013F
:1000E0001D928A95E9F781E492E09183808386E00E
:1000F0008093470381E08093480366E081E492E0C7
:100100000E940D1808958EE2E5E4F3E0DF01982FD8
:100110001D929A95E9F7DF011D928A95E9F78BE325
:1001200092E09183808386E08093470381E080930F
:10013000480366E08BE392E00E940D1808958EE27A
:10014000E5E4F3E0DF01982F1D929A95E9F7DF01CE
:100150001D928A95E9F785E392E09183808386E09A
:100160008093470381E08093480366E085E392E053
:100170000E940D180895CF93DF932EE2A5E4B3E01B
:10018000ED01E22F1992EA95E9F7ECE2F2E0ED01D8
:1001900019922A95E9F7ED93FC9329E02093470300
:1001A00021E02093480320917503822F817090E015
:1001B00020917C0338E2389FD001399FB00D112483
:1001C000A20FB11DAA0FBB1FAB58BD4F8D919C91C3
:1001D000119790938703809386039C012227307F99
:1001E000232F22952F7024839C0122273F70358373
:1001F000807F9927929582958F7089279F70892794
:1002000086838C918F70878369E0CF010E940D18DF
:10021000DF91CF9108958EE2E5E4F3E0DF01982FBE
:100220001D929A95E9F7DF011D928A95E9F786E21A
:1002300092E09183808386E08093470381E08093FE
:10024000480366E086E292E00E940D1808958EE26F
:10025000E5E4F3E0DF01982F1D929A95E9F7DF01BD
:100260001D928A95E9F780E292E09183808386E08F
:100270008093470381E08093480366E080E292E048
:100280000E940D1808958EE2E5E4F3E0DF01982F57
:100290001D929A95E9F7DF011D928A95E9F78AE1A7
:1002A00092E09183808386E08093470381E080938E
:1002B000480366E08AE192E00E940D1808958EE2FC
:1002C000E5E4F3E0DF01982F1D929A95E9F7DF014D
:1002D0001D928A95E9F784E192E09183808386E01C
:1002E0008093470381E08093480366E084E192E0D5
:1002F0000E940D1808958EE2E5E4F3E0DF01982FE7
:100300001D929A95E9F7DF011D928A95E9F78EE033
:1003100092E09183808386E08093470381E080931D
:10032000480366E08EE092E00E940D18109285036B
:100330000895CF938EE2E5E4F3E0DF01982F1D925C
:100340009A95E9F7C1E0DF011D928A95E9F788E007
:1003500092E09183808386E080934703C0934803B3
:1003600066E088E092E00E940D18C0938503CF916B
:1003700008958EE2E5E4F3E0DF01982F1D929A954F
:10038000E9F7DF011D928A95E9F782E092E0918317
:10039000808386E08093470381E08093480366E092
:1003A00082E092E00E940D1808958EE2E5E4F3E009
:1003B000DF01982F1D929A95E9F7DF011D928A952A
:1003C000E9F78CEF91E09183808386E08093470387
:1003D00081E08093480366E08CEF91E00E940D1865
:1003E00008958EE2E5E4F3E0DF01982F1D929A95DF
:1003F000E9F7DF011D928A95E9F786EF91E0918395
:10040000808386E08093470381E08093480366E021
:1004100086EF91E00E940D180895CF93DF939EE23E
:10042000A5E4B3E0ED01E92F1992EA95E9F7EDEEC5
:10043000F1E0ED0119929A95E9F7ED93FC9399E0BB
:100440009093470391E090934803982F92959F7063
:1004500096838F70878369E0CF010E940D18DF912A
:10046000CF910895CF93DF939EE2A5E4B3E0ED0131
:10047000E92F1992EA95E9F7E4EEF1E0ED0119921E
:100480009A95E9F7ED93FC9399E09093470391E0F7
:1004900090934803982F92959F7096838F708783CF
:1004A00069E0CF010E940D18DF91CF9108958EE28F
:1004B000E5E4F3E0DF01982F1D929A95E9F7DF015B
:1004C0001D928A95E9F78EED91E09183808386E015
:1004D0008093470381E08093480366E08EED91E0CE
:1004E0000E940D180895CF93DF938EE2A5E4B3E048
:1004F000ED01E82F1992EA95E9F7E5EDF1E0ED015C
:1005000019928A95E9F7ED93FC9389E0809347036C
:1005100081E08093480380918403982F92959F7087
:1005200096838F70878369E0CF010E940D18DF9159
:10053000CF9108958EE2E5E4F3E0DF01982F1D925C
:100540009A95E9F7DF011D928A95E9F78FEC91E022
:100550009183808386E08093470381E08093480302
:1005600066E08FEC91E00E940D1808958EE2E5E4BC
:10057000F3E0DF01982F1D929A95E9F7DF011D92B4
:100580008A95E9F789EC91E09183808386E08093F6
:10059000470381E08093480366E089EC91E00E9484
:1005A0000D1808958EE2E5E4F3E0DF01982F1D9227
:1005B0009A95E9F7DF011D928A95E9F783EC91E0BE
:1005C0009183808386E08093470381E08093480392
:1005D00066E083EC91E00E940D1808958EE2E5E458
:1005E000F3E0DF01982F1D929A95E9F7DF011D9244
:1005F0008A95E9F78DEB91E09183808386E0809383
:10060000470381E08093480366E08DEB91E00E9410
:100610000D1808958EE2E5E4F3E0DF01982F1D92B6
:100620009A95E9F7DF011D928A95E9F787EB91E04A
:100630009183808386E08093470381E08093480321
:1006400066E087EB91E00E940D1808958EE2E5E4E4
:10065000F3E0DF01982F1D929A95E9F7DF011D92D3
:100660008A95E9F781EB91E09183808386E080931E
:10067000470381E08093480366E081EB91E00E94AC
:100680000D1808958EE2E5E4F3E0DF01982F1D9246
:100690009A95E9F7DF011D928A95E9F78BEA91E0D7
:1006A0009183808386E08093470381E080934803B1
:1006B00066E08BEA91E00E940D1808958EE2E5E471
:1006C000F3E0DF01982F1D929A95E9F7DF011D9263
:1006D0008A95E9F785EA91E09183808386E08093AB
:1006E000470381E08093480366E085EA91E00E9439
:1006F0000D1808958EE2E5E4F3E0DF01982F1D92D6
:100700009A95E9F7DF011D928A95E9F78EE991E064
:100710009183808387E08093470381E0809348033F
:1007200067E08EE991E00E940D180895CF93DF9362
:10073000209175032230C8F42EE2E5E4F3E0DF01F6
:10074000C22F1D92CA95E9F7AEE8B1E0EF01199208
:100750002A95E9F7B183A08320E12093470321E0A4
:100760002093480315966C9319C02EE2E5E4F3E05C
:10077000DF01C22F1D92CA95E9F7A2E5B1E0EF01B2
:1007800019922A95E9F7B183A08320E120934703CA
:1007900021E020934803606114966C93E091450337
:1007A000F091460376838783908760914703CF015A
:1007B0000E940D18DF91CF910895CF93DF93909110
:1007C00075039230B8F48EE2E5E4F3E0DF01C82F60
:1007D0001D92CA95E9F7DF011D928A95E9F78EE728
:1007E00091E09183808380E18093470381E080934F
:1007F00048032FC09EE2E5E4F3E0EF01292F1992B0
:100800002A95E9F7A2E4B1E0EF0119929A95E9F788
:10081000B183A08390E19093470391E090934803C4
:10082000806214968C9315C02191A0914503B091DC
:100830004603A80FB91F2C9301968F309105A1F79D
:100840006091470380914503909146030E940D18E3
:1008500005C0E62FF72F85E090E0E6CFDF91CF913E
:100860000895CF93DF93909175039230B8F48EE2A0
:10087000E5E4F3E0DF01C82F1D92CA95E9F7DF0137
:100880001D928A95E9F78EE691E09183808380E15D
:100890008093470381E0809348032FC09EE2E5E404
:1008A000F3E0EF01292F19922A95E9F7A2E3B1E0CD
:1008B000EF0119929A95E9F7B183A08390E19093A3
:1008C000470391E090934803806314968C9315C07E
:1008D0002191A0914503B0914603A80FB91F2C9315
:1008E00001968F309105A1F76091470380914503F0
:1008F000909146030E940D1805C0E62FF72F85E062
:1009000090E0E6CFDF91CF910895CF93DF93909160
:1009100075039230B8F48EE2E5E4F3E0DF01C82F0E
:100920001D92CA95E9F7DF011D928A95E9F788E6DD
:1009300091E09183808386E08093470381E08093F8
:10094000480319C09EE2E5E4F3E0EF01292F199274
:100950002A95E9F7ACE2B1E0EF0119929A95E9F72F
:10096000B183A08396E09093470391E0909348036E
:10097000806114968C936091470380914503909118
:1009800046030E940D18DF91CF910895CF93DF9316
:10099000909175039230B8F48EE2E5E4F3E0DF0164
:1009A000C82F1D92CA95E9F7DF011D928A95E9F7D4
:1009B00082E691E09183808386E08093470381E023
:1009C0008093480319C09EE2E5E4F3E0EF01292F8C
:1009D00019922A95E9F7A6E2B1E0EF0119929A95EA
:1009E000E9F7B183A08396E09093470391E0909359
:1009F0004803806214968C9360914703809145036D
:100A0000909146030E940D18DF91CF9108958EE2D8
:100A1000E5E4F3E0DF01982F1D929A95E9F7DF01F5
:100A20001D928A95E9F78EE191E09183808388E0B9
:100A30008093470381E08093480368E08EE191E072
:100A40000E940D1808958EE2E5E4F3E0DF01982F8F
:100A50001D929A95E9F7DF011D928A95E9F789E1E0
:100A600091E09183808385E08093470389E08093C0
:100A7000480365E089E191E00E940D1808958EE237
:100A8000E5E4F3E0DF01982F1D929A95E9F7DF0185
:100A90001D928A95E9F784E191E09183808385E056
:100AA0008093470389E08093480365E084E191E007
:100AB0000E940D1808958EE2E5E4F3E0DF01982F1F
:100AC0001D929A95E9F7DF011D928A95E9F78FE06B
:100AD00091E09183808385E08093470389E0809350
:100AE000480365E08FE091E00E940D1808958EE2C2
:100AF000E5E4F3E0DF01982F1D929A95E9F7DF0115
:100B00001D928A95E9F78AE091E09183808385E0E0
:100B10008093470389E08093480365E08AE091E091
:100B20000E940D1808958EE2E5E4F3E0DF01982FAE
:100B30001D929A95E9F7DF011D928A95E9F785E004
:100B400091E09183808385E08093470389E08093DF
:100B5000480365E085E091E00E940D1808958EE25B
:100B6000E5E4F3E0DF01982F1D929A95E9F7DF01A4
:100B70001D928A95E9F780E091E09183808385E07A
:100B80008093470389E08093480365E080E091E02B
:100B90000E940D180895809172038430F1F4209121
:100BA00062032F7030E0322F22273295307F809100
:100BB00063038F7090E0982F8827820F931F2091F6
:100BC00065032F70820F911D209164032F7030E117
:100BD000239F800D911D112402C080E090E090932E
:100BE0007403809373030895809172038430F1F449
:100BF000209162032F7030E0322F22273295307F10
:100C0000809163038F7090E0982F8827820F931F45
:100C1000209165032F70820F911D209164032F7026
:100C200030E1239F800D911D1124089580E090E014
:100C30000895809172038430F1F4209162032F7043
:100C400030E0322F22273295307F809163038F70FE
:100C500090E0982F8827820F931F209165032F70B3
:100C6000820F911D209164032F7030E1239F800D2E
:100C7000911D1124089580E090E00895809164030F
:100C800090E0982F882720916503820F911D089589
:100C900080917203843051F49091640380916503D4
:100CA0008F7020E1929F800D1124089580E00895B7
:100CB00080917203843051F49091640380916503B4
:100CC0008F7020E1929F800D1124089580E0089597
:100CD000DC0111961C921E9212961C9212978FEFB5
:100CE00013968C93139792E014969C9314971596F1
:100CF0008C93159716961C92169717961C92179719
:100D000018961C921897FD01399680E11192815036
:100D1000E9F759961C9259975A961C925A975B96E6
:100D20001C925B975C961C925C97FD017D961192DC
:100D30008F5F8031E1F79D961C920895807F80350A
:100D400041F0803619F08034B9F506C0211126C073
:100D500030C0211112C01EC0222361F0FA0180E0D0
:100D600090E03191DB01A80FB91F16963C930196D4
:100D70008217B8F3FB0114820895FA01DB0119967A
:100D80004F5F5F4F2150420F511D81918D93E417AA
:100D9000F507D9F781E0FB0184830895942FDB01E7
:100DA0005996E42FF52F81918D938E2F891B8217F1
:100DB000D0F381E0FB0184830895CF93DF93EC01AE
:100DC0008B858F3F59F480E007C091919F3F21F0C0
:100DD0008F5F9D938E30C9F78DA707C08D8FFE0161
:100DE0003C96DE015E9681E0F0CFDF91CF910895D1
:100DF00080914903813081F480914803893049F41E
:100E000080914A038075803521F485E493E00E9447
:100E1000DD0682E080934903089580912B03816071
:100E200080932B03089580912B03846080932B0380
:100E3000089588E284B98FEF85B917B888B99AEE1A
:100E40009AB98BB90895CF93DF9333B1E6B169B105
:100E500025E080E090E0A62FA071F32FF470E072FF
:100E6000732F70746470532F5170432F427033236B
:100E70000CF08160A11101C08260F11101C0846099
:100E8000E11101C08860711101C08061611101C070
:100E90008062511101C08064411101C08068CFE1BE
:100EA000DEE42197F1F700C00000215001F781FF37
:100EB00003C021E02093250383FF03C021E020939A
:100EC0002303009729F020912B032C7F20932B03E1
:100ED000DF91CF91089580912B03282F2270982FB6
:100EE0009370933079F021110FC0826080932B03AF
:100EF0004DE057E064E670E080E090E00E9452141C
:100F000080E0089581E0089580E0089540912603EF
:100F10005091270320912803309129032427352756
:100F200082239323892B19F060932A0308958091DB
:100F30002B0383FF0DC082FF03C060932A03089533
:100F400043E157E06CE271E080E090E00E94F21330
:100F5000089580912603909127038A30910509F422
:100F60006BC088F48430910589F130F481309105AB
:100F700009F1029729F166C08630910509F450C045
:100F8000089751F15FC08032910591F138F48C30AF
:100F9000910509F44BC0409729F154C08038910560
:100FA00099F1811521E09207A9F18034910509F0AA
:100FB00049C024C060E081E090E00E948607089567
:100FC00061E082E090E00E948607089562E084E09C
:100FD00090E00E948607089563E088E090E00E9418
:100FE0008607089564E080E190E00E9486070895F6
:100FF00065E080E290E00E948607089566E080E464
:1010000090E00E948607089567E080E890E00E94E3
:101010008607089568E080E091E00E9486070895C1
:1010200069E086E090E00E94860708956AE08CE01F
:1010300090E00E94860708956BE08AE090E00E94AD
:101040008607089580912B038B7F80932B0383E188
:1010500097E00E948A1408958DE080932A030E94ED
:101060006B07882321F180912603909127039093A9
:101070002903809328030E942307909327038093DA
:1010800026038230910511F0089751F48091950361
:10109000811106C080912B03886080932B0305C0CB
:1010A00080912B03877F80932B030E94A9070895CB
:1010B000559A08955D9808955D9A0895CF93DF93AA
:1010C000D82F8823D1F0C0E00E945C082FE78AE186
:1010D00096E0215080409040E1F700C000000E945F
:1010E0005A082FE78AE196E0215080409040E1F7CE
:1010F00000C00000CF5FCD13E7CFDF91CF910895FF
:1011000081E00E94DD120E9458080E9419070E9487
:10111000AA140E949D110E940018789408950E94BC
:101120002307049721F00E94BE11843089F484E0E3
:1011300090E0909329038093280390932703809352
:101140002603809333038093360381E080939203D8
:1011500008950E94800885E493E00E94680683E772
:1011600093E00E9494120E948F0888E993E00E9405
:10117000BC120E9454090E942C080E94F0120E9486
:1011800073120E9440110E94260D0E94F8060E94D0
:101190005C0E80913903811108C080914203811156
:1011A00004C080914103882331F38FE19EE40197CD
:1011B000F1F700C000000E947116DDCF662399F0A0
:1011C000FC01208131812417350779F0329620E027
:1011D00005C0819191918417950749F02F5F2613DF
:1011E000F8CF80E0089580E0089581E0089581E0DF
:1011F0000895CF93DF93EC01AC0162E08DE193E0C1
:101200000E94DE08882319F01092750327C0AE01F2
:1012100061E08BE193E00E94DE08882321F081E009
:10122000809375031BC0AE0161E089E193E00E94E9
:10123000DE08882321F082E0809375030FC0AE01A1
:1012400062E085E193E00E94DE08882321F083E0DC
:101250008093750303C085E080937503DF91CF9180
:10126000089580917503823099F028F4882341F025
:10127000813051F00895833079F0853089F00895F8
:1012800081E00E945E08089581E00E945E08089552
:1012900086E00E945E08089580E10E945E0808953D
:1012A00084E30E945E0808952FEF84E39CE02150C0
:1012B00080409040E1F700C0000088E00E945E0896
:1012C0000E94AF052FE789EA93E0215080409040CB
:1012D000E1F700C0000085E493E00E94DD060E9473
:1012E0003E060E94F9080E9431090E945C08809124
:1012F0007503853089F00E9493052FE788E391E01C
:10130000215080409040E1F700C0000085E493E068
:101310000E94DD060E94CB058FE00E9485042FE726
:1013200088E391E0215080409040E1F700C0000048
:101330008FE00E94C6042FE788E391E021508040AF
:101340009040E1F700C0000080919203882339F1BA
:1013500080917503823010F471E001C075E061E0A6
:1013600082E090E00E9496032FE788E391E021500D
:1013700080409040E1F700C0000081E00E948E169E
:101380008AE00E945E0881E00E9485042FE788E3DE
:1013900091E0215080409040E1F700C00000809132
:1013A0007503823020F491E09093810303C095E0AF
:1013B00090938103853021F48EE08093800303C0F5
:1013C0008AE0809380036091800370918103809113
:1013D0008203909183030E9496032FE788E391E0B4
:1013E000215080409040E1F700C0000080918003D0
:1013F0000E94C6042FE788E391E02150804090408E
:10140000E1F700C000000E945A080E94F1012FE796
:1014100088E391E0215080409040E1F700C0000057
:101420000E945B052FE788E391E0215080409040C7
:10143000E1F700C0000085E493E00E94DD060E9411
:10144000480680937803809379030E9477052FE7FD
:1014500088E391E0215080409040E1F700C0000017
:1014600085E493E00E94DD060E94580680937A038B
:1014700080937B038FE39CE90197F1F700C00000A4
:101480000E947B019FE728E381E09150204080404B
:10149000E1F700C000000E945C080E940B010E945E
:1014A000B9019FE728E381E0915020408040E1F7B7
:1014B00000C000000E9407059FE728E381E09150EB
:1014C00020408040E1F700C000000E94BB0082E0A5
:1014D0000E945E080E943F059FE729EA83E0915041
:1014E00020408040E1F700C0000085E493E00E94C6
:1014F000DD060E941906909389038093880308955E
:10150000409186035091870380917503682F617025
:1015100070E080E5869FF001879FF00D1124EB5865
:10152000FD4F808191818417950738F580E5869F6E
:10153000F001879FF00D1124E958FD4F81E02191C2
:1015400031912417350720F48F5F8832C1F717C017
:1015500098E2969FF001979FF00D1124E80FF11D7E
:10156000EE0FFF1FEB58FD4F208131812417350707
:10157000B9F08823A9F08150089580E0089598E299
:10158000969FF001979FF00D1124E80FF11DEE0FCB
:10159000FF1FEB58FD4F208131812417350759F784
:1015A000089580918503882319F08130E9F14BC0BB
:1015B0000E94990181E08093850380919603982F82
:1015C0009D7F11F0843029F4EFE8F3E080818062A0
:1015D0008083EFE8F3E080818160808381E0809305
:1015E0008E032FE788E391E0215080409040E1F79F
:1015F00000C000000E943F052FE788E391E02150E2
:1016000080409040E1F700C0000085E493E00E9434
:10161000DD060E941906E8E8F3E080839183929545
:101620009F7090937E030FC00E947B0110928503F0
:10163000EFE8F3E0908181E080938E039F799160E1
:1016400090838093410381E08093420308958091C9
:101650008E03882341F010928E03EFE8F3E080813F
:10166000887F808308C081E080938E03EFE8F3E0F9
:1016700080818760808381E080934203809193031F
:10168000811104C080919403882319F081E0809334
:10169000410308950F931F93CF93DF938091970396
:1016A00081115CC080918503882321F0813009F489
:1016B0004DC071C08091950381110DC010928A03B5
:1016C00080917C03882309F466C0815080937C0359
:1016D0000E94BB0032C00E9423052FE789EA93E0F5
:1016E000215080409040E1F700C0000085E493E085
:1016F0000E94DD060E94F4058C019093870380937D
:1017000086030E94800A80937C0380917503817018
:10171000C82F20E0D22F80E58C9FF0018D9FF00D27
:101720001124EB58FD4F808191818017910728F497
:101730000E949F0081E080938B0381E080934203AD
:10174000EFE8F3E080818160808325C00E9443013F
:1017500081E080938A03809342031DC0823069F444
:10176000809178038230B8F08150809378030E9492
:101770000D0281E0809341030EC0833061F48091BB
:101780007A03823040F0815080937A030E943202C3
:1017900081E080934103DF91CF911F910F910895D4
:1017A0000F931F93CF93DF938091970381115CC0B8
:1017B00080918503882321F0813009F44DC071C0E8
:1017C0008091950381110DC010928C0380917C0350
:1017D000873208F066C08F5F80937C030E94BB0055
:1017E00032C00E9423052FE789EA93E02150804010
:1017F0009040E1F700C0000085E493E00E94DD0620
:101800000E94F4058C0190938703809386030E94C5
:10181000800A80937C03809175038170C82F20E03B
:10182000D22F80E58C9FF0018D9FF00D1124ED5398
:10183000FD4F808191810817190728F40E948300C9
:1018400081E080938D0381E080934203EFE8F3E031
:1018500080818160808325C00E945F0181E0809348
:101860008C03809342031DC0823069F48091780319
:101870008F3FB9F08F5F809378030E940D0281E063
:10188000809341030EC0833061F480917A038F3FCF
:1018900041F08F5F80937A030E94320281E080934F
:1018A0004103DF91CF911F910F9108958091900393
:1018B000882319F01092900303C081E08093900375
:1018C00081E080934103089580919703811146C080
:1018D00083E00E945E0881E0809397030E94D50117
:1018E0000E945B052FEF80E792E0215080409040FE
:1018F000E1F700C0000085E493E00E94DD060E944D
:101900004806809378030E9477052FEF80E792E0E6
:10191000215080409040E1F700C0000085E493E052
:101920000E94DD060E94580680937A036091780336
:1019300080E090E00E947D182FEF81EE94E021502E
:1019400080409040E1F700C0000060917A0381E0A0
:1019500090E00E947D1881E0809342030895809179
:101960009703811148C083E00E945E0882E0809363
:1019700097030E94F1010E945B052FEF80E792E040
:10198000215080409040E1F700C0000085E493E0E2
:101990000E94DD060E944806809378030E94770526
:1019A0002FEF80E792E0215080409040E1F700C0A7
:1019B000000085E493E00E94DD060E9458068093B3
:1019C0007A036091780380E090E00E947D182FEF09
:1019D00082E597E0215080409040E1F700C0000090
:1019E00060917A0381E090E00E947D1881E080930D
:1019F0004203809341030895809197038230C1F0A0
:101A00008330E9F0811121C083E00E945E0880915B
:101A10009503811104C081E08093950308950E948D
:101A2000670010928D0310928B0310929503089516
:101A300083E00E945E0883E080939703089583E02B
:101A40000E945E0882E0809397030895209124030A
:101A5000222321F01092240331E009C020912203B7
:101A6000222321F01092220331E001C030E02091C6
:101A70008503213009F0AEC020918A03211105C0F1
:101A800020918C03222309F4A5C031110DC080914F
:101A90008803909189038115904B08F44CC0809184
:101AA0008C03882309F447C080917C03833038F489
:101AB0008FEC97E00197F1F700C000002DC0843053
:101AC00050F49FE728E381E0915020408040E1F707
:101AD00000C0000021C0873050F49FEF23EF81E069
:101AE000915020408040E1F700C0000015C08A30CE
:101AF00050F49FEF21EE84E0915020408040E1F7C8
:101B000000C0000009C09FE72BE888E0915020400A
:101B10008040E1F700C000000E94270110928A0374
:101B200010928C039FE728E381E091502040804091
:101B3000E1F700C000000E943F059FE729EA83E02B
:101B4000915020408040E1F700C0000085E493E020
:101B50000E94DD060E9419069093890380938803F2
:101B600020912D0330912E038217930789F09093D3
:101B70002E0380932D0310922C0380918F0386FFF8
:101B800018C08F7B80938F0381E08093410311C045
:101B900080912C038F5F80932C03823050F08091D2
:101BA0008F0386FD06C0806480938F0381E080935D
:101BB00041038091890382958F7080937E03909179
:101BC0007F03981721F081E08093420308951092DB
:101BD0004203089520919503213009F06CC0409193
:101BE0008D03411105C020918B03222309F463C0AA
:101BF000311118C020917503822F817090E020E58B
:101C0000289FF001299FF00D1124ED53FD4F2091E5
:101C1000860330918703808191812817390740F12D
:101C2000442331F18091750381110AC09FE728E3B5
:101C300081E0915020408040E1F700C0000009C0E1
:101C40009FE729EA83E0915020408040E1F700C0FF
:101C500000000E94670010928D0310928B039FE793
:101C600028E381E0915020408040E1F700C000006F
:101C70000E9423059FE729EA83E09150204080409D
:101C8000E1F700C0000085E493E00E94DD060E94B9
:101C9000F40590938703809386030E94800A8093C3
:101CA0007C0390917D03891721F081E080934203AA
:101CB000089510924203089580919703813049F569
:101CC0000E945B052FE788E391E02150804090401F
:101CD000E1F700C0000085E493E00E94DD060E9469
:101CE0004806809378030E9477052FE788E391E008
:101CF000215080409040E1F700C0000085E493E06F
:101D00000E94DD060E94580680937A0381E080934A
:101D1000410308950E94D2022FEF80E792E0215004
:101D200080409040E1F700C000000E9457021092EE
:101D3000930308950E94730281E08093930380933C
:101D40008E03EFE8F3E090819360908380934203E9
:101D500008950E94EE0282E08093930381E08093D5
:101D60008E03EFE8F3E090819360908380934203C9
:101D7000089581EC0E940D0281E08093940380938A
:101D80008E03EFE8F3E090819560908380934203A7
:101D900080917503853049F42FEF80E792E0215060
:101DA00080409040E1F700C00000089588EA0E945A
:101DB0000D0282E08093940381E080938E03EFE82C
:101DC000F3E0908195609083809342038091750346
:101DD000853049F42FEF80E792E021508040904019
:101DE000E1F700C00000089588E70E940D0283E03B
:101DF0008093940381E080938E03EFE8F3E0908179
:101E0000956090838093420380917503853049F4F7
:101E10002FEF80E792E0215080409040E1F700C032
:101E2000000008950F931F93CF93DF93CDB7DEB7D4
:101E300064970FB6F894DEBF0FBECDBF8AE0E7E52A
:101E4000F2E0DE01119601900D928A95E1F78AE0A9
:101E5000E1E6F2E0DE011B9601900D928A95E1F732
:101E60000E94F1011092970308E713E0F8018081C6
:101E70000E940D02F801608180E090E00E947D18D0
:101E8000FFEF21EE84E0F15020408040E1F700C0F8
:101E900000000AE713E0F80180810E943202F80195
:101EA000608181E090E00E947D1800E813E0BE01AF
:101EB000655F7F4FF80180810E94DD03BE01655F91
:101EC0007F4FF80180810E943104FFEF21EE84E012
:101ED000F15020408040E1F700C000000E947A03EA
:101EE0008091750381110AC09FEFE5EEFAEA9150E7
:101EF000E040F040E1F700C0000009C02FEF83EDA3
:101F000090E3215080409040E1F700C00000BE0106
:101F10006F5F7F4F809180030E94DD03EFEFF3ED51
:101F200020E3E150F0402040E1F700C00000BE0196
:101F3000655F7F4F809180030E94DD0364960FB63A
:101F4000F894DEBF0FBECDBFDF91CF911F910F91EF
:101F5000089580919703811117C080919103882380
:101F600029F00E94B602109291030AC00E949A02C0
:101F700081E080939103EFE8F3E0808188608083C3
:101F800081E08093420308950E94120F0895CF9339
:101F90000E94F1011092970380E090E00E94751872
:101FA000C82F8093780381E090E00E947518809399
:101FB0007A038C2F0E940D022FEF80E792E02150D0
:101FC00080409040E1F700C0000080917A030E94B9
:101FD000320281E080934203809341032FEF80E738
:101FE00092E0215080409040E1F700C00000CF9186
:101FF00008958091970381112AC0809194038111E3
:1020000011C080919303813039F018F0823039F09B
:102010001AC00E949A0E17C00E94A90E14C00E94F6
:102020008A0E11C0809179030E940D0210929403D0
:10203000109293032FEF80E792E021508040904070
:10204000E1F700C0000081E08093410308950E9401
:10205000C70F08958091970381111AC0809193034F
:1020600081110E948A0E80919403813041F020F00A
:10207000823041F0833041F40E94B90E05C00E94C5
:10208000D60E02C00E94F40E81E0809341030895B1
:102090000E94C70F08951F93CF93DF930E944203BE
:1020A00083E08093960311E010938E03EFE8F3E052
:1020B00080818F7D816180831093900382E0809383
:1020C0008203C0E8D3E088810E94850418831093BE
:1020D000810310938303688179818A819B810E94A7
:1020E00096032FEF80E792E0215080409040E1F787
:1020F00000C00000809180030E94C604DF91CF9150
:102100001F910895CF93DF930E945E0384E0809334
:10211000960310928E03EFE8F3E080818E7E808339
:1021200010929003C0E8D3E088810E9485048AE081
:10213000888381E0809381038093820310928303DC
:10214000688179818A819B810E9496032FEF80E7C5
:1021500092E0215080409040E1F700C00000809163
:1021600080030E94C604DF91CF9108951F93CF93FF
:10217000DF930E940A0311E01093960310938E03DD
:10218000EFE8F3E080818F7D81618083109390037D
:1021900082E080938203C0E8D3E088810E948504B6
:1021A00018831093810310938303688179818A8156
:1021B0009B810E9496032FEF80E792E021508040A0
:1021C0009040E1F700C00000809180030E94C604A7
:1021D000DF91CF911F910895CF93DF930E94260343
:1021E00082E08093960310928E03EFE8F3E0808103
:1021F0008E7E808310929003C0E8D3E088810E9495
:1022000085048AE0888381E0809381038093820340
:1022100010928303688179818A819B810E94960351
:102220002FEF80E792E0215080409040E1F700C01E
:102230000000809180030E94C604DF91CF91089531
:1022400080919603823059F028F4882341F0813040
:1022500079F010C0833031F0843039F00BC00E9427
:102260004B1008C00E94821005C00E94B61002C028
:102270000E94EC1081E08093420380934103089513
:1022800080912A0390E08C30910540F5FC01EC5CD4
:10229000FF4F0C945B180E94D10A20C00E944A0B89
:1022A0001DC00E94270B1AC00E94D00B17C00E94AD
:1022B000560C14C00E94F90F11C00E942A100EC0C3
:1022C0000E94A90F0BC00E94201108C00E94640C3C
:1022D00005C00E94AF0C02C00E94FC0C8091340328
:1022E00090E088309105E0F4FC01E05CFF4F0C9435
:1022F0005B180E94D10A08950E944A0B08950E941B
:10230000270B08950E94D00B08950E94560C089543
:102310000E94F90F08950E942A1008950E94A90FA3
:1023200008958091350381608093350308958091ED
:102330003503846080933503089588B18F6188B92F
:1023400087B117B8089580913503282F2270982FF0
:102350009370933079F021110FC082608093350320
:1023600041E951E16AE070E080E090E00E9452149F
:1023700080E0089581E0089580E0089596B194FF8B
:1023800048C09F70993069F080913203882329F00A
:102390001092320381E080933103963061F180E046
:1023A00001C082E020913003222329F010923003F3
:1023B00021E020932F03933079F028F49130A1F09D
:1023C000923081F012C0983029F09C3039F094306E
:1023D00039F00BC0816009C0846007C0806105C00E
:1023E000806203C0806401C0806881FF05C091E005
:1023F0009093320301C088E083FF03C091E0909383
:102400003003882339F0909135039C7F90933503F6
:10241000089580E008952091360390913303922728
:10242000892319F06093340308958091350383FF65
:1024300010C082FF06C0609334038B7F8093350306
:10244000089547E951E16CE271E080E090E00E947C
:10245000F213089580913603883011F138F48230F8
:10246000A9F08430C1F08130A1F50BC0803211F1A8
:1024700018F48031D1F02DC0803409F1803821F179
:1024800028C060E081E00E940B12089561E082E0C4
:102490000E940B12089562E084E00E940B120895DE
:1024A00063E088E00E940B12089564E080E10E94DE
:1024B0000B12089565E080E20E940B12089566E019
:1024C00080E40E940B12089567E080E80E940B12DE
:1024D0000895809135038B7F8093350387E991E1DF
:1024E0000E948A1408958DE0809334030E94A31102
:1024F0008823C9F080913603809333030E94BE1174
:1025000080933603823011F0883031F480913503A6
:1025100088608093350305C080913503877F809361
:1025200035030E942A120895FC011182108280E076
:1025300090E7948383831582178287E081871286D0
:10254000138688E0848781E08787108A8EE0818BFC
:10255000128A148A138A168A158A178A108E118E87
:10256000128E138E148E158E168E178E10A211A237
:1025700012A213A214A20895DC01FC0180E09BE1E9
:1025800091938F5F8A30E1F786E08C9382E0119619
:102590008C9311978BE112968C93129787E0139688
:1025A0008C93139783E014968C93149781E01A967A
:1025B0008C931A971B961C920895813081F488E1C0
:1025C0009CEF9093850080938400EFE6F0E080819B
:1025D00081608083E1E8F0E08081826080830895FB
:1025E000CF92DF92EF92FF920F931F93CF93DF93DF
:1025F000C4EAD3E00EEC13E0CC24CA94DC2CE12C2A
:10260000F12C88819981AA81BB81892B8A2B8B2B04
:1026100049F4C882D982EA82FB8210923A03EC81A3
:10262000FD8109952696C017D10759F7DF91CF9103
:102630001F910F91FF90EF90DF90CF900895CF936F
:10264000DF93E4EAF3E02EEC33E080819181A28114
:10265000B3818F3F4FEF9407A105B10559F0009763
:10266000A105B10539F00197A109B10980839183D2
:10267000A283B3833696E217F30739F7DF91CF9140
:1026800008951F920F920FB60F9211242F933F932C
:102690004F935F936F937F938F939F93AF93BF936A
:1026A000EF93FF9388E19CEF9093850080938400E3
:1026B00080919003882309F45CC080913B03909142
:1026C0003C03A0913D03B0913E03BC01CD016F5F7F
:1026D0007F4F8F4F9F4F60933B0370933C038093DA
:1026E0003D0390933E0328EE33E040E050E00E942B
:1026F0003918672B682B692B09F047C081E080935C
:10270000390310923B0310923C0310923D03109248
:102710003E03809137038F5F8093370380913703A7
:1027200099E8899F912D11249295969597702CE3A5
:10273000929F80191124811128C081E08093390370
:1027400010923703809138038F5F80933803809114
:10275000380399E8899F912D112492959695977049
:102760002CE3929F8019112481110FC0109238031D
:102770000CC010923B0310923C0310923D03109248
:102780003E0310923703109238034C9B09C080918E
:102790002503882329F01092250381E080932403E8
:1027A000359B09C080912303882329F010922303CD
:1027B00081E08093220380913A03811102C00E943C
:1027C0001F13FF91EF91BF91AF919F918F917F91D7
:1027D0006F915F914F913F912F910F900FBE0F908E
:1027E0001F901895CF92DF92EF92FF920F931F9355
:1027F000CF93DF93E4EAF3E02EEC33E0C080D180A6
:10280000E280F380AFEFCA16DA06E104F10429F0A2
:10281000A481B581A417B507E1F13696E217F30755
:1028200069F70091A4031091A5032091A6033091AC
:10283000A7030F3F1F4F2105310581F0EAEAF3E0BE
:1028400021E030E0E901C080D180E280F380AFEF89
:10285000CA16DA06E104F104B1F402C0C0E0D0E027
:102860009E01220F331FF901EC0FFD1FEE0FFF1F1A
:10287000EC55FC4F608371838283938310923A03FB
:102880005583448306C02F5F3F4F3696273031056E
:10289000C9F6DF91CF911F910F91FF90EF90DF90DC
:1028A000CF900895CF92DF92EF92FF92CF93DF9374
:1028B000E4EAF3E020E030E0E901C080D180E2808A
:1028C000F380AFEFCA16DA06E104F104A1F0A481A7
:1028D000B581A417B50779F4220F331FC20FD31F98
:1028E000CC0FDD1FCC55DC4F688379838A839B83B3
:1028F00010923A0308C02F5F3F4F369627303105BC
:10290000D9F60E94F213DF91CF91FF90EF90DF9004
:10291000CF900895CF93DF93C0913A03E4EAF3E0B8
:10292000AEECB3E04FEF5FEF60E070E0D0E0248109
:1029300035812817390729F44083518362837383D3
:10294000CD2F3696EA17FB0791F7C0933A03DF9134
:10295000CF910895E4EAF3E02EEC33E08FEF9FEFA0
:10296000A0E0B0E080839183A283B3833696E21720
:10297000F307C1F70895CF93DF93CDB7DEB72A975A
:102980000FB6F894DEBF0FBECDBF8AE0EBE6F2E0F3
:10299000DE01119601900D928A95E1F780918E03E8
:1029A0008823E1F080918F0380FF18C020917C0381
:1029B000822F90E0019637E13A836AE070E00E944E
:1029C00025187727FB01E95BFD4F30813B83FC0134
:1029D000E95BFD4F80818C8320937D03809185038B
:1029E0008130A1F480918F0385FF10C08CE08E832D
:1029F00085E08F838FE4888780917E03E82FF0E065
:102A0000E95BFD4F9081998780937F0380919103CB
:102A1000882369F080918F0383FF09C082E18E8350
:102A200083E18F8388E088878BE089878A8780911C
:102A30009703813081F486E189839AE49A831B822B
:102A400093E09C8399E09D839FE49E831F8293E1A2
:102A50009887898713C08250823080F486E1898309
:102A60008AE48A831B8283E08C8389E08D838FE4F0
:102A70008E838CE08F8318868DE08987BE016F5F1F
:102A80007F4F809180030E94DD032A960FB6F89451
:102A9000DEBF0FBECDBFDF91CF910895CF93DF93FF
:102AA000CDB7DEB72A970FB6F894DEBF0FBECDBF05
:102AB0008AE0EBE6F2E0DE01119601900D928A9534
:102AC000E1F780918503813059F480918F038076FE
:102AD000803631F484E08A838DE08B8383E08C83BD
:102AE00080918E03882339F180918F0381FFEBC0A1
:102AF00080919303813031F485E08A831B828BE1DE
:102B00008C83E1C0823009F0DEC085E08A8381E0F9
:102B10008B838BE18C83D7C0E09194038FEF8E0F72
:102B2000833048F486E08A83F0E0E95BFD4F8081E2
:102B30008B838BE18C8380919003882309F442C0BE
:102B400080919103811108C08091380380934003E4
:102B50008091370380933F03E09140038DECE89F21
:102B6000912D1124969596959695A92FB0E0A95B85
:102B7000BD4F2C912E83990F292F220F220F920FD8
:102B8000E91BF0E0E95BFD4F90819F839AE4988711
:102B9000E0913F03E89F812D1124869586958695C7
:102BA000A82FB0E0A95BBD4F9C919987880F982F03
:102BB000990F990F890FE81BF0E0E95BFD4F8081C9
:102BC0008A8704C01092400310923F0380919703BC
:102BD000882309F468C081E189833AE43A83E0916B
:102BE000780329E2E29FA12D1124A295AF70B0E0F5
:102BF000A95BBD4F8C918B838DECE89F912D1124A7
:102C0000969596959695989F412D112446954695B3
:102C10004695440F542F550F550F450FA92FA41B50
:102C2000B0E0A95BBD4F4C914C83990F492F440FE5
:102C3000440F940FE91BF0E0E95BFD4F90819D8309
:102C400091E09E833F83E0917A03E29F212D11243E
:102C500022952F70A22FB0E0A95BBD4F9C91988761
:102C6000E89F912D1124969596959695989F812D84
:102C70001124869586958695880F282F220F220F7E
:102C8000820FA92FA81BB0E0A95BBD4F8C9189874B
:102C9000990F892F880F880F980FE91BF0E0E95BE7
:102CA000FD4F80818A8780914103811104C080910A
:102CB000910381110DC0BE016F5F7F4F8091800332
:102CC0000E94310405C080918F0382FD25CF33CF50
:102CD0002A960FB6F894DEBF0FBECDBFDF91CF911D
:102CE000089580914203882351F0109242030E947C
:102CF000BB148FE19EE40197F1F700C000008091C2
:102D00003903811104C080914103882331F00E946E
:102D10004E15109239031092410308951F93CF93DB
:102D2000DF93CDB7DEB72A970FB6F894DEBF0FBE9C
:102D3000CDBF182F8AE0EBE6F2E0DE01119601909C
:102D40000D928A95E1F768E973E0812F0E94DD0317
:102D50002FEF80E792E0215080409040E1F700C0E3
:102D6000000085E18B83A091A203EDECAE9FE12DE5
:102D70001124E695E695E6958E2F880F982F990FEA
:102D8000990F890FA81BEE2339F0F0E0E95BFD4FA6
:102D900080818C8384E001C083E0E1E0F0E0EC0F0F
:102DA000FD1FE80FF11DB0E0A95BBD4F9C91908322
:102DB00091E0980FE1E0F0E0EC0FFD1FE90FF11D4D
:102DC0009CE490839091A30322E0280FE1E0F0E0DF
:102DD000EC0FFD1FE20FF11D2DEC929F212D112410
:102DE000269526952695A22FB0E0A95BBD4F3C9174
:102DF000308333E0380FE1E0F0E0EC0FFD1FE30F2C
:102E0000F11D220F322F330F330F230F921BA92FE7
:102E1000B0E0A95BBD4F9C91908325E0280F94E022
:102E2000980FE1E0F0E0EC0FFD1FE90FF11D9BE1D1
:102E3000908390917503923081F128F4992349F0A1
:102E40009130C9F05EC09330C9F1953009F448C0A3
:102E500058C0E1E0F0E0EC0FFD1FE20FF11D91E240
:102E600090838A5FE1E0F0E0EC0FFD1FE80FF11DB9
:102E700085E2808346C0E1E0F0E0EC0FFD1FE20F49
:102E8000F11D9EE190838A5FE1E0F0E0EC0FFD1F11
:102E9000E80FF11D87E2808334C0E1E0F0E0EC0F41
:102EA000FD1FE20FF11D90E290838A5FE1E0F0E008
:102EB000EC0FFD1FE80FF11D908323C0E1E0F0E06F
:102EC000EC0FFD1FE20FF11D93E290838A5FE1E0BA
:102ED000F0E0EC0FFD1FE80FF11D80E2808311C0D0
:102EE000E1E0F0E0EC0FFD1FE20FF11D94E29083B2
:102EF0008A5FE1E0F0E0EC0FFD1FE80FF11D82E2D8
:102F00008083BE016F5F7F4F812F0E9431042A961C
:102F10000FB6F894DEBF0FBECDBFDF91CF911F91EA
:102F200008951F920F920FB60F9211242F933F9383
:102F30004F935F936F937F938F939F93AF93BF93C1
:102F4000EF93FF938091C6008093EE038091EE0390
:102F5000803919F08F3F59F027C081E080934403F6
:102F60009091EE039093CE03809343032DC0809104
:102F70004403882349F1E091430321E02E0F20937D
:102F800043038091EE03F0E0E253FC4F8083109204
:102F900044038091CF0380934A034EEC53E065E4F1
:102FA00073E00E949E0610C080914403882361F064
:102FB000E091430381E08E0F809343038091EE0301
:102FC000F0E0E253FC4F8083FF91EF91BF91AF910E
:102FD0009F918F917F916F915F914F913F912F9131
:102FE0000F900FBE0F901F9018959093C50080937F
:102FF000C40088E98093C10086E08093C2000895F0
:1030000083E390E00E94F5170895E0ECF0E09081F2
:1030100095FFFDCF8093C60008950F931F93CF9324
:10302000DF93EC01062F662359F010E089910E948E
:10303000051885E38A95F1F700001F5F1013F6CF9E
:10304000DF91CF911F910F91089597FB072E16F4F2
:10305000009407D077FD09D00E94611807FC05D0C5
:103060003EF4909581959F4F0895709561957F4F9F
:103070000895A1E21A2EAA1BBB1BFD010DC0AA1FB9
:10308000BB1FEE1FFF1FA217B307E407F50720F0D1
:10309000A21BB30BE40BF50B661F771F881F991F4C
:1030A0001A9469F760957095809590959B01AC0195
:1030B000BD01CF010895EE0FFF1F0590F491E02DA3
:1030C0000994AA1BBB1B51E107C0AA1FBB1FA6176F
:1030D000B70710F0A61BB70B881F991F5A95A9F7C1
:1030E00080959095BC01CD010895F999FECF92BDD0
:1030F00081BDF89A992780B50895262FF999FECFBA
:103100001FBA92BD81BD20BD0FB6F894FA9AF99A04
:0A3110000FBE01960895F894FFCF5A
:10311A0081090002FF81090422FF81090444FF8119
:10312A00090443FF81090448FF81090447FF81011B
:10313A000424560001FF8101047420FF81010474F4
:10314A0010FF81010473301B1B1B1B1B1B1B1B1B4A
:10315A001BFF81010473201B1B1B1B1B1B1B1B1B3F
:10316A001BFF810104731000000000000000000032
:10317A0000FF8101047402FF8101047400FF8101D0
:10318A000473021B1B1B1B1B1B1B1B1B1BFF81012D
:10319A000473011B1B1B1B1B1B1B1B1B1BFF81011E
:1031AA0004730000000000000000000000FF81011D
:1031BA00043F017FFF8101046103FF810104610271
:1031CA00FF8101046603FF8101046602FF81010495
:1031DA006304FF8101046300FF8101046203FF812C
:1031EA0001046202FF8101044200000000FF810124
:1031FA00040200FF8101044400000000FF81010471
:10320A004300000000FF8101043505FF81010435F8
:10321A0004FF8101045700FF8101043803FF810183
:10322A00043802FF8101040833FF8101040823FFE7
:10323A008101040800FF8101040602FF810104479D
:10324A0000000000FF8101040733FF810104072306
:10325A00FF8101040700FF271E1F202122232425A6
:10326A002600010203040512001504031B1B1B1B85
:10327A001B1B1B1B1B1B1B1B1B1B1B1B1B1B1B1B94
:10328A001B1B1B1B1B00005118BE22F628452D864E
:10329A0030203349351E37B338123A423B473C2572
:1032AA003DDF3D7B3EFB3E643FBA3F0040064400A3
:1032BA0047084A004DE84F8A5227548055D0560095
:1032CA00582059305A385B365C305D305E265F20B4
:1032DA00601861006200006018C0220029502D9019
:1032EA00302033503540373039E03A103C303D20F9
:1032FA003EF03EA03F404180448047704A004D80E6
:10330A004FB051A05330558056A057A058905970CD
:10331A005A305B005CA05C865D505E005FA05F4037
:10332A0060206100625F0466046504500457045912
:02333A0004008D
:00000001FF
