:100000000C9454000C9471000C9471000C947100C9
:100010000C9471000C9471000C9471000C9471009C
:100020000C9471000C9471000C9471000C9471008C
:100030000C9471000C9464140C9471000C94710075
:100040000C9471000C9471000C9442180C94710083
:100050000C9471000C9471000C9471000C9471005C
:100060000C9471000C9471005F1262126512681298
:100070006B126E127412711277127A127D12801244
:100080008D1290129312961299129C12A2129F1224
:10009000EA12E8120113E612F112E212F112E01272
:1000A000EC12F112F112E41211241FBECFEFD4E0D2
:1000B000DEBFCDBF13E0A0E0B1E0E0EDF2E302C0AF
:1000C00005900D92A434B107D9F724E0A4E4B3E07D
:1000D00001C01D92AE31B207E1F70E94B5080C9441
:1000E00066190C9400008EE2E8E6F3E0DF01982F39
:1000F0001D929A95E9F7DF011D928A95E9F784E34D
:1001000092E09183808386E080936A0381E080930C
:100110006B0366E084E392E00E94BE1808958EE2CD
:10012000E8E6F3E0DF01982F1D929A95E9F7DF01E9
:100130001D928A95E9F78EE292E09183808386E0B2
:1001400080936A0381E080936B0366E08EE292E025
:100150000E94BE1808958EE2E8E6F3E0DF01982FD2
:100160001D929A95E9F7DF011D928A95E9F788E2D9
:1001700092E09183808386E080936A0381E080939C
:100180006B0366E088E292E00E94BE180895CF9368
:10019000DF932EE2A8E6B3E0ED01E22F1992EA9593
:1001A000E9F7EFE1F2E0ED0119922A95E9F7ED9315
:1001B000FC9329E020936A0321E020936B032091B4
:1001C0009803822F817090E020919F0334E3389F41
:1001D000D001399FB00D1124A20FB11DAA0FBB1F72
:1001E000A859BD4F8D919C9111979093AA0380932C
:1001F000A9039C012227307F232F22952F7024836F
:100200009C0122273F703583807F992792958295A4
:100210008F7089279F70892786838C918F70878341
:1002200069E0CF010E94BE18DF91CF9108958EE260
:10023000E8E6F3E0DF01982F1D929A95E9F7DF01D8
:100240001D928A95E9F789E192E09183808386E0A7
:1002500080936A0381E080936B0366E089E192E01A
:100260000E94BE1808958EE2E8E6F3E0DF01982FC1
:100270001D929A95E9F7DF011D928A95E9F783E1CE
:1002800092E09183808386E080936A0381E080938B
:100290006B0366E083E192E00E94BE1808958EE24F
:1002A000E8E6F3E0DF01982F1D929A95E9F7DF0168
:1002B0001D928A95E9F78DE092E09183808386E034
:1002C00080936A0381E080936B0366E08DE092E0A7
:1002D0000E94BE1808958EE2E8E6F3E0DF01982F51
:1002E0001D929A95E9F7DF011D928A95E9F787E05B
:1002F00092E09183808386E080936A0381E080931B
:100300006B0366E087E092E00E94BE1808958EE2DB
:10031000E8E6F3E0DF01982F1D929A95E9F7DF01F7
:100320001D928A95E9F781E092E09183808386E0CF
:1003300080936A0381E080936B0366E081E092E042
:100340000E94BE181092A8030895CF938EE2E8E6AB
:10035000F3E0DF01982F1D929A95E9F7C1E0DF01E4
:100360001D928A95E9F78BEF91E09183808386E077
:1003700080936A03C0936B0366E08BEF91E00E9469
:10038000BE18C093A803CF910895CF93DF932EE2B8
:10039000A8E6B3E0ED01E22F1992EA95E9F7E2EF62
:1003A000F1E0ED0119922A95E9F7ED93FC9329E02C
:1003B00020936A0321E020936B039C012227307F66
:1003C000232F22952F7024839C0122273F70358391
:1003D0009C01207F3327329522952F7023273F7071
:1003E000232726838F70878369E0CF010E94BE1880
:1003F000DF91CF9108958EE2E8E6F3E0DF01982FD8
:100400001D929A95E9F7DF011D928A95E9F78CEE26
:1004100091E09183808386E080936A0381E08093FA
:100420006B0366E08CEE91E00E94BE1808958EE2A8
:10043000E8E6F3E0DF01982F1D929A95E9F7DF01D6
:100440001D928A95E9F786EE91E09183808386E09C
:1004500080936A0381E080936B0366E086EE91E00F
:100460000E94BE1808958EE2E8E6F3E0DF01982FBF
:100470001D929A95E9F7DF011D928A95E9F780EEC2
:1004800091E09183808386E080936A0381E080938A
:100490006B0366E080EE91E00E94BE180895CF9352
:1004A000DF939EE2A8E6B3E0ED01E92F1992EA9509
:1004B000E9F7E7EDF1E0ED0119929A95E9F7ED938F
:1004C000FC9399E090936A0391E090936B03982FCB
:1004D00092959F7096838F70878369E0CF010E9409
:1004E000BE18DF91CF910895CF93DF939EE2A8E6E7
:1004F000B3E0ED01E92F1992EA95E9F7EEECF1E0AE
:10050000ED0119929A95E9F7ED93FC9399E0909398
:100510006A0391E090936B03982F92959F70968356
:100520008F70878369E0CF010E94BE18DF91CF9161
:1005300008958EE2E8E6F3E0DF01982F1D929A9588
:10054000E9F7DF011D928A95E9F788EC91E0918344
:10055000808386E080936A0381E080936B0366E08A
:1005600088EC91E00E94BE1808958EE2E8E6F3E080
:10057000DF01982F1D929A95E9F7DF011D928A9568
:10058000E9F782EC91E09183808386E080936A03AF
:1005900081E080936B0366E082EC91E00E94BE18DC
:1005A00008958EE2E8E6F3E0DF01982F1D929A9518
:1005B000E9F7DF011D928A95E9F78CEB91E09183D1
:1005C000808386E080936A0381E080936B0366E01A
:1005D0008CEB91E00E94BE1808958EE2E8E6F3E00D
:1005E000DF01982F1D929A95E9F7DF011D928A95F8
:1005F000E9F786EB91E09183808386E080936A033C
:1006000081E080936B0366E086EB91E00E94BE1868
:1006100008958EE2E8E6F3E0DF01982F1D929A95A7
:10062000E9F7DF011D928A95E9F780EB91E091836C
:10063000808386E080936A0381E080936B0366E0A9
:1006400080EB91E00E94BE1808958EE2E8E6F3E0A8
:10065000DF01982F1D929A95E9F7DF011D928A9587
:10066000E9F78AEA91E09183808386E080936A03C8
:1006700081E080936B0366E08AEA91E00E94BE18F5
:1006800008958EE2E8E6F3E0DF01982F1D929A9537
:10069000E9F7DF011D928A95E9F783EA91E09183FA
:1006A000808387E080936A0381E080936B0367E037
:1006B00083EA91E00E94BE180895CF93DF932091C2
:1006C00098032230C8F42EE2E8E6F3E0DF01C22FFF
:1006D0001D92CA95E9F7A3E9B1E0EF0119922A95B5
:1006E000E9F7B183A08320E120936A0321E02093FE
:1006F0006B0315966C9319C02EE2E8E6F3E0DF0178
:10070000C22F1D92CA95E9F7A7E5B1E0EF01199252
:100710002A95E9F7B183A08320E120936A0321E0C1
:1007200020936B03606114966C93E0916803F091E1
:10073000690376838783908760916A03CF010E9463
:10074000BE18DF91CF910895CF93DF9390919803D6
:100750009230B8F48EE2E8E6F3E0DF01C82F1D9294
:10076000CA95E9F7DF011D928A95E9F783E891E0E0
:100770009183808380E180936A0381E080936B039F
:100780002FC09EE2E8E6F3E0EF01292F19922A95A7
:10079000E9F7A7E4B1E0EF0119929A95E9F7B1837F
:1007A000A08390E190936A0391E090936B03806241
:1007B00014968C9315C02191A0916803B0916903A0
:1007C000A80FB91F2C9301968F309105A1F7609166
:1007D0006A0380916803909169030E94BE1805C066
:1007E000E62FF72F85E090E0E6CFDF91CF910895D7
:1007F000CF93DF93909198039230B8F48EE2E8E6BD
:10080000F3E0DF01C82F1D92CA95E9F7DF011D92C1
:100810008A95E9F783E791E09183808380E1809373
:100820006A0381E080936B032FC09EE2E8E6F3E069
:10083000EF01292F19922A95E9F7A7E3B1E0EF011B
:1008400019929A95E9F7B183A08390E190936A0396
:1008500091E090936B03806314968C9315C0219163
:10086000A0916803B0916903A80FB91F2C9301965A
:100870008F309105A1F760916A0380916803909190
:1008800069030E94BE1805C0E62FF72F85E090E0AF
:10089000E6CFDF91CF910895CF93DF9390919803A6
:1008A0009230B8F48EE2E8E6F3E0DF01C82F1D9243
:1008B000CA95E9F7DF011D928A95E9F78DE691E087
:1008C0009183808386E080936A0381E080936B0349
:1008D00019C09EE2E8E6F3E0EF01292F19922A956C
:1008E000E9F7A1E3B1E0EF0119929A95E9F7B18335
:1008F000A08396E090936A0391E090936B038061EC
:1009000014968C9360916A038091680390916903B7
:100910000E94BE18DF91CF910895CF93DF939091FD
:1009200098039230B8F48EE2E8E6F3E0DF01C82FD6
:100930001D92CA95E9F7DF011D928A95E9F787E6CE
:1009400091E09183808386E080936A0381E08093C5
:100950006B0319C09EE2E8E6F3E0EF01292F19923C
:100960002A95E9F7ABE2B1E0EF0119929A95E9F720
:10097000B183A08396E090936A0391E090936B0318
:10098000806214968C9360916A03809168039091C1
:1009900069030E94BE18DF91CF9108958EE2E8E6C8
:1009A000F3E0DF01982F1D929A95E9F7DF011D9280
:1009B0008A95E9F783E291E09183808388E08093D0
:1009C0006A0381E080936B0368E083E291E00E9418
:1009D000BE1808958EE2E8E6F3E0DF01982F1D923D
:1009E0009A95E9F7DF011D928A95E9F78EE191E08A
:1009F0009183808385E080936A0389E080936B0311
:100A000065E08EE191E00E94BE1808958EE2E8E66E
:100A1000F3E0DF01982F1D929A95E9F7DF011D920F
:100A20008A95E9F789E191E09183808385E080935D
:100A30006A0389E080936B0365E089E191E00E949D
:100A4000BE1808958EE2E8E6F3E0DF01982F1D92CC
:100A50009A95E9F7DF011D928A95E9F784E191E023
:100A60009183808385E080936A0389E080936B03A0
:100A700065E084E191E00E94BE1808958EE2E8E608
:100A8000F3E0DF01982F1D929A95E9F7DF011D929F
:100A90008A95E9F78FE091E09183808385E08093E8
:100AA0006A0389E080936B0365E08FE091E00E9428
:100AB000BE1808958EE2E8E6F3E0DF01982F1D925C
:100AC0009A95E9F7DF011D928A95E9F78AE091E0AE
:100AD0009183808385E080936A0389E080936B0330
:100AE00065E08AE091E00E94BE1808958EE2E8E693
:100AF000F3E0DF01982F1D929A95E9F7DF011D922F
:100B00008A95E9F785E091E09183808385E0809381
:100B10006A0389E080936B0365E085E091E00E94C1
:100B2000BE1808958EE2E8E6F3E0DF01982F1D92EB
:100B30009A95E9F7DF011D928A95E9F780E091E047
:100B40009183808385E080936A0389E080936B03BF
:100B500065E080E091E00E94BE18089580919503C1
:100B60008430F1F4209185032F7030E0322F22275A
:100B70003295307F809186038F7090E0982F882780
:100B8000820F931F209188032F70820F911D209157
:100B900087032F7030E1239F800D911D112402C027
:100BA00080E090E09093970380939603089580915E
:100BB00095038430F1F4209185032F7030E0322FBB
:100BC00022273295307F809186038F7090E0982F96
:100BD0008827820F931F209188032F70820F911D09
:100BE000209187032F7030E1239F800D911D1124E8
:100BF000089580E090E00895809195038430F1F4A9
:100C0000209185032F7030E0322F22273295307FDC
:100C1000809186038F7090E0982F8827820F931F12
:100C2000209188032F70820F911D209187032F70D0
:100C300030E1239F800D911D1124089580E090E004
:100C400008958091870390E0982F8827209188034A
:100C5000820F911D089580919503843051F49091F5
:100C60008703809188038F7020E1929F800D11246B
:100C7000089580E0089580919503843051F4909117
:100C80008703809188038F7020E1929F800D11244B
:100C9000089580E00895DC0111961C921E92129630
:100CA0001C9212978FEF13968C93139792E01496E1
:100CB0009C93149715968C93159716961C921697DD
:100CC00017961C92179718961C921897FD01399643
:100CD00080E111928150E9F759961C9259975A96E2
:100CE0001C925A975B961C925B975C961C925C9741
:100CF000FD017D9611928F5F8031E1F79D961C92E8
:100D00000895807F803541F0803619F08034B9F540
:100D100006C0211126C030C0211112C01EC02223DE
:100D200061F0FA0180E090E03191DB01A80FB91F7A
:100D300016963C9301968217B8F3FB01148208952E
:100D4000FA01DB0119964F5F5F4F2150420F511D91
:100D500081918D93E417F507D9F781E0FB01848336
:100D60000895942FDB015996E42FF52F81918D93EF
:100D70008E2F891B8217D0F381E0FB0184830895B5
:100D8000CF93DF93EC018B858F3F59F480E007C050
:100D900091919F3F21F08F5F9D938E30C9F78DA772
:100DA00007C08D8FFE013C96DE015E9681E0F0CF9C
:100DB000DF91CF9108950E9422052FE789EA93E001
:100DC000215080409040E1F700C0000088E693E0A9
:100DD0000E94C0060E94FC05089580916C0381303A
:100DE00081F480916B03893049F480916D038075A3
:100DF000803521F488E693E00E94C00682E080936B
:100E00006C03089580914D03816080934D03089594
:100E100080914D03846080934D03089588E384B9E5
:100E20008FEF85B917B888B99AEE9AB98BB908953A
:100E300035E080E090E023B156B149B122230CF0B7
:100E4000816044FF826022FF846055FF886026FF36
:100E5000806142FF806220FF806421FF8068EFE1B3
:100E6000FEE43197F1F700C00000315021F781FF17
:100E700003C021E02093470383FF03C021E02093B8
:100E80004503009729F020914D032C7F20934D03BB
:100E9000089580914D03282F2270982F93709330DE
:100EA00079F021110FC0826080934D0342E057E03A
:100EB00064E670E080E090E00E948F1580E0089585
:100EC00081E0089580E0089520914803309149031E
:100ED00040914A0350914B03422753278423952383
:100EE000892B19F060934C03089580914D0383FF83
:100EF0002BC082FF21C08091A8038130D1F4223021
:100F0000310551F48091AD0381111EC081E08093C1
:100F1000AD0360934C03089528303105A9F4809106
:100F2000AF03811111C081E08093AF0360934C0344
:100F3000089560934C03089548E057E06CE271E037
:100F400080E090E00E942F150895809148039091D1
:100F500049038A30910509F46BC088F48430910507
:100F600089F130F48130910509F1029729F166C0C9
:100F70008630910509F450C0089751F15FC0803266
:100F8000910591F138F48C30910509F44BC04097EC
:100F900029F154C08038910599F1811521E092071B
:100FA000A9F18034910509F049C024C060E081E0D6
:100FB00090E00E946407089561E082E090E00E9462
:100FC0006407089562E084E090E00E946407089559
:100FD00063E088E090E00E946407089564E080E1A7
:100FE00090E00E946407089565E080E290E00E942E
:100FF0006407089566E080E490E00E946407089525
:1010000067E080E890E00E946407089568E080E06F
:1010100091E00E946407089569E086E090E00E94F4
:10102000640708956AE08CE090E00E9464070895E8
:101030006BE08AE090E00E946407089580914D0380
:101040008B7F80934D0388E097E00E94C715089539
:101050008DE080934C030E944907882341F18091E1
:1010600048039091490390934B0380934A030E9455
:10107000180790934903809348038230910511F03B
:10108000089771F48091B803882321F08091A80318
:10109000813031F480914D03886080934D0305C009
:1010A00080914D03877F80934D030E94A50708958B
:1010B000559A08955D9808955D9A0895CF93DF93AA
:1010C000D82F8823D1F0C0E00E945C082FE78AE186
:1010D00096E0215080409040E1F700C000000E945F
:1010E0005A082FE78AE196E0215080409040E1F7CE
:1010F00000C00000CF5FCD13E7CFDF91CF910895FF
:101100002D9A08952C9A08952D9808952C98089555
:1011100081E00E9400140E9458080E940E070E945D
:1011200084080E9482080E94E7150E94B1120E9462
:10113000B118789408950E941807049721F00E942E
:10114000D212843071F484E090E090934B0380934A
:101150004A039093490380934803809355038093F7
:10116000580381E08093B50308950E94880888E6BB
:1011700093E00E944B0686E993E00E94AE130E9422
:101180009B088DEB93E00E94D6130E949D090E945C
:1011900028080E9413140E9485130E9454120E9472
:1011A0002D0E0E94ED060E946F0F80915C0381114D
:1011B00008C080916503811104C080916403882375
:1011C00031F38FE19EE40197F1F700C000000E9427
:1011D000AE17DDCF662399F0FC0120813181241701
:1011E000350779F0329620E005C0819191918417FE
:1011F000950749F02F5F2613F8CF80E0089580E02F
:10120000089581E0089581E00895CF92DF92EF92F2
:10121000FF92CF93DF936B017C01CB01880F991F65
:10122000880F991F880F991F8C0D9D1D8254914026
:101230008C9DE0018D9DD00D9C9DD00D1124CA5236
:10124000DF4EA7019601C701B6010E94D6189B0187
:10125000AC01C701B6010E94D61828EE33E040E089
:1012600050E00E94FA1868EA6203C001639F900D83
:1012700011248C0F9D1FDF91CF91FF90EF90DF9095
:10128000CF900895CF93DF93EC01AC0162E080E44E
:1012900093E00E94EA08882319F01092980327C06F
:1012A000AE0161E08EE393E00E94EA08882321F01A
:1012B00081E0809398031BC0AE0161E08CE393E072
:1012C0000E94EA08882321F082E0809398030FC0EF
:1012D000AE0162E088E393E00E94EA08882321F0EF
:1012E00083E08093980303C085E080939803DF91A7
:1012F000CF91089580919803823099F028F4882343
:1013000041F0813051F00895833079F0853089F0D3
:10131000089581E00E945E08089581E00E945E08C1
:10132000089586E00E945E08089580E10E945E08AC
:10133000089584E30E945E080895CF930E94800878
:101340002FEF84E39CE0215080409040E1F700C003
:10135000000088E00E945E080E9492052FE789EA5B
:1013600093E0215080409040E1F700C000000E94CF
:10137000840888E693E00E94C0060E9421060E942D
:1013800042090E947A090E945C0880919803853086
:1013900089F00E9476052FE788E391E02150804094
:1013A0009040E1F700C0000088E693E00E94C0068C
:1013B0000E94AE058FE00E944C042FE788E391E085
:1013C000215080409040E1F700C000008FE00E9473
:1013D0008D042FE788E391E0215080409040E1F7B1
:1013E00000C000008091B503882309F446C08091B5
:1013F0009803823010F4C1E001C0C7E061E07C2FA7
:1014000082E090E00E945D032FE788E391E02150A5
:1014100080409040E1F700C0000062E07C2F82E055
:1014200090E00E945D032FE788E391E02150804027
:101430009040E1F700C0000081E00E94CB178AE0F5
:101440000E945E0884E00E945E0881E00E944C04D5
:101450002FE788E391E0215080409040E1F700C001
:10146000000082E00E944C042FE788E391E02150C5
:1014700080409040E1F700C00000809198038230E6
:1014800020F491E09093A40303C095E09093A4030B
:10149000853021F48EE08093A30303C081E0809324
:1014A000A3036091A3037091A4038091A50390917D
:1014B000A6030E945D032FE788E391E0215080405E
:1014C0009040E1F700C000008091A3030E948D04CA
:1014D0002FE788E391E0215080409040E1F700C081
:1014E00000000E945A080E9433022FE788E391E02F
:1014F000215080409040E1F700C000000E943E056E
:101500002FE788E391E0215080409040E1F700C050
:10151000000088E693E00E94C0060E942B0680939C
:101520009B0380939C030E945A052FE788E391E078
:10153000215080409040E1F700C0000088E693E031
:101540000E94C0060E943B0680939D0380939E03E9
:101550008FE39CE90197F1F700C000000E9487012A
:101560009FE728E381E0915020408040E1F700C0F0
:1015700000000E945C080E9417010E94FB019FE787
:1015800028E381E0915020408040E1F700C0000056
:101590000E94CE049FE728E381E0915020408040E4
:1015A000E1F700C000000E94C70082E00E945E08D0
:1015B0000E9406059FE729EA83E091502040804081
:1015C000E1F700C0000088E693E00E94C0060E9498
:1015D000FC059093AC038093AB03CF9108954091A9
:1015E000A9035091AA0380919803682F617070E05D
:1015F00088E6869FF001879FF00D1124E859FD4F82
:10160000808191818417950738F588E6869FF001DF
:10161000879FF00D1124E659FD4F81E02191319112
:101620002417350720F48F5F8433C1F717C094E384
:10163000969FF001979FF00D1124E80FF11DEE0F1A
:10164000FF1FE859FD4F2081318124173507B9F07C
:101650008823A9F08150089580E0089594E3969F2F
:10166000F001979FF00D1124E80FF11DEE0FFF1F01
:10167000E859FD4F208131812417350759F7089526
:101680008091A803882321F0813009F443C051C020
:101690000E94A50181E08093A8038091B903982F4F
:1016A0009D7F11F0843029F4E2EBF3E080818062C9
:1016B0008083E2EBF3E080818160808381E080932E
:1016C000B1032FE788E391E0215080409040E1F79B
:1016D00000C000000E9406052FE788E391E021503A
:1016E00080409040E1F700C0000088E693E00E944F
:1016F000C0060E94FC05EBEAF3E08083918392959B
:101700009F709093A1030E94DB069093BC0380938B
:10171000BB030FC00E9487011092A803E2EBF3E025
:10172000908181E08093B1039F7991609083809351
:10173000640381E08093650308958091B103882359
:1017400041F01092B103E2EBF3E08081887F808367
:1017500008C081E08093B103E2EBF3E08081876011
:10176000808381E0809365038091B603811104C07A
:101770008091B703882319F081E080936403089572
:101780000F931F93CF93DF938091BA038111A4C06D
:101790008091A803882321F0813009F44DC0B9C09D
:1017A0008091B80381110DC01092AD0380919F0309
:1017B000882309F4AEC0815080939F030E94C70024
:1017C00032C00E94EA042FE739EA83E0215030401A
:1017D0008040E1F700C0000088E693E00E94C00668
:1017E0000E94D7058C019093AA038093A9030E94BD
:1017F000EF0A80939F03809198038170C82F90E037
:10180000D92F88E68C9FF0018D9FF00D1124E859A7
:10181000FD4F808191818017910728F40E94AB00D1
:1018200081E08093AE0381E080936503E2EBF3E017
:101830008081816080836DC08091AD03882319F021
:101840000E944F0143C00E9406052FEF30E782E05F
:10185000215030408040E1F700C0000088E693E06E
:101860000E94C0060E94FC05EC0160919F0370E09D
:101870006F5F7F4F882777FD8095982F0E9405091D
:101880009E01281B390BC901CBEAD3E03983288399
:101890000E94C501888199818130904160F480E087
:1018A00090E19093AC038093AB03E2EBF3E0808193
:1018B0008064808305C0E2EBF3E080818F7B8083CE
:1018C0008091AC0382958F708093A10381E0809317
:1018D0006503809364031DC0823069F480919B038B
:1018E0008230B8F0815080939B030E944F0281E0C8
:1018F000809364030EC0833061F480919D03823035
:1019000040F0815080939D030E94740281E0809397
:101910006403DF91CF911F910F9108950F931F934F
:10192000CF93DF938091BA038111A5C08091A80362
:10193000882321F0813009F44DC0BAC08091B803EA
:1019400081110DC01092AF0380919F03833308F083
:10195000AFC08F5F80939F030E94C70032C00E9478
:10196000EA042FE789EA93E0215080409040E1F7B4
:1019700000C0000088E693E00E94C0060E94D705E0
:101980008C019093AA038093A9030E94EF0A80938D
:101990009F03809198038170C82F20E0D22F88E6A2
:1019A0008C9FF0018D9FF00D1124E253FD4F80813B
:1019B00091810817190728F40E948F0081E0809315
:1019C000B00381E080936503E2EBF3E08081816006
:1019D00080836EC08091AF03882319F00E946B0151
:1019E00044C00E9406058FEF90E722E081509040AE
:1019F0002040E1F700C0000088E693E00E94C006A6
:101A00000E94FC05EC0160919F0370E06F5F7F4FC7
:101A1000882777FD8095982F0E9405098C0F9D1FC0
:101A20009093AC038093AB032091BB033091BC0334
:101A30008217930750F03093AC032093AB03E2EB93
:101A4000F3E080818064808305C0E2EBF3E0808175
:101A50008F7B8083CBEAD3E0888199810E94C50186
:101A6000898182958F708093A10381E080936503C3
:101A7000809364031DC0823069F480919B038F3F83
:101A8000B9F08F5F80939B030E944F0281E08093A7
:101A900064030EC0833061F480919D038F3F41F059
:101AA0008F5F80939D030E94740281E080936403A2
:101AB000DF91CF911F910F9108958091B3038823F7
:101AC00019F01092B30303C081E08093B30381E067
:101AD0008093640308958091BA03811146C083E026
:101AE0000E945E0881E08093BA030E9417020E9460
:101AF0003E052FEF80E792E0215080409040E1F7D3
:101B000000C0000088E693E00E94C0060E942B06F9
:101B100080939B030E945A052FEF80E792E02150AB
:101B200080409040E1F700C0000088E693E00E940A
:101B3000C0060E943B0680939D0360919B0380E05A
:101B400090E00E9458192FEF81EE94E021508040E0
:101B50009040E1F700C0000060919D0381E090E0BB
:101B60000E94581981E08093650308958091BA031B
:101B7000811148C083E00E945E0882E08093BA032E
:101B80000E9433020E943E052FEF80E792E0215031
:101B900080409040E1F700C0000088E693E00E949A
:101BA000C0060E942B0680939B030E945A052FEFCC
:101BB00080E792E0215080409040E1F700C00000B3
:101BC00088E693E00E94C0060E943B0680939D0336
:101BD00060919B0380E090E00E9458192FEF82E50E
:101BE00097E0215080409040E1F700C000006091F4
:101BF0009D0381E090E00E94581981E08093650385
:101C00008093640308958091BA038230C1F08330D9
:101C1000E9F0811121C083E00E945E088091B80341
:101C2000811104C081E08093B80308950E9473007D
:101C30001092B0031092AE031092B803089583E09F
:101C40000E945E0883E08093BA03089583E00E94B7
:101C50005E0882E08093BA03089520914603211123
:101C600004C020915303222331F0109246031092B6
:101C7000530331E00FC020914403211104C020918F
:101C80005103222331F0109244031092510331E0AA
:101C900001C030E02091A803213009F0AEC02091AE
:101CA000AD03211105C02091AF03222309F4A5C083
:101CB00031110DC08091AB039091AC038115904B15
:101CC00008F44CC08091AF03882309F447C0809189
:101CD0009F03833038F48FEC97E00197F1F700C051
:101CE00000002DC0843050F49FE728E381E091503C
:101CF00020408040E1F700C0000021C0873050F450
:101D00009FEF23EF81E0915020408040E1F700C039
:101D1000000015C08A3050F49FEF21EE84E091500E
:101D200020408040E1F700C0000009C09FE72BE899
:101D300088E0915020408040E1F700C000000E9400
:101D400033011092AD031092AF039FE728E381E0C7
:101D5000915020408040E1F700C000000E9406053D
:101D60009FE729EA83E0915020408040E1F700C0DE
:101D7000000088E693E00E94C0060E94FC05909354
:101D8000AC038093AB0320914F0330915003821733
:101D9000930789F09093500380934F0310924E0362
:101DA0008091B20386FF18C08F7B8093B20381E0DD
:101DB0008093640311C080914E038F5F80934E0324
:101DC000823050F08091B20386FD06C0806480931B
:101DD000B20381E0809364038091AC0382958F709D
:101DE0008093A1039091A203981721F081E0809342
:101DF000650308951092650308952091B80321307A
:101E000009F06CC04091B003411105C02091AE03B0
:101E1000222309F463C0311118C020919803822F46
:101E2000817090E028E6289FF001299FF00D112491
:101E3000E253FD4F2091A9033091AA038081918143
:101E40002817390740F1442331F18091980381111B
:101E50000AC09FE728E381E0915020408040E1F7ED
:101E600000C0000009C09FE729EA83E091502040AC
:101E70008040E1F700C000000E9473001092B003A0
:101E80001092AE039FE728E381E09150204080400C
:101E9000E1F700C000000E94EA049FE729EA83E01E
:101EA000915020408040E1F700C0000088E693E0B8
:101EB0000E94C0060E94D7059093AA038093A903AD
:101EC0000E94EF0A80939F039091A003891721F04D
:101ED00081E08093650308951092650308958091D1
:101EE000BA03813049F50E943E052FE788E391E06F
:101EF000215080409040E1F700C0000088E693E068
:101F00000E94C0060E942B0680939B030E945A05E4
:101F10002FE788E391E0215080409040E1F700C036
:101F2000000088E693E00E94C0060E943B06809372
:101F30009D0381E080936403089580919D030E9436
:101F400074021092B603089588EC0E94740281E036
:101F50008093B6038093B103E2EBF3E0908193604A
:101F6000908380936503089586EE0E94740282E058
:101F70008093B60381E08093B103E2EBF3E09081BC
:101F80009360908380936503089581EC0E944F02D3
:101F900081E08093B7038093B103E2EBF3E090819B
:101FA000956090838093650380919803853049F410
:101FB0002FEF80E792E0215080409040E1F700C091
:101FC0000000089588EA0E944F0282E08093B703E0
:101FD00081E08093B103E2EBF3E090819560908320
:101FE0008093650380919803853049F42FEF80E753
:101FF00092E0215080409040E1F700C00000089539
:1020000088E70E944F0283E08093B70381E08093CA
:10201000B103E2EBF3E090819560908380936503D8
:1020200080919803853049F42FEF80E792E02150AA
:1020300080409040E1F700C0000008950F931F9387
:10204000CF93DF93CDB7DEB764970FB6F894DEBFBA
:102050000FBECDBF8AE0EAE4F2E0DE011196019006
:102060000D928A95E1F78AE0E4E5F2E0DE011B9645
:1020700001900D928A95E1F70E9433021092BA0303
:102080000BE913E0F80180810E944F02F8016081A2
:1020900080E090E00E945819FFEF21EE84E0F150BB
:1020A00020408040E1F700C000000DE913E0F80196
:1020B00080810E947402F801608181E090E00E94BA
:1020C000581903EA13E0BE01655F7F4FF801808174
:1020D0000E94A403BE01655F7F4FF80180810E94CA
:1020E000F803FFEF21EE84E0F15020408040E1F75B
:1020F00000C000000E9441038091980381110AC032
:102100009FEFE5EEFAEA9150E040F040E1F700C0C1
:10211000000009C02FEF83ED90E3215080409040F4
:10212000E1F700C00000BE016F5F7F4F8091A30305
:102130000E94A403EFEFF3ED20E3E150F0402040D4
:10214000E1F700C00000BE01655F7F4F8091A303EF
:102150000E94A40364960FB6F894DEBF0FBECDBFF5
:10216000DF91CF911F910F9108958091BA03811152
:1021700017C08091B403882329F00E94B502109201
:10218000B4030AC00E94990281E08093B403E2EB99
:10219000F3E080818860808381E080936503089507
:1021A0000E941E100895CF930E9433021092BA032A
:1021B00080E090E00E945019C82F80939B0381E03B
:1021C00090E00E94501980939D038C2F0E944F0233
:1021D0002FEF80E792E0215080409040E1F700C06F
:1021E000000080919D030E94740281E0809365034A
:1021F000809364032FEF80E792E02150804090406D
:10220000E1F700C00000CF9108958091BA038111D9
:1022100032C08091B703811119C08091B60381301B
:1022200049F018F0823059F022C00E94A40F0E9499
:1022300080081DC00E94B40F0E94860818C00E942A
:102240009D0F0E9482080E94840811C080919C0307
:102250000E944F021092B7031092B6032FEF80E74F
:1022600092E0215080409040E1F700C0000081E002
:102270008093640308950E94D31008958091BA0357
:1022800081111AC08091B60381110E949D0F809127
:10229000B703813041F020F0823041F0833041F4C7
:1022A0000E94C50F05C00E94E20F02C00E940010EC
:1022B00081E08093640308950E94D31008951F93D2
:1022C000CF93DF930E94090383E08093B90311E069
:1022D0001093B103E2EBF3E080818F7D8161808315
:1022E0001093B30382E08093A503C3EAD3E088810F
:1022F0000E944C0418831093A4031093A6036881D2
:1023000079818A819B810E945D032FEF80E792E0B3
:10231000215080409040E1F700C000008091A3036D
:102320000E948D04DF91CF911F910895CF93DF9389
:102330000E94250384E08093B9031092B103E2EB7D
:10234000F3E080818E7E80831092B303C3EAD3E0F2
:1023500088810E944C048AE0888381E08093A403F2
:102360008093A5031092A603688179818A819B815D
:102370000E945D032FEF80E792E021508040904063
:10238000E1F700C000008091A3030E948D04DF915B
:10239000CF9108951F93CF93DF930E94D10211E054
:1023A0001093B9031093B103E2EBF3E080818F7DCA
:1023B000816180831093B30382E08093A503C3EA15
:1023C000D3E088810E944C0418831093A4031093D7
:1023D000A603688179818A819B810E945D032FEF2A
:1023E00080E792E0215080409040E1F700C000007B
:1023F0008091A3030E948D04DF91CF911F910895D6
:10240000CF93DF930E94ED0282E08093B903109294
:10241000B103E2EBF3E080818E7E80831092B30300
:10242000C3EAD3E088810E944C048AE0888381E07B
:102430008093A4038093A5031092A60368817981F9
:102440008A819B810E945D032FEF80E792E02150FB
:1024500080409040E1F700C000008091A3030E94FB
:102460008D04DF91CF9108958091B903823059F0A6
:1024700028F4882341F0813079F010C0833031F0A6
:10248000843039F00BC00E945F1108C00E94961181
:1024900005C00E94CA1102C00E94001281E0809310
:1024A000650380936403089580914C0390E08C3021
:1024B000910540F5FC01EC5CFF4F0C941C190E9447
:1024C000400B20C00E94C00B1DC00E949D0B1AC073
:1024D0000E948E0C17C00E945D0D14C00E94051151
:1024E00011C00E943E110EC00E94B5100BC00E9488
:1024F000341208C00E946B0D05C00E94B60D02C0C8
:102500000E94030E8091560390E088309105E0F41C
:10251000FC01E05CFF4F0C941C190E94400B0895D5
:102520000E94C00B08950E949D0B08950E948E0C7E
:1025300008950E945D0D08950E94051108950E945E
:102540003E1108950E94B51008958091570381604F
:1025500080935703089580915703846080935703B5
:10256000089588B18F6188B987B117B808958091AF
:102570005703282F2270982F9370933079F02111F0
:102580000FC082608093570345EA52E16AE070E031
:1025900080E090E00E948F1580E0089581E008952A
:1025A00080E0089586B184FF2AC08F7090E0FC011E
:1025B0003197EC30F105A8F4E85BFF4F0C941C193F
:1025C00081E010C088E00EC080E10CC080E20AC04B
:1025D00080E408C080E806C081E08093540382E074
:1025E00006C080E083FF03C091E0909352038823EC
:1025F00051F0909157039C7F90935703089580E08A
:10260000F1CF84E0EFCF08959091580320915503C6
:102610002927822319F06093560308958091570368
:1026200083FF29C082FF1FC08091A8038130C1F4BD
:10263000923051F48091AD0381111DC081E08093EF
:10264000AD036093560308959830A9F48091AF03C9
:10265000811111C081E08093AF0360935603089508
:102660006093560308954BEA52E16CE271E080E01A
:1026700090E00E942F15089580915803883011F141
:1026800038F48230A9F08430C1F08130A1F50BC05C
:10269000803211F118F48031D1F02DC0803409F16D
:1026A000803821F128C060E081E00E940413089581
:1026B00061E082E00E940413089562E084E00E94D9
:1026C0000413089563E088E00E940413089564E011
:1026D00080E10E940413089565E080E20E940413E3
:1026E000089566E080E40E940413089567E080E89E
:1026F0000E9404130895809157038B7F80935703A2
:102700008BEA92E10E94C71508958DE080935603ED
:102710000E94B712882309F18091580380935503D2
:102720000E94D21280935803823011F0883071F4E5
:102730008091B803882321F08091A803813031F47F
:102740008091570388608093570305C08091570399
:10275000877F809357030E943C130895FC011182E8
:10276000108280E090E7948383831582178287E04C
:1027700081871286138688E0848781E08787108AA4
:102780009EE0918B128A148A138A168A158A178AF8
:10279000108E118E128E138E148E158E168E878FBC
:1027A00010A211A212A213A214A20895CF93DF9334
:1027B000EC01DC01FC013A9680E09BE19D93919352
:1027C0008F5F8A30D9F78CE08B8384E08C8383E041
:1027D0008D8386E08E8388E18F838DE088871A86DB
:1027E0008BE08B878FE48C878EE18D8787E28E87E5
:1027F00083E28F8781E08C8B1D8ADF91CF910895D2
:10280000813081F488E19CEF90938500809384006F
:10281000EFE6F0E0808181608083E1E8F0E0808194
:10282000826080830895CF92DF92EF92FF920F93A0
:102830001F93CF93DF93C3EDD3E00DEF13E0CC24D0
:10284000CA94DC2CE12CF12C88819981AA81BB816E
:10285000892B8A2B8B2B49F4C882D982EA82FB828E
:1028600010925D03EC81FD8109952696C017D10772
:1028700059F7DF91CF911F910F91FF90EF90DF906B
:10288000CF900895CF93DF93E3EDF3E02DEF33E0A6
:1028900080819181A281B3818F3F4FEF9407A10581
:1028A000B10559F00097A105B10539F00197A109CB
:1028B000B10980839183A283B3833696E217F3072D
:1028C00039F7DF91CF9108951F920F920FB60F92B3
:1028D00011242F933F934F935F936F937F938F9325
:1028E0009F93AF93BF93EF93FF9388E19CEF9093F7
:1028F0008500809384008091B303882309F45CC031
:1029000080915E0390915F03A0916003B091610399
:10291000BC01CD016F5F7F4F8F4F9F4F60935E0370
:1029200070935F03809360039093610328EE33E01C
:1029300040E050E00E94FA18672B682B692B09F0E1
:1029400047C081E080935C0310925E0310925F03A6
:10295000109260031092610380915A038F5F8093FD
:102960005A0380915A0399E8899F912D11249295D9
:10297000969597702CE3929F80191124811128C09D
:1029800081E080935C0310925A0380915B038F5F18
:1029900080935B0380915B0399E8899F912D1124BB
:1029A0009295969597702CE3929F8019112481112E
:1029B0000FC010925B030CC010925E0310925F0375
:1029C000109260031092610310925A0310925B03FD
:1029D0004C9B09C080914703882329F0109247033C
:1029E00081E080934603359B09C08091450388238D
:1029F00029F01092450381E08093440386B18093CF
:102A0000590384FD0FC080915403882391F01092E4
:102A1000540381E0809353030CC01092520381E071
:102A20008093510380915D03811108C00E9442147C
:102A300005C0809152038111F0CFF4CFFF91EF9147
:102A4000BF91AF919F918F917F916F915F914F91C6
:102A50003F912F910F900FBE0F901F901895CF921E
:102A6000DF92EF92FF920F931F93CF93DF93E3EDEB
:102A7000F3E02DEF33E0C080D180E280F380AFEF50
:102A8000CA16DA06E104F10429F0A481B581A4177D
:102A9000B507E1F13696E217F30769F70091D30322
:102AA0001091D4032091D5033091D6030F3F1F4FCF
:102AB0002105310581F0E9EDF3E021E030E0E901A5
:102AC000C080D180E280F380AFEFCA16DA06E1045D
:102AD000F104B1F402C0C0E0D0E09E01220F331F28
:102AE000F901EC0FFD1FEE0FFF1FED52FC4F60834D
:102AF00071838283938310925D035583448306C060
:102B00002F5F3F4F369627303105C9F6DF91CF91C1
:102B10001F910F91FF90EF90DF90CF900895CF928B
:102B2000DF92EF92FF92CF93DF93E3EDF3E020E0AB
:102B300030E0E901C080D180E280F380AFEFCA16B7
:102B4000DA06E104F104A1F0A481B581A417B50768
:102B500079F4220F331FC20FD31FCC0FDD1FCD52CC
:102B6000DC4F688379838A839B8310925D0308C05E
:102B70002F5F3F4F369627303105D9F60E942F152B
:102B8000DF91CF91FF90EF90DF90CF900895CF939A
:102B9000DF93C0915D03E3EDF3E0ADEFB3E04FEF02
:102BA0005FEF60E070E0D0E02481358128173907BD
:102BB00029F44083518362837383CD2F3696EA17BD
:102BC000FB0791F7C0935D03DF91CF910895E3ED8B
:102BD000F3E02DEF33E08FEF9FEFA0E0B0E08083D4
:102BE0009183A283B3833696E217F307C1F7089562
:102BF000CF93DF93CDB7DEB72A970FB6F894DEBF39
:102C00000FBECDBF8AE0EEE5F2E0DE011196019045
:102C10000D928A95E1F78091B1038823E1F08091CC
:102C2000B20380FF18C020919F03822F90E001968D
:102C300037E13A836AE070E00E94E6187727FB01EB
:102C4000E65CFD4F30813B83FC01E65CFD4F8081FB
:102C50008C832093A0038091A8038130A1F48091FC
:102C6000B20385FF10C08CE08E8385E08F838FE4F4
:102C700088878091A103E82FF0E0E65CFD4F90810A
:102C800099878093A2038091B403882369F080918F
:102C9000B20383FF09C082E18E8383E18F8388E0E2
:102CA00088878BE089878A878091BA03813081F495
:102CB00086E189839AE49A831B8293E09C8399E05E
:102CC0009D839FE49E831F8293E19887898713C029
:102CD0008250823080F486E189838AE48A831B8271
:102CE00083E08C8389E08D838FE48E838CE08F83F7
:102CF00018868DE08987BE016F5F7F4F8091A303A7
:102D00000E94A4032A960FB6F894DEBF0FBECDBF73
:102D1000DF91CF910895CF93DF93CDB7DEB72A9798
:102D20000FB6F894DEBF0FBECDBF8AE0EEE5F2E04D
:102D3000DE01119601900D928A95E1F78091A8032A
:102D4000813059F48091B2038076803631F484E08A
:102D50008A838DE08B8383E08C838091B103882309
:102D600039F18091B20381FFEBC08091B6038130CD
:102D700031F485E08A831B828BE18C83E1C0823051
:102D800009F0DEC085E08A8381E08B838BE18C8350
:102D9000D7C0E091B7038FEF8E0F833048F486E001
:102DA0008A83F0E0E65CFD4F80818B838BE18C832E
:102DB0008091B303882309F442C08091B403811148
:102DC00008C080915B038093630380915A038093D2
:102DD0006203E09163038DECE89F912D1124969599
:102DE00096959695A92FB0E0A65CBD4F2C912E83A9
:102DF000990F292F220F220F920FE91BF0E0E65CBA
:102E0000FD4F90819F839AE49887E0916203E89F49
:102E1000812D1124869586958695A82FB0E0A65C15
:102E2000BD4F9C919987880F982F990F990F890F03
:102E3000E81BF0E0E65CFD4F80818A8704C01092B9
:102E40006303109262038091BA03882309F468C077
:102E500081E189833AE43A83E0919B0329E2E29F8E
:102E6000A12D1124A295AF70B0E0A65CBD4F8C914E
:102E70008B838DECE89F912D1124969596959695D0
:102E8000989F412D1124469546954695440F542F01
:102E9000550F550F450FA92FA41BB0E0A65CBD4FE1
:102EA0004C914C83990F492F440F440F940FE91B09
:102EB000F0E0E65CFD4F90819D8391E09E833F832F
:102EC000E0919D03E29F212D112422952F70A22FC6
:102ED000B0E0A65CBD4F9C919887E89F912D11248E
:102EE000969596959695989F812D11248695869511
:102EF0008695880F282F220F220F820FA92FA81B3B
:102F0000B0E0A65CBD4F8C918987990F892F880FFF
:102F1000880F980FE91BF0E0E65CFD4F80818A87FF
:102F200080916403811104C08091B40381110DC0AC
:102F3000BE016F5F7F4F8091A3030E94F80305C01D
:102F40008091B20382FD25CF33CF2A960FB6F89435
:102F5000DEBF0FBECDBFDF91CF9108958091650395
:102F6000882351F0109265030E94F8158FE19EE4CA
:102F70000197F1F700C0000080915C03811104C04B
:102F800080916403882331F00E948B1610925C03B9
:102F90001092640308951F93CF93DF93CDB7DEB7EC
:102FA0002A970FB6F894DEBF0FBECDBF182F8AE068
:102FB000EEE5F2E0DE01119601900D928A95E1F7BF
:102FC0006DEB73E0812F0E94A4032FEF80E792E066
:102FD000215080409040E1F700C0000067EC73E0B2
:102FE000812F0E94F80380919803823089F487E052
:102FF0008B8383E08C838BE18D838EE18E838CE4E5
:103000008F8381E2888780E289878CE08A8712C07B
:10301000833081F487E08B8383E08C838BE18D8325
:1030200080E28E838CE48F838FE1888784E28987B6
:103030008CE08A871F5FBE016F5F7F4F812F0E94E8
:10304000A4039BE199838FE08A8388E08B8387E1E7
:103050008C8384E08D838BE08E8382E18F839887DD
:1030600099879A87BE016F5F7F4F812F0E94F80377
:103070002A960FB6F894DEBF0FBECDBFDF91CF9179
:103080001F9108951F920F920FB60F9211242F9344
:103090003F934F935F936F937F938F939F93AF93E0
:1030A000BF93EF93FF938091C60080931D0480919E
:1030B0001D04803919F08F3F59F027C081E08093BB
:1030C000670390911D049093FD03809366032DC0C8
:1030D00080916703882349F1E091660321E02E0F78
:1030E0002093660380911D04F0E0E350FC4F808341
:1030F000109267038091FE0380936D034DEF53E0C0
:1031000068E673E00E94810610C0809167038823FF
:1031100061F0E091660381E08E0F809366038091F9
:103120001D04F0E0E350FC4F8083FF91EF91BF91CD
:10313000AF919F918F917F916F915F914F913F914F
:103140002F910F900FBE0F901F9018959093C50070
:103150008093C40088E98093C10086E08093C20018
:10316000089583E390E00E94A6180895E0ECF0E053
:10317000908195FFFDCF8093C60008950F931F9314
:10318000CF93DF93EC01062F662359F010E089916D
:103190000E94B61885E38A95F1F700001F5F1013AF
:1031A000F6CFDF91CF911F910F910895DB018F939F
:1031B0009F930E942219BF91AF91A29F800D911DF4
:1031C000A39F900DB29F900D1124089597FB072E99
:1031D00016F4009407D077FD09D00E942D1907FC42
:1031E00005D03EF4909581959F4F08957095619517
:1031F0007F4F0895A1E21A2EAA1BBB1BFD010DC033
:10320000AA1FBB1FEE1FFF1FA217B307E407F50796
:1032100020F0A21BB30BE40BF50B661F771F881F72
:10322000991F1A9469F760957095809590959B0108
:10323000AC01BD01CF010895EE0FFF1F0590F49181
:10324000E02D09940E944119A59F900DB49F900D07
:10325000A49F800D911D11240895AA1BBB1B51E151
:1032600007C0AA1FBB1FA617B70710F0A61BB70BF6
:10327000881F991F5A95A9F780959095BC01CD019B
:103280000895A29FB001B39FC001A39F700D811D3F
:103290001124911DB29F700D811D1124911D08955F
:1032A000F999FECF92BD81BDF89A992780B508950E
:1032B000262FF999FECF1FBA92BD81BD20BD0FB652
:1032C000F894FA9AF99A0FBE01960895F894FFCFF0
:1032D00081090002FF81090422FF81090444FF8162
:1032E000090443FF81090428FF81090448FF81097B
:1032F0000447FF81010424560001FF81010474206A
:10330000FF8101047410FF81010473301B1B1B1B20
:103310001B1B1B1B1B1BFF81010473201B1B1B1B87
:103320001B1B1B1B1B1BFF810104731000000000F3
:10333000000000000000FF8101047402FF8101040D
:103340007400FF81010473021B1B1B1B1B1B1B1B37
:103350001B1BFF81010473011B1B1B1B1B1B1B1B66
:103360001B1BFF810104730000000000000000002F
:103370000000FF8101043F017FFF8101046103FF21
:103380008101046102FF8101046603FF810104667B
:1033900002FF8101046203FF8101046202FF8101D7
:1033A000044400000000FF8101044300000000FF0E
:1033B0008101043505FF8101043504FF81010457B3
:1033C00000FF8101044800000000FF810104380370
:1033D000FF8101043802FF8101040832FF810104EA
:1033E0000822FF8101040800FF8101040602FF8119
:1033F00001044700000000FF8101040733FF810141
:10340000040723FF8101040700FF271E1F2021223C
:103410002324252600010203040512001504031BC2
:103420001B1B1B1B1B1B1B1B1B1B1B1B1B1B1B1BEC
:103430001B1B1B1B1B1B1B1B00000616512160289E
:10344000B52C6030D33245352737A938423A4B3B4B
:10345000853C753D4E3EF73EA03F00400644004788
:10346000084A004DE84F8A5227548055D0560058DC
:103470002059305A385B365C305D305E265F206004
:1034800018610062D0628063066490642665B96545
:103490005066006798672868B8684069D069706AA4
:1034A0000000061651216028B52C6030D332453516
:1034B0002737A938423A4B3B853C753D4E3EF73E97
:1034C000A03F004006440047084A004DE84F8A529A
:1034D00027548055D05600582059305A385B365CF6
:1034E000305D305E265F206018610062D0628063CC
:1034F000066490642665B965506600679867286819
:10350000B8684069D069706A5F0466046504500455
:0435100057045904FF
:00000001FF
