:100000000C9454000C9471000C9471000C947100C9
:100010000C9471000C9471000C9471000C9471009C
:100020000C9471000C9471000C9471000C9471008C
:100030000C9471000C9455130C9471000C94710085
:100040000C9471000C9471000C94BF170C94710007
:100050000C9471000C9471000C9471000C9471005C
:100060000C9471000C94710068116B116E11711178
:10007000741177117D117A11801183118611891104
:10008000961199119C119F11A211A511AB11A811E4
:10009000F311F1110A12EF11FA11EB11FA11E91132
:1000A000F511FA11FA11ED1111241FBECFEFD4E0B2
:1000B000DEBFCDBF13E0A0E0B1E0E6E7F1E302C0B0
:1000C00005900D92A230B107D9F723E0A2E0B3E08A
:1000D00001C01D92A03DB207E1F70E94A1080C9457
:1000E000B9180C9400008EE2E6E2F3E0DF01982FED
:1000F0001D929A95E9F7DF011D928A95E9F781E44F
:1001000092E09183808386E08093280381E080934E
:10011000290366E081E492E00E943B1808958EE294
:10012000E6E2F3E0DF01982F1D929A95E9F7DF01EF
:100130001D928A95E9F78BE392E09183808386E0B4
:100140008093280381E08093290366E08BE392E0AB
:100150000E943B1808958EE2E6E2F3E0DF01982F5B
:100160001D929A95E9F7DF011D928A95E9F785E3DB
:1001700092E09183808386E08093280381E08093DE
:10018000290366E085E392E00E943B180895CF932F
:10019000DF932EE2A6E2B3E0ED01E22F1992EA9599
:1001A000E9F7ECE2F2E0ED0119922A95E9F7ED9317
:1001B000FC9329E02093280321E020932903209138
:1001C0005603822F817090E020915D03880F991F64
:1001D00082959295907F9827807F9827820F911D16
:1001E000DC01AA0FBB1FAB58BD4F8D919C9111979D
:1001F00090936803809367039C012227307F232F0D
:1002000022952F7024839C0122273F703583807FA5
:100210009927929582958F7089279F708927868369
:100220008C918F70878369E0CF010E943B18DF912A
:10023000CF9108958EE2E6E2F3E0DF01982F1D9260
:100240009A95E9F7DF011D928A95E9F786E292E037
:100250009183808386E08093280381E08093290343
:1002600066E086E292E00E943B1808958EE2E6E2A4
:10027000F3E0DF01982F1D929A95E9F7DF011D92B7
:100280008A95E9F780E292E09183808386E080930B
:10029000280381E08093290366E080E292E00E94D7
:1002A0003B1808958EE2E6E2F3E0DF01982F1D92FD
:1002B0009A95E9F7DF011D928A95E9F78AE192E0C4
:1002C0009183808386E08093280381E080932903D3
:1002D00066E08AE192E00E943B1808958EE2E6E231
:1002E000F3E0DF01982F1D929A95E9F7DF011D9247
:1002F0008A95E9F784E192E09183808386E0809398
:10030000280381E08093290366E084E192E00E9463
:100310003B1808958EE2E6E2F3E0DF01982F1D928C
:100320009A95E9F7DF011D928A95E9F78EE092E050
:100330009183808386E08093280381E08093290362
:1003400066E08EE092E00E943B18109266030895EA
:10035000CF938EE2E6E2F3E0DF01982F1D929A95AB
:10036000E9F7C1E0DF011D928A95E9F788E092E0A4
:100370009183808386E080932803C093290366E0FD
:1003800088E092E00E943B18C0936603CF910895E5
:100390008EE2E6E2F3E0DF01982F1D929A95E9F7ED
:1003A000DF011D928A95E9F782E092E091838083D4
:1003B00086E08093280381E08093290366E082E051
:1003C00092E00E943B1808958EE2E6E2F3E0DF013E
:1003D000982F1D929A95E9F7DF011D928A95E9F70A
:1003E0008CEF91E09183808386E08093280381E005
:1003F0008093290366E08CEF91E00E943B180895FA
:100400008EE2E6E2F3E0DF01982F1D929A95E9F77C
:10041000DF011D928A95E9F786EF91E09183808351
:1004200086E08093280381E08093290366E086EFCD
:1004300091E00E943B180895CF93DF939EE2A6E2DD
:10044000B3E0ED01E92F1992EA95E9F7EDEEF1E05D
:10045000ED0119929A95E9F7ED93FC9399E0909349
:10046000280391E090932903982F92959F7096838B
:100470008F70878369E0CF010E943B18DF91CF9195
:100480000895CF93DF939EE2A6E2B3E0ED01E92F5A
:100490001992EA95E9F7E4EEF1E0ED0119929A95E7
:1004A000E9F7ED93FC9399E09093280391E0909302
:1004B0002903982F92959F7096838F70878369E0A8
:1004C000CF010E943B18DF91CF9108958EE2E6E2C2
:1004D000F3E0DF01982F1D929A95E9F7DF011D9255
:1004E0008A95E9F78EED91E09183808386E0809391
:1004F000280381E08093290366E08EED91E00E945D
:100500003B180895CF93DF938EE2A6E2B3E0ED01AE
:10051000E82F1992EA95E9F7E5EDF1E0ED0119927E
:100520008A95E9F7ED93FC9389E08093280381E0B5
:100530008093290380916503982F92959F709683ED
:100540008F70878369E0CF010E943B18DF91CF91C4
:1005500008958EE2E6E2F3E0DF01982F1D929A956E
:10056000E9F7DF011D928A95E9F78FEC91E091831D
:10057000808386E08093280381E08093290366E0EE
:100580008FEC91E00E943B1808958EE2E6E2F3E0E2
:10059000DF01982F1D929A95E9F7DF011D928A9548
:1005A000E9F789EC91E09183808386E080932803CA
:1005B00081E08093290366E089EC91E00E943B187A
:1005C00008958EE2E6E2F3E0DF01982F1D929A95FE
:1005D000E9F7DF011D928A95E9F783EC91E09183B9
:1005E000808386E08093280381E08093290366E07E
:1005F00083EC91E00E943B1808958EE2E6E2F3E07E
:10060000DF01982F1D929A95E9F7DF011D928A95D7
:10061000E9F78DEB91E09183808386E08093280356
:1006200081E08093290366E08DEB91E00E943B1806
:1006300008958EE2E6E2F3E0DF01982F1D929A958D
:10064000E9F7DF011D928A95E9F787EB91E0918345
:10065000808386E08093280381E08093290366E00D
:1006600087EB91E00E943B1808958EE2E6E2F3E00A
:10067000DF01982F1D929A95E9F7DF011D928A9567
:10068000E9F781EB91E09183808386E080932803F2
:1006900081E08093290366E081EB91E00E943B18A2
:1006A00008958EE2E6E2F3E0DF01982F1D929A951D
:1006B000E9F7DF011D928A95E9F78BEA91E09183D2
:1006C000808386E08093280381E08093290366E09D
:1006D0008BEA91E00E943B1808958EE2E6E2F3E097
:1006E000DF01982F1D929A95E9F7DF011D928A95F7
:1006F000E9F785EA91E09183808386E0809328037F
:1007000081E08093290366E085EA91E00E943B182E
:1007100008958EE2E6E2F3E0DF01982F1D929A95AC
:10072000E9F7DF011D928A95E9F78EE991E091835F
:10073000808387E08093280381E08093290367E02A
:100740008EE991E00E943B180895CF93DF932091AA
:1007500056032230C8F42EE2E6E2F3E0DF01C22FB6
:100760001D92CA95E9F7AEE8B1E0EF0119922A951A
:10077000E9F7B183A08320E12093280321E02093AF
:10078000290315966C9319C02EE2E6E2F3E0DF012F
:10079000C22F1D92CA95E9F7A2E5B1E0EF011992C7
:1007A0002A95E9F7B183A08320E12093280321E073
:1007B00020932903606114966C93E0912603F091D5
:1007C000270376838783908760912803CF010E9457
:1007D0003B18DF91CF910895CF93DF93909156030B
:1007E0009230B8F48EE2E6E2F3E0DF01C82F1D920A
:1007F000CA95E9F7DF011D928A95E9F78EE791E046
:100800009183808380E18093280381E08093290392
:100810002FC09EE2E6E2F3E0EF01292F19922A951C
:10082000E9F7A2E4B1E0EF0119929A95E9F7B183F3
:10083000A08390E19093280391E090932903806234
:1008400014968C9315C02191A0912603B091270393
:10085000A80FB91F2C9301968F309105A1F76091D5
:10086000280380912603909127030E943B1805C01E
:10087000E62FF72F85E090E0E6CFDF91CF91089546
:10088000CF93DF93909156039230B8F48EE2E6E274
:10089000F3E0DF01C82F1D92CA95E9F7DF011D9231
:1008A0008A95E9F78EE691E09183808380E18093D9
:1008B000280381E0809329032FC09EE2E6E2F3E063
:1008C000EF01292F19922A95E9F7A2E3B1E0EF0190
:1008D00019929A95E9F7B183A08390E19093280348
:1008E00091E090932903806314968C9315C0219115
:1008F000A0912603B0912703A80FB91F2C9301964E
:100900008F309105A1F76091280380912603909183
:1009100027030E943B1805C0E62FF72F85E090E0E3
:10092000E6CFDF91CF910895CF93DF939091560357
:100930009230B8F48EE2E6E2F3E0DF01C82F1D92B8
:10094000CA95E9F7DF011D928A95E9F788E691E0FB
:100950009183808386E08093280381E0809329033C
:1009600019C09EE2E6E2F3E0EF01292F19922A95E1
:10097000E9F7ACE2B1E0EF0119929A95E9F7B1839A
:10098000A08396E09093280391E0909329038061DF
:1009900014968C93609128038091260390912703ED
:1009A0000E943B18DF91CF910895CF93DF939091F0
:1009B00056039230B8F48EE2E6E2F3E0DF01C82F8E
:1009C0001D92CA95E9F7DF011D928A95E9F782E643
:1009D00091E09183808386E08093280381E0809377
:1009E000290319C09EE2E6E2F3E0EF01292F1992F4
:1009F0002A95E9F7A6E2B1E0EF0119929A95E9F795
:100A0000B183A08396E09093280391E0909329030B
:100A1000806214968C9360912803809126039091B4
:100A200027030E943B18DF91CF9108958EE2E6E202
:100A3000F3E0DF01982F1D929A95E9F7DF011D92EF
:100A40008A95E9F78EE191E09183808388E0809335
:100A5000280381E08093290368E08EE191E00E9401
:100A60003B1808958EE2E6E2F3E0DF01982F1D9235
:100A70009A95E9F7DF011D928A95E9F789E191E0FE
:100A80009183808385E08093280389E08093290304
:100A900065E089E191E00E943B1808958EE2E6E26C
:100AA000F3E0DF01982F1D929A95E9F7DF011D927F
:100AB0008A95E9F784E191E09183808385E08093D2
:100AC000280389E08093290365E084E191E00E9496
:100AD0003B1808958EE2E6E2F3E0DF01982F1D92C5
:100AE0009A95E9F7DF011D928A95E9F78FE091E089
:100AF0009183808385E08093280389E08093290394
:100B000065E08FE091E00E943B1808958EE2E6E2F6
:100B1000F3E0DF01982F1D929A95E9F7DF011D920E
:100B20008A95E9F78AE091E09183808385E080935C
:100B3000280389E08093290365E08AE091E00E9420
:100B40003B1808958EE2E6E2F3E0DF01982F1D9254
:100B50009A95E9F7DF011D928A95E9F785E091E022
:100B60009183808385E08093280389E08093290323
:100B700065E085E091E00E943B1808958EE2E6E290
:100B8000F3E0DF01982F1D929A95E9F7DF011D929E
:100B90008A95E9F780E091E09183808385E08093F6
:100BA000280389E08093290365E080E091E00E94BA
:100BB0003B180895809153038430F1F4209143034E
:100BC0002F7030E0322F22273295307F80914403FE
:100BD0008F7090E0982F8827820F931F20914603F3
:100BE0002F70820F911D209145032F7030E1239FBC
:100BF000800D911D112402C080E090E09093550378
:100C0000809354030895809153038430F1F420912C
:100C100043032F7030E0322F22273295307F8091AE
:100C200044038F7090E0982F8827820F931F2091A4
:100C300046032F70820F911D209145032F7030E1E4
:100C4000239F800D911D1124089580E090E0089568
:100C5000809153038430F1F4209143032F7030E0EE
:100C6000322F22273295307F809144038F7090E09D
:100C7000982F8827820F931F209146032F70820F91
:100C8000911D209145032F7030E1239F800D911D10
:100C90001124089580E090E008958091450390E04C
:100CA000982F882720914603820F911D08958091E7
:100CB0005303843051F490914503809146038F7023
:100CC00020E1929F800D1124089580E00895809185
:100CD0005303843051F490914503809146038F7003
:100CE00020E1929F800D1124089580E00895DC0199
:100CF00011961C921E9212961C9212978FEF1396C9
:100D00008C93139792E014969C93149715968C935A
:100D1000159716961C92169717961C921797189669
:100D20001C921897FD01399680E111928150E9F7E4
:100D300059961C9259975A961C925A975B961C92F8
:100D40005B975C961C925C97FD017D9611928F5F7C
:100D50008031E1F79D961C920895807F803541F0A7
:100D6000803619F08034B9F506C0211126C030C094
:100D7000211112C01EC0222361F0FA0180E090E030
:100D80003191DB01A80FB91F16963C93019682178B
:100D9000B8F3FB0114820895FA01DB0119964F5F45
:100DA0005F4F2150420F511D81918D93E417F5073C
:100DB000D9F781E0FB0184830895942FDB015996D4
:100DC000E42FF52F81918D938E2F891B8217D0F3FD
:100DD00081E0FB0184830895CF93DF93EC018B8541
:100DE0008F3F59F480E007C091919F3F21F08F5FC2
:100DF0009D938E30C9F78DA707C08D8FFE013C965D
:100E0000DE015E9681E0F0CFDF91CF910895809171
:100E10002A03813081F480912903893049F480913B
:100E20002B038075803521F486E293E00E94EC0666
:100E300082E080932A03089580910B038160809360
:100E40000B03089580910B03846080930B03089536
:100E500088E284B98FEF85B917B888B99AEE9AB944
:100E60008BB9089535E080E090E023B156B149B1E7
:100E700022230CF0816044FF826022FF846055FFD2
:100E8000886026FF806142FF806220FF806421FF2E
:100E90008068EFE1FEE43197F1F700C000003150C7
:100EA00021F781FF03C021E02093050383FF03C0E6
:100EB00021E020930303009729F020910B032C7F5E
:100EC00020930B03089580910B03282F2270982FF5
:100ED0009370933079F021110FC0826080930B03DF
:100EE0004CE157E064E670E080E090E00E948014FE
:100EF00080E0089581E0089580E008954091060320
:100F000050910703209108033091090324273527C6
:100F100082239323892B19F060930A03089580910B
:100F20000B0383FF0DC082FF03C060930A03089583
:100F300042E257E06CE271E080E090E00E94201411
:100F4000089580910603909107038A30910509F472
:100F50006BC088F48430910589F130F481309105BB
:100F600009F1029729F166C08630910509F450C055
:100F7000089751F15FC08032910591F138F48C30BF
:100F8000910509F44BC0409729F154C08038910570
:100F900099F1811521E09207A9F18034910509F0BA
:100FA00049C024C060E081E090E00E947E0708957F
:100FB00061E082E090E00E947E07089562E084E0B4
:100FC00090E00E947E07089563E088E090E00E9430
:100FD0007E07089564E080E190E00E947E07089516
:100FE00065E080E290E00E947E07089566E080E47C
:100FF00090E00E947E07089567E080E890E00E94FC
:101000007E07089568E080E091E00E947E070895E1
:1010100069E086E090E00E947E0708956AE08CE037
:1010200090E00E947E0708956BE08AE090E00E94C5
:101030007E07089580910B038B7F80930B0382E2E0
:1010400097E00E94B81408958DE080930A030E94EF
:101050006307882321F18091060390910703909301
:101060000903809308030E9432079093070380933B
:1010700006038230910511F0089751F480917603B0
:10108000811106C080910B03886080930B0305C01B
:1010900080910B03877F80930B030E94A107089523
:1010A000559A08955D9808955D9A0895CF93DF93BA
:1010B000D82F8823D1F0C0E00E9454082FE78AE19E
:1010C00096E0215080409040E1F700C000000E946F
:1010D00052082FE78AE196E0215080409040E1F7E6
:1010E00000C00000CF5FCD13E7CFDF91CF9108950F
:1010F00081E00E94F1120E9450080E9428070E947D
:10110000D8140E94BA110E942E18789408950E9453
:101110003207049721F00E94DB11843089F484E0C7
:1011200090E09093090380930803909307038093C2
:101130000603809313038093160381E08093730367
:1011400008950E94780886E293E00E94770684E57D
:1011500093E00E9496120E94870889E793E00E941C
:10116000BE120E944C090E9424080E9404130E948F
:1011700075120E945D110E94330D0E9407070E94A4
:10118000790E80911A03811108C080912303811187
:1011900004C080912203882331F38FE19EE40197FC
:1011A000F1F700C000000E949F16DDCF662399F082
:1011B000FC01208131812417350779F0329620E037
:1011C00005C0819191918417950749F02F5F2613EF
:1011D000F8CF80E0089580E0089581E0089581E0EF
:1011E0000895CF93DF93EC01AC0162E08DEF92E0C4
:1011F0000E94D608882319F01092560327C0AE012A
:1012000061E08BEF92E00E94D608882321F081E014
:10121000809356031BC0AE0161E089EF92E00E940B
:10122000D608882321F082E0809356030FC0AE01D8
:1012300062E085EF92E00E94D608882321F083E0E7
:101240008093560303C085E080935603DF91CF91CE
:10125000089580915603823099F028F4882341F054
:10126000813051F00895833079F0853089F0089508
:1012700081E00E945608089581E00E945608089572
:1012800086E00E945608089580E10E94560808955D
:1012900084E30E94560808952FEF84E39CE02150D8
:1012A00080409040E1F700C0000088E00E945608AE
:1012B0000E94BE052FE789EA93E0215080409040CC
:1012C000E1F700C0000086E293E00E94EC060E9475
:1012D0004D060E94F1080E9429090E94540880913D
:1012E0005603853089F00E94A2052FE788E391E03C
:1012F000215080409040E1F700C0000086E293E07A
:101300000E94EC060E94DA058FE00E9494042FE709
:1013100088E391E0215080409040E1F700C0000058
:101320008FE00E94D5042FE788E391E021508040B0
:101330009040E1F700C0000080917303882339F1E9
:1013400080915603823010F471E001C075E061E0D5
:1013500082E090E00E94A5032FE788E391E021500E
:1013600080409040E1F700C0000081E00E94BC1680
:101370008AE00E94560881E00E9494042FE788E3E7
:1013800091E0215080409040E1F700C00000809142
:101390005603823020F491E09093620303C095E0FD
:1013A00090936203853021F48EE08093610303C043
:1013B0008AE0809361036091610370916203809180
:1013C0006303909164030E94A5032FE788E391E0F3
:1013D000215080409040E1F700C0000080916103FF
:1013E0000E94D5042FE788E391E02150804090408F
:1013F000E1F700C000000E9452080E9400022FE79F
:1014000088E391E0215080409040E1F700C0000067
:101410000E946A052FE788E391E0215080409040C8
:10142000E1F700C0000086E293E00E94EC060E9413
:1014300057068093590380935A030E9486052FE72D
:1014400088E391E0215080409040E1F700C0000027
:1014500086E293E00E94EC060E94670680935B039D
:1014600080935C038FE39CE90197F1F700C00000D3
:101470000E948A019FE728E381E09150204080404C
:10148000E1F700C000000E9454080E941A010E9467
:10149000C8019FE728E381E0915020408040E1F7B8
:1014A00000C000000E9416059FE728E381E09150EC
:1014B00020408040E1F700C000000E94C70082E0A9
:1014C0000E9456080E944E059FE729EA83E091504A
:1014D00020408040E1F700C0000086E293E00E94D7
:1014E000EC060E94280690936A038093690308958E
:1014F000409167035091680380915603682F617093
:1015000070E0FB010024F695E7950794F695E795C2
:101510000794FE2FE02DEB58FD4F808191818417B9
:10152000950778F5FB010024F695E7950794F69565
:10153000E7950794FE2FE02D3296EB58FD4F81E0A2
:10154000219131912417350720F48F5F8032C1F744
:101550001AC0660F771F62957295707F7627607F3D
:101560007627680F711DFB01EE0FFF1FEB58FD4F33
:101570002081318124173507D1F08823C1F08150B3
:10158000089580E00895660F771F62957295707FC9
:101590007627607F7627FB01E80FF11DEE0FFF1F16
:1015A000EB58FD4F208131812417350741F708950D
:1015B00080916603882319F08130E9F14BC00E94C5
:1015C000A80181E08093660380917703982F9D7F27
:1015D00011F0843029F4E0E7F3E0808180628083B9
:1015E000E0E7F3E080818160808381E080936F0396
:1015F0002FE788E391E0215080409040E1F700C060
:1016000000000E944E052FE788E391E021508040C2
:101610009040E1F700C0000086E293E00E94EC06F3
:101620000E942806E9E6F3E08083918392959F70FB
:1016300090935F030FC00E948A0110926603E0E757
:10164000F3E0908181E080936F039F7991609083B4
:101650008093220381E080932303089580916F0398
:10166000882341F010926F03E0E7F3E08081887FE8
:10167000808308C081E080936F03E0E7F3E080811E
:101680008760808381E080932303809174038111BC
:1016900004C080917503882319F081E080932203B0
:1016A00008950F931F93CF93DF9380917803811157
:1016B0005FC080916603882321F0813009F450C017
:1016C00074C08091760381110DC010926B038091DC
:1016D0005D03882309F469C0815080935D030E94F3
:1016E000C70035C00E9432052FE789EA93E02150F8
:1016F00080409040E1F700C0000086E293E00E9445
:10170000EC060E9403068C019093680380936703A4
:101710000E94780A80935D03809156038170C82FE0
:1017200020E0D22F0024D695C7950794D695C7956B
:101730000794DC2FC02DCB58DD4F8881998180170D
:10174000910728F40E94AB0081E080936C0381E054
:1017500080932303E0E7F3E080818160808325C0EC
:101760000E94520181E080936B03809323031DC08C
:10177000823069F4809159038230B8F081508093AF
:1017800059030E941C0281E0809322030EC0833023
:1017900061F480915B03823040F0815080935B0361
:1017A0000E94410281E080932203DF91CF911F913B
:1017B0000F9108950F931F93CF93DF938091780338
:1017C00081115FC080916603882321F0813009F484
:1017D00050C074C08091760381110DC010926D03CA
:1017E00080915D038F3108F069C08F5F80935D0346
:1017F0000E94C70035C00E9432052FE789EA93E0B6
:10180000215080409040E1F700C0000086E293E064
:101810000E94EC060E9403068C019093680380935B
:1018200067030E94780A80935D038091560381705C
:10183000C82F20E0D22F0024D695C7950794D695BF
:10184000C7950794DC2FC02DCB58DD4F8EAD9FADD3
:101850000817190728F40E948F0081E080936E0317
:1018600081E080932303E0E7F3E08081816080835F
:1018700025C00E946E0181E080936D038093230355
:101880001DC0823069F4809159038F3FB9F08F5F9A
:10189000809359030E941C0281E0809322030EC0B2
:1018A000833061F480915B038F3F41F08F5F8093C1
:1018B0005B030E94410281E080932203DF91CF917C
:1018C0001F910F91089580917103882319F0109250
:1018D000710303C081E08093710381E08093220350
:1018E000089580917803811146C083E00E945608D4
:1018F00081E0809378030E94E4010E946A052FEF43
:1019000080E792E0215080409040E1F700C0000065
:1019100086E293E00E94EC060E94570680935903EA
:101920000E9486052FEF80E792E021508040904092
:10193000E1F700C0000086E293E00E94EC060E94FE
:10194000670680935B036091590380E090E00E94FA
:10195000AB182FEF81EE94E0215080409040E1F7EA
:1019600000C0000060915B0381E090E00E94AB1832
:1019700081E080932303089580917803811148C00A
:1019800083E00E94560882E0809378030E94000260
:101990000E946A052FEF80E792E02150804090403E
:1019A000E1F700C0000086E293E00E94EC060E948E
:1019B0005706809359030E9486052FEF80E792E037
:1019C000215080409040E1F700C0000086E293E0A3
:1019D0000E94EC060E94670680935B0360915903A6
:1019E00080E090E00E94AB182FEF82E597E0215055
:1019F00080409040E1F700C0000060915B0381E00F
:101A000090E00E94AB1881E080932303809322032F
:101A10000895809178038230C1F08330E9F081111C
:101A200021C083E00E94560880917603811104C092
:101A300081E08093760308950E94730010926E03F4
:101A400010926C0310927603089583E00E9456086A
:101A500083E080937803089583E00E94560882E033
:101A600080937803089520910403211104C02091EC
:101A70001103222331F0109204031092110331E07C
:101A80000FC020910203211104C020910F032223D3
:101A900031F01092020310920F0331E001C030E0E8
:101AA00020916603213009F0AEC020916B03211113
:101AB00005C020916D03222309F4A5C031110DC08A
:101AC0008091690390916A038115904B08F44CC092
:101AD00080916D03882309F447C080915D038330B2
:101AE00038F48FEC97E00197F1F700C000002DC0AB
:101AF000843050F49FE728E381E0915020408040FB
:101B0000E1F700C0000021C0873050F49FEF23EFC1
:101B100081E0915020408040E1F700C0000015C0F6
:101B20008A3050F49FEF21EE84E0915020408040B5
:101B3000E1F700C0000009C09FE72BE888E0915062
:101B400020408040E1F700C000000E943601109262
:101B50006B0310926D039FE728E381E091502040D2
:101B60008040E1F700C000000E944E059FE729EA8F
:101B700083E0915020408040E1F700C0000086E201
:101B800093E00E94EC060E94280690936A038093DB
:101B9000690320910D0330910E038217930789F09A
:101BA00090930E0380930D0310920C0380917003A9
:101BB00086FF18C08F7B8093700381E0809322039F
:101BC00011C080910C038F5F80930C03823050F022
:101BD0008091700386FD06C080648093700381E06D
:101BE0008093220380916A0382958F7080935F03B4
:101BF00090916003981721F081E08093230308956A
:101C000010922303089520917603213009F070C0CB
:101C100040916E03411105C020916C03222309F409
:101C200067C031111CC020915603822F817090E053
:101C3000FC010024F695E7950794F695E79507943F
:101C4000FE2FE02DEB58FD4F209167033091680384
:101C500086AD97AD2817390740F1442331F18091C3
:101C6000560381110AC09FE728E381E0915020408C
:101C70008040E1F700C0000009C09FE729EA83E047
:101C8000915020408040E1F700C000000E947300A6
:101C900010926E0310926C039FE728E381E091504D
:101CA00020408040E1F700C000000E9432059FE71D
:101CB00029EA83E0915020408040E1F700C0000015
:101CC00086E293E00E94EC060E940306909368036C
:101CD000809367030E94780A80935D0390915E036E
:101CE000891721F081E08093230308951092230344
:101CF000089580917803813049F50E946A052FE7A5
:101D000088E391E0215080409040E1F700C000005E
:101D100086E293E00E94EC060E94570680935903E6
:101D20000E9486052FE788E391E021508040904093
:101D3000E1F700C0000086E293E00E94EC060E94FA
:101D4000670680935B0381E08093220308950E94DD
:101D5000E1022FEF80E792E0215080409040E1F7D0
:101D600000C000000E9466021092740308950E9451
:101D7000820281E08093740380936F03E0E7F3E0D5
:101D80009081936090838093230308950E94FD02C5
:101D900082E08093740381E080936F03E0E7F3E0D7
:101DA00090819360908380932303089581EC0E9437
:101DB0001C0281E08093750380936F03E0E7F3E0FA
:101DC00090819560908380932303809156038530A2
:101DD00049F42FEF80E792E0215080409040E1F7F6
:101DE00000C00000089588EA0E941C0282E08093EF
:101DF000750381E080936F03E0E7F3E090819560E5
:101E000090838093230380915603853049F42FEF0C
:101E100080E792E0215080409040E1F700C0000050
:101E2000089588E70E941C0283E08093750381E097
:101E300080936F03E0E7F3E0908195609083809357
:101E4000230380915603853049F42FEF80E792E019
:101E5000215080409040E1F700C0000008950F93AA
:101E60001F93CF93DF93CDB7DEB764970FB6F89487
:101E7000DEBF0FBECDBF8AE0E7E5F2E0DE011196DE
:101E800001900D928A95E1F78AE0E1E6F2E0DE0149
:101E90001B9601900D928A95E1F70E940002109224
:101EA000780309E513E0F80180810E941C02F80123
:101EB000608180E090E00E94AB18FFEF21EE84E0AB
:101EC000F15020408040E1F700C000000BE513E036
:101ED000F80180810E944102F801608181E090E078
:101EE0000E94AB1801E613E0BE01655F7F4FF80169
:101EF00080810E94EC03BE01655F7F4FF801808105
:101F00000E944004FFEF21EE84E0F1502040804029
:101F1000E1F700C000000E948903809156038111FF
:101F20000AC09FEFE5EEFAEA9150E040F040E1F799
:101F300000C0000009C02FEF83ED90E321508040E6
:101F40009040E1F700C00000BE016F5F7F4F8091BD
:101F500061030E94EC03EFEFF3ED20E3E150F0406A
:101F60002040E1F700C00000BE01655F7F4F809117
:101F700061030E94EC0364960FB6F894DEBF0FBEB7
:101F8000CDBFDF91CF911F910F910895809178037C
:101F9000811117C080917203882329F00E94C50225
:101FA000109272030AC00E94A90281E0809372031A
:101FB000E0E7F3E080818860808381E08093230301
:101FC00008950E942F0F0895CF930E94000210924F
:101FD000780380E090E00E94A318C82F80935903F3
:101FE00081E090E00E94A31880935B038C2F0E94F5
:101FF0001C022FEF80E792E0215080409040E1F7F3
:1020000000C0000080915B030E94410281E0809348
:102010002303809322032FEF80E792E0215080403A
:102020009040E1F700C00000CF91089580917803BF
:1020300081112AC080917503811111C080917403B0
:10204000813039F018F0823039F01AC00E94B70E92
:1020500017C00E94C60E14C00E94A70E11C0809126
:102060005A030E941C0210927503109274032FEF02
:1020700080E792E0215080409040E1F700C00000EE
:1020800081E08093220308950E94E40F08958091D7
:10209000780381111AC08091740381110E94A70EE8
:1020A00080917503813041F020F0823041F083301F
:1020B00041F40E94D60E05C00E94F30E02C00E9499
:1020C000110F81E08093220308950E94E40F089588
:1020D0001F93CF93DF930E94510383E08093770394
:1020E00011E010936F03E0E7F3E080818F7D816161
:1020F00080831093710382E080936303C1E6D3E091
:1021000088810E94940418831093620310936403DF
:10211000688179818A819B810E94A5032FEF80E7E6
:1021200092E0215080409040E1F700C00000809193
:1021300061030E94D504DF91CF911F910895CF9341
:10214000DF930E946D0384E08093770310926F0306
:10215000E0E7F3E080818E7E808310927103C1E618
:10216000D3E088810E9494048AE0888381E0809390
:1021700062038093630310926403688179818A818A
:102180009B810E94A5032FEF80E792E021508040C1
:102190009040E1F700C00000809161030E94D504E7
:1021A000DF91CF9108951F93CF93DF930E9419037E
:1021B00011E01093770310936F03E0E7F3E0808161
:1021C0008F7D816180831093710382E0809363032C
:1021D000C1E6D3E088810E949404188310936203BF
:1021E00010936403688179818A819B810E94A50391
:1021F0002FEF80E792E0215080409040E1F700C04F
:102200000000809161030E94D504DF91CF911F915E
:102210000895CF93DF930E94350382E08093770384
:1022200010926F03E0E7F3E080818E7E808310924E
:102230007103C1E6D3E088810E9494048AE0888318
:1022400081E080936203809363031092640368814A
:1022500079818A819B810E94A5032FEF80E792E01C
:10226000215080409040E1F700C000008091610360
:102270000E94D504DF91CF91089580917703823039
:1022800059F028F4882341F0813079F010C0833070
:1022900031F0843039F00BC00E94681008C00E94F1
:1022A0009F1005C00E94D31002C00E94091181E056
:1022B0008093230380932203089580910A0390E082
:1022C0008C30910540F5FC01EC5CFF4F0C948918B3
:1022D0000E94D80A20C00E94510B1DC00E942E0BE4
:1022E0001AC00E94DA0B17C00E94630C14C00E942F
:1022F000161011C00E9447100EC00E94C60F0BC0DE
:102300000E943D1108C00E94710C05C00E94BC0CC7
:1023100002C00E94090D8091140390E0883091055D
:10232000E0F4FC01E05CFF4F0C9489180E94D80A8D
:1023300008950E94510B08950E942E0B08950E944B
:10234000DA0B08950E94630C08950E9416100895F8
:102350000E94471008950E94C60F089580911503AA
:1023600081608093150308958091150384608093A4
:102370001503089588B18F6188B987B117B808959A
:1023800080911503282F2270982F9370933079F045
:1023900021110FC08260809315034EEA51E16AE07B
:1023A00070E080E090E00E94801480E0089581E079
:1023B000089580E0089586B184FF2AC08F7090E070
:1023C000FC013197EC30F105A8F4E85BFF4F0C9469
:1023D000891881E010C088E00EC080E10CC080E266
:1023E0000AC080E408C080E806C081E08093120340
:1023F00082E006C080E083FF03C091E09093100369
:10240000882351F0909115039C7F909315030895B4
:1024100080E0F1CF84E0EFCF0895209116039091F2
:1024200013039227892319F0609314030895809170
:10243000150383FF10C082FF06C0609314038B7FD7
:1024400080931503089544EB51E16CE271E080E064
:1024500090E00E942014089580911603883011F1B5
:1024600038F48230A9F08430C1F08130A1F50BC07E
:10247000803211F118F48031D1F02DC0803409F18F
:10248000803821F128C060E081E00E940D1208959B
:1024900061E082E00E940D12089562E084E00E94F3
:1024A0000D12089563E088E00E940D12089564E023
:1024B00080E10E940D12089565E080E20E940D12F5
:1024C000089566E080E40E940D12089567E080E8B8
:1024D0000E940D120895809115038B7F8093150340
:1024E00084EB91E10E94B81408958DE08093140369
:1024F0000E94C0118823C9F08091160380931303B2
:102500000E94DB1180931603823011F0883031F481
:102510008091150388608093150305C08091150391
:10252000877F809315030E942C120895FC0111826D
:10253000108280E090E7948383831582178287E07E
:1025400081871286138688E0848781E08787108AD6
:102550008EE0818B128A148A138A168A158A178A4A
:10256000108E118E128E138E148E158E168E178E5F
:1025700010A211A212A213A214A20895DC01FC0160
:1025800080E09BE191938F5F8A30E1F71C928BE0B2
:1025900011968C9311978FE412968C9312978EE17B
:1025A00013968C93139787E214968C93149783E277
:1025B00015968C93159781E016968C9316979BE150
:1025C00017969C93179796E018969C93189792E00D
:1025D00019969C9319971A968C931A971B961C928E
:1025E0000895813081F488E19CEF90938500809379
:1025F0008400EFE6F0E0808181608083E1E8F0E034
:102600008081826080830895CF92DF92EF92FF9263
:102610000F931F93CF93DF93C5E8D3E00FEA13E046
:10262000CC24CA94DC2CE12CF12C88819981AA81DC
:10263000BB81892B8A2B8B2B49F4C882D982EA82F1
:10264000FB8210921B03EC81FD8109952696C01731
:10265000D10759F7DF91CF911F910F91FF90EF9024
:10266000DF90CF900895CF93DF93E5E8F3E02FEA72
:1026700033E080819181A281B3818F3F4FEF940736
:10268000A105B10559F00097A105B10539F00197F1
:10269000A109B10980839183A283B3833696E2179F
:1026A000F30739F7DF91CF9108951F920F920FB67C
:1026B0000F9211242F933F934F935F936F937F93C8
:1026C0008F939F93AF93BF93EF93FF9388E19CEF1A
:1026D000909385008093840080917103882309F48E
:1026E0005CC080911C0390911D03A0911E03B091CA
:1026F0001F03BC01CD016F5F7F4F8F4F9F4F6093D2
:102700001C0370931D0380931E0390931F0328EEF8
:1027100033E040E050E00E946718672B682B692B7C
:1027200009F047C081E080931A0310921C031092B5
:102730001D0310921E0310921F03809118038F5FD8
:10274000809318038091180399E8899F912D112493
:102750009295969597702CE3929F80191124811180
:1027600028C081E080931A03109218038091190306
:102770008F5F809319038091190399E8899F912DA8
:1027800011249295969597702CE3929F80191124AD
:1027900081110FC0109219030CC010921C031092EB
:1027A0001D0310921E0310921F0310921803109223
:1027B00019034C9B09C080910503882329F01092CE
:1027C000050381E080930403359B09C080910303D6
:1027D000882329F01092030381E08093020386B1DD
:1027E0008093170384FD0FC080911203882391F01A
:1027F0001092120381E0809311030CC01092100319
:1028000081E080930F0380911B03811108C00E9417
:10281000331305C0809110038111F0CFF4CFFF91E5
:10282000EF91BF91AF919F918F917F916F915F9148
:102830004F913F912F910F900FBE0F901F901895C1
:10284000CF92DF92EF92FF920F931F93CF93DF937C
:10285000E5E8F3E02FEA33E0C080D180E280F38046
:10286000AFEFCA16DA06E104F10429F0A481B581BC
:10287000A417B507E1F13696E217F30769F700915F
:1028800085031091860320918703309188030F3FC1
:102890001F4F2105310581F0EBE8F3E021E030E046
:1028A000E901C080D180E280F380AFEFCA16DA067A
:1028B000E104F104B1F402C0C0E0D0E09E01220FB7
:1028C000331FF901EC0FFD1FEE0FFF1FEB57FC4FFD
:1028D000608371838283938310921B0355834483A7
:1028E00006C02F5F3F4F369627303105C9F6DF917E
:1028F000CF911F910F91FF90EF90DF90CF900895AF
:10290000CF92DF92EF92FF92CF93DF93E5E8F3E06F
:1029100020E030E0E901C080D180E280F380AFEFB9
:10292000CA16DA06E104F104A1F0A481B581A41766
:10293000B50779F4220F331FC20FD31FCC0FDD1F51
:10294000CB57DC4F688379838A839B8310921B0368
:1029500008C02F5F3F4F369627303105D9F60E94C9
:102960002014DF91CF91FF90EF90DF90CF900895EA
:10297000CF93DF93C0911B03E5E8F3E0AFEAB3E048
:102980004FEF5FEF60E070E0D0E0248135812817E1
:10299000390729F44083518362837383CD2F3696A0
:1029A000EA17FB0791F7C0931B03DF91CF910895BE
:1029B000E5E8F3E02FEA33E08FEF9FEFA0E0B0E02F
:1029C00080839183A283B3833696E217F307C1F71E
:1029D0000895CF93DF93CDB7DEB72A970FB6F8945B
:1029E000DEBF0FBECDBF8AE0EBE6F2E0DE0111965E
:1029F00001900D928A95E1F780916F038823E1F0B1
:102A00008091700380FF18C020915D03822F90E0B9
:102A1000019637E13A836AE070E00E945318772705
:102A2000FB01E95BFD4F30813B83FC01E95BFD4F1E
:102A300080818C8320935E03809166038130A1F4B2
:102A40008091700385FF10C08CE08E8385E08F83BA
:102A50008FE4888780915F03E82FF0E0E95BFD4F0A
:102A6000908199878093600380917203882369F035
:102A70008091700383FF09C082E18E8383E18F839D
:102A800088E088878BE089878A8780917803813006
:102A900081F486E189839AE49A831B8293E09C8384
:102AA00099E09D839FE49E831F8293E198878987A5
:102AB00013C08250823080F486E189838AE48A835D
:102AC0001B8283E08C8389E08D838FE48E838CE08E
:102AD0008F8318868DE08987BE016F5F7F4F80915D
:102AE00061030E94EC032A960FB6F894DEBF0FBE76
:102AF000CDBFDF91CF910895CF93DF93CDB7DEB7F0
:102B00002A970FB6F894DEBF0FBECDBF8AE0EBE682
:102B1000F2E0DE01119601900D928A95E1F7809125
:102B20006603813059F4809170038076803631F4E9
:102B300084E08A838DE08B8383E08C8380916F03B4
:102B4000882339F18091700381FFEBC08091740379
:102B5000813031F485E08A831B828BE18C83E1C074
:102B6000823009F0DEC085E08A8381E08B838BE1CF
:102B70008C83D7C0E09175038FEF8E0F833048F4BC
:102B800086E08A83F0E0E95BFD4F80818B838BE1F7
:102B90008C8380917103882309F442C08091720371
:102BA000811108C08091190380932103809118033B
:102BB00080932003E09121038DECE89F912D112457
:102BC000969596959695A92FB0E0A95BBD4F2C914F
:102BD0002E83990F292F220F220F920FE91BF0E06D
:102BE000E95BFD4F90819F839AE49887E0912003F1
:102BF000E89F812D1124869586958695A82FB0E0B3
:102C0000A95BBD4F9C919987880F982F990F990FB9
:102C1000890FE81BF0E0E95BFD4F80818A8704C0E3
:102C2000109221031092200380917803882309F4E5
:102C300068C081E189833AE43A83E091590329E24B
:102C4000E29FA12D1124A295AF70B0E0A95BBD4F0A
:102C50008C918B838DECE89F912D11249695969500
:102C60009695989F412D1124469546954695440F7B
:102C7000542F550F550F450FA92FA41BB0E0A95B8A
:102C8000BD4F4C914C83990F492F440F440F940F23
:102C9000E91BF0E0E95BFD4F90819D8391E09E830D
:102CA0003F83E0915B03E29F212D112422952F7039
:102CB000A22FB0E0A95BBD4F9C919887E89F912D12
:102CC0001124969596959695989F812D1124869519
:102CD00086958695880F282F220F220F820FA92F05
:102CE000A81BB0E0A95BBD4F8C918987990F892FF4
:102CF000880F880F980FE91BF0E0E95BFD4F80819A
:102D00008A8780912203811104C08091720381110E
:102D10000DC0BE016F5F7F4F809161030E94400430
:102D200005C08091700382FD25CF33CF2A960FB660
:102D3000F894DEBF0FBECDBFDF91CF910895809193
:102D40002303882351F0109223030E94E9148FE19A
:102D50009EE40197F1F700C0000080911A038111F1
:102D600004C080912203882331F00E947C151092C8
:102D70001A031092220308951F93CF93DF93CDB7C8
:102D8000DEB72A970FB6F894DEBF0FBECDBF182F5F
:102D90008AE0EBE6F2E0DE01119601900D928A9551
:102DA000E1F769E773E0812F0E94EC032FEF80E7E2
:102DB00092E0215080409040E1F700C0000085E1A2
:102DC0008B83A0918303EDECAE9FE12D1124E6955A
:102DD000E695E6958E2F880F982F990F990F890FFA
:102DE000A81BEE2339F0F0E0E95BFD4F80818C8376
:102DF00084E001C083E0E1E0F0E0EC0FFD1FE80FAC
:102E0000F11DB0E0A95BBD4F9C91908391E0980FBC
:102E1000E1E0F0E0EC0FFD1FE90FF11D9CE4908371
:102E20009091840322E0280FE1E0F0E0EC0FFD1F19
:102E3000E20FF11D2DEC929F212D11242695269550
:102E40002695A22FB0E0A95BBD4F3C91308333E0C3
:102E5000380FE1E0F0E0EC0FFD1FE30FF11D220F52
:102E6000322F330F330F230F921BA92FB0E0A95B32
:102E7000BD4F9C91908325E0280F94E0980FE1E0EE
:102E8000F0E0EC0FFD1FE90FF11D9BE190839091A5
:102E90005603923081F128F4992349F09130C9F01A
:102EA0005EC09330C9F1953009F448C058C0E1E0E4
:102EB000F0E0EC0FFD1FE20FF11D91E290838A5FBD
:102EC000E1E0F0E0EC0FFD1FE80FF11D85E28083EB
:102ED00046C0E1E0F0E0EC0FFD1FE20FF11D9EE1C6
:102EE00090838A5FE1E0F0E0EC0FFD1FE80FF11D39
:102EF00087E2808334C0E1E0F0E0EC0FFD1FE20FD9
:102F0000F11D90E290838A5FE1E0F0E0EC0FFD1F9D
:102F1000E80FF11D908323C0E1E0F0E0EC0FFD1F0E
:102F2000E20FF11D93E290838A5FE1E0F0E0EC0FA5
:102F3000FD1FE80FF11D80E2808311C0E1E0F0E0A9
:102F4000EC0FFD1FE20FF11D94E290838A5FE1E038
:102F5000F0E0EC0FFD1FE80FF11D82E28083BE015F
:102F60006F5F7F4F812F0E9440042A960FB6F8941E
:102F7000DEBF0FBECDBFDF91CF911F9108951F928D
:102F80000F920FB60F9211242F933F934F935F939D
:102F90006F937F938F939F93AF93BF93EF93FF9321
:102FA0008091C6008093CF038091CF03803919F0C0
:102FB0008F3F59F027C081E0809325039091CF0384
:102FC0009093AF03809324032DC080912503882321
:102FD00049F1E091240321E02E0F209324038091F6
:102FE000CF03F0E0E155FC4F8083109225038091E0
:102FF000B00380932B034FEA53E066E273E00E9434
:10300000AD0610C080912503882361F0E091240370
:1030100081E08E0F809324038091CF03F0E0E1558F
:10302000FC4F8083FF91EF91BF91AF919F918F9162
:103030007F916F915F914F913F912F910F900FBEB4
:103040000F901F9018959093C5008093C40088E955
:103050008093C10086E08093C200089583E390E0EE
:103060000E9423180895E0ECF0E0908195FFFDCFD9
:103070008093C60008950F931F93CF93DF93EC01C5
:10308000062F662359F010E089910E94331885E3DA
:103090008A95F1F700001F5F1013F6CFDF91CF91F3
:1030A0001F910F91089597FB072E16F4009407D0F7
:1030B00077FD09D00E948F1807FC05D03EF490954B
:1030C00081959F4F0895709561957F4F0895A1E276
:1030D0001A2EAA1BBB1BFD010DC0AA1FBB1FEE1F92
:1030E000FF1FA217B307E407F50720F0A21BB30BDD
:1030F000E40BF50B661F771F881F991F1A9469F759
:1031000060957095809590959B01AC01BD01CF01B4
:103110000895EE0FFF1F0590F491E02D0994AA1B6E
:10312000BB1B51E107C0AA1FBB1FA617B70710F0B2
:10313000A61BB70B881F991F5A95A9F780959095E4
:10314000BC01CD010895F999FECF92BD81BDF89AD9
:10315000992780B50895262FF999FECF1FBA92BD01
:1031600081BD20BD0FB6F894FA9AF99A0FBE019668
:063170000895F894FFCF62
:1031760081090002FF81090422FF81090444FF81BD
:10318600090443FF81090448FF81090447FF8101BF
:103196000424560001FF8101047420FF8101047498
:1031A60010FF81010473301B1B1B1B1B1B1B1B1BEE
:1031B6001BFF81010473201B1B1B1B1B1B1B1B1BE3
:1031C6001BFF8101047310000000000000000000D6
:1031D60000FF8101047402FF8101047400FF810174
:1031E6000473021B1B1B1B1B1B1B1B1B1BFF8101D1
:1031F6000473011B1B1B1B1B1B1B1B1B1BFF8101C2
:1032060004730000000000000000000000FF8101C0
:10321600043F017FFF8101046103FF810104610214
:10322600FF8101046603FF8101046602FF81010438
:103236006304FF8101046300FF8101046203FF81CF
:1032460001046202FF8101044200000000FF8101C7
:10325600040200FF8101044400000000FF81010414
:103266004300000000FF8101043505FF810104359C
:1032760004FF8101045700FF8101043803FF810127
:10328600043802FF8101040832FF8101040822FF8D
:103296008101040800FF8101040602FF8101044741
:1032A60000000000FF8101040733FF8101040723AA
:1032B600FF8101040700FF271E1F2021222324254A
:1032C6002600010203040512001504031B1B1B1B29
:1032D6001B1B1B1B1B1B1B1B1B1B1B1B1B1B1B1B38
:1032E6001B1B1B1B1B0000061651210028A02C00CF
:1032F60030D03240352037C038383A7B3BA83CA91D
:103306003DA03E603F0042B0446047104AB84C3092
:103316004F90515053F854A05610588059E05A20F7
:103326005C505D705E0000061651210028A02C003E
:1033360030D03240352037C038383A7B3BA83CA9DC
:103346003DA03E603F0042B0446047104AB84C3052
:103356004F90515053F854A05610588059E05A20B7
:103366005C505D705E5F0466046504500457045942
:02337600040051
:00000001FF
