S012000043414D636F6E74726F6C2E7372656340
S11300000C9448000C9465000C9465000C946500F5
S11300100C9465000C9465000C9465000C946500C8
S11300200C9465000C9465000C9465000C946500B8
S11300300C9465000C94A70F0C9465000C94650057
S11300400C9465000C9465000C945C130C9465008E
S11300500C9465000C9465000C9465000C94650088
S11300600C9465000C946500EB0CEE0CF10CF40C94
S1130070F70CFA0C000DFD0C030D060D090D0C0D0B
S1130080190D1C0D1F0D220D250D280D2E0D2B0DE8
S113009011241FBECFEFD4E0DEBFCDBF12E0A0E03D
S11300A0B1E0E0EBF8E202C005900D92AA34B1078A
S11300B0D9F723E0AAE4B2E001C01D92AC30B20744
S11300C0E1F70E94A1070C9456140C9400008EE2F0
S11300D0EAE6F2E0DF01982F1D929A95E9F7DF0135
S11300E01D928A95E9F780EF91E09183808386E001
S11300F080936C0281E080936D0266E080EF91E072
S11301000E94D81308958EE2EAE6F2E0DF01982F08
S11301101D929A95E9F7DF011D928A95E9F78AEE17
S113012091E09183808386E080936C0281E08093E8
S11301306D0266E08AEE91E00E94D81308958EE283
S1130140EAE6F2E0DF01982F1D929A95E9F7DF01C4
S11301501D928A95E9F784EE91E09183808386E08D
S113016080936C0281E080936D0266E084EE91E0FE
S11301700E94D8130895CF93DF938EE2AAE6B2E0EB
S1130180ED01E82F1992EA95E9F7EBEDF1E0ED01C5
S113019019928A95E9F7ED93FC9389E080936C02B8
S11301A081E080936D02A0919C02B0E0AA0FBB1F76
S11301B0AA50BE4F8D919C9111979093A502809364
S11301C0A4029C012227307F232F22952F702483A1
S11301D09C0122273F703583807F992792958295D1
S11301E08F7089279F70892786838C918F7087836E
S11301F069E0CF010E94D813DF91CF9108958EE278
S1130200EAE6F2E0DF01982F1D929A95E9F7DF0103
S11302101D928A95E9F785ED91E09183808386E0CC
S113022080936C0281E080936D0266E085ED91E03D
S11302300E94D81308958EE2EAE6F2E0DF01982FD7
S11302401D929A95E9F7DF011D928A95E9F78FECE3
S113025091E09183808386E080936C0281E08093B7
S11302606D0266E08FEC91E00E94D81308958EE24F
S1130270EAE6F2E0DF01982F1D929A95E9F7DF0193
S11302801D928A95E9F789EC91E09183808386E059
S113029080936C0281E080936D0266E089EC91E0CA
S11302A00E94D81308958EE2EAE6F2E0DF01982F67
S11302B01D929A95E9F7DF011D928A95E9F783EC7F
S11302C091E09183808386E080936C0281E0809347
S11302D06D0266E083EC91E00E94D8131092A302B1
S11302E00895CF938EE2EAE6F2E0DF01982F1D92A3
S11302F09A95E9F7C1E0DF011D928A95E9F78DEB44
S113030091E09183808386E080936C02C0936D02B8
S113031066E08DEB91E00E94D813C093A302CF91C5
S113032008958EE2EAE6F2E0DF01982F1D929A9595
S1130330E9F7DF011D928A95E9F787EB91E0918354
S1130340808386E080936C0281E080936D0266E096
S113035087EB91E00E94D81308958EE2EAE6F2E07A
S1130360DF01982F1D929A95E9F7DF011D928A9576
S1130370E9F781EB91E09183808386E080936C02BE
S113038081E080936D0266E081EB91E00E94D813D6
S113039008958EE2EAE6F2E0DF01982F1D929A9525
S11303A0E9F7DF011D928A95E9F78BEA91E09183E1
S11303B0808386E080936C0281E080936D0266E026
S11303C08BEA91E00E94D8130895CF93DF939EE2C5
S11303D0AAE6B2E0ED01E92F1992EA95E9F7E2EA1B
S11303E0F1E0ED0119929A95E9F7ED93FC9399E008
S11303F090936C0291E090936D02982F92959F7068
S113040096838F70878369E0CF010E94D813DF91B0
S1130410CF910895CF93DF939EE2AAE6B2E0ED0177
S1130420E92F1992EA95E9F7E9E9F1E0ED0119926A
S11304309A95E9F7ED93FC9399E090936C0291E01F
S113044090936D02982F92959F7096838F708783F7
S113045069E0CF010E94D813DF91CF9108958EE215
S1130460EAE6F2E0DF01982F1D929A95E9F7DF01A1
S11304701D928A95E9F783E991E09183808386E070
S113048080936C0281E080936D0266E083E991E0E1
S11304900E94D8130895CF93DF938EE2AAE6B2E0C8
S11304A0ED01E82F1992EA95E9F7EAE8F1E0ED01A8
S11304B019928A95E9F7ED93FC9389E080936C0295
S11304C081E080936D028091A202982F92959F7093
S11304D096838F70878369E0CF010E94D813DF91E0
S11304E0CF9108958EE2EAE6F2E0DF01982F1D92A3
S11304F09A95E9F7DF011D928A95E9F784E891E07E
S11305009183808386E080936C0281E080936D0206
S113051066E084E891E00E94D81308958EE2EAE64A
S1130520F2E0DF01982F1D929A95E9F7DF011D9201
S11305308A95E9F78EE791E09183808386E0809342
S11305406C0281E080936D0266E08EE791E00E9488
S1130550D81308958EE2EAE6F2E0DF01982F1D92A7
S11305609A95E9F7DF011D928A95E9F788E791E00A
S11305709183808386E080936C0281E080936D0296
S113058066E088E791E00E94D81308958EE2EAE6D7
S1130590F2E0DF01982F1D929A95E9F7DF011D9291
S11305A08A95E9F782E791E09183808386E08093DE
S11305B06C0281E080936D0266E082E791E00E9424
S11305C0D81308958EE2EAE6F2E0DF01982F1D9237
S11305D09A95E9F7DF011D928A95E9F78CE691E097
S11305E09183808386E080936C0281E080936D0226
S11305F066E08CE691E00E94D81308958EE2EAE664
S1130600F2E0DF01982F1D929A95E9F7DF011D9220
S11306108A95E9F786E691E09183808386E080936A
S11306206C0281E080936D0266E086E691E00E94B0
S1130630D81308958EE2EAE6F2E0DF01982F1D92C6
S11306409A95E9F7DF011D928A95E9F780E691E032
S11306509183808386E080936C0281E080936D02B5
S113066066E080E691E00E94D81308958EE2EAE6FF
S1130670F2E0DF01982F1D929A95E9F7DF011D92B0
S11306808A95E9F78AE591E09183808386E08093F7
S11306906C0281E080936D0266E08AE591E00E943D
S11306A0D8130895CF93DF932EE2AAE6B2E0ED01CA
S11306B0E22F1992EA95E9F7EAE4F1E0ED011992E3
S11306C02A95E9F7ED93FC9320E120936C0221E055
S11306D020936D02658376838783908760E1CF01E1
S11306E00E94D813DF91CF9108958EE2EAE6F2E0FA
S11306F0DF01982F1D929A95E9F7DF011D928A95E3
S1130700E9F78AE391E09183808380E180936C022E
S113071081E080936D02E62FF72F85E090E0219130
S1130720A0916A02B0916B02A80FB91F2C93019695
S11307308F309105A1F760916C0280916A029091CB
S11307406B020E94D81308958EE2EAE6F2E0DF011C
S1130750982F1D929A95E9F7DF011D928A95E9F782
S11307608AE291E09183808380E180936C0281E04E
S113077080936D02E62FF72F85E090E02191A09100
S11307806A02B0916B02A80FB91F2C9301968F30A7
S11307909105A1F760916C0280916A0290916B02BD
S11307A00E94D81308958EE2EAE6F2E0DF01982F62
S11307B01D929A95E9F7DF011D928A95E9F784E283
S11307C091E09183808386E080936C0281E0809342
S11307D06D0266E084E291E00E94D81308958EE2EF
S11307E0EAE6F2E0DF01982F1D929A95E9F7DF011E
S11307F01D928A95E9F78EE191E09183808386E0EA
S113080080936C0281E080936D0266E08EE191E05A
S11308100E94D81308958EE2EAE6F2E0DF01982FF1
S11308201D929A95E9F7DF011D928A95E9F789E10E
S113083091E09183808385E080936C0289E08093CA
S11308406D0265E089E191E00E94D81308958EE27B
S1130850EAE6F2E0DF01982F1D929A95E9F7DF01AD
S11308601D928A95E9F784E191E09183808385E084
S113087080936C0289E080936D0265E084E191E0ED
S11308800E94D81308958EE2EAE6F2E0DF01982F81
S11308901D929A95E9F7DF011D928A95E9F78FE099
S11308A091E09183808385E080936C0289E080935A
S11308B06D0265E08FE091E00E94D81308958EE206
S11308C0EAE6F2E0DF01982F1D929A95E9F7DF013D
S11308D01D928A95E9F78AE091E09183808385E00F
S11308E080936C0289E080936D0265E08AE091E078
S11308F00E94D81308958EE2EAE6F2E0DF01982F11
S11309001D929A95E9F7DF011D928A95E9F785E032
S113091091E09183808385E080936C0289E08093E9
S11309206D0265E085E091E00E94D81308958EE29F
S1130930EAE6F2E0DF01982F1D929A95E9F7DF01CC
S11309401D928A95E9F780E091E09183808385E0A8
S113095080936C0289E080936D0265E080E091E011
S11309600E94D8130895809197028430F1F4209165
S113097087022F7030E0322F22273295307F80910A
S113098088028F7090E0982F8827820F931F209100
S11309908A022F70820F911D209189022F7030E1FD
S11309A0239F800D911D112402C080E090E090935C
S11309B09902809398020895809197028430F1F40B
S11309C0209187022F7030E0322F22273295307F1A
S11309D0809188028F7090E0982F8827820F931F50
S11309E020918A022F70820F911D209189022F700D
S11309F030E1239F800D911D1124089580E090E043
S1130A000895809197028430F1F4209187022F7029
S1130A1030E0322F22273295307F809188028F7008
S1130A2090E0982F8827820F931F20918A022F70BD
S1130A30820F911D209189022F7030E1239F800D38
S1130A40911D1124089580E090E00895809197020B
S1130A50873051F48091890290E0982F8827209163
S1130A608A02820F911D089580E090E0089580919C
S1130A709702843051F49091890280918A028F7098
S1130A8020E1929F800D1124089580E008958091C3
S1130A909702843051F49091890280918A028F7078
S1130AA020E1929F800D1124089580E00895DC01D7
S1130AB011961C921E9212961C9212978FEF139607
S1130AC08C93139792E014969C93149715968C9399
S1130AD0159716961C92169717961C9217971896A8
S1130AE01C921897FD01399680E111928150E9F723
S1130AF059961C9259975A961C925A975B961C9237
S1130B005B975C961C925C97FD017D9611928F5FBA
S1130B108031E1F79D961C920895807F803541F0E5
S1130B20803619F08034B9F506C0211126C030C0D2
S1130B30211112C01EC0222361F0FA0180E090E06E
S1130B403191DB01A80FB91F16963C9301968217C9
S1130B50B8F3FB0114820895FA01DB0119964F5F83
S1130B605F4F2150420F511D81918D93E417F5077A
S1130B70D9F781E0FB0184830895942FDB01599612
S1130B80E42FF52F81918D938E2F891B8217D0F33B
S1130B9081E0FB0184830895CF93DF93EC018B857F
S1130BA08F3F59F480E007C091919F3F21F08F5F00
S1130BB09D938E30C9F78DA707C08D8FFE013C969B
S1130BC0DE015E9681E0F0CFDF91CF9108958091B0
S1130BD06E02813081F480916D02893049F48091F4
S1130BE06F028075803521F48AE692E00E94CC057C
S1130BF082E080936E020895809153028160809315
S1130C00530208958091530284608093530208959F
S1130C1088E284B98FEF85B917B888B99AEE9AB982
S1130C208BB90895CF93DF9333B166B1E9B125E071
S1130C3080E090E0E071732F7470A1E06470532F32
S1130C405074432F427033230CF08064E11101C0CF
S1130C508460711102C0826008C0F0914D02FF23CC
S1130C6021F010924D02A0934C02611102C08860E1
S1130C7008C0F0914B02FF2321F010924B02A09385
S1130C804A02511101C08160411101C08068CFE165
S1130C90DEE42197F1F700C000002150A1F681FFA6
S1130CA003C021E020934D0283FF03C021E0209381
S1130CB04B02009729F0209153022C7F209353027A
S1130CC0DF91CF91089580915302282F2270982F9D
S1130CD09370933079F021110FC082608093530296
S1130CE04CEF55E064E670E080E090E00E94A210D2
S1130CF080E0089581E0089580E0089540914E02D7
S1130D0050914F02209150023091510224273527EF
S1130D1082239323892B19F06093520208958091C2
S1130D20530283FF0DC082FF03C0609352020895F3
S1130D3042E056E06CE271E080E090E00E944210F4
S1130D40089580914E0290914F028A30910509F4E2
S1130D506BC088F48430910589F130F481309105B9
S1130D6009F1029729F166C08630910509F450C053
S1130D70089751F15FC08032910591F138F48C30BD
S1130D80910509F44BC0409729F154C0803891056E
S1130D9099F1811521E09207A9F18034910509F0B8
S1130DA049C024C060E081E090E00E947E0608957E
S1130DB061E082E090E00E947E06089562E084E0B3
S1130DC090E00E947E06089563E088E090E00E942F
S1130DD07E06089564E080E190E00E947E06089516
S1130DE065E080E290E00E947E06089566E080E47B
S1130DF090E00E947E06089567E080E890E00E94FB
S1130E007E06089568E080E091E00E947E060895E1
S1130E1069E086E090E00E947E0608956AE08CE036
S1130E2090E00E947E0608956BE08AE090E00E94C4
S1130E307E060895809153028B7F8093530282E053
S1130E4096E00E94DA1008958CE0809352020E948A
S1130E506306882321F180914E0290914F02909372
S1130E605102809350020E94120690934F02809385
S1130E704E028230910511F0089751F48091B2022C
S1130E80811106C08091530288608093530205C08B
S1130E9080915302877F809353020E94A106089594
S1130EA0559A08955D9808955D9A0895CF93DF93B8
S1130EB0D82F8823D1F0C0E00E9454072FEF80E799
S1130EC092E0215080409040E1F700C000000E9471
S1130ED052072FEF80E792E0215080409040E1F7E5
S1130EE000C00000CF5FCD13E7CFDF91CF9108950D
S1130EF081E00E94430F0E9450070E9408060E944E
S1130F00FA100E94FE0D0E94CB13789408950E945B
S1130F101206049721F00E941F0E843089F484E0A5
S1130F2090E0909351028093500290934F028093EB
S1130F304E028093580280935B0281E08093AF025B
S1130F4008950E9478078AE692E00E94570588E98E
S1130F5092E00E94F50E0E94870785EB92E00E94C2
S1130F60180F0E94D6070E9424070E94560F0E9461
S1130F70D40E0E94E00C0E94310D0E94E7050E94ED
S1130F80CA0D80915E02811108C0809167028111AF
S1130F9004C080916602882331F38FE19EE40197B7
S1130FA0F1F700C000000E949512DDCFCF93DF93CC
S1130FB02FEF89E698E1215080409040E1F700C08E
S1130FC00000C8E9D2E00E9452070E947B042FEF80
S1130FD080E792E0215080409040E1F700C000009B
S1130FE00E9454078AE692E00E94CC050E94B30452
S1130FF02FEF80E792E0215080409040E1F700C05D
S11310000000888199810C96F1F68AE00E945607C7
S11310100E94BB008AE00E9456070E94D3030E94EC
S1131020EF038FEF90E722E0815090402040E1F7FA
S113103000C000008091AF02882331F163E071E0C9
S113104082E090E00E9452038FEF90E722E081500B
S113105090402040E1F700C000000E9497048FEF09
S113106090E722E0815090402040E1F700C000006A
S11310708AE692E00E94CC0583E00E94B21284E1E9
S11310800E9456070E94D30360919E0270919F02B2
S11310908091A0029091A1020E9452030E945207E3
S11310A080E090E00E944014C82F80939A0281E06F
S11310B090E00E94401480939B02CF3F19F08F3F31
S11310C009F042C08FE798E321E08150904020402E
S11310D0E1F700C000000E9443048FE798E321E099
S11310E0815090402040E1F700C000008AE692E081
S11310F00E94CC050E94370580939A028FE798E3FB
S113110021E0815090402040E1F700C000000E949F
S11311105F048FE798E321E0815090402040E1F79D
S113112000C000008AE692E00E94CC050E944705B8
S113113080939B028FE798E321E081509040204008
S1131140E1F700C0000010C08C2F0E94E5018FEF72
S113115090E722E0815090402040E1F700C0000079
S113116080919B020E940A020E9453018FEF90E734
S113117022E0815090402040E1F700C000000E942E
S11311809101DF91CF9108958091A6029091A702D9
S11311909C013051211540E1340728F130512115CB
S11311A040E1340710F13051211540E13407F8F0E3
S11311B03051211540E13407E0F03051211540E170
S11311C03407C8F03051211540E13407B0F03051F4
S11311D021153041A0F0892F881F8827881F880F88
S11311E0880F880F089581E0089582E0089583E0D0
S11311F0089584E0089585E0089586E0089587E0E1
S113120008954091A4025091A5028091F601909115
S1131210F7018417950780F4E8EFF1E081E021916C
S113122031912417350720F48F5F8032C1F702C053
S1131230882319F08150089580E008958091A302D5
S1131240882319F0813059F12EC00E94710181E088
S11312508093A3028093AC022FE788E391E02150AE
S113126080409040E1F700C000000E9427042FE76F
S113127088E391E0215080409040E1F700C00000F5
S11312808AE692E00E94CC050E9401059093A70291
S11312908093A6020E94C40880939D0204C00E9409
S11312A053011092A30281E0809367020895809114
S11312B0AC02882319F01092AC0203C081E0809341
S11312C0AC0281E0809367028091B002811104C076
S11312D08091B102882319F081E080936602089519
S11312E0CF93DF938091B402811167C08091A302F0
S11312F0882319F08130C9F15AC08091B20281115A
S11313000DC01092A80280919C02882309F44FC05A
S1131310815080939C020E94BB0049C00E940B0430
S11313202FEF80E792E0215080409040E1F700C029
S113133000008AE692E00E94CC050E94DC04EC01E5
S11313409093A5028093A4020E94010980939C02B9
S11313508091F6019091F7018C179D0740F50E944A
S11313609F0081E08093A90222C00E9427042FEFEE
S113137080E792E0215080409040E1F700C00000F7
S11313808AE692E00E94CC050E940105EC0190934C
S1131390A7028093A6020E94C40880939D02C130D4
S11313A0D04128F00E941B0181E08093A80281E0D3
S11313B08093AC02809367021DC0823069F48091EF
S11313C09A028230B8F0815080939A020E94E5011B
S11313D081E0809366020EC0833061F480919B02A9
S11313E0823040F0815080939B020E940A0281E087
S11313F080936602DF91CF910895CF93DF9380911C
S1131400B402811166C08091A302882319F081304F
S1131410C9F159C08091B20281110DC01092AA0283
S113142080919C028F3108F04EC08F5F80939C02A4
S11314300E94BB0048C00E940B042FEF80E792E09B
S1131440215080409040E1F700C000008AE692E01D
S11314500E94CC050E94DC04EC019093A5028093C9
S1131460A4020E94010980939C028091340290910D
S11314703502C817D90738F50E94830081E08093AC
S1131480AB0221C00E9427042FEF80E792E0215095
S113149080409040E1F700C000008AE692E00E949C
S11314A0CC050E940105EC019093A7028093A6024B
S11314B00E94C40880939D02DD232CF00E94370112
S11314C081E08093AA0281E08093AC02809367025A
S11314D01DC0823069F480919A028F3FB9F08F5F0A
S11314E080939A020E94E50181E0809366020EC017
S11314F0833061F480919B028F3F41F08F5F809332
S11315009B020E940A0281E080936602DF91CF91E0
S113151008958091AD02882319F01092AD0203C0A2
S113152081E08093AD0281E0809366020895CF93B9
S11315308091B402811164C08091B102811147C0CD
S11315408091B002813071F018F08230B1F054C053
S11315500E944B0281E08093B0028093AC0280939E
S113156067024AC00E94C60282E08093B00281E012
S11315708093AC02809367023FC00E94AA022FEFBF
S113158080E792E0215080409040E1F700C00000E5
S11315900E942F022FEF80E792E02150804090407C
S11315A0E1F700C0000080919A020E94E5012FEF4C
S11315B080E792E0215080409040E1F700C00000B5
S11315C080919B020E940A021092B00215C0809181
S11315D09A020E94E5012FEF80E792E021508040BB
S11315E09040E1F700C0000080919B020E940A0233
S11315F01092B1021092B00281E08093660226C07C
S11316000E94C9011092B40280E090E00E9440144C
S1131610C82F80939A0281E090E00E944014809346
S11316209B028C2F0E94E5012FEF80E792E021506E
S113163080409040E1F700C0000080919B020E942E
S11316400A0281E08093670280936602CF91089535
S1131650CF938091B402811165C08091B002882338
S113166091F10E94AA022FEF80E792E0215080407E
S11316709040E1F700C000000E942F022FEF80E7A6
S113168092E0215080409040E1F700C0000080913A
S11316909A020E94E5012FEF80E792E021508040FA
S11316A09040E1F700C0000080919B020E940A0272
S11316B02FEF80E792E0215080409040E1F700C096
S11316C000001092B0028091B102813081F020F0CC
S11316D08230C9F0833011F581EC0E94E50181E08C
S11316E08093B1028093AC028093670217C088EAAA
S11316F00E94E50182E08093B10281E08093AC0214
S1131700809367020BC088E70E94E50183E0809321
S1131710B10281E08093AC028093670281E0809300
S1131720660226C00E94C9011092B40280E090E0D3
S11317300E944014C82F80939A0281E090E00E9496
S1131740401480939B028C2F0E94E5012FEF80E7C9
S113175092E0215080409040E1F700C00000809169
S11317609B020E940A0281E08093670280936602D2
S1131770CF910895CF93DF938091B402811112C069
S11317808091AE02882329F00E948E021092AE024C
S113179005C00E94720281E08093AE0281E08093D2
S11317A0670226C00E94C9011092B402CAE9D2E0BD
S11317B088810E94E501688180E090E00E944814DD
S11317C02FEF81EE94E0215080409040E1F700C07B
S11317D00000CBE9D2E088810E940A02688181E09E
S11317E090E00E94481481E080936702809366022F
S11317F0DF91CF9108958091B3028230B1F028F443
S1131800882339F0813059F01BC08330A1F0843033
S1131810B9F40E94E20281E08093B30211C00E94F5
S1131820FE0282E08093B3020BC00E941A0383E09D
S11318308093B30205C00E94360384E08093B30210
S113184081E08093660208958091B402811146C0BC
S113185083E00E94560781E08093B4020E94AD01A8
S11318600E9443042FEF80E792E021508040904093
S1131870E1F700C000008AE692E00E94CC050E94D5
S1131880370580939A020E945F042FEF80E792E06D
S1131890215080409040E1F700C000008AE692E0C9
S11318A00E94CC050E94470580939B0260919A0296
S11318B080E090E00E9448142FEF81EE94E02150E4
S11318C080409040E1F700C0000060919B0281E0FD
S11318D090E00E94481481E080936702089580910B
S11318E0B402811148C083E00E94560782E08093CD
S11318F0B4020E94C9010E9443042FEF80E792E0E2
S1131900215080409040E1F700C000008AE692E058
S11319100E94CC050E94370580939A020E945F04BE
S11319202FEF80E792E0215080409040E1F700C023
S113193000008AE692E00E94CC050E94470580934D
S11319409B0260919A0280E090E00E9448142FEF7D
S113195081EE94E0215080409040E1F700C0000007
S113196060919B0281E090E00E94481481E08093A2
S113197067028093660208958091B402823091F0E8
S11319808330B9F081111BC083E00E945607809117
S1131990B202811104C081E08093B20208951092D2
S11319A0B202089583E00E94560783E08093B40254
S11319B0089583E00E94560782E08093B40208955C
S11319C08091520290E08C30910540F5FC01EC5C72
S11319D0FF4F0C9426140E941E0920C00E94700917
S11319E01DC00E9457091AC00E94FD0917C00E9419
S11319F0890A14C00E94970A11C00E94280B0EC0C5
S1131A000E94BA0B0BC00E94FB0B08C00E94240C5E
S1131A1005C00E946F0C02C00E94BC0C8091590248
S1131A2090E088309105E0F4FC01E05CFF4F0C94F9
S1131A3026140E941E0908950E94700908950E94A8
S1131A40570908950E94FD0908950E94890A08957E
S1131A500E94970A08950E94280B08950E94BA0BC9
S1131A600895CF9380914C02882321F010924C0268
S1131A70C1E009C080914A02882321F010924A02F1
S1131A80C1E001C0C0E08091A3028130E1F5809102
S1131A90A802811104C08091AA028823A1F10E94A6
S1131AA027042FE788E391E0215080409040E1F73C
S1131AB000C000008AE692E00E94CC050E94010565
S1131AC09093A7028093A602C11106C099239CF4A7
S1131AD08091AA02882379F00E94FF001092A80244
S1131AE01092AA022FE788E391E0215080409040B1
S1131AF0E1F700C000000E94C40880939D0281E0C9
S1131B008093670245C08091B202813009F040C0E1
S1131B108091AB02811104C08091A9028823C1F194
S1131B200E940B042FE788E391E02150804090400D
S1131B30E1F700C000008AE692E00E94CC050E9412
S1131B40DC049093A5028093A402C1110BC02091E0
S1131B503402309135028217930798F08091AB02DA
S1131B60882379F00E9467001092AB021092A902B8
S1131B702FE788E391E0215080409040E1F700C0D6
S1131B8000000E94010980939C0281E08093670217
S1131B90CF9108958091B402813019F50E944304D5
S1131BA08FE59AEE0197F1F700C000008AE692E013
S1131BB00E94CC050E94370580939A020E945F041C
S1131BC08FE59AEE0197F1F700C000008AE692E0F3
S1131BD00E94CC050E94470580939B0281E080937C
S1131BE06602089580915A02816080935A02089592
S1131BF080915A02846080935A02089588B18F615B
S1131C0088B987B117B8089580915A02282F227095
S1131C10982F9370933079F021110FC082608093D4
S1131C205A0242EF5DE06AE070E080E090E00E94DA
S1131C30A21080E0089581E0089580E0089596B1AF
S1131C4094FF48C09F70993069F0809157028823AF
S1131C5029F01092570281E080935602963061F188
S1131C6080E001C082E020915502222329F01092E5
S1131C70550221E020935402933079F028F49130F6
S1131C80A1F0923081F012C0983029F09C3039F0E4
S1131C90943039F00BC0816009C0846007C0806152
S1131CA005C0806203C0806401C0806881FF05C0F4
S1131CB091E09093570201C088E083FF03C091E054
S1131CC090935502882339F090915A029C7F909307
S1131CD05A02089580E0089520915B029091580281
S1131CE09227892319F060935902089580915A022A
S1131CF083FF10C082FF06C0609359028B7F8093DC
S1131D005A02089548EF5DE06CE271E080E090E0F3
S1131D100E944210089580915B02883011F138F4DA
S1131D208230A9F08430C1F08130A1F50BC080323B
S1131D3011F118F48031D1F02DC0803409F18038CC
S1131D4021F128C060E081E00E946C0E089561E0FA
S1131D5082E00E946C0E089562E084E00E946C0EA2
S1131D60089563E088E00E946C0E089564E080E1C9
S1131D700E946C0E089565E080E20E946C0E089546
S1131D8066E080E40E946C0E089567E080E80E949B
S1131D906C0E089580915A028B7F80935A0288EFCB
S1131DA09DE00E94DA1008958CE0809359020E940D
S1131DB0040E8823C9F080915B02809358020E942C
S1131DC01F0E80935B02823011F0883031F48091D1
S1131DD05A02886080935A0205C080915A02877F14
S1131DE080935A020E948B0E0895FC011182108286
S1131DF01282138287E0848315828FE0868381E0D8
S1131E008783808711868EE08287138615861486E1
S1131E1017861686108A118A128A138A148A158ADA
S1131E20168A178A108E118E128E138E148E0895B0
S1131E30DC01FC0180E09BE191938F5F8A30E1F744
S1131E4086E08C9392E011969C9311978FE41296FE
S1131E508C9312978FE113968C93139787E21496C1
S1131E608C93149715968C93159716968C931697B6
S1131E7081E017968C9317971A969C931A9785E08E
S1131E801B968C930895813081F488E19CEF9093A4
S1131E90850080938400EFE6F0E080818160808398
S1131EA0E1E8F0E08081826080830895CF92DF9240
S1131EB0EF92FF920F931F93CF93DF93C1ECD2E085
S1131EC00BEE12E0CC24CA94DC2CE12CF12C88819A
S1131ED09981AA81BB81892B8A2B8B2B49F4C882D7
S1131EE0D982EA82FB8210925F02EC81FD8109951E
S1131EF02696C017D10759F7DF91CF911F910F9103
S1131F00FF90EF90DF90CF900895CF93DF93E1ECB3
S1131F10F2E02BEE32E080819181A281B3818F3F88
S1131F204FEF9407A105B10559F00097A105B1053C
S1131F3039F00197A109B10980839183A283B38306
S1131F403696E217F30739F7DF91CF9108951F9280
S1131F500F920FB60F9211242F933F934F935F93D9
S1131F606F937F938F939F93AF93BF93EF93FF935D
S1131F7088E19CEF90938500809384008091AD026A
S1131F80882309F45CC08091600290916102A09161
S1131F906202B0916302BC01CD016F5F7F4F8F4F2E
S1131FA09F4F6093600270936102809362029093EA
S1131FB0630228EE33E040E050E00E940414672BF3
S1131FC0682B692B09F047C081E080935E02109270
S1131FD06002109261021092620210926302809178
S1131FE05C028F5F80935C0280915C0299E8899F18
S1131FF0912D11249295969597702CE3929F8019B8
S11320001124811128C081E080935E0210925C0249
S113201080915D028F5F80935D0280915D0299E8FB
S1132020899F912D11249295969597702CE3929FF8
S11320308019112481110FC010925D020CC01092FE
S11320406002109261021092620210926302109276
S11320505C0210925D0280915F02811102C00E94B5
S1132060850FFF91EF91BF91AF919F918F917F91D8
S11320706F915F914F913F912F910F900FBE0F90F1
S11320801F901895CF92DF92EF92FF920F931F93B8
S1132090CF93DF93E1ECF2E02BEE32E0C080D1800D
S11320A0E280F380AFEFCA16DA06E104F10429F006
S11320B0A481B581A417B507E1F13696E217F307B9
S11320C069F70091C1021091C2022091C3023091BC
S11320D0C4020F3F1F4F2105310581F0E7ECF2E008
S11320E021E030E0E901C080D180E280F380AFEFED
S11320F0CA16DA06E104F104B1F402C0C0E0D0E08B
S11321009E01220F331FF901EC0FFD1FEE0FFF1F7D
S1132110EF53FD4F608371838283938310925F0238
S11321205583448306C02F5F3F4F369627303105D1
S1132130C9F6DF91CF911F910F91FF90EF90DF903F
S1132140CF900895CF92DF92EF92FF92CF93DF93D7
S1132150E1ECF2E020E030E0E901C080D180E280EF
S1132160F380AFEFCA16DA06E104F104A1F0A4810A
S1132170B581A417B50779F4220F331FC20FD31FFB
S1132180CC0FDD1FCF53DD4F688379838A839B8314
S113219010925F0208C02F5F3F4F369627303105FB
S11321A0D9F60E944210DF91CF91FF90EF90DF901B
S11321B0CF900895CF93DF93C0915F02E1ECF2E0FA
S11321C0ABEEB2E04FEF5FEF60E070E0D0E024816F
S11321D035812817390729F4408351836283738337
S11321E0CD2F3696EA17FB0791F7C0935F02DF9174
S11321F0CF910895E1ECF2E02BEE32E08FEF9FEF08
S1132200A0E0B0E080839183A283B3833696E21783
S1132210F307C1F70895CF93DF93CDB7DEB72A97BD
S11322200FB6F894DEBF0FBECDBF8AE0E0E4F2E063
S1132230DE01119601900D928A95E1F78091AC022E
S11322408823A9F080919C0290E0019627E12A83DB
S11322506AE070E00E94F0137727FB01EA5CFD4F0F
S113226020812B83FC01EA5CFD4F80818C8380916B
S1132270A302813079F4E0919D02E93058F48CE0B6
S11322808E8385E08F838FE48887F0E0EA5CFD4FDE
S1132290808189878091AE02882349F082E18E8310
S11322A083E18F8388E088878BE089878A878091A0
S11322B0B402813081F486E189839AE49A831B8293
S11322C093E09C8399E09D839FE49E831F8293E126
S11322D09887898713C08250823080F486E189838D
S11322E08AE48A831B8283E08C8389E08D838FE474
S11322F08E838CE08F8318868DE08987BE016F5FA3
S11323007F4F80919E020E9475032A960FB6F8941F
S1132310DEBF0FBECDBFDF91CF910895CF93DF9382
S1132320CDB7DEB72A970FB6F894DEBF0FBECDBF88
S11323308AE0E0E4F2E0DE01119601900D928A95C4
S1132340E1F78091AC028823B9F08091B00281302A
S113235021F485E08A831B82D7C0823009F0D4C07F
S113236085E08A8381E08B83CFC086E08A83F0E0B6
S1132370EA5CFD4F80818B838091AD02882309F450
S113238042C08091AE02811108C080915D028093A9
S1132390650280915C0280936402E09165028DEC99
S11323A0E89F912D1124969596959695A92FB0E0C6
S11323B0AA5CBD4F2C912E83990F292F220F220F37
S11323C0920FE91BF0E0EA5CFD4F90819F839AE451
S11323D09887E0916402E89F812D11248695869563
S11323E08695A82FB0E0AA5CBD4F9C919987880F71
S11323F0982F990F990F890FE81BF0E0EA5CFD4FC5
S113240080818A8704C010926502109264028091D0
S1132410B402882309F468C081E189833AE43A83E9
S1132420E0919A0229E2E29FA12D1124A295AF70B6
S1132430B0E0AA5CBD4F8C918B838DECE89F912D0D
S11324401124969596959695989F412D112446951D
S113245046954695440F542F550F550F450FA92FF8
S1132460A41BB0E0AA5CBD4F4C914C83990F492F3B
S1132470440F440F940FE91BF0E0EA5CFD4F908198
S11324809D8391E09E833F83E0919B02E29F212DF7
S1132490112422952F70A22FB0E0AA5CBD4F9C910D
S11324A09887E89F912D1124969596959695989FD7
S11324B0812D1124869586958695880F282F220FC5
S11324C0220F820FA92FA81BB0E0AA5CBD4F8C91EC
S11324D08987990F892F880F880F980FE91BF0E0DF
S11324E0EA5CFD4F80818A8780916602811104C075
S11324F08091AE02811110C0BE016F5F7F4F809149
S11325009E020E94A40308C0E091B1028FEF8E0FD7
S1132510833008F42ACF30CF2A960FB6F894DEBF62
S11325200FBECDBFDF91CF910895809167028823BC
S113253051F0109267020E940B118FE19EE4019703
S1132540F1F700C0000080915E02811104C0809107
S11325506602882331F00E948E1110925E0210925E
S113256066020895FF920F931F93CF93DF93CDB725
S1132570DEB72A970FB6F894DEBF0FBECDBFF82E94
S11325808AE0E0E4F2E0DE01119601900D928A9572
S1132590E1F70E9426058C0165EB72E08F2D0E9405
S11325A075032FEF80E792E0215080409040E1F7DF
S11325B000C0000085E18983A091BF02EDECAE9FCD
S11325C0E12D1124E695E695E6958E2F880F982F38
S11325D0990F990F890FA81BEE2339F0F0E0EA5CFC
S11325E0FD4F80818A8382E001C081E0E1E0F0E078
S11325F0EC0FFD1FE80FF11DB0E0AA5CBD4F9C91EC
S1132600908391E0980FE1E0F0E0EC0FFD1FE90FFB
S1132610F11D9CE490839091C00222E0280FE1E038
S1132620F0E0EC0FFD1FE20FF11D2DEC929F212D28
S11326301124269526952695A22FB0E0AA5CBD4FBD
S11326403C9130838D5FE1E0F0E0EC0FFD1FE80F7B
S1132650F11D822F880F282F220F220F820F981B23
S1132660A92FB0E0AA5CBD4F8C918083F801E07F74
S1132670FF27F295E295EF70EF27FF70EF27EA5CF2
S1132680FD4F808189870F70E02FF0E0EA5CFD4FF9
S113269080818A87BE016F5F7F4F8F2D0E94A403C4
S11326A02A960FB6F894DEBF0FBECDBFDF91CF914F
S11326B01F910F91FF9008951F920F920FB60F92E2
S11326C011242F933F934F935F936F937F938F9333
S11326D09F93AF93BF93EF93FF938091C600809332
S11326E00B0380910B03803919F08F3F59F027C0F9
S11326F081E08093690290910B039093EB028093A5
S113270068022DC080916902882349F1E091680232
S113271021E02E0F2093680280910B03F0E0E55135
S1132720FD4F8083109269028091EC0280936F02C6
S11327304BEE52E06AE672E00E948D0510C0809173
S11327406902882361F0E091680281E08E0F809332
S1132750680280910B03F0E0E551FD4F8083FF9107
S1132760EF91BF91AF919F918F917F916F915F9105
S11327704F913F912F910F900FBE0F901F9018957E
S11327809093C5008093C40088E98093C10086E0DB
S11327908093C200089583E390E00E94C0130895DB
S11327A0E0ECF0E0908195FFFDCF8093C6000895A2
S11327B00F931F93CF93DF93EC01062F662359F0F9
S11327C010E089910E94D01385E38A95F1F7000007
S11327D01F5F1013F6CFDF91CF911F910F910895D2
S11327E097FB072E16F4009407D077FD09D00E94BA
S11327F02C1407FC05D03EF4909581959F4F0895C5
S1132800709561957F4F0895A1E21A2EAA1BBB1BF8
S1132810FD010DC0AA1FBB1FEE1FFF1FA217B307A8
S1132820E407F50720F0A21BB30BE40BF50B661FBE
S1132830771F881F991F1A9469F760957095809582
S113284090959B01AC01BD01CF010895EE0FFF1FD0
S11328500590F491E02D0994AA1BBB1B51E107C01C
S1132860AA1FBB1FA617B70710F0A61BB70B881F1C
S1132870991F5A95A9F780959095BC01CD010895AB
S1132880F999FECF92BD81BDF89A992780B5089534
S1132890262FF999FECF1FBA92BD81BD20BD0FB678
S11328A0F894FA9AF99A0FBE01960895F894FFCF16
S11328B081090002FF81090422FF81090444FF8188
S11328C0090443FF81090448FF81090447FF81018A
S11328D0047402FF8101047400FF81010473021B6C
S11328E01B1B1B1B1B1B1B1B1BFF81010473011BDD
S11328F01B1B1B1B1B1B1B1B1BFF810104730000E9
S1132900000000000000000000FF8101046103FFDB
S11329108101046102FF8101046603FF81010466F1
S113292002FF8101046304FF8101046300FF81014C
S1132930046203FF8101046202FF8101044200007A
S11329400000FF8101040200FF8101044400000033
S113295000FF8101044300000000FF8101043505EC
S1132960FF8101043504FF8101045700FF81010444
S11329703803FF8101043802FF8101040803FF8149
S113298001040802FF8101040800FF8101044700DB
S1132990000000FF8101040733FF8101040723FFC6
S11329A08101040700FF0000001600218027002C8D
S11329B0002F30326034703660383039703AA03BC2
S11329C0B03CB03DA03E803F00400042B044604770
S11329D0104A804B004F6051A0521054805500574C
S11329E0E058005AFF5A271E1F202122232425269F
S10D29F01B1B1B1B1B1B1B1B1B1BCB
S9030000FC
