:100000000C9449000C9466000C9466000C946600F5
:100010000C9466000C9466000C9466000C946600C8
:100020000C9466000C9466000C9466000C946600B8
:100030000C9466000C9442140C9466000C946600B8
:100040000C9466000C9466000C94D4180C94660012
:100050000C9466000C9466000C9466000C94660088
:100060000C9466000C94660049124C124F12521206
:10007000551258125E125B126112641267126A12F4
:100080006D127A127D1280128312861289128F12DB
:100090008C1211241FBECFEFD4E0DEBFCDBF13E022
:1000A000A0E0B1E0E0EAF3E302C005900D92A632D1
:1000B000B107D9F723E0A6E2B3E001C01D92A63F45
:1000C000B207E1F70E94E2080C94CE190C940000EC
:1000D0008EE2ECE4F3E0DF01982F1D929A95E9F7A8
:1000E000DF011D928A95E9F786E492E0918380838F
:1000F00086E080934E0381E080934F0366E086E4C0
:1001000092E00E94501908958EE2ECE4F3E0DF01E2
:10011000982F1D929A95E9F7DF011D928A95E9F7CC
:1001200080E492E09183808386E080934E0381E0B7
:1001300080934F0366E080E492E00E945019089596
:100140008EE2ECE4F3E0DF01982F1D929A95E9F737
:10015000DF011D928A95E9F78AE392E0918380831B
:1001600086E080934E0381E080934F0366E08AE34C
:1001700092E00E9450190895CF93DF932EE2ACE4F1
:10018000B3E0ED01E22F1992EA95E9F7E1E3F2E03D
:10019000ED0119922A95E9F7ED93FC9329E020935C
:1001A0004E0321E020934F0320917C03822F817026
:1001B00090E02091830338E2389FD001399FB00D41
:1001C0001124A20FB11DAA0FBB1FA658BD4F8D91C0
:1001D0009C91119790938E0380938D039C0122270D
:1001E000307F232F22952F7024839C0122273F707C
:1001F0003583807F9927929582958F7089279F708C
:10020000892786838C918F70878369E0CF010E9454
:100210005019DF91CF9108958EE2ECE4F3E0DF0115
:10022000982F1D929A95E9F7DF011D928A95E9F7BB
:100230008BE292E09183808386E080934E0381E09D
:1002400080934F0366E08BE292E00E94501908957C
:100250008EE2ECE4F3E0DF01982F1D929A95E9F726
:10026000DF011D928A95E9F785E292E09183808310
:1002700086E080934E0381E080934F0366E085E241
:1002800092E00E94501908958EE2ECE4F3E0DF0161
:10029000982F1D929A95E9F7DF011D928A95E9F74B
:1002A0008FE192E09183808386E080934E0381E02A
:1002B00080934F0366E08FE192E00E945019089509
:1002C0008EE2ECE4F3E0DF01982F1D929A95E9F7B6
:1002D000DF011D928A95E9F789E192E0918380839D
:1002E00086E080934E0381E080934F0366E089E1CE
:1002F00092E00E94501908958EE2ECE4F3E0DF01F1
:10030000982F1D929A95E9F7DF011D928A95E9F7DA
:1003100083E192E09183808386E080934E0381E0C5
:1003200080934F0366E083E192E00E94501910929F
:100330008C030895CF938EE2ECE4F3E0DF01982F75
:100340001D929A95E9F7C1E0DF011D928A95E9F7C0
:100350008DE092E09183808386E080934E03C0938A
:100360004F0366E08DE092E00E945019C0938C0329
:10037000CF9108958EE2ECE4F3E0DF01982F1D9217
:100380009A95E9F7DF011D928A95E9F787E092E0F7
:100390009183808386E080934E0381E080934F03B6
:1003A00066E087E092E00E94501908958EE2ECE446
:1003B000F3E0DF01982F1D929A95E9F7DF011D9276
:1003C0008A95E9F781E092E09183808386E08093CB
:1003D0004E0381E080934F0366E081E092E00E944B
:1003E000501908958EE2ECE4F3E0DF01982F1D929E
:1003F0009A95E9F7DF011D928A95E9F78BEF91E075
:100400009183808386E080934E0381E080934F0345
:1004100066E08BEF91E00E9450190895CF93DF932F
:100420009EE2ACE4B3E0ED01E92F1992EA95E9F719
:10043000E2EFF1E0ED0119929A95E9F7ED93FC9363
:1004400099E090934E0391E090934F03982F9295EB
:100450009F7096838F70878369E0CF010E94501947
:10046000DF91CF910895CF93DF939EE2ACE4B3E0A8
:10047000ED01E92F1992EA95E9F7E9EEF1E0ED01D6
:1004800019929A95E9F7ED93FC9399E090934E03B6
:1004900091E090934F03982F92959F7096838F7061
:1004A000878369E0CF010E945019DF91CF910895B1
:1004B0008EE2ECE4F3E0DF01982F1D929A95E9F7C4
:1004C000DF011D928A95E9F783EE91E091838083A5
:1004D00086E080934E0381E080934F0366E083EED5
:1004E00091E00E9450190895CF93DF938EE2ACE41F
:1004F000B3E0ED01E82F1992EA95E9F7EAEDF1E0B2
:10050000ED0119928A95E9F7ED93FC9389E08093C8
:100510004E0381E080934F0380918B03982F929537
:100520009F7096838F70878369E0CF010E94501976
:10053000DF91CF9108958EE2ECE4F3E0DF01982F94
:100540001D929A95E9F7DF011D928A95E9F784EDEE
:1005500091E09183808386E080934E0381E08093D5
:100560004F0366E084ED91E00E94501908958EE2F9
:10057000ECE4F3E0DF01982F1D929A95E9F7DF0193
:100580001D928A95E9F78EEC91E09183808386E055
:1005900080934E0381E080934F0366E08EEC91E000
:1005A0000E94501908958EE2ECE4F3E0DF01982FE9
:1005B0001D929A95E9F7DF011D928A95E9F788EC7B
:1005C00091E09183808386E080934E0381E0809365
:1005D0004F0366E088EC91E00E94501908958EE286
:1005E000ECE4F3E0DF01982F1D929A95E9F7DF0123
:1005F0001D928A95E9F782EC91E09183808386E0F1
:1006000080934E0381E080934F0366E082EC91E09B
:100610000E94501908958EE2ECE4F3E0DF01982F78
:100620001D929A95E9F7DF011D928A95E9F78CEB07
:1006300091E09183808386E080934E0381E08093F4
:100640004F0366E08CEB91E00E94501908958EE212
:10065000ECE4F3E0DF01982F1D929A95E9F7DF01B2
:100660001D928A95E9F786EB91E09183808386E07D
:1006700080934E0381E080934F0366E086EB91E028
:100680000E94501908958EE2ECE4F3E0DF01982F08
:100690001D929A95E9F7DF011D928A95E9F780EBA3
:1006A00091E09183808386E080934E0381E0809384
:1006B0004F0366E080EB91E00E94501908958EE2AE
:1006C000ECE4F3E0DF01982F1D929A95E9F7DF0142
:1006D0001D928A95E9F78AEA91E09183808386E00A
:1006E00080934E0381E080934F0366E08AEA91E0B5
:1006F0000E94501908958EE2ECE4F3E0DF01982F98
:100700001D929A95E9F7DF011D928A95E9F783EA30
:1007100091E09183808387E080934E0381E0809312
:100720004F0367E083EA91E00E9450190895CF9348
:10073000DF9320917C032230C8F42EE2ECE4F3E056
:10074000DF01C22F1D92CA95E9F7A3E9B1E0EF01DD
:1007500019922A95E9F7B183A08320E120934E03F3
:1007600021E020934F0315966C9319C02EE2ECE420
:10077000F3E0DF01C22F1D92CA95E9F7A7E5B1E0CA
:10078000EF0119922A95E9F7B183A08320E1209324
:100790004E0321E020934F03606114966C93E09127
:1007A0004C03F0914D0376838783908760914E03CD
:1007B000CF010E945019DF91CF910895CF93DF931D
:1007C00090917C039230B8F48EE2ECE4F3E0DF0128
:1007D000C82F1D92CA95E9F7DF011D928A95E9F7A6
:1007E00083E891E09183808380E180934E0381E0F0
:1007F00080934F032FC09EE2ECE4F3E0EF01292F3A
:1008000019922A95E9F7A7E4B1E0EF0119929A95B8
:10081000E9F7B183A08390E190934E0391E0909328
:100820004F03806214968C9315C02191A0914C03C4
:10083000B0914D03A80FB91F2C9301968F309105ED
:10084000A1F760914E0380914C0390914D030E945B
:10085000501905C0E62FF72F85E090E0E6CFDF9135
:10086000CF910895CF93DF9390917C039230B8F4A9
:100870008EE2ECE4F3E0DF01C82F1D92CA95E9F7A0
:10088000DF011D928A95E9F783E791E091838083E8
:1008900080E180934E0381E080934F032FC09EE25E
:1008A000ECE4F3E0EF01292F19922A95E9F7A7E389
:1008B000B1E0EF0119929A95E9F7B183A08390E135
:1008C00090934E0391E090934F03806314968C9322
:1008D00015C02191A0914C03B0914D03A80FB91FF1
:1008E0002C9301968F309105A1F760914E03809172
:1008F0004C0390914D030E94501905C0E62FF72F2D
:1009000085E090E0E6CFDF91CF910895CF93DF931C
:1009100090917C039230B8F48EE2ECE4F3E0DF01D6
:10092000C82F1D92CA95E9F7DF011D928A95E9F754
:100930008DE691E09183808386E080934E0381E091
:1009400080934F0319C09EE2ECE4F3E0EF01292FFE
:1009500019922A95E9F7A1E3B1E0EF0119929A956E
:10096000E9F7B183A08396E090934E0391E09093D2
:100970004F03806114968C9360914E0380914C03D9
:1009800090914D030E945019DF91CF910895CF931C
:10099000DF9390917C039230B8F48EE2ECE4F3E0C4
:1009A000DF01C82F1D92CA95E9F7DF011D928A95D4
:1009B000E9F787E691E09183808386E080934E0398
:1009C00081E080934F0319C09EE2ECE4F3E0EF0175
:1009D000292F19922A95E9F7ABE2B1E0EF011992BC
:1009E0009A95E9F7B183A08396E090934E0391E046
:1009F00090934F03806214968C9360914E03809184
:100A00004C0390914D030E945019DF91CF910895AE
:100A10008EE2ECE4F3E0DF01982F1D929A95E9F75E
:100A2000DF011D928A95E9F783E291E0918380834B
:100A300088E080934E0381E080934F0368E083E277
:100A400091E00E94501908958EE2ECE4F3E0DF019A
:100A5000982F1D929A95E9F7DF011D928A95E9F783
:100A60008EE191E09183808385E080934E0389E05D
:100A700080934F0365E08EE191E00E945019089544
:100A80008EE2ECE4F3E0DF01982F1D929A95E9F7EE
:100A9000DF011D928A95E9F789E191E091838083D6
:100AA00085E080934E0389E080934F0365E089E100
:100AB00091E00E94501908958EE2ECE4F3E0DF012A
:100AC000982F1D929A95E9F7DF011D928A95E9F713
:100AD00084E191E09183808385E080934E0389E0F7
:100AE00080934F0365E084E191E00E9450190895DE
:100AF0008EE2ECE4F3E0DF01982F1D929A95E9F77E
:100B0000DF011D928A95E9F78FE091E09183808360
:100B100085E080934E0389E080934F0365E08FE08A
:100B200091E00E94501908958EE2ECE4F3E0DF01B9
:100B3000982F1D929A95E9F7DF011D928A95E9F7A2
:100B40008AE091E09183808385E080934E0389E081
:100B500080934F0365E08AE091E00E945019089568
:100B60008EE2ECE4F3E0DF01982F1D929A95E9F70D
:100B7000DF011D928A95E9F785E091E091838083FA
:100B800085E080934E0389E080934F0365E085E024
:100B900091E00E94501908958EE2ECE4F3E0DF0149
:100BA000982F1D929A95E9F7DF011D928A95E9F732
:100BB00080E091E09183808385E080934E0389E01B
:100BC00080934F0365E080E091E00E945019089502
:100BD000809179038430F1F4209169032F7030E023
:100BE000322F22273295307F80916A038F7090E0F8
:100BF000982F8827820F931F20916C032F70820FEC
:100C0000911D20916B032F7030E1239F800D911D6A
:100C1000112402C080E090E090937B0380937A03DC
:100C20000895809179038430F1F4209169032F7045
:100C300030E0322F22273295307F80916A038F7007
:100C400090E0982F8827820F931F20916C032F70BC
:100C5000820F911D20916B032F7030E1239F800D37
:100C6000911D1124089580E090E00895809179030A
:100C70008430F1F4209169032F7030E0322F222765
:100C80003295307F80916A038F7090E0982F88278B
:100C9000820F931F20916C032F70820F911D209162
:100CA0006B032F7030E1239F800D911D1124089557
:100CB00080E090E0089580916B0390E0982F882762
:100CC00020916C03820F911D0895809179038430E7
:100CD00051F490916B0380916C038F7020E1929F8F
:100CE000800D1124089580E0089580917903843067
:100CF00051F490916B0380916C038F7020E1929F6F
:100D0000800D1124089580E00895DC0111961C9255
:100D10001E9212961C9212978FEF13968C93139734
:100D200092E014969C93149715968C9315971696AB
:100D30001C92169717961C92179718961C92189744
:100D4000FD01399680E111928150E9F759961C9284
:100D500059975A961C925A975B961C925B975C9691
:100D60001C925C97FD017D9611928F5F8031E1F7B7
:100D70009D961C920895807F803541F0803619F051
:100D80008034B9F506C0211126C030C0211112C02F
:100D90001EC0222361F0FA0180E090E03191DB0176
:100DA000A80FB91F16963C9301968217B8F3FB0162
:100DB00014820895FA01DB0119964F5F5F4F2150AD
:100DC000420F511D81918D93E417F507D9F781E00A
:100DD000FB0184830895942FDB015996E42FF52FAE
:100DE00081918D938E2F891B8217D0F381E0FB01B7
:100DF00084830895CF93DF93EC018B858F3F59F463
:100E000080E007C091919F3F21F08F5F9D938E30CE
:100E1000C9F78DA707C08D8FFE013C96DE015E9657
:100E200081E0F0CFDF91CF9108950E945C052FE71C
:100E300089EA93E0215080409040E1F700C0000033
:100E40008CE493E00E94FA060E9436060895809191
:100E50005003813081F480914F03893049F48091AF
:100E600051038075803521F48CE493E00E94FA06EA
:100E700082E080935003089580912F0381608093D6
:100E80002F03089580912F03846080932F0308958A
:100E900088E284B98FEF85B917B888B99AEE9AB904
:100EA0008BB90895CF93DF9333B1E6B169B125E0F3
:100EB00080E090E0A62FA071F32FF470E072732F02
:100EC00070746470532F5170432F427033230CF0B1
:100ED0008160A11101C08260F11101C08460E11143
:100EE00001C08860711101C08061611101C0806220
:100EF000511101C08064411101C08068CFE1DEE47E
:100F00002197F1F700C00000215001F781FF03C0D5
:100F100021E02093290383FF03C021E020932703CE
:100F2000009729F020912F032C7F20932F03DF912E
:100F3000CF91089580912F03282F2270982F9370BE
:100F4000933079F021110FC0826080932F034CE31E
:100F500057E064E670E080E090E00E94531580E086
:100F6000089581E0089580E0089540912A0350910A
:100F70002B0320912C0330912D0324273527822326
:100F80009323892B19F060932E03089580912F03EA
:100F900083FF0DC082FF03C060932E03089542E4D7
:100FA00057E06CE271E080E090E00E94F314089555
:100FB00080912A0390912B038C30910509F469C02C
:100FC000A8F484309105A9F130F48130910529F11C
:100FD000029749F170C08830910589F18A309105F6
:100FE00009F45DC0069709F066C04DC080329105D6
:100FF00091F138F48031910541F1449709F455C0DD
:101000005AC08038910599F1811521E09207A9F124
:101010008034910509F04FC024C060E081E090E089
:101020000E94B507089561E082E090E00E94B50754
:10103000089562E084E090E00E94B507089563E0BF
:1010400088E090E00E94B507089564E080E190E0B8
:101050000E94B507089565E080E290E00E94B50720
:10106000089566E080E490E00E94B507089567E087
:1010700080E890E00E94B507089568E080E091E084
:101080000E94B507089569E086E090E00E94B507E8
:1010900008956AE08CE090E00E94B50708956BE047
:1010A0008AE090E00E94B50708956CE084E190E04A
:1010B0000E94B507089580912F038B7F80932F03A3
:1010C00082E497E00E948B1508958DE080932E03B3
:1010D0000E949A07882321F180912A0390912B0383
:1010E00090932D0380932C030E94520790932B031F
:1010F00080932A038230910511F0089751F4809172
:101100009C03811106C080912F03886080932F0378
:1011100005C080912F03877F80932F030E94D807FB
:101120000895559A08955D9808955D9A0895CF930E
:10113000DF93D82F8823D1F0C0E00E9495082FE7D5
:101140008AE196E0215080409040E1F700C0000025
:101150000E9493082FE78AE196E02150804090405A
:10116000E1F700C00000CF5FCD13E7CFDF91CF9153
:10117000089581E00E94DE130E9491080E944807B2
:101180000E94AB150E949E120E9443197894089504
:101190000E945207049721F00E94BF12843089F404
:1011A00084E090E090932D0380932C0390932B0385
:1011B00080932A0380933A0380933D0381E08093D8
:1011C000990308950E94B9088CE493E00E94850673
:1011D0008AE793E00E9495130E94C8088FE993E084
:1011E0000E94BD130E948F090E9465080E94F1139E
:1011F0000E9474130E943E120E94D30D0E94240E7E
:101200000E9427070E945A0F80914003811108C055
:1012100080914903811104C080914803882321F300
:101220008FE19EE40197F1F700C000000E94B4171F
:10123000DBCF662399F0FC0120813181241735072B
:1012400079F0329620E005C081919191841795073D
:1012500049F02F5F2613F8CF80E0089580E00895CD
:1012600081E0089581E00895CF93DF93EC01AC0114
:1012700062E082E293E00E941909882319F010923B
:101280007C0327C0AE0161E080E293E00E9419096F
:10129000882321F081E080937C031BC0AE0161E0D4
:1012A0008EE193E00E941909882321F082E0809367
:1012B0007C030FC0AE0162E08AE193E00E9419094D
:1012C000882321F083E080937C0303C085E0809332
:1012D0007C03DF91CF91089580917C03823099F057
:1012E00028F4882341F0813051F00895833079F05B
:1012F000853089F0089581E00E949708089581E083
:101300000E949708089586E00E949708089580E15A
:101310000E949708089584E30E94970808952FEF8C
:1013200084E39CE0215080409040E1F700C0000041
:1013300088E00E9497080E94CC052FE789EA93E095
:10134000215080409040E1F700C000008CE493E021
:101350000E94FA060E945B060E9434090E946C09F2
:101360000E94950880917C03853089F00E94B00529
:101370002FE788E391E0215080409040E1F700C0E2
:1013800000008CE493E00E94FA060E94E8058FE0DA
:101390000E9486042FE788E391E02150804090402E
:1013A000E1F700C000008FE00E94C7042FE788E348
:1013B00091E0215080409040E1F700C00000809112
:1013C0009903882339F180917C03823010F471E015
:1013D00001C075E061E082E090E00E9497032FE792
:1013E00088E391E0215080409040E1F700C0000088
:1013F00081E00E94D1178AE00E94970881E00E9454
:1014000086042FE788E391E0215080409040E1F787
:1014100000C0000080917C03823020F491E0909322
:10142000880303C095E090938803853021F48EE013
:101430008093870303C08AE08093870360918703CA
:10144000709188038091890390918A030E94970389
:101450002FE788E391E0215080409040E1F700C001
:101460000000809187030E94C7042FE788E391E082
:10147000215080409040E1F700C000000E94930896
:101480000E94F2012FE788E391E0215080409040D4
:10149000E1F700C000000E9478052FE788E391E0A3
:1014A000215080409040E1F700C000008CE493E0C0
:1014B0000E94FA060E94650680937F038093800352
:1014C0000E9494052FE788E391E0215080409040EE
:1014D000E1F700C000008CE493E00E94FA060E944D
:1014E000750680938103809382038FE39CE90197C3
:1014F000F1F700C000000E947C019FE728E381E033
:10150000915020408040E1F700C000000E94950803
:101510000E940C010E94BA019FE728E381E09150EC
:1015200020408040E1F700C000000E9408059FE7CE
:1015300028E381E0915020408040E1F700C00000A6
:101540000E94BC0082E00E9497080E9440059FE72D
:1015500029EA83E0915020408040E1F700C000007C
:101560008CE493E00E94FA060E9436069093900362
:1015700080938F03089540918D0350918E03809145
:101580007C03682F617070E080E5869FF001879F83
:10159000F00D1124E658FD4F808191818417950745
:1015A00038F580E5869FF001879FF00D1124E458FF
:1015B000FD4F81E0219131912417350720F48F5F91
:1015C0008832C1F717C098E2969FF001979FF00DFF
:1015D0001124E80FF11DEE0FFF1FE658FD4F20818B
:1015E000318124173507B9F08823A9F08150089577
:1015F00080E0089598E2969FF001979FF00D1124E6
:10160000E80FF11DEE0FFF1FE658FD4F20813181DD
:101610002417350759F708951F93CF93DF938091CF
:101620008C03882321F0813009F456C081C00E94C8
:101630009A0181E080938C0380919D03982F9D7F78
:1016400011F0843029F4E6E9F3E080818062808340
:101650002FE788E391E0215080409040E1F700C0FF
:1016600000000E9440052FE788E391E02150804070
:101670009040E1F700C000008CE493E00E94FA067D
:101680000E943606EFE8F3E08083918392959F7085
:1016900090938503C7E8D3E088810E94860481E0A7
:1016A00088838093880392E09093890380938A03D0
:1016B000688179818A819B810E9497032FEF80E75F
:1016C00092E0215080409040E1F700C000008091FE
:1016D00087030E94C7042CC00E947C0110928C03D7
:1016E000E6E9F3E080818F79808311E0109348036D
:1016F000C7E8D3E088810E9486048AE0888310933B
:1017000088031093890310928A03688179818A8102
:101710009B810E9497032FEF80E792E02150804049
:101720009040E1F700C00000809187030E94C70449
:1017300081E08093490380934803DF91CF911F910B
:1017400008951F93CF93DF9380919503882369F0C9
:1017500010929503E6E9F3E08081887F8083109200
:10176000970381E08093480330C011E01093950304
:10177000E6E9F3E0808187608083109397031093FC
:101780004803C7E8D3E088810E9486048AE0888302
:10179000109388031093890310928A0368817981DA
:1017A0008A819B810E94970380917C03853049F454
:1017B0002FEF80E792E0215080409040E1F700C099
:1017C0000000809187030E94C70481E08093490351
:1017D00080919A03811104C080919B03882319F0A2
:1017E00081E080934803DF91CF911F9108950F937B
:1017F0001F93CF93DF9380919E0381115CC08091F2
:101800008C03882321F0813009F44DC071C0809190
:101810009C0381110DC01092910380918303882352
:1018200009F466C08150809383030E94BC0032C0DB
:101830000E9424052FE789EA93E0215080409040E0
:10184000E1F700C000008CE493E00E94FA060E94D9
:1018500011068C0190938E0380938D030E94BB0A26
:101860008093830380917C038170C82F20E0D22F66
:1018700080E58C9FF0018D9FF00D1124E658FD4FFF
:10188000808191818017910728F40E94A00081E057
:101890008093920381E080934903E6E9F3E080813D
:1018A0008160808325C00E94440181E08093910380
:1018B000809349031DC0823069F480917F03823098
:1018C000B8F0815080937F030E940E0281E08093E4
:1018D00048030EC0833061F480918103823040F070
:1018E0008150809381030E94330281E080934803FA
:1018F000DF91CF911F910F9108950F931F93CF9375
:10190000DF9380919E0381115CC080918C038823BA
:1019100021F0813009F44DC071C080919C03811188
:101920000DC01092930380918303873208F066C044
:101930008F5F809383030E94BC0032C00E94240505
:101940002FE789EA93E0215080409040E1F700C002
:1019500000008CE493E00E94FA060E9411068C01BC
:1019600090938E0380938D030E94BB0A8093830320
:1019700080917C038170C82F20E0D22F80E58C9F5E
:10198000F0018D9FF00D1124E853FD4F808191816E
:101990000817190728F40E94840081E080939403BB
:1019A00081E080934903E6E9F3E0808181608083F0
:1019B00025C00E94600181E08093930380934903D6
:1019C0001DC0823069F480917F038F3FB9F08F5F33
:1019D00080937F030E940E0281E0809348030EC033
:1019E000833061F4809181038F3F41F08F5F80935A
:1019F00081030E94330281E080934803DF91CF91FD
:101A00001F910F91089580919703882319F01092E8
:101A1000970303C081E08093970381E0809348039C
:101A2000089580919E03811146C083E00E9497082B
:101A300081E080939E030E94D6010E9478052FEFDB
:101A400080E792E0215080409040E1F700C0000024
:101A50008CE493E00E94FA060E94650680937F035F
:101A60000E9494052FEF80E792E021508040904043
:101A7000E1F700C000008CE493E00E94FA060E94A7
:101A800075068093810360917F0380E090E00E945F
:101A9000C0192FEF81EE94E0215080409040E1F793
:101AA00000C000006091810381E090E00E94C019B5
:101AB00081E080934903089580919E03811148C07D
:101AC00083E00E94970882E080939E030E94F201C7
:101AD0000E9478052FEF80E792E0215080409040EF
:101AE000E1F700C000008CE493E00E94FA060E9437
:101AF000650680937F030E9494052FEF80E792E0B4
:101B0000215080409040E1F700C000008CE493E059
:101B10000E94FA060E9475068093810360917F03FC
:101B200080E090E00E94C0192FEF82E597E02150FD
:101B300080409040E1F700C000006091810381E0A7
:101B400090E00E94C01981E080934903809348038C
:101B5000089580919E038230C1F08330E9F08111B5
:101B600021C083E00E94970880919C03811104C0EA
:101B700081E080939C0308950E9468001092940372
:101B80001092920310929C03089583E00E9497089C
:101B900083E080939E03089583E00E94970882E08B
:101BA00080939E030895CF93DF9380918C038111DE
:101BB00048C00E9440052FEF80E792E0215080400E
:101BC0009040E1F700C000008CE493E00E94FA0628
:101BD0000E943606EC019093900380938F038091CE
:101BE000320390913303C817D90789F0D093330398
:101BF000C0933203109230038091960388230CF532
:101C00008F778093960381E0809348031AC0809178
:101C100030038F5F80933003833099F4C11520E146
:101C2000D20729F00E941507C817D90751F48091EF
:101C30009603882334F080688093960381E0809334
:101C40004803DF91CF91089520912803222321F0AA
:101C50001092280331E009C020912603222321F0AD
:101C60001092260331E001C030E020918C03213036
:101C700009F0AEC020919103211105C0209193037A
:101C8000222309F4A5C031110DC080918F039091DA
:101C900090038115904B08F44CC0809193038823E6
:101CA00009F447C080918303833038F48FEC97E0C8
:101CB0000197F1F700C000002DC0843050F49FE779
:101CC00028E381E0915020408040E1F700C000000F
:101CD00021C0873050F49FEF23EF81E091502040E6
:101CE0008040E1F700C0000015C08A3050F49FEF3B
:101CF00021EE84E0915020408040E1F700C00000D8
:101D000009C09FE72BE888E0915020408040E1F730
:101D100000C000000E9428011092910310929303CA
:101D20009FE728E381E0915020408040E1F700C028
:101D300000000E9440059FE729EA83E0915020407F
:101D40008040E1F700C000008CE493E00E94FA06B6
:101D50000E9436069093900380938F032091340362
:101D6000309135038217930789F090933503809360
:101D70003403109231038091960386FF18C08F7B45
:101D80008093960381E08093480311C080913103D2
:101D90008F5F80933103823050F08091960386FDEF
:101DA00006C080648093960381E08093480380910D
:101DB000900382958F708093850390918603981786
:101DC00021F081E08093490308951092490308951A
:101DD00020919C03213009F06CC040919403411183
:101DE00005C020919203222309F463C0311118C069
:101DF00020917C03822F817090E020E5289FF001E4
:101E0000299FF00D1124E853FD4F20918D0330914F
:101E10008E03808191812817390740F1442331F1E5
:101E200080917C0381110AC09FE728E381E09150F3
:101E300020408040E1F700C0000009C09FE729EA88
:101E400083E0915020408040E1F700C000000E94F4
:101E5000680010929403109292039FE728E381E0B8
:101E6000915020408040E1F700C000000E9424050E
:101E70009FE729EA83E0915020408040E1F700C0CD
:101E800000008CE493E00E94FA060E9411069093F1
:101E90008E0380938D030E94BB0A809383039091ED
:101EA0008403891721F081E08093490308951092FB
:101EB0004903089580919E03813049F50E94780579
:101EC0002FE788E391E0215080409040E1F700C087
:101ED00000008CE493E00E94FA060E94650680935D
:101EE0007F030E9494052FE788E391E02150804012
:101EF0009040E1F700C000008CE493E00E94FA06F5
:101F00000E9475068093810381E0809348030895C1
:101F10000E94D3022FEF80E792E021508040904052
:101F2000E1F700C000000E94580210929A03089541
:101F30000E94740281E080939A0380939503E6E9FE
:101F4000F3E09081936090838093490308950E9409
:101F5000EF0282E080939A0381E080939503E6E9A3
:101F6000F3E090819360908380934903089581EC1E
:101F70000E940E0281E080939B0380939503E6E923
:101F8000F3E09081956090838093490380917C0376
:101F9000853049F42FEF80E792E021508040904057
:101FA000E1F700C00000089588EA0E940E0282E076
:101FB00080939B0381E080939503E6E9F3E09081B1
:101FC000956090838093490380917C03853049F428
:101FD0002FEF80E792E0215080409040E1F700C071
:101FE0000000089588E70E940E0283E080939B031F
:101FF00081E080939503E6E9F3E09081956090831A
:102000008093490380917C03853049F42FEF80E76A
:1020100092E0215080409040E1F700C00000089518
:102020000F931F93CF93DF93CDB7DEB764970FB6AF
:10203000F894DEBF0FBECDBF8AE0ECE5F2E0DE0132
:10204000119601900D928A95E1F78AE0E6E6F2E0BA
:10205000DE011B9601900D928A95E1F70E94F20134
:1020600010929E030FE713E0F80180810E940E0298
:10207000F801608180E090E00E94C019FFEF21EE3E
:1020800084E0F15020408040E1F700C0000001E80A
:1020900013E0F80180810E943302F801608181E041
:1020A00090E00E94C01907E813E0BE01655F7F4F12
:1020B000F80180810E94DE03BE01655F7F4FF80159
:1020C00080810E943204FFEF21EE84E0F150204035
:1020D0008040E1F700C000000E947B0380917C03F8
:1020E00081110AC09FEFE5EEFAEA9150E040F0401E
:1020F000E1F700C0000009C02FEF83ED90E321500D
:1021000080409040E1F700C00000BE016F5F7F4F4C
:10211000809187030E94DE03EFEFF3ED20E3E150AF
:10212000F0402040E1F700C00000BE01655F7F4F36
:10213000809187030E94DE0364960FB6F894DEBF99
:102140000FBECDBFDF91CF911F910F910895809168
:102150009E03811117C080919803882329F00E9463
:10216000B702109298030AC00E949B0281E08093FC
:102170009803E6E9F3E080818860808381E08093C2
:10218000490308950E9410100895CF930E94F20110
:1021900010929E0380E090E00E94B819C82F8093AF
:1021A0007F0381E090E00E94B819809381038C2F17
:1021B0000E940E022FEF80E792E021508040904075
:1021C000E1F700C00000809181030E94330281E0AA
:1021D00080934903809348032FEF80E792E02150DA
:1021E00080409040E1F700C00000CF9108958091B9
:1021F0009E0381112AC080919B03811111C080919F
:102200009A03813039F018F0823039F01AC00E94F8
:10221000980F17C00E94A70F14C00E94880F11C00A
:10222000809180030E940E0210929B0310929A03E9
:102230002FEF80E792E0215080409040E1F700C00E
:10224000000081E08093480308950E94C51008951E
:1022500080919E0381111AC080919A0381110E947E
:10226000880F80919B03813041F020F0823041F053
:10227000833041F40E94B70F05C00E94D40F02C002
:102280000E94F20F81E08093480308950E94C510D8
:1022900008951F93CF93DF930E94430383E08093BD
:1022A0009D0311E010939503E6E9F3E080818F7DB3
:1022B000816180831093970382E080938903C7E84C
:1022C000D3E088810E9486041883109388031093BA
:1022D0008A03688179818A819B810E9497032FEF0D
:1022E00080E792E0215080409040E1F700C000007C
:1022F000809187030E94C704DF91CF911F910895B9
:10230000CF93DF930E945F0384E080939D0310923C
:102310009503E6E9F3E080818E7E80831092970337
:10232000C7E8D3E088810E9486048AE0888381E040
:10233000809388038093890310928A03688179814E
:102340008A819B810E9497032FEF80E792E02150C2
:1023500080409040E1F700C00000809187030E9418
:10236000C704DF91CF9108951F93CF93DF930E940D
:102370000B0311E010939D0310939503E6E9F3E03E
:1023800080818F7D816180831093970382E08093A9
:102390008903C7E8D3E088810E94860418831093DC
:1023A000880310938A03688179818A819B810E94C6
:1023B00097032FEF80E792E0215080409040E1F7B3
:1023C00000C00000809187030E94C704DF91CF9175
:1023D0001F910895CF93DF930E94270382E080939B
:1023E0009D0310929503E6E9F3E080818E7E808361
:1023F00010929703C7E8D3E088810E9486048AE0A0
:10240000888381E0809388038093890310928A03F4
:10241000688179818A819B810E9497032FEF80E7F1
:1024200092E0215080409040E1F700C00000809190
:1024300087030E94C704DF91CF91089580919D0387
:10244000823059F028F4882341F0813079F010C0AF
:10245000833031F0843039F00BC00E94491108C03C
:102460000E94801105C00E94B41102C00E94EA11AE
:1024700081E08093490380934803089580912E035F
:1024800090E08D30910558F5FC01EC5CFF4F0C9409
:102490009E190E940C0B23C00E94F70B20C00E94C3
:1024A000A10B1DC00E947D0C1AC00E94030D17C015
:1024B0000E94F71014C00E94281111C00E94A7109A
:1024C0000EC00E941E120BC00E94110D08C00E9477
:1024D0005C0D05C00E94A90D02C00E941E128091D1
:1024E0003B0390E088309105E0F4FC01EF5BFF4F87
:1024F0000C949E190E940C0B08950E94F70B0895EE
:102500000E94A10B08950E947D0C08950E941E1246
:1025100008950E94F71008950E94281108950E94BE
:10252000A710089580913C03816080933C03089537
:1025300080913C03846080933C03089588B18F614F
:1025400088B987B117B8089580913C03282F22706D
:10255000982F9370933079F021110FC0826080938F
:102560003C0342E952E16AE070E080E090E00E94C2
:10257000531580E0089581E0089580E0089596B1B4
:1025800094FF48C09F70993069F080913903882387
:1025900029F01092390381E080933803963061F17D
:1025A00080E001C082E020913703222329F01092BD
:1025B000370321E020933603933079F028F49130EB
:1025C000A1F0923081F012C0983029F09C3039F09F
:1025D000943039F00BC0816009C0846007C080610D
:1025E00005C0806203C0806401C0806881FF05C0AF
:1025F00091E09093390301C088E083FF03C091E02C
:1026000090933703882339F090913C039C7F9093FB
:102610003C03089580E0089520913D0390913A0392
:102620009227892319F060933B03089580913C031E
:1026300083FF10C082FF06C060933B038B7F8093B3
:102640003C03089548E952E16CE271E080E090E0DB
:102650000E94F314089580913D03883011F138F4FD
:102660008230A9F08430C1F08130A1F50BC08032F6
:1026700011F118F48031D1F02DC0803409F1803887
:1026800021F128C060E081E00E940C13089561E010
:1026900082E00E940C13089562E084E00E940C1313
:1026A000089563E088E00E940C13089564E080E1DF
:1026B0000E940C13089565E080E20E940C130895B7
:1026C00066E080E40E940C13089567E080E80E94B1
:1026D0000C13089580913C038B7F80933C0388E921
:1026E00092E10E948B1508958DE080933B030E9438
:1026F000A4128823C9F080913D0380933A030E947D
:10270000BF1280933D03823011F0883031F4809104
:102710003C03886080933C0305C080913C03877F25
:1027200080933C030E942B130895FC0111821082B8
:1027300080E090E7948383831582178287E0818706
:102740001286138688E0848781E08787108A8EE06E
:10275000818B128A148A138A168A158A178A108E18
:10276000118E128E138E148E158E168E178E10A249
:1027700011A212A213A214A20895DC01FC0180E0B0
:102780009BE191938F5F8A30E1F786E08C9382E042
:1027900011968C9311978BE112968C93129787E088
:1027A00013968C93139783E014968C93149781E07F
:1027B0001A968C931A971B961C920895813081F477
:1027C00088E19CEF9093850080938400EFE6F0E031
:1027D000808181608083E1E8F0E080818260808395
:1027E0000895CF92DF92EF92FF920F931F93CF93B2
:1027F000DF93CBEAD3E005ED13E0CC24CA94DC2CC4
:10280000E12CF12C88819981AA81BB81892B8A2BAB
:102810008B2B49F4C882D982EA82FB821092410351
:10282000EC81FD8109952696C017D10759F7DF91F4
:10283000CF911F910F91FF90EF90DF90CF9008956F
:10284000CF93DF93EBEAF3E025ED33E080819181D4
:10285000A281B3818F3F4FEF9407A105B10559F0D5
:102860000097A105B10539F00197A109B10980834D
:102870009183A283B3833696E217F30739F7DF918A
:10288000CF9108951F920F920FB60F9211242F939C
:102890003F934F935F936F937F938F939F93AF93E8
:1028A000BF93EF93FF9388E19CEF90938500809313
:1028B000840080919703882309F45CC080914203CF
:1028C00090914303A0914403B0914503BC01CD0115
:1028D0006F5F7F4F8F4F9F4F60934203709343030F
:1028E000809344039093450328EE33E040E050E0AA
:1028F0000E947C19672B682B692B09F047C081E087
:1029000080934003109242031092430310924403B9
:102910001092450380913E038F5F80933E03809128
:102920003E0399E8899F912D112492959695977071
:102930002CE3929F80191124811128C081E080939B
:10294000400310923E0380913F038F5F80933F03CB
:1029500080913F0399E8899F912D11249295969536
:1029600097702CE3929F8019112481110FC010924F
:102970003F030CC010924203109243031092440391
:102980001092450310923E0310923F034C9B09C0E6
:1029900080912903882329F01092290381E08093F4
:1029A0002803359B09C080912703882329F01092C2
:1029B000270381E08093260380914103811102C0A7
:1029C0000E942014FF91EF91BF91AF919F918F9141
:1029D0007F916F915F914F913F912F910F900FBE1B
:1029E0000F901F901895CF92DF92EF92FF920F9366
:1029F0001F93CF93DF93EBEAF3E025ED33E0C08044
:102A0000D180E280F380AFEFCA16DA06E104F10468
:102A100029F0A481B581A417B507E1F13696E21734
:102A2000F30769F70091AB031091AC032091AD035C
:102A30003091AE030F3F1F4F2105310581F0E1EBCF
:102A4000F3E021E030E0E901C080D180E280F38052
:102A5000AFEFCA16DA06E104F104B1F402C0C0E037
:102A6000D0E09E01220F331FF901EC0FFD1FEE0F86
:102A7000FF1FE555FC4F608371838283938310921F
:102A800041035583448306C02F5F3F4F369627305E
:102A90003105C9F6DF91CF911F910F91FF90EF9013
:102AA000DF90CF900895CF92DF92EF92FF92CF9375
:102AB000DF93EBEAF3E020E030E0E901C080D18071
:102AC000E280F380AFEFCA16DA06E104F104A1F068
:102AD000A481B581A417B50779F4220F331FC20F63
:102AE000D31FCC0FDD1FC555DC4F688379838A83E4
:102AF0009B831092410308C02F5F3F4F36962730CB
:102B00003105D9F60E94F314DF91CF91FF90EF9039
:102B1000DF90CF900895CF93DF93C0914103EBEA0C
:102B2000F3E0A5EDB3E04FEF5FEF60E070E0D0E0E1
:102B3000248135812817390729F440835183628322
:102B40007383CD2F3696EA17FB0791F7C0934103A5
:102B5000DF91CF910895EBEAF3E025ED33E08FEFBD
:102B60009FEFA0E0B0E080839183A283B383369689
:102B7000E217F307C1F70895CF93DF93CDB7DEB720
:102B80002A970FB6F894DEBF0FBECDBF8AE0E0E70C
:102B9000F2E0DE01119601900D928A95E1F78091A5
:102BA0009D03813059F485E08E838BE08F8388E02C
:102BB00088878FE089878BE18A870BC0833049F44F
:102BC00088E08E838CE08F83188686E0898784E096
:102BD0008A87809195038823E1F08091960380FF96
:102BE00018C020918303822F90E0019637E13A8349
:102BF0006AE070E00E9468197727FB01E45BFD4FF3
:102C000030813B83FC01E45BFD4F80818C8320930A
:102C1000840380918C038130A1F48091960385FF19
:102C200010C08CE08E8385E08F838FE4888780914D
:102C30008503E82FF0E0E45BFD4F90819987809356
:102C4000860380919803882369F08091960383FF1F
:102C500009C082E18E8383E18F8388E088878BE0DF
:102C600089878A8780919E03813081F486E18983F8
:102C70009AE49A831B8293E09C8399E09D839FE46E
:102C80009E831F8293E19887898713C08250823088
:102C900080F486E189838AE48A831B8283E08C83C3
:102CA00089E08D838FE48E838CE08F8318868DE09E
:102CB0008987BE016F5F7F4F809187030E94DE038B
:102CC0002A960FB6F894DEBF0FBECDBFDF91CF912D
:102CD0000895CF93DF93CDB7DEB72A970FB6F89458
:102CE000DEBF0FBECDBF8AE0E0E7F2E0DE01119665
:102CF00001900D928A95E1F780918C03813061F407
:102D0000809196038076803671F584E08A838DE029
:102D10008B8383E08C8327C0811125C0809196032B
:102D200088230CF580918F0390919003892B69F48F
:102D300083E18A838EE08B838C838BE18D8385E0B6
:102D40008E831F8281E188870EC083E18A838EE0B3
:102D50008B838C838BE18D838DE08E8384E08F83E6
:102D6000188681E1898780919503882339F18091C4
:102D7000960381FFEBC080919A03813031F485E0A6
:102D80008A831B828BE18C83E1C0823009F0DEC034
:102D900085E08A8381E08B838BE18C83D7C0E091CF
:102DA0009B038FEF8E0F833048F486E08A83F0E038
:102DB000E45BFD4F80818B838BE18C838091970353
:102DC000882309F442C080919803811108C0809142
:102DD0003F038093470380913E0380934603E09135
:102DE00047038DECE89F912D112496959695969525
:102DF000A92FB0E0A45BBD4F2C912E83990F292FF2
:102E0000220F220F920FE91BF0E0E45BFD4F90814F
:102E10009F839AE49887E0914603E89F812D1124CF
:102E2000869586958695A82FB0E0A45BBD4F9C91B2
:102E30009987880F982F990F990F890FE81BF0E059
:102E4000E45BFD4F80818A8704C010924703109293
:102E5000460380919E03882309F468C081E1898339
:102E60003AE43A83E0917F0329E2E29FA12D112405
:102E7000A295AF70B0E0A45BBD4F8C918B838DECBD
:102E8000E89F912D1124969596959695989F412DA2
:102E90001124469546954695440F542F550F550FCE
:102EA000450FA92FA41BB0E0A45BBD4F4C914C83F0
:102EB000990F492F440F440F940FE91BF0E0E45B96
:102EC000FD4F90819D8391E09E833F83E09181033C
:102ED000E29F212D112422952F70A22FB0E0A45B38
:102EE000BD4F9C919887E89F912D112496959695BA
:102EF0009695989F812D1124869586958695880FA5
:102F0000282F220F220F820FA92FA81BB0E0A45B4D
:102F1000BD4F8C918987990F892F880F880F980F43
:102F2000E91BF0E0E45BFD4F80818A8780914803D4
:102F3000811104C08091980381110DC0BE016F5FA3
:102F40007F4F809187030E94320405C080919603D1
:102F500082FD25CF33CF2A960FB6F894DEBF0FBE81
:102F6000CDBFDF91CF91089580914903882351F01F
:102F7000109249030E94BC158FE19EE40197F1F77E
:102F800000C0000080914003811104C0809148037B
:102F9000882331F00E946916109240031092480372
:102FA00008951F93CF93DF93CDB7DEB72A970FB65F
:102FB000F894DEBF0FBECDBF182F8AE0E0E7F2E045
:102FC000DE01119601900D928A95E1F76FE973E0A9
:102FD000812F0E94DE032FEF80E792E02150804096
:102FE0009040E1F700C0000085E18B83A091A90328
:102FF000EDECAE9FE12D1124E695E695E6958E2F3A
:10300000880F982F990F990F890FA81BEE2339F07D
:10301000F0E0E45BFD4F80818C8384E001C083E0BD
:10302000E1E0F0E0EC0FFD1FE80FF11DB0E0A45B64
:10303000BD4F9C91908391E0980FE1E0F0E0EC0FA0
:10304000FD1FE90FF11D9CE490839091AA0322E0FB
:10305000280FE1E0F0E0EC0FFD1FE20FF11D2DEC79
:10306000929F212D1124269526952695A22FB0E01A
:10307000A45BBD4F3C91308333E0380FE1E0F0E0DA
:10308000EC0FFD1FE30FF11D220F322F330F330F13
:10309000230F921BA92FB0E0A45BBD4F9C9190839E
:1030A00025E0280F94E0980FE1E0F0E0EC0FFD1F21
:1030B000E90FF11D9BE1908390917C03923081F1A7
:1030C00028F4992349F09130C9F05EC09330C9F1DA
:1030D000953009F448C058C0E1E0F0E0EC0FFD1F66
:1030E000E20FF11D91E290838A5FE1E0F0E0EC0FE6
:1030F000FD1FE80FF11D85E2808346C0E1E0F0E0AE
:10310000EC0FFD1FE20FF11D9EE190838A5FE1E06D
:10311000F0E0EC0FFD1FE80FF11D87E2808334C063
:10312000E1E0F0E0EC0FFD1FE20FF11D90E2908373
:103130008A5FE1E0F0E0EC0FFD1FE80FF11D9083E6
:1031400023C0E1E0F0E0EC0FFD1FE20FF11D93E280
:1031500090838A5FE1E0F0E0EC0FFD1FE80FF11DC6
:1031600080E2808311C0E1E0F0E0EC0FFD1FE20F90
:10317000F11D94E290838A5FE1E0F0E0EC0FFD1F27
:10318000E80FF11D82E28083BE016F5F7F4F812FC8
:103190000E9432042A960FB6F894DEBF0FBECDBF50
:1031A000DF91CF911F9108951F920F920FB60F924A
:1031B00011242F933F934F935F936F937F938F933C
:1031C0009F93AF93BF93EF93FF938091C60080933B
:1031D000F5038091F503803919F08F3F59F027C02E
:1031E00081E080934B039091F5039093D5038093F6
:1031F0004A032DC080914B03882349F1E0914A0393
:1032000021E02E0F20934A038091F503F0E0EB526A
:10321000FC4F808310924B038091D603809351031F
:1032200045ED53E06CE473E00E94BB0610C0809152
:103230004B03882361F0E0914A0381E08E0F809375
:103240004A038091F503F0E0EB52FC4F8083FF913D
:10325000EF91BF91AF919F918F917F916F915F910E
:103260004F913F912F910F900FBE0F901F90189587
:103270009093C5008093C40088E98093C10086E0E4
:103280008093C200089583E390E00E943819089566
:10329000E0ECF0E0908195FFFDCF8093C6000895AB
:1032A0000F931F93CF93DF93EC01062F662359F002
:1032B00010E089910E94481985E38A95F1F7000092
:1032C0001F5F1013F6CFDF91CF911F910F910895DB
:1032D00097FB072E16F4009407D077FD09D00E94C3
:1032E000A41907FC05D03EF4909581959F4F089551
:1032F000709561957F4F0895A1E21A2EAA1BBB1B02
:10330000FD010DC0AA1FBB1FEE1FFF1FA217B307B1
:10331000E407F50720F0A21BB30BE40BF50B661FC7
:10332000771F881F991F1A9469F76095709580958B
:1033300090959B01AC01BD01CF010895EE0FFF1FD9
:103340000590F491E02D0994AA1BBB1B51E107C025
:10335000AA1FBB1FA617B70710F0A61BB70B881F25
:10336000991F5A95A9F780959095BC01CD010895B4
:10337000F999FECF92BD81BDF89A992780B508953D
:10338000262FF999FECF1FBA92BD81BD20BD0FB681
:10339000F894FA9AF99A0FBE01960895F894FFCF1F
:1033A00081090002FF81090422FF81090444FF8191
:1033B000090443FF81090428FF81090448FF8109AA
:1033C0000447FF81010424560001FF810104742099
:1033D000FF8101047410FF81010473301B1B1B1B50
:1033E0001B1B1B1B1B1BFF81010473201B1B1B1BB7
:1033F0001B1B1B1B1B1BFF81010473100000000023
:10340000000000000000FF8101047402FF8101043C
:103410007400FF81010473021B1B1B1B1B1B1B1B66
:103420001B1BFF81010473011B1B1B1B1B1B1B1B95
:103430001B1BFF810104730000000000000000005E
:103440000000FF8101043F017FFF8101046103FF50
:103450008101046102FF8101046603FF81010466AA
:1034600002FF8101046304FF8101046300FF810105
:10347000046203FF8101046202FF81010442000033
:103480000000FF8101040200FF81010444000000EC
:1034900000FF8101044300000000FF8101043505A5
:1034A000FF8101043504FF8101045700FF810104FD
:1034B0003803FF8101043802FF8101040833FF81D2
:1034C00001040823FF8101040800FF8101040602B2
:1034D000FF8101044700000000FF8101040733FF62
:1034E0008101040723FF8101040700FF271E1F201D
:1034F00021222324252600010203040512001504BD
:10350000031B1B1B1B1B1B1B1B1B1B1B1B1B1B1B23
:103510001B1B1B1B1B1B1B1B1B1B00005118BE2254
:10352000F628452D8630203349351E37B338123AF8
:10353000423B473C253DDF3D7B3EFB3E643FBA3F7F
:10354000004006440047084A004DE84F8A5227547D
:103550008055D05600582059305A385B365C305D63
:10356000305E265F20601861006200006018C02293
:103570000029502D90302033503540373039E03A13
:10358000103C303D203EF03EA03F4041804480470B
:10359000704A004D804FB051A05330558056A0570F
:1035A000A0589059705A305B005CA05C865D505EFC
:1035B000005FA05F4060206100625F0466046504F4
:0635C000500457045904F9
:00000001FF
