S012000043414D636F6E74726F6C2E7372656340
S11300000C9448000C9465000C9465000C946500F5
S11300100C9465000C9465000C9465000C946500C8
S11300200C9465000C9465000C9465000C946500B8
S11300300C9465000C9476100C9465000C94650087
S11300400C9465000C9465000C944E140C9465009B
S11300500C9465000C9465000C9465000C94650088
S11300600C9465000C9465006D0E700E730E760E84
S1130070790E7C0E820E7F0E850E880E8B0E8E0EF0
S11300809B0E9E0EA10EA40EA70EAA0EB00EAD0ED0
S113009011241FBECFEFD4E0DEBFCDBF12E0A0E03D
S11300A0B1E0E4E9FAE202C005900D92AA36B10784
S11300B0D9F723E0AAE6B2E001C01D92A633B20745
S11300C0E1F70E94C3070C9448150C9400008EE2DB
S11300D0EDE8F2E0DF01982F1D929A95E9F7DF0130
S11300E01D928A95E9F78AEF91E09183808386E0F7
S11300F080938F0281E08093900266E08AEF91E022
S11301000E94CA1408958EE2EDE8F2E0DF01982F10
S11301101D929A95E9F7DF011D928A95E9F784EF1C
S113012091E09183808386E080938F0281E08093C5
S1130130900266E084EF91E00E94CA1408958EE272
S1130140EDE8F2E0DF01982F1D929A95E9F7DF01BF
S11301501D928A95E9F78EEE91E09183808386E083
S113016080938F0281E08093900266E08EEE91E0AE
S11301700E94CA140895CF93DF938EE2ADE8B2E0F3
S1130180ED01E82F1992EA95E9F7E5EEF1E0ED01CA
S113019019928A95E9F7ED93FC9389E080938F0295
S11301A081E080939002A091C302B0E0AA0FBB1F2C
S11301B0A050BE4F8D919C9111979093CE02809345
S11301C0CD029C012227307F232F22952F70248378
S11301D09C0122273F703583807F992792958295D1
S11301E08F7089279F70892786838C918F7087836E
S11301F069E0CF010E94CA14DF91CF9108958EE285
S1130200EDE8F2E0DF01982F1D929A95E9F7DF01FE
S11302101D928A95E9F78FED91E09183808386E0C2
S113022080938F0281E08093900266E08FED91E0ED
S11302300E94CA1408958EE2EDE8F2E0DF01982FDF
S11302401D929A95E9F7DF011D928A95E9F789EDE8
S113025091E09183808386E080938F0281E0809394
S1130260900266E089ED91E00E94CA1408958EE23E
S1130270EDE8F2E0DF01982F1D929A95E9F7DF018E
S11302801D928A95E9F783ED91E09183808386E05E
S113029080938F0281E08093900266E083ED91E089
S11302A00E94CA1408958EE2EDE8F2E0DF01982F6F
S11302B01D929A95E9F7DF011D928A95E9F78DEC75
S11302C091E09183808386E080938F0281E0809324
S11302D0900266E08DEC91E00E94CA141092CC0268
S11302E00895CF938EE2EDE8F2E0DF01982F1D929E
S11302F09A95E9F7C1E0DF011D928A95E9F787EC49
S113030091E09183808386E080938F02C093900272
S113031066E087EC91E00E94CA14C093CC02CF91AE
S113032008958EE2EDE8F2E0DF01982F1D929A9590
S1130330E9F7DF011D928A95E9F781EC91E0918359
S1130340808386E080938F0281E08093900266E050
S113035081EC91E00E94CA1408958EE2EDE8F2E087
S1130360DF01982F1D929A95E9F7DF011D928A9576
S1130370E9F78BEB91E09183808386E080938F0291
S113038081E08093900266E08BEB91E00E94CA14B6
S113039008958EE2EDE8F2E0DF01982F1D929A9520
S11303A0E9F7DF011D928A95E9F785EB91E09183E6
S11303B0808386E080938F0281E08093900266E0E0
S11303C085EB91E00E94CA140895CF93DF939EE2D7
S11303D0ADE8B2E0ED01E92F1992EA95E9F7ECEA0C
S11303E0F1E0ED0119929A95E9F7ED93FC9399E008
S11303F090938F0291E090939002982F92959F7022
S113040096838F70878369E0CF010E94CA14DF91BD
S1130410CF910895CF93DF939EE2ADE8B2E0ED0172
S1130420E92F1992EA95E9F7E3EAF1E0ED0119926F
S11304309A95E9F7ED93FC9399E090938F0291E0FC
S113044090939002982F92959F7096838F708783D4
S113045069E0CF010E94CA14DF91CF9108958EE222
S1130460EDE8F2E0DF01982F1D929A95E9F7DF019C
S11304701D928A95E9F78DE991E09183808386E066
S113048080938F0281E08093900266E08DE991E091
S11304900E94CA140895CF93DF938EE2ADE8B2E0D0
S11304A0ED01E82F1992EA95E9F7E4E9F1E0ED01AD
S11304B019928A95E9F7ED93FC9389E080938F0272
S11304C081E0809390028091CB02982F92959F7047
S11304D096838F70878369E0CF010E94CA14DF91ED
S11304E0CF9108958EE2EDE8F2E0DF01982F1D929E
S11304F09A95E9F7DF011D928A95E9F78EE891E074
S11305009183808386E080938F0281E080939002C0
S113051066E08EE891E00E94CA1408958EE2EDE848
S1130520F2E0DF01982F1D929A95E9F7DF011D9201
S11305308A95E9F788E891E09183808386E0809347
S11305408F0281E08093900266E088E891E00E9447
S1130550CA1408958EE2EDE8F2E0DF01982F1D92AF
S11305609A95E9F7DF011D928A95E9F782E891E00F
S11305709183808386E080938F0281E08093900250
S113058066E082E891E00E94CA1408958EE2EDE8E4
S1130590F2E0DF01982F1D929A95E9F7DF011D9291
S11305A08A95E9F78CE791E09183808386E08093D4
S11305B08F0281E08093900266E08CE791E00E94D4
S11305C0CA1408958EE2EDE8F2E0DF01982F1D923F
S11305D09A95E9F7DF011D928A95E9F786E791E09C
S11305E09183808386E080938F0281E080939002E0
S11305F066E086E791E00E94CA1408958EE2EDE871
S1130600F2E0DF01982F1D929A95E9F7DF011D9220
S11306108A95E9F780E791E09183808386E080936F
S11306208F0281E08093900266E080E791E00E946F
S1130630CA1408958EE2EDE8F2E0DF01982F1D92CE
S11306409A95E9F7DF011D928A95E9F78AE691E028
S11306509183808386E080938F0281E0809390026F
S113066066E08AE691E00E94CA1408958EE2EDE8FD
S1130670F2E0DF01982F1D929A95E9F7DF011D92B0
S11306808A95E9F784E691E09183808386E08093FC
S11306908F0281E08093900266E084E691E00E94FC
S11306A0CA1408958EE2EDE8F2E0DF01982F1D925E
S11306B09A95E9F7DF011D928A95E9F78DE591E0B6
S11306C09183808387E080938F0281E080939002FE
S11306D067E08DE591E00E94CA140895CF93DF93FB
S11306E02EE2ADE8B2E0ED01E22F1992EA95E9F7C6
S11306F0EDE4F1E0ED0119922A95E9F7ED93FC930D
S113070020E120938F0221E02093900260616483B2
S113071076838783908760E1CF010E94CA14DF91BA
S1130720CF910895CF93DF939EE2EDE8F2E0DF01ED
S1130730C92F1D92CA95E9F7ADE3B1E0EF01199213
S11307409A95E9F7B183A08390E190938F0291E0A9
S113075090939002806214968C93E62FF72F85E095
S113076090E02191A0918D02B0918E02A80FB91F43
S11307702C9301968F309105A1F760918F0280919F
S11307808D0290918E020E94CA14DF91CF91089538
S1130790CF93DF939EE2EDE8F2E0DF01C92F1D92D3
S11307A0CA95E9F7ADE2B1E0EF0119929A95E9F73C
S11307B0B183A08390E190938F0291E09093900293
S11307C0806314968C93E62FF72F85E090E02191B7
S11307D0A0918D02B0918E02A80FB91F2C9301969F
S11307E08F309105A1F760918F0280918D029091D5
S11307F08E020E94CA14DF91CF9108958EE2EDE833
S1130800F2E0DF01982F1D929A95E9F7DF011D921E
S11308108A95E9F787E291E09183808386E080936B
S11308208F0281E08093900266E087E291E00E946B
S1130830CA1408958EE2EDE8F2E0DF01982F1D92CC
S11308409A95E9F7DF011D928A95E9F781E291E033
S11308509183808386E080938F0281E0809390026D
S113086066E081E291E00E94CA1408958EE2EDE808
S1130870F2E0DF01982F1D929A95E9F7DF011D92AE
S11308808A95E9F789E191E09183808388E08093F8
S11308908F0281E08093900268E089E191E00E94F8
S11308A0CA1408958EE2EDE8F2E0DF01982F1D925C
S11308B09A95E9F7DF011D928A95E9F784E191E0C1
S11308C09183808385E080938F0289E080939002F6
S11308D065E084E191E00E94CA1408958EE2EDE897
S11308E0F2E0DF01982F1D929A95E9F7DF011D923E
S11308F08A95E9F78FE091E09183808385E0809386
S11309008F0289E08093900265E08FE091E00E947D
S1130910CA1408958EE2EDE8F2E0DF01982F1D92EB
S11309209A95E9F7DF011D928A95E9F78AE091E04B
S11309309183808385E080938F0289E08093900285
S113094065E08AE091E00E94CA1408958EE2EDE821
S1130950F2E0DF01982F1D929A95E9F7DF011D92CD
S11309608A95E9F785E091E09183808385E080931F
S11309708F0289E08093900265E085E091E00E9417
S1130980CA1408958EE2EDE8F2E0DF01982F1D927B
S11309909A95E9F7DF011D928A95E9F780E091E0E5
S11309A09183808385E080938F0289E08093900215
S11309B065E080E091E00E94CA1408958091BA0233
S11309C08430F1F42091AA022F7030E0322F2227D4
S11309D03295307F8091AB028F7090E0982F8827FA
S11309E0820F931F2091AD022F70820F911D2091D1
S11309F0AC022F7030E1239F800D911D112402C0A1
S1130A0080E090E09093BC028093BB0208958091B3
S1130A10BA028430F1F42091AA022F7030E0322F10
S1130A2022273295307F8091AB028F7090E0982F0F
S1130A308827820F931F2091AD022F70820F911D82
S1130A402091AC022F7030E1239F800D911D112461
S1130A50089580E090E008958091BA028430F1F422
S1130A602091AA022F7030E0322F22273295307F56
S1130A708091AB028F7090E0982F8827820F931F8C
S1130A802091AD022F70820F911D2091AC022F7026
S1130A9030E1239F800D911D1124089580E090E0A2
S1130AA008958091BA02873051F48091AC0290E0AD
S1130AB0982F88272091AD02820F911D089580E020
S1130AC090E008958091BA02843051F49091AC0280
S1130AD08091AD028F7020E1929F800D11240895C2
S1130AE080E008958091BA02843051F49091AC0270
S1130AF08091AD028F7020E1929F800D11240895A2
S1130B0080E00895DC0111961C921E9212961C92AC
S1130B1012978FEF13968C93139792E014969C93ED
S1130B20149715968C93159716961C9216971796EC
S1130B301C92179718961C921897FD01399680E11C
S1130B4011928150E9F759961C9259975A961C9222
S1130B505A975B961C925B975C961C925C97FD017E
S1130B607D9611928F5F8031E1F79D961C920895D6
S1130B70807F803541F0803619F08034B9F506C0A5
S1130B80211126C030C0211112C01EC0222361F0E1
S1130B90FA0180E090E03191DB01A80FB91F1696AD
S1130BA03C9301968217B8F3FB0114820895FA016D
S1130BB0DB0119964F5F5F4F2150420F511D819108
S1130BC08D93E417F507D9F781E0FB018483089539
S1130BD0942FDB015996E42FF52F81918D938E2F5D
S1130BE0891B8217D0F381E0FB0184830895CF939E
S1130BF0DF93EC018B858F3F59F480E007C091911E
S1130C009F3F21F08F5F9D938E30C9F78DA707C05A
S1130C108D8FFE013C96DE015E9681E0F0CFDF9180
S1130C20CF91089580919102813081F48091900256
S1130C30893049F4809192028075803521F48DE8E1
S1130C4092E00E94F70582E08093910208958091DA
S1130C5073028160809373020895809173028460AB
S1130C6080937302089588E284B98FEF85B917B829
S1130C7088B99AEE9AB98BB90895CF93DF9333B1BB
S1130C80E6B169B125E080E090E0A62FA071F32FD2
S1130C90F470E072732F70746470532F5170432F8B
S1130CA0427033230CF08160A11101C08260F11104
S1130CB001C08460E11101C08860711101C08061CC
S1130CC0611101C08062511101C08064411101C0F1
S1130CD08068CFE1DEE42197F1F700C000002150E5
S1130CE001F781FF03C021E020936D0283FF03C05D
S1130CF021E020936B02009729F0209173022C7F4E
S1130D0020937302DF91CF91089580917302282F6D
S1130D102270982F9370933079F021110FC0826064
S1130D208093730247E256E064E670E080E090E06E
S1130D300E94871180E0089581E0089580E008957D
S1130D4040916E0250916F022091700230917102B5
S1130D502427352782239323892B19F06093720269
S1130D6008958091730283FF0DC082FF03C06093D6
S1130D70720208954DE256E06CE271E080E090E08A
S1130D800E942711089580916E0290916F028A301B
S1130D90910509F46BC088F48430910589F130F42D
S1130DA08130910509F1029729F166C086309105D9
S1130DB009F450C0089751F15FC08032910591F158
S1130DC038F48C30910509F44BC0409729F154C094
S1130DD08038910599F1811521E09207A9F18034B9
S1130DE0910509F049C024C060E081E090E00E94D0
S1130DF0A006089561E082E090E00E94A0060895B4
S1130E0062E084E090E00E94A006089563E088E038
S1130E1090E00E94A006089564E080E190E00E94C2
S1130E20A006089565E080E290E00E94A00608957F
S1130E3066E080E490E00E94A006089567E080E800
S1130E4090E00E94A006089568E080E091E00E948E
S1130E50A006089569E086E090E00E94A006089547
S1130E606AE08CE090E00E94A00608956BE08AE0BE
S1130E7090E00E94A0060895809173028B7F809376
S1130E8073028DE296E00E94BF1108958CE0809376
S1130E9072020E948506882321F180916E0290914E
S1130EA06F0290937102809370020E943D069093AA
S1130EB06F0280936E028230910511F0089751F40D
S1130EC08091DC02811106C0809173028860809356
S1130ED0730205C080917302877F809373020E941E
S1130EE0C3060895559A08955D9808955D9A0895E6
S1130EF0CF93DF93D82F8823D1F0C0E00E947607E8
S1130F002FE78AE196E0215080409040E1F700C04D
S1130F1000000E9474072FE78AE196E02150804088
S1130F209040E1F700C00000CF5FCD13E7CFDF9121
S1130F30CF91089581E00E9412100E9472070E94CE
S1130F4033060E94DF110E94BF0E0E94BD147894E4
S1130F5008950E943D06049721F00E94E00E84301B
S1130F6089F484E090E090937102809370029093EE
S1130F706F0280936E0280937B0280937E0281E0F5
S1130F808093D90208950E949A078DE892E00E9406
S1130F9082058BEB92E00E94B60F0E94A9078FEDA9
S1130FA092E00E94E20F0E94F8070E9446070E9406
S1130FB025100E94950F0E94620E0E943D0B0E9414
S1130FC012060E945A0C80918102811108C08091FE
S1130FD08A02811104C080918902882331F38FE150
S1130FE09EE40197F1F700C000000E94A013DDCF3A
S1130FF02FEF89E698E1215080409040E1F700C04E
S1131000000088E10E9478070E9476070E94C204CB
S11310102FE788E391E0215080409040E1F700C041
S113102000008DE892E00E94F7050E94DE040E9411
S1131030FE032FE788E391E0215080409040E1F7E0
S113104000C000000E941A042FE788E391E02150B9
S113105080409040E1F700C000008091D9028823CD
S113106001F161E075E082E090E00E946E032FE7F9
S113107088E391E0215080409040E1F700C00000F7
S113108081E00E94BD138AE00E9478070E94FE035B
S11310902FE788E391E0215080409040E1F700C0C1
S11310A000006091C7027091C8028091C9029091BA
S11310B0CA020E946E032FE788E391E0215080402A
S11310C09040E1F700C000000E941A042FE788E373
S11310D091E0215080409040E1F700C000000E9460
S11310E074070E94C9012FE788E391E021508040F2
S11310F09040E1F700C000000E948A042FE788E3D3
S113110091E0215080409040E1F700C000008DE85C
S113111092E00E94F7050E9462058093BF028093CB
S1131120C0020E94A6042FE788E391E0215080408A
S11311309040E1F700C000008DE892E00E94F705BE
S11311400E9472058093C1028093C2028FE39CE9DE
S11311500197F1F700C000000E9453019FE728E3C4
S113116081E0915020408040E1F700C000000E94DF
S113117076070E9491019FE728E381E09150204087
S11311808040E1F700C000000E9436049FE728E396
S113119081E0915020408040E1F700C000000E94AF
S11311A0BB0082E00E94780708954091CD025091DF
S11311B0CE02809100029091010284179507D8F421
S11311C0E2E0F2E081E0219131912417350720F427
S11311D08F5F8832C1F711C0E82FF0E0EE0FFF1FD8
S11311E0E050FE4F208131812417350789F0882390
S11311F079F08150089580E00895E82FF0E0EE0F33
S1131200FF1FE050FE4F208131812417350789F7F5
S113121008958091CC02882319F08130E9F14AC005
S11312200E94710181E08093CC028091DD02982FAD
S11312309D7F11F0843029F4E6EDF2E08081806234
S11312408083E6EDF2E080818160808381E0809399
S1131250D5022FE788E391E0215080409040E1F7E8
S113126000C000000E946E042FE788E391E0215043
S113127080409040E1F700C000008DE892E00E94B9
S1131280F7050E942C05EFECF2E0808391839295A0
S11312909F709093C5020EC00E9453011092CC021D
S11312A0E6EDF2E080811092D5028E79808381E0B0
S11312B08093890281E080938A0208958091D50207
S11312C0882341F01092D502E6EDF2E08081887F18
S11312D0808308C081E08093D502E6EDF2E080814E
S11312E08760808381E080938A028091DA02811191
S11312F004C08091DB02882319F081E08093890285
S11313000895CF93DF938091DE02811150C08091C4
S1131310CC02882321F0813009F441C065C080915A
S1131320DC0281110DC01092D1028091C302882386
S113133009F45AC081508093C3020E94BB0026C0A6
S11313400E9452042FE789EA93E0215080409040A4
S1131350E1F700C000008DE892E00E94F7050E94CA
S11313600705EC019093CE028093CD020E94D5082C
S11313708093C30280910002909101028C179D0713
S113138028F40E949F0081E08093D20281E0809340
S11313908A02E6EDF2E080818160808325C00E94AC
S11313A01B0181E08093D10280938A021DC08230A8
S11313B069F48091BF028230B8F081508093BF02FB
S11313C00E94E50181E0809389020EC0833061F4BC
S11313D08091C102823040F081508093C1020E940A
S11313E00A0281E080938902DF91CF910895CF931F
S11313F0DF938091DE02811150C08091CC0288235A
S113140021F0813009F441C065C08091DC02811172
S11314100DC01092D3028091C302873208F05AC0E3
S11314208F5F8093C3020E94BB0026C00E945204B7
S11314302FE789EA93E0215080409040E1F700C013
S113144000008DE892E00E94F7050E940705EC0178
S11314509093CE028093CD020E94D5088093C3025C
S113146080914E0290914F02C817D90728F40E9428
S1131470830081E08093D40281E080938A02E6EDC8
S1131480F2E080818160808325C00E94370181E081
S11314908093D30280938A021DC0823069F48091C4
S11314A0BF028F3FB9F08F5F8093BF020E94E501B6
S11314B081E0809389020EC0833061F48091C1027F
S11314C08F3F41F08F5F8093C1020E940A0281E046
S11314D080938902DF91CF9108958091D702882368
S11314E019F01092D70203C081E08093D70281E003
S11314F08093890208958091DE02811146C083E0C1
S11315000E94780781E08093DE020E94AD010E9470
S11315108A042FEF80E792E0215080409040E1F769
S113152000C000008DE892E00E94F7050E94620569
S11315308093BF020E94A6042FEF80E792E021501F
S113154080409040E1F700C000008DE892E00E94E6
S1131550F7050E9472058093C1026091BF0280E08A
S113156090E00E943A152FEF81EE94E021508040E4
S11315709040E1F700C000006091C10281E090E07A
S11315800E943A1581E080938A0208958091DE02D8
S1131590811148C083E00E94780782E08093DE02D4
S11315A00E94C9010E948A042FEF80E792E0215033
S11315B080409040E1F700C000008DE892E00E9476
S11315C0F7050E9462058093BF020E94A6042FEFD4
S11315D080E792E0215080409040E1F700C0000095
S11315E08DE892E00E94F7050E9472058093C10283
S11315F06091BF0280E090E00E943A152FEF82E5EF
S113160097E0215080409040E1F700C000006091D5
S1131610C10281E090E00E943A1581E080938A0241
S11316208093890208958091DE028230C1F0833074
S1131630E9F0811121C083E00E9478078091DC02E7
S1131640811104C081E08093DC0208950E94670048
S11316501092D4021092D2021092DC02089583E018
S11316600E94780783E08093DE02089583E00E945D
S1131670780782E08093DE02089580916C028823CB
S113168021F010926C0291E009C080916A028823D3
S113169021F010926A0291E001C090E08091CC02A6
S11316A0813009F0AEC08091D102811105C08091D2
S11316B0D302882309F4A5C091110DC08091CF02F3
S11316C09091D0028115904B08F44CC08091D302C4
S11316D0882309F447C08091C302833038F48FEC27
S11316E097E00197F1F700C000002DC0843050F45A
S11316F09FE728E381E0915020408040E1F700C05B
S1131700000021C0873050F49FEF23EF81E0915017
S113171020408040E1F700C0000015C08A3050F43A
S11317209FEF21EE84E0915020408040E1F700C01B
S1131730000009C09FE72BE888E0915020408040DA
S1131740E1F700C000000E94FF001092D102109245
S1131750D3029FE728E381E0915020408040E1F7E5
S113176000C000000E946E049FE729EA83E09150C4
S113177020408040E1F700C000008DE892E00E9424
S1131780F7050E942C059093D0028093CF022091FC
S11317907502309176028217930789F0909376024E
S11317A080937502109274028091D60286FF18C04D
S11317B08F7B8093D60281E08093890211C080914F
S11317C074028F5F80937402823050F08091D6024D
S11317D086FD06C080648093D60281E080938902EE
S11317E08091D00282958F708093C5029091C60239
S11317F0981721F081E080938A02089510928A025A
S113180008958091DC02813009F053C04091D402E4
S1131810411105C08091D202882309F44AC0911174
S11318200DC02091CD023091CE0280914E02909154
S11318304F0228173907D0F04423C1F09FE729EA63
S113184083E0915020408040E1F700C000000E94F6
S113185067001092D4021092D2029FE728E381E03D
S1131860915020408040E1F700C000000E945204E3
S11318709FE729EA83E0915020408040E1F700C0CF
S113188000008DE892E00E94F7050E9407059093FE
S1131890CE028093CD020E94D5088093C30290911A
S11318A0C402891721F081E080938A02089510927E
S11318B08A0208958091DE02813019F50E948A041B
S11318C08FE59AEE0197F1F700C000008DE892E0F1
S11318D00E94F7050E9462058093BF020E94A6043D
S11318E08FE59AEE0197F1F700C000008DE892E0D1
S11318F00E94F7050E9472058093C10281E08093E3
S1131900890208950E94AA022FEF80E792E02150F5
S113191080409040E1F700C000000E942F02109226
S1131920DA0208950E944B0281E08093DA028093E8
S1131930D502E6EDF2E090819360908380938A0271
S113194008950E94C60282E08093DA0281E08093C7
S1131950D502E6EDF2E090819360908380938A0251
S1131960089581EC0E94E50181E08093DB0280937D
S1131970D502E6EDF2E090819560908380938A022F
S1131980089588EA0E94E50182E08093DB0281E009
S11319908093D502E6EDF2E0908195609083809388
S11319A08A02089588E70E94E50183E08093DB02C0
S11319B081E08093D502E6EDF2E09081956090831A
S11319C080938A020895CF93DF930E94C9011092F5
S11319D0DE02CFEBD2E088810E94E501688180E0DD
S11319E090E00E943A152FEF81EE94E02150804060
S11319F09040E1F700C00000C1ECD2E088810E9471
S1131A000A02688181E090E00E943A150E94FE0378
S1131A102FEF81EE94E0215080409040E1F700C028
S1131A2000000E9452032FEF8FE493EC215080407A
S1131A309040E1F700C00000DF91CF9108958091BC
S1131A40DE02811117C08091D802882329F00E94F8
S1131A508E021092D8020AC00E94720281E0809322
S1131A60D802E6EDF2E080818860808381E0809393
S1131A708A0208950E94E30C0895CF930E94C9013D
S1131A801092DE0280E090E00E943215C82F80930D
S1131A90BF0281E090E00E9432158093C1028C2F36
S1131AA00E94E5012FEF80E792E0215080409040B2
S1131AB0E1F700C000008091C1020E940A0281E0A7
S1131AC080938A02809389022FEF80E792E021506D
S1131AD080409040E1F700C00000CF9108958091CC
S1131AE0DE0281112AC08091DB02811111C0809134
S1131AF0DA02813039F018F0823039F01AC00E94CD
S1131B00920C17C00E94A10C14C00E94820C11C038
S1131B108091C0020E94E5011092DB021092DA0269
S1131B202FEF80E792E0215080409040E1F700C021
S1131B30000081E08093890208950E943D0D08957C
S1131B408091DE0281111AC08091DA0281110E9413
S1131B50820C8091DB02813041F020F0823041F030
S1131B60833041F40E94B10C05C00E94C10C02C034
S1131B700E94D20C81E08093890208950E943D0D59
S1131B8008950E941A0383E08093DD0281E080932C
S1131B90D502E6EDF2E090819F7D91619083809380
S1131BA0D70292E09093C902E7ECF2E0808380933D
S1131BB0C8028093CA0260817181828193810E94EC
S1131BC06E0308950E94360384E08093DD02109230
S1131BD0D502E6EDF2E080818E7E80831092D702FA
S1131BE0E7ECF2E08AE0808381E08093C80280938E
S1131BF0C9021092CA0260817181828193810E941C
S1131C006E0308950E94E20281E08093DD028093D6
S1131C10D502E6EDF2E090819F7D916190838093FF
S1131C20D70292E09093C902E7ECF2E080838093BC
S1131C30C8028093CA0260817181828193810E946B
S1131C406E0308950E94FE0282E08093DD021092EA
S1131C50D502E6EDF2E080818E7E80831092D70279
S1131C60E7ECF2E08AE0808381E08093C80280930D
S1131C70C9021092CA0260817181828193810E949B
S1131C806E0308958091DD02823059F028F4882390
S1131C9041F0813079F010C0833031F0843039F074
S1131CA00BC00E94C10D08C00E94E20D05C00E9435
S1131CB0020E02C00E94220E81E080938A02809369
S1131CC0890208958091720290E08C30910540F56C
S1131CD0FC01EC5CFF4F0C9418150E94090920C00C
S1131CE00E9481091DC00E945E091AC00E94F70962
S1131CF017C00E946D0A14C00E946F0D11C00E948B
S1131D00A00D0EC00E941F0D0BC00E94420E08C001
S1131D100E947B0A05C00E94C60A02C00E94130BDF
S1131D2080917C0290E088309105E0F4FC01E05C55
S1131D30FF4F0C9418150E94090908950E94810907
S1131D4008950E945E0908950E94F70908950E946B
S1131D506D0A08950E946F0D08950E94A00D0895C4
S1131D600E941F0D089580917D02816080937D0201
S1131D70089580917D02846080937D02089588B1E6
S1131D808F6188B987B117B8089580917D02282F93
S1131D902270982F9370933079F021110FC08260D4
S1131DA080937D0243EB5EE06AE070E080E090E0C7
S1131DB00E94871180E0089581E0089580E00895ED
S1131DC096B194FF48C09F70993069F080917A026F
S1131DD0882329F010927A0281E080937902963068
S1131DE061F180E001C082E020917802222329F091
S1131DF01092780221E020937702933079F028F44E
S1131E009130A1F0923081F012C0983029F09C30CA
S1131E1039F0943039F00BC0816009C0846007C088
S1131E20806105C0806203C0806401C0806881FF56
S1131E3005C091E090937A0201C088E083FF03C05B
S1131E4091E090937802882339F090917D029C7FF1
S1131E5090937D02089580E0089520917E029091F0
S1131E607B029227892319F060937C020895809164
S1131E707D0283FF10C082FF06C060937C028B7FCB
S1131E8080937D02089549EB5EE06CE271E080E0AE
S1131E9090E00E942711089580917E02883011F10C
S1131EA038F48230A9F08430C1F08130A1F50BC040
S1131EB0803211F118F48031D1F02DC0803409F151
S1131EC0803821F128C060E081E00E942D0F089540
S1131ED061E082E00E942D0F089562E084E00E9498
S1131EE02D0F089563E088E00E942D0F089564E0AB
S1131EF080E10E942D0F089565E080E20E942D0F7D
S1131F00089566E080E40E942D0F089567E080E85C
S1131F100E942D0F089580917D028B7F80937D0216
S1131F2089EB9EE00E94BF1108958CE080937C02AF
S1131F300E94C50E8823C9F080917E0280937B02A3
S1131F400E94E00E80937E02823011F0883031F4DA
S1131F5080917D02886080937D0205C080917D021E
S1131F60877F80937D020E944C0F0895FC011182AB
S1131F70108280E090E7938382831482168287E044
S1131F8080871186128688E083878AE0848785E0CB
S1131F90858781E0868717868EE0808B118A138A75
S1131FA0128A158A148A168A178A108E118E128E36
S1131FB0138E148E158E168E178E10A211A212A2D5
S1131FC013A20895DC01FC0180E09BE191938F5FF3
S1131FD08A30E1F71C928BE011968C9311978FE471
S1131FE012968C9312978EE113968C93139787E233
S1131FF014968C93149783E215968C9315978BE122
S113200016968C93169786E017968C93179782E012
S113201018968C93189781E01A968C931A971B96AE
S11320201C920895813081F488E19CEF909385009F
S113203080938400EFE6F0E0808181608083E1E8B2
S1132040F0E08081826080830895CF92DF92EF92E6
S1132050FF920F931F93CF93DF93CBEED2E005E172
S113206013E0CC24CA94DC2CE12CF12C88819981D6
S1132070AA81BB81892B8A2B8B2B49F4C882D982F4
S1132080EA82FB8210928202EC81FD8109952696F8
S1132090C017D10759F7DF91CF911F910F91FF908E
S11320A0EF90DF90CF900895CF93DF93EBEEF2E0C3
S11320B025E133E080819181A281B3818F3F4FEF8D
S11320C09407A105B10559F00097A105B10539F0B0
S11320D00197A109B10980839183A283B3833696C2
S11320E0E217F30739F7DF91CF9108951F920F920A
S11320F00FB60F9211242F933F934F935F936F93D7
S11321007F938F939F93AF93BF93EF93FF9388E154
S11321109CEF90938500809384008091D70288235C
S113212009F45CC08091830290918402A09185029D
S1132130B0918602BC01CD016F5F7F4F8F4F9F4FDF
S11321406093830270938402809385029093860245
S113215028EE33E040E050E00E94F614672B682B31
S1132160692B09F047C081E08093810210928302B9
S113217010928402109285021092860280917F024E
S11321808F5F80937F0280917F0299E8899F912DD0
S113219011249295969597702CE3929F801911249F
S11321A0811128C081E08093810210927F02809186
S11321B080028F5F809380028091800299E8899FDA
S11321C0912D11249295969597702CE3929F8019E6
S11321D0112481110FC0109280020CC0109283024E
S11321E010928402109285021092860210927F024D
S11321F0109280024C9B09C080916D02882329F0C3
S113220010926D0281E080936C02359B09C080912D
S11322106B02882329F010926B0281E080936A029A
S113222080918202811102C00E945410FF91EF91AB
S1132230BF91AF919F918F917F916F915F914F91DA
S11322403F912F910F900FBE0F901F901895CF9232
S1132250DF92EF92FF920F931F93CF93DF93EBEEF6
S1132260F2E025E133E0C080D180E280F380AFEF7B
S1132270CA16DA06E104F10429F0A481B581A41791
S1132280B507E1F13696E217F30769F70091EB021F
S11322901091EC022091ED023091EE020F3F1F4F9E
S11322A02105310581F0E1EFF2E021E030E0E901C0
S11322B0C080D180E280F380AFEFCA16DA06E10471
S11322C0F104B1F402C0C0E0D0E09E01220F331F3C
S11322D0F901EC0FFD1FEE0FFF1FE551FD4F608369
S11322E0718382839383109282025583448306C050
S11322F02F5F3F4F369627303105C9F6DF91CF91D6
S11323001F910F91FF90EF90DF90CF900895CF929F
S1132310DF92EF92FF92CF93DF93EBEEF2E020E0B7
S113232030E0E901C080D180E280F380AFEFCA16CB
S1132330DA06E104F104A1F0A481B581A417B5077C
S113234079F4220F331FC20FD31FCC0FDD1FC551E9
S1132350DD4F688379838A839B831092820208C04D
S11323602F5F3F4F369627303105D9F60E9427114B
S1132370DF91CF91FF90EF90DF90CF900895CF93AE
S1132380DF93C0918202EBEEF2E0A5E1B3E04FEF00
S11323905FEF60E070E0D0E02481358128173907D1
S11323A029F44083518362837383CD2F3696EA17D1
S11323B0FB0791F7C0938202DF91CF910895EBEE72
S11323C0F2E025E133E08FEF9FEFA0E0B0E08083FF
S11323D09183A283B3833696E217F307C1F7089576
S11323E0CF93DF93CDB7DEB72A970FB6F894DEBF4D
S11323F00FBECDBF8AE0E0E6F2E0DE011196019067
S11324000D928A95E1F78091D5028823E1F08091BD
S1132410D60280FF18C02091C302822F90E001965B
S113242037E13A836AE070E00E94E2147727FB0107
S1132430E05BFD4F30813B83FC01E05BFD4F80811D
S11324408C832093C4028091CC028130A1F48091CA
S1132450D60285FF10C08CE08E8385E08F838FE4E5
S113246088878091C502E82FF0E0E05BFD4F908102
S113247099878093C6028091D802882369F080915D
S1132480D60283FF09C082E18E8383E18F8388E0D3
S113249088878BE089878A878091DE02813081F486
S11324A086E189839AE49A831B8293E09C8399E072
S11324B09D839FE49E831F8293E19887898713C03D
S11324C08250823080F486E189838AE48A831B8285
S11324D083E08C8389E08D838FE48E838CE08F830B
S11324E018868DE08987BE016F5F7F4F8091C70298
S11324F00E9492032A960FB6F894DEBF0FBECDBF9A
S1132500DF91CF910895CF93DF93CDB7DEB72A97AC
S11325100FB6F894DEBF0FBECDBF8AE0E0E6F2E06E
S1132520DE01119601900D928A95E1F78091CC021B
S1132530813059F48091D6028076803631F484E07B
S11325408A838DE08B8383E08C838091D5028823FA
S113255009F18091D60281FFE5C08091DA028130D1
S113256021F485E08A831B82DDC0823009F0DAC061
S113257085E08A8381E08B83D5C0E091DB028FEF15
S11325808E0F833038F486E08A83F0E0E05BFD4F01
S113259080818B838091D702882309F442C0809183
S11325A0D802811108C080918002809388028091B2
S11325B07F0280938702E09188028DECE89F912D41
S11325C01124969596959695A92FB0E0A05BBD4FE2
S11325D02C912E83990F292F220F220F920FE91B82
S11325E0F0E0E05BFD4F90819F839AE49887E0914F
S11325F08702E89F812D1124869586958695A82FBC
S1132600B0E0A05BBD4F9C919987880F982F990FDC
S1132610990F890FE81BF0E0E05BFD4F80818A870A
S113262004C010928802109287028091DE028823EF
S113263009F468C081E189833AE43A83E091BF02F6
S113264029E2E29FA12D1124A295AF70B0E0A05B16
S1132650BD4F8C918B838DECE89F912D1124969521
S113266096959695989F412D1124469546954695A5
S1132670440F542F550F550F450FA92FA41BB0E03D
S1132680A05BBD4F4C914C83990F492F440F440FCD
S1132690940FE91BF0E0E05BFD4F90819D8391E096
S11326A09E833F83E091C102E29F212D1124229554
S11326B02F70A22FB0E0A05BBD4F9C919887E89F3C
S11326C0912D1124969596959695989F812D112478
S11326D0869586958695880F282F220F220F820FC4
S11326E0A92FA81BB0E0A05BBD4F8C918987990FDF
S11326F0892F880F880F980FE91BF0E0E05BFD4FEE
S113270080818A8780918902811104C08091D802D6
S113271081110DC0BE016F5F7F4F8091C7020E947F
S1132720C80305C08091D60282FD27CF33CF2A96F5
S11327300FB6F894DEBF0FBECDBFDF91CF910895E1
S113274080918A02882351F010928A020E94F0112B
S11327508FE19EE40197F1F700C0000080918102AF
S1132760811104C080918902882331F00E94831270
S1132770109281021092890208951F93CF93DF93E0
S1132780CDB7DEB72A970FB6F894DEBF0FBECDBF24
S1132790182F8AE0E0E6F2E0DE01119601900D9236
S11327A08A95E1F70E9451056FED72E0812F0E9436
S11327B092032FEF80E792E0215080409040E1F7B0
S11327C000C0000085E18B83A091E902EDECAE9F8F
S11327D0E12D1124E695E695E6958E2F880F982F26
S11327E0990F990F890FA81BEE2339F0F0E0E05BF5
S11327F0FD4F80818C8384E001C083E0E1E0F0E060
S1132800EC0FFD1FE80FF11DB0E0A05BBD4F9C91E4
S1132810908391E0980FE1E0F0E0EC0FFD1FE90FE9
S1132820F11D9CE490839091EA0222E0280FE1E0FC
S1132830F0E0EC0FFD1FE20FF11D2DEC929F212D16
S11328401124269526952695A22FB0E0A05BBD4FB6
S11328503C9130838D5FE1E0F0E0EC0FFD1FE80F69
S1132860F11D822F880F282F220F220F820F981B11
S1132870A92FB0E0A05BBD4F8C918083BE016F5F38
S11328807F4F812F0E94C8032A960FB6F894DEBFAB
S11328900FBECDBFDF91CF911F9108951F920F926C
S11328A00FB60F9211242F933F934F935F936F931F
S11328B07F938F939F93AF93BF93EF93FF938091F5
S11328C0C6008093350380913503803919F08F3F1A
S11328D059F027C081E080938C0290913503909346
S11328E0150380938B022DC080918C02882349F1BB
S11328F0E0918B0221E02E0F20938B02809135030F
S1132900F0E0EB5EFC4F808310928C028091160302
S11329108093920245E153E06DE872E00E94B805AD
S113292010C080918C02882361F0E0918B0281E0D9
S11329308E0F80938B0280913503F0E0EB5EFC4FA9
S11329408083FF91EF91BF91AF919F918F917F9180
S11329506F915F914F913F912F910F900FBE0F9008
S11329601F9018959093C5008093C40088E98093C4
S1132970C10086E08093C200089583E390E00E9442
S1132980B2140895E0ECF0E0908195FFFDCF8093C0
S1132990C60008950F931F93CF93DF93EC01062F86
S11329A0662359F010E089910E94C21485E38A9548
S11329B0F1F700001F5F1013F6CFDF91CF911F9145
S11329C00F91089597FB072E16F4009407D077FD16
S11329D009D00E941E1507FC05D03EF49095819500
S11329E09F4F0895709561957F4F0895A1E21A2E27
S11329F0AA1BBB1BFD010DC0AA1FBB1FEE1FFF1F9F
S1132A00A217B307E407F50720F0A21BB30BE40BEE
S1132A10F50B661F771F881F991F1A9469F7609535
S1132A207095809590959B01AC01BD01CF010895EF
S1132A30EE0FFF1F0590F491E02D0994AA1BBB1B18
S1132A4051E107C0AA1FBB1FA617B70710F0A61BAA
S1132A50B70B881F991F5A95A9F780959095BC01CB
S1132A60CD010895F999FECF92BD81BDF89A9927B9
S1132A7080B50895262FF999FECF1FBA92BD81BD66
S1132A8020BD0FB6F894FA9AF99A0FBE01960895EC
S1072A90F894FFCFE4
S1132A9481090422FF81090444FF81090443FF815D
S1132AA4090448FF81090447FF81010424560001F5
S1132AB4FF810104742FFF810104741FFF81010449
S1132AC473301B1B1B1B1B1B1B1B1B1BFF810104C8
S1132AD473201B1B1B1B1B1B1B1B1B1BFF810104C8
S1132AE4731000000000000000000000FF810104D6
S1132AF43F017FFF8101046103FF8101046102FF3F
S1132B048101046603FF8101046602FF81010463F9
S1132B1404FF8101046300FF8101046203FF810156
S1132B24046202FF8101044200000000FF810104E9
S1132B340200FF8101044400000000FF81010443FA
S1132B4400000000FF8101043505FF810104350400
S1132B54FF8101045700FF8101043803FF8101044C
S1132B643802FF8101040833FF8101040823FF8133
S1132B7401040800FF8101044700000000FF8101F3
S1132B84040733FF8101040723FF8101040700FFC5
S1132B9400006F16F01F7D254029022C2B2EEE2FEA
S1132BA46A31B232D433D934C835A436733736389B
S1132BB4F038A039493AE83A7F3BC03C8E3C063DA4
S1132BC4733DD43D2C3E7C3EC23E003F383F683FBB
S1132BD4943FBD3FDF3F004000428044E046004A4A
S1132BE4271E1F2021222324252600010203040575
S10D2BF41B1B1B1B1B1B1B1B1B1BC5
S9030000FC
